{
  "address": "0x464D1061850f51dff1dd32498d57AAc979EE1d43",
  "abi": [
    {
      "anonymous": false,
      "inputs": [
        {
          "indexed": true,
          "internalType": "address",
          "name": "owner",
          "type": "address"
        }
      ],
      "name": "AddedOwner",
      "type": "event"
    },
    {
      "anonymous": false,
      "inputs": [
        {
          "indexed": true,
          "internalType": "bytes32",
          "name": "approvedHash",
          "type": "bytes32"
        },
        {
          "indexed": true,
          "internalType": "address",
          "name": "owner",
          "type": "address"
        }
      ],
      "name": "ApproveHash",
      "type": "event"
    },
    {
      "anonymous": false,
      "inputs": [
        {
          "indexed": true,
          "internalType": "address",
          "name": "handler",
          "type": "address"
        }
      ],
      "name": "ChangedFallbackHandler",
      "type": "event"
    },
    {
      "anonymous": false,
      "inputs": [
        {
          "indexed": true,
          "internalType": "address",
          "name": "guard",
          "type": "address"
        }
      ],
      "name": "ChangedGuard",
      "type": "event"
    },
    {
      "anonymous": false,
      "inputs": [
        {
          "indexed": false,
          "internalType": "uint256",
          "name": "threshold",
          "type": "uint256"
        }
      ],
      "name": "ChangedThreshold",
      "type": "event"
    },
    {
      "anonymous": false,
      "inputs": [
        {
          "indexed": true,
          "internalType": "address",
          "name": "module",
          "type": "address"
        }
      ],
      "name": "DisabledModule",
      "type": "event"
    },
    {
      "anonymous": false,
      "inputs": [
        {
          "indexed": true,
          "internalType": "address",
          "name": "module",
          "type": "address"
        }
      ],
      "name": "EnabledModule",
      "type": "event"
    },
    {
      "anonymous": false,
      "inputs": [
        {
          "indexed": true,
          "internalType": "bytes32",
          "name": "txHash",
          "type": "bytes32"
        },
        {
          "indexed": false,
          "internalType": "uint256",
          "name": "payment",
          "type": "uint256"
        }
      ],
      "name": "ExecutionFailure",
      "type": "event"
    },
    {
      "anonymous": false,
      "inputs": [
        {
          "indexed": true,
          "internalType": "address",
          "name": "module",
          "type": "address"
        }
      ],
      "name": "ExecutionFromModuleFailure",
      "type": "event"
    },
    {
      "anonymous": false,
      "inputs": [
        {
          "indexed": true,
          "internalType": "address",
          "name": "module",
          "type": "address"
        }
      ],
      "name": "ExecutionFromModuleSuccess",
      "type": "event"
    },
    {
      "anonymous": false,
      "inputs": [
        {
          "indexed": true,
          "internalType": "bytes32",
          "name": "txHash",
          "type": "bytes32"
        },
        {
          "indexed": false,
          "internalType": "uint256",
          "name": "payment",
          "type": "uint256"
        }
      ],
      "name": "ExecutionSuccess",
      "type": "event"
    },
    {
      "anonymous": false,
      "inputs": [
        {
          "indexed": true,
          "internalType": "address",
          "name": "owner",
          "type": "address"
        }
      ],
      "name": "RemovedOwner",
      "type": "event"
    },
    {
      "anonymous": false,
      "inputs": [
        {
          "indexed": true,
          "internalType": "address",
          "name": "sender",
          "type": "address"
        },
        {
          "indexed": false,
          "internalType": "uint256",
          "name": "value",
          "type": "uint256"
        }
      ],
      "name": "SafeReceived",
      "type": "event"
    },
    {
      "anonymous": false,
      "inputs": [
        {
          "indexed": true,
          "internalType": "address",
          "name": "initiator",
          "type": "address"
        },
        {
          "indexed": false,
          "internalType": "address[]",
          "name": "owners",
          "type": "address[]"
        },
        {
          "indexed": false,
          "internalType": "uint256",
          "name": "threshold",
          "type": "uint256"
        },
        {
          "indexed": false,
          "internalType": "address",
          "name": "initializer",
          "type": "address"
        },
        {
          "indexed": false,
          "internalType": "address",
          "name": "fallbackHandler",
          "type": "address"
        }
      ],
      "name": "SafeSetup",
      "type": "event"
    },
    {
      "anonymous": false,
      "inputs": [
        {
          "indexed": true,
          "internalType": "bytes32",
          "name": "msgHash",
          "type": "bytes32"
        }
      ],
      "name": "SignMsg",
      "type": "event"
    },
    {
      "stateMutability": "nonpayable",
      "type": "fallback"
    },
    {
      "inputs": [],
      "name": "VERSION",
      "outputs": [
        {
          "internalType": "string",
          "name": "",
          "type": "string"
        }
      ],
      "stateMutability": "view",
      "type": "function"
    },
    {
      "inputs": [
        {
          "internalType": "address",
          "name": "owner",
          "type": "address"
        },
        {
          "internalType": "uint256",
          "name": "_threshold",
          "type": "uint256"
        }
      ],
      "name": "addOwnerWithThreshold",
      "outputs": [],
      "stateMutability": "nonpayable",
      "type": "function"
    },
    {
      "inputs": [
        {
          "internalType": "bytes32",
          "name": "hashToApprove",
          "type": "bytes32"
        }
      ],
      "name": "approveHash",
      "outputs": [],
      "stateMutability": "nonpayable",
      "type": "function"
    },
    {
      "inputs": [
        {
          "internalType": "address",
          "name": "",
          "type": "address"
        },
        {
          "internalType": "bytes32",
          "name": "",
          "type": "bytes32"
        }
      ],
      "name": "approvedHashes",
      "outputs": [
        {
          "internalType": "uint256",
          "name": "",
          "type": "uint256"
        }
      ],
      "stateMutability": "view",
      "type": "function"
    },
    {
      "inputs": [
        {
          "internalType": "uint256",
          "name": "_threshold",
          "type": "uint256"
        }
      ],
      "name": "changeThreshold",
      "outputs": [],
      "stateMutability": "nonpayable",
      "type": "function"
    },
    {
      "inputs": [
        {
          "internalType": "address",
          "name": "executor",
          "type": "address"
        },
        {
          "internalType": "bytes32",
          "name": "dataHash",
          "type": "bytes32"
        },
        {
          "internalType": "bytes",
          "name": "signatures",
          "type": "bytes"
        },
        {
          "internalType": "uint256",
          "name": "requiredSignatures",
          "type": "uint256"
        }
      ],
      "name": "checkNSignatures",
      "outputs": [],
      "stateMutability": "view",
      "type": "function"
    },
    {
      "inputs": [
        {
          "internalType": "bytes32",
          "name": "dataHash",
          "type": "bytes32"
        },
        {
          "internalType": "bytes",
          "name": "",
          "type": "bytes"
        },
        {
          "internalType": "bytes",
          "name": "signatures",
          "type": "bytes"
        }
      ],
      "name": "checkSignatures",
      "outputs": [],
      "stateMutability": "view",
      "type": "function"
    },
    {
      "inputs": [
        {
          "internalType": "bytes32",
          "name": "dataHash",
          "type": "bytes32"
        },
        {
          "internalType": "bytes",
          "name": "signatures",
          "type": "bytes"
        }
      ],
      "name": "checkSignatures",
      "outputs": [],
      "stateMutability": "view",
      "type": "function"
    },
    {
      "inputs": [
        {
          "internalType": "address",
          "name": "prevModule",
          "type": "address"
        },
        {
          "internalType": "address",
          "name": "module",
          "type": "address"
        }
      ],
      "name": "disableModule",
      "outputs": [],
      "stateMutability": "nonpayable",
      "type": "function"
    },
    {
      "inputs": [],
      "name": "domainSeparator",
      "outputs": [
        {
          "internalType": "bytes32",
          "name": "",
          "type": "bytes32"
        }
      ],
      "stateMutability": "view",
      "type": "function"
    },
    {
      "inputs": [
        {
          "internalType": "address",
          "name": "module",
          "type": "address"
        }
      ],
      "name": "enableModule",
      "outputs": [],
      "stateMutability": "nonpayable",
      "type": "function"
    },
    {
      "inputs": [
        {
          "internalType": "address",
          "name": "to",
          "type": "address"
        },
        {
          "internalType": "uint256",
          "name": "value",
          "type": "uint256"
        },
        {
          "internalType": "bytes",
          "name": "data",
          "type": "bytes"
        },
        {
          "internalType": "enum Enum.Operation",
          "name": "operation",
          "type": "uint8"
        },
        {
          "internalType": "uint256",
          "name": "safeTxGas",
          "type": "uint256"
        },
        {
          "internalType": "uint256",
          "name": "baseGas",
          "type": "uint256"
        },
        {
          "internalType": "uint256",
          "name": "gasPrice",
          "type": "uint256"
        },
        {
          "internalType": "address",
          "name": "gasToken",
          "type": "address"
        },
        {
          "internalType": "address payable",
          "name": "refundReceiver",
          "type": "address"
        },
        {
          "internalType": "bytes",
          "name": "signatures",
          "type": "bytes"
        }
      ],
      "name": "execTransaction",
      "outputs": [
        {
          "internalType": "bool",
          "name": "success",
          "type": "bool"
        }
      ],
      "stateMutability": "payable",
      "type": "function"
    },
    {
      "inputs": [
        {
          "internalType": "address",
          "name": "to",
          "type": "address"
        },
        {
          "internalType": "uint256",
          "name": "value",
          "type": "uint256"
        },
        {
          "internalType": "bytes",
          "name": "data",
          "type": "bytes"
        },
        {
          "internalType": "enum Enum.Operation",
          "name": "operation",
          "type": "uint8"
        }
      ],
      "name": "execTransactionFromModule",
      "outputs": [
        {
          "internalType": "bool",
          "name": "success",
          "type": "bool"
        }
      ],
      "stateMutability": "nonpayable",
      "type": "function"
    },
    {
      "inputs": [
        {
          "internalType": "address",
          "name": "to",
          "type": "address"
        },
        {
          "internalType": "uint256",
          "name": "value",
          "type": "uint256"
        },
        {
          "internalType": "bytes",
          "name": "data",
          "type": "bytes"
        },
        {
          "internalType": "enum Enum.Operation",
          "name": "operation",
          "type": "uint8"
        }
      ],
      "name": "execTransactionFromModuleReturnData",
      "outputs": [
        {
          "internalType": "bool",
          "name": "success",
          "type": "bool"
        },
        {
          "internalType": "bytes",
          "name": "returnData",
          "type": "bytes"
        }
      ],
      "stateMutability": "nonpayable",
      "type": "function"
    },
    {
      "inputs": [
        {
          "internalType": "address",
          "name": "start",
          "type": "address"
        },
        {
          "internalType": "uint256",
          "name": "pageSize",
          "type": "uint256"
        }
      ],
      "name": "getModulesPaginated",
      "outputs": [
        {
          "internalType": "address[]",
          "name": "array",
          "type": "address[]"
        },
        {
          "internalType": "address",
          "name": "next",
          "type": "address"
        }
      ],
      "stateMutability": "view",
      "type": "function"
    },
    {
      "inputs": [],
      "name": "getOwners",
      "outputs": [
        {
          "internalType": "address[]",
          "name": "",
          "type": "address[]"
        }
      ],
      "stateMutability": "view",
      "type": "function"
    },
    {
      "inputs": [
        {
          "internalType": "uint256",
          "name": "offset",
          "type": "uint256"
        },
        {
          "internalType": "uint256",
          "name": "length",
          "type": "uint256"
        }
      ],
      "name": "getStorageAt",
      "outputs": [
        {
          "internalType": "bytes",
          "name": "",
          "type": "bytes"
        }
      ],
      "stateMutability": "view",
      "type": "function"
    },
    {
      "inputs": [],
      "name": "getThreshold",
      "outputs": [
        {
          "internalType": "uint256",
          "name": "",
          "type": "uint256"
        }
      ],
      "stateMutability": "view",
      "type": "function"
    },
    {
      "inputs": [
        {
          "internalType": "address",
          "name": "to",
          "type": "address"
        },
        {
          "internalType": "uint256",
          "name": "value",
          "type": "uint256"
        },
        {
          "internalType": "bytes",
          "name": "data",
          "type": "bytes"
        },
        {
          "internalType": "enum Enum.Operation",
          "name": "operation",
          "type": "uint8"
        },
        {
          "internalType": "uint256",
          "name": "safeTxGas",
          "type": "uint256"
        },
        {
          "internalType": "uint256",
          "name": "baseGas",
          "type": "uint256"
        },
        {
          "internalType": "uint256",
          "name": "gasPrice",
          "type": "uint256"
        },
        {
          "internalType": "address",
          "name": "gasToken",
          "type": "address"
        },
        {
          "internalType": "address",
          "name": "refundReceiver",
          "type": "address"
        },
        {
          "internalType": "uint256",
          "name": "_nonce",
          "type": "uint256"
        }
      ],
      "name": "getTransactionHash",
      "outputs": [
        {
          "internalType": "bytes32",
          "name": "",
          "type": "bytes32"
        }
      ],
      "stateMutability": "view",
      "type": "function"
    },
    {
      "inputs": [
        {
          "internalType": "address",
          "name": "module",
          "type": "address"
        }
      ],
      "name": "isModuleEnabled",
      "outputs": [
        {
          "internalType": "bool",
          "name": "",
          "type": "bool"
        }
      ],
      "stateMutability": "view",
      "type": "function"
    },
    {
      "inputs": [
        {
          "internalType": "address",
          "name": "owner",
          "type": "address"
        }
      ],
      "name": "isOwner",
      "outputs": [
        {
          "internalType": "bool",
          "name": "",
          "type": "bool"
        }
      ],
      "stateMutability": "view",
      "type": "function"
    },
    {
      "inputs": [],
      "name": "nonce",
      "outputs": [
        {
          "internalType": "uint256",
          "name": "",
          "type": "uint256"
        }
      ],
      "stateMutability": "view",
      "type": "function"
    },
    {
      "inputs": [
        {
          "internalType": "address",
          "name": "prevOwner",
          "type": "address"
        },
        {
          "internalType": "address",
          "name": "owner",
          "type": "address"
        },
        {
          "internalType": "uint256",
          "name": "_threshold",
          "type": "uint256"
        }
      ],
      "name": "removeOwner",
      "outputs": [],
      "stateMutability": "nonpayable",
      "type": "function"
    },
    {
      "inputs": [
        {
          "internalType": "address",
          "name": "handler",
          "type": "address"
        }
      ],
      "name": "setFallbackHandler",
      "outputs": [],
      "stateMutability": "nonpayable",
      "type": "function"
    },
    {
      "inputs": [
        {
          "internalType": "address",
          "name": "guard",
          "type": "address"
        }
      ],
      "name": "setGuard",
      "outputs": [],
      "stateMutability": "nonpayable",
      "type": "function"
    },
    {
      "inputs": [
        {
          "internalType": "address[]",
          "name": "_owners",
          "type": "address[]"
        },
        {
          "internalType": "uint256",
          "name": "_threshold",
          "type": "uint256"
        },
        {
          "internalType": "address",
          "name": "to",
          "type": "address"
        },
        {
          "internalType": "bytes",
          "name": "data",
          "type": "bytes"
        },
        {
          "internalType": "address",
          "name": "fallbackHandler",
          "type": "address"
        },
        {
          "internalType": "address",
          "name": "paymentToken",
          "type": "address"
        },
        {
          "internalType": "uint256",
          "name": "payment",
          "type": "uint256"
        },
        {
          "internalType": "address payable",
          "name": "paymentReceiver",
          "type": "address"
        }
      ],
      "name": "setup",
      "outputs": [],
      "stateMutability": "nonpayable",
      "type": "function"
    },
    {
      "inputs": [
        {
          "internalType": "bytes32",
          "name": "",
          "type": "bytes32"
        }
      ],
      "name": "signedMessages",
      "outputs": [
        {
          "internalType": "uint256",
          "name": "",
          "type": "uint256"
        }
      ],
      "stateMutability": "view",
      "type": "function"
    },
    {
      "inputs": [
        {
          "internalType": "address",
          "name": "targetContract",
          "type": "address"
        },
        {
          "internalType": "bytes",
          "name": "calldataPayload",
          "type": "bytes"
        }
      ],
      "name": "simulateAndRevert",
      "outputs": [],
      "stateMutability": "nonpayable",
      "type": "function"
    },
    {
      "inputs": [
        {
          "internalType": "address",
          "name": "prevOwner",
          "type": "address"
        },
        {
          "internalType": "address",
          "name": "oldOwner",
          "type": "address"
        },
        {
          "internalType": "address",
          "name": "newOwner",
          "type": "address"
        }
      ],
      "name": "swapOwner",
      "outputs": [],
      "stateMutability": "nonpayable",
      "type": "function"
    },
    {
      "stateMutability": "payable",
      "type": "receive"
    }
  ],
  "transactionHash": "0xc1ebfe9bf31260677729460adefd77eb922854f399425217fe726c471152d695",
  "args": [],
  "numDeployments": 1,
  "solcInputHash": "7e3273cadf4394700cf7107ba792470f",
  "bytecode": "0x608060405234801561001057600080fd5b506001600455613264806100256000396000f3fe6080604052600436106101c65760003560e01c8063affed0e0116100f7578063e19a9dd911610095578063f08a032311610064578063f08a0323146105dc578063f698da25146105fc578063f8dc5dd914610666578063ffa1ad741461068657610202565b8063e19a9dd914610567578063e318b52b14610587578063e75235b8146105a7578063ed516d51146105bc57610202565b8063cc2f8452116100d1578063cc2f8452146104d9578063d4d9bdcd14610507578063d8d11f7814610527578063e009cfde1461054757610202565b8063affed0e014610483578063b4faba0914610499578063b63e800d146104b957610202565b80635ae6bd37116101645780636a7612021161013e5780636a761202146103f65780637d83297414610409578063934f3a1114610441578063a0e67e2b1461046157610202565b80635ae6bd371461037b578063610b5925146103b6578063694e80c3146103d657610202565b80632f54bf6e116101a05780632f54bf6e146102e0578063468721a7146103005780635229073f146103205780635624b25b1461034e57610202565b80630d582f13146102695780631fcac7f31461028b5780632d9ad53d146102ab57610202565b366102025760405134815233907f3d0ce9bfc3ed7d6862dbb28b2dea94561fe714a1b4d019aa8af39730d1ad7c3d9060200160405180910390a2005b34801561020e57600080fd5b507f6c9a6c4a39284e37ed1cf53d337577d14212a4870fb976a4366c693b939918d5548061023857005b60405136600082373360601b3682015260008060143601836000865af191503d6000823e81610265573d81fd5b3d81f35b34801561027557600080fd5b50610289610284366004612728565b6106cf565b005b34801561029757600080fd5b506102896102a63660046127f7565b61080c565b3480156102b757600080fd5b506102cb6102c6366004612858565b610b13565b60405190151581526020015b60405180910390f35b3480156102ec57600080fd5b506102cb6102fb366004612858565b610b4e565b34801561030c57600080fd5b506102cb61031b366004612884565b610b87565b34801561032c57600080fd5b5061034061033b366004612884565b610bc2565b6040516102d7929190612934565b34801561035a57600080fd5b5061036e61036936600461294f565b610c19565b6040516102d79190612971565b34801561038757600080fd5b506103a8610396366004612984565b60076020526000908152604090205481565b6040519081526020016102d7565b3480156103c257600080fd5b506102896103d1366004612858565b610c9f565b3480156103e257600080fd5b506102896103f1366004612984565b610db0565b6102cb6104043660046129e6565b610e27565b34801561041557600080fd5b506103a8610424366004612728565b600860209081526000928352604080842090915290825290205481565b34801561044d57600080fd5b5061028961045c366004612abf565b611158565b34801561046d57600080fd5b5061047661119f565b6040516102d79190612b70565b34801561048f57600080fd5b506103a860055481565b3480156104a557600080fd5b506102896104b4366004612b83565b611290565b3480156104c557600080fd5b506102896104d4366004612bd3565b6112b7565b3480156104e557600080fd5b506104f96104f4366004612728565b6113b9565b6040516102d7929190612cc8565b34801561051357600080fd5b50610289610522366004612984565b61156c565b34801561053357600080fd5b506103a8610542366004612cf3565b6115fa565b34801561055357600080fd5b50610289610562366004612db4565b611627565b34801561057357600080fd5b50610289610582366004612858565b611721565b34801561059357600080fd5b506102896105a2366004612ded565b611868565b3480156105b357600080fd5b506004546103a8565b3480156105c857600080fd5b506102896105d7366004612e38565b611a09565b3480156105e857600080fd5b506102896105f7366004612858565b611a23565b34801561060857600080fd5b506103a8604080517f47e79534a245952e8b16893a336b85a3d9ea9fa8c573f3d803afb92a79469218602082015246918101829052306060820152600091906080016040516020818303038152906040528051906020012091505090565b34801561067257600080fd5b50610289610681366004612e69565b611a6b565b34801561069257600080fd5b5061036e6040518060400160405280600581526020017f312e342e3100000000000000000000000000000000000000000000000000000081525081565b6106d7611ba7565b6001600160a01b03821615806106f657506001600160a01b0382166001145b8061070957506001600160a01b03821630145b1561071f5761071f64475332303360d81b611bd9565b6001600160a01b038281166000908152600260205260409020541615610750576107506411d4cc8c0d60da1b611bd9565b60026020527fe90b7bceb6e7df5418fb78d8ee546e97c83a08bbccc01a0644d599ccd2a7c2e080546001600160a01b038481166000818152604081208054939094166001600160a01b0319938416179093556001835283549091161790915560038054916107bd83612ec0565b90915550506040516001600160a01b038316907f9465fa0c962cc76958e6373a993326400c1c94f8be2fe3a952adfa7f60b2ea2690600090a280600454146108085761080881610db0565b5050565b610817816041611bfe565b82511015610848576108487f4753303230000000000000000000000000000000000000000000000000000000611bd9565b6000808060008060005b86811015610b075760418102880160208101516040820151606090920151600090811a96509094509092508490036108d5579193508391610894876041611bfe565b8210156108c4576108c47f4753303231000000000000000000000000000000000000000000000000000000611bd9565b6108d0858a8a85611c3a565b610a76565b83600103610954578260001c9450846001600160a01b03168a6001600160a01b03161415801561092657506001600160a01b03851660009081526008602090815260408083208c8452909152902054155b156108d0576108d07f4753303235000000000000000000000000000000000000000000000000000000611bd9565b601e841115610a16576040517f19457468657265756d205369676e6564204d6573736167653a0a3332000000006020820152603c81018a9052600190605c01604051602081830303815290604052805190602001206004866109b69190612ed9565b6040805160008152602081018083529390935260ff90911690820152606081018590526080810184905260a0016020604051602081039080840390855afa158015610a05573d6000803e3d6000fd5b505050602060405103519450610a76565b6040805160008152602081018083528b905260ff861691810191909152606081018490526080810183905260019060a0016020604051602081039080840390855afa158015610a69573d6000803e3d6000fd5b5050506020604051035194505b856001600160a01b0316856001600160a01b0316111580610aaf57506001600160a01b0385811660009081526002602052604090205416155b80610ac357506001600160a01b0385166001145b15610af157610af17f4753303236000000000000000000000000000000000000000000000000000000611bd9565b8495508080610aff90612ec0565b915050610852565b50505050505050505050565b600060016001600160a01b03831614801590610b4857506001600160a01b038281166000908152600160205260409020541615155b92915050565b60006001600160a01b03821660011480610b8057506001600160a01b0382811660009081526002602052604090205416155b1592915050565b6000806000610b9887878787611db8565b91509150610bab87878787600019611f08565b9250610bb8828285611f4f565b5050949350505050565b60006060600080610bd588888888611db8565b91509150610be888888888600019611f08565b9350604051925060203d0183016040523d83523d6000602085013e610c0e828286611f4f565b505094509492505050565b60606000610c28836020612eec565b67ffffffffffffffff811115610c4057610c40612754565b6040519080825280601f01601f191660200182016040528015610c6a576020820181803683370190505b50905060005b83811015610c97578481015460208083028401015280610c8f81612ec0565b915050610c70565b509392505050565b610ca7611ba7565b6001600160a01b0381161580610cc657506001600160a01b0381166001145b15610cdc57610cdc64475331303160d81b611bd9565b6001600160a01b038181166000908152600160205260409020541615610d2557610d257f4753313032000000000000000000000000000000000000000000000000000000611bd9565b600160208190527fcc69885fda6bcc1a4ace058b4a62bf5e179ea78fd58a1ccd71c22cc9b688792f80546001600160a01b03848116600081815260408082208054949095166001600160a01b031994851617909455948552835490911681179092555190917fecdf3a3effea5783a3c4c2140e677577666428d44ed9d474a0b3a4c9943f844091a250565b610db8611ba7565b600354811115610dd357610dd364475332303160d81b611bd9565b80600003610dec57610dec6423a999181960d91b611bd9565b60048190556040518181527f610f7ff2b304ae8903c3de74c60c6ab1f7d6226b3f52c5161905bb5ad4039c939060200160405180910390a150565b600080610e538d8d8d8d8d8d8d8d8d8d60056000815480929190610e4a90612ec0565b919050556115fa565b9050610e5f8184611a09565b6000610e897f4a204f620c8c5ccdca3fd54d003badd85ba500436a431f0cbda4f558c93c34c85490565b90506001600160a01b03811615610f0f57806001600160a01b03166375f0bb528f8f8f8f8f8f8f8f8f8f8f336040518d63ffffffff1660e01b8152600401610edc9c9b9a99989796959493929190612f3b565b600060405180830381600087803b158015610ef657600080fd5b505af1158015610f0a573d6000803e3d6000fd5b505050505b610f3b610f1e8a6109c4612fff565b603f610f2b8c6040612eec565b610f359190613012565b90612027565b610f47906101f4612fff565b5a1015610f7757610f777f4753303130000000000000000000000000000000000000000000000000000000611bd9565b60005a9050610fe88f8f8f8f8080601f016020809104026020016040519081016040528093929190818152602001838380828437600081840152601f19601f820116905080830192505050505050508e8c600014610fd5578e611f08565b6109c45a610fe39190612ed9565b611f08565b9350610ff55a829061203e565b905083158015611003575089155b801561100d575087155b1561103b5761103b7f4753303133000000000000000000000000000000000000000000000000000000611bd9565b6000881561105357611050828b8b8b8b612061565b90505b841561109857837f442e715f626346e8c54381002da614f62bee8d27386535b2521ec8540898556e8260405161108b91815260200190565b60405180910390a26110d3565b837f23428b18acfb3ea64b08dc0c1d296ea9c09702c09083ca5272e64d115b687d23826040516110ca91815260200190565b60405180910390a25b50506001600160a01b0381161561114757604051631264e26d60e31b81526004810183905283151560248201526001600160a01b03821690639327136890604401600060405180830381600087803b15801561112e57600080fd5b505af1158015611142573d6000803e3d6000fd5b505050505b50509b9a5050505050505050505050565b600454600081900361118d5761118d7f4753303031000000000000000000000000000000000000000000000000000000611bd9565b6111993385848461080c565b50505050565b6060600060035467ffffffffffffffff8111156111be576111be612754565b6040519080825280602002602001820160405280156111e7578160200160208202803683370190505b506001600090815260026020527fe90b7bceb6e7df5418fb78d8ee546e97c83a08bbccc01a0644d599ccd2a7c2e054919250906001600160a01b03165b6001600160a01b038116600114611288578083838151811061124857611248613034565b6001600160a01b0392831660209182029290920181019190915291811660009081526002909252604090912054168161128081612ec0565b925050611224565b509092915050565b600080825160208401855af46040518181523d60208201523d6000604083013e60403d0181fd5b6112f58a8a808060200260200160405190810160405280939291908181526020018383602002808284376000920191909152508c925061218b915050565b6001600160a01b0384161561130d5761130d8461232f565b61134d8787878080601f01602080910402602001604051908101604052809392919081815260200183838082843760009201919091525061238c92505050565b81156113645761136282600060018685612061565b505b336001600160a01b03167f141df868a6331af528e38c83b7aa03edc19be66e37ae67f9285bf4f8e3c6a1a88b8b8b8b896040516113a595949392919061304a565b60405180910390a250505050505050505050565b606060006001600160a01b0384166001148015906113dd57506113db84610b13565b155b1561140b5761140b7f4753313035000000000000000000000000000000000000000000000000000000611bd9565b8260000361143c5761143c7f4753313036000000000000000000000000000000000000000000000000000000611bd9565b8267ffffffffffffffff81111561145557611455612754565b60405190808252806020026020018201604052801561147e578160200160208202803683370190505b506001600160a01b03808616600090815260016020526040812054929450911691505b6001600160a01b038216158015906114c357506001600160a01b038216600114155b80156114ce57508381105b1561152957818382815181106114e6576114e6613034565b6001600160a01b0392831660209182029290920181019190915292811660009081526001909352604090922054909116908061152181612ec0565b9150506114a1565b6001600160a01b0382166001146115615782611546600183612ed9565b8151811061155657611556613034565b602002602001015191505b808352509250929050565b336000908152600260205260409020546001600160a01b03166115b2576115b27f4753303330000000000000000000000000000000000000000000000000000000611bd9565b336000818152600860209081526040808320858452909152808220600190555183917ff2a0eb156472d1440255b0d7c1e19cc07115d1051fe605b0dce69acfec884d9c91a350565b600061160f8c8c8c8c8c8c8c8c8c8c8c6124a9565b8051906020012090509b9a5050505050505050505050565b61162f611ba7565b6001600160a01b038116158061164e57506001600160a01b0381166001145b156116645761166464475331303160d81b611bd9565b6001600160a01b038281166000908152600160205260409020548116908216146116b1576116b17f4753313033000000000000000000000000000000000000000000000000000000611bd9565b6001600160a01b03818116600081815260016020526040808220805487861684528284208054919096166001600160a01b0319918216179095558383528054909416909355915190917faab4fa2b463f581b2b32cb3b7e3b704b9ce37cc209b5fb4d77e593ace405427691a25050565b611729611ba7565b6001600160a01b038116158015906117df57506040517f01ffc9a70000000000000000000000000000000000000000000000000000000081527f945b81480000000000000000000000000000000000000000000000000000000060048201526001600160a01b038216906301ffc9a790602401602060405180830381865afa1580156117b9573d6000803e3d6000fd5b505050506040513d601f19601f820116820180604052508101906117dd91906130b6565b155b1561180d5761180d7f4753333030000000000000000000000000000000000000000000000000000000611bd9565b7f4a204f620c8c5ccdca3fd54d003badd85ba500436a431f0cbda4f558c93c34c88190556040516001600160a01b038216907f1151116914515bc0891ff9047a6cb32cf902546f83066499bcf8ba33d2353fa290600090a250565b611870611ba7565b6001600160a01b038116158061188f57506001600160a01b0381166001145b806118a257506001600160a01b03811630145b156118b8576118b864475332303360d81b611bd9565b6001600160a01b0381811660009081526002602052604090205416156118e9576118e96411d4cc8c0d60da1b611bd9565b6001600160a01b038216158061190857506001600160a01b0382166001145b1561191e5761191e64475332303360d81b611bd9565b6001600160a01b038381166000908152600260205260409020548116908316146119535761195364475332303560d81b611bd9565b6001600160a01b03828116600081815260026020526040808220805486861680855283852080549288166001600160a01b03199384161790559589168452828420805482169096179095558383528054909416909355915190917ff8d49fc529812e9a7c5c50e69c20f0dccc0db8fa95c98bc58cc9a4f1c1299eaf91a26040516001600160a01b038216907f9465fa0c962cc76958e6373a993326400c1c94f8be2fe3a952adfa7f60b2ea2690600090a2505050565b610808826040518060200160405280600081525083611158565b611a2b611ba7565b611a348161232f565b6040516001600160a01b038216907f5ac6c46c93c8d0e53714ba3b53db3e7c046da994313d7ed0d192028bc7c228b090600090a250565b611a73611ba7565b806001600354611a839190612ed9565b1015611a9a57611a9a64475332303160d81b611bd9565b6001600160a01b0382161580611ab957506001600160a01b0382166001145b15611acf57611acf64475332303360d81b611bd9565b6001600160a01b03838116600090815260026020526040902054811690831614611b0457611b0464475332303560d81b611bd9565b6001600160a01b03828116600081815260026020526040808220805488861684529183208054929095166001600160a01b03199283161790945591815282549091169091556003805491611b57836130d8565b90915550506040516001600160a01b038316907ff8d49fc529812e9a7c5c50e69c20f0dccc0db8fa95c98bc58cc9a4f1c1299eaf90600090a28060045414611ba257611ba281610db0565b505050565b333014611bd757611bd77f4753303331000000000000000000000000000000000000000000000000000000611bd9565b565b60405162461bcd60e51b81526020600482015260056024820152816044820152606481fd5b600082600003611c1057506000610b48565b6000611c1c8385612eec565b905082611c298583613012565b14611c3357600080fd5b9392505050565b8151611c47826020612627565b1115611c7657611c767f4753303232000000000000000000000000000000000000000000000000000000611bd9565b60006020828401015190508251611ca182611c9b60208661262790919063ffffffff16565b90612627565b1115611cd057611cd07f4753303233000000000000000000000000000000000000000000000000000000611bd9565b6040517f1626ba7e00000000000000000000000000000000000000000000000000000000808252848401602001916001600160a01b03881690631626ba7e90611d1f90899086906004016130ef565b602060405180830381865afa158015611d3c573d6000803e3d6000fd5b505050506040513d601f19601f82011682018060405250810190611d609190613108565b7fffffffff000000000000000000000000000000000000000000000000000000001614611db057611db07f4753303234000000000000000000000000000000000000000000000000000000611bd9565b505050505050565b600080611de37f4a204f620c8c5ccdca3fd54d003badd85ba500436a431f0cbda4f558c93c34c85490565b915033600114801590611e0d5750336000908152600160205260409020546001600160a01b031615155b611e5d5760405162461bcd60e51b815260206004820152600560248201527f4753313034000000000000000000000000000000000000000000000000000000604482015260640160405180910390fd5b6001600160a01b03821615611eff576040517f728c29720000000000000000000000000000000000000000000000000000000081526001600160a01b0383169063728c297290611eb9908990899089908990339060040161314a565b6020604051808303816000875af1158015611ed8573d6000803e3d6000fd5b505050506040513d601f19601f82011682018060405250810190611efc9190613195565b90505b94509492505050565b60006001836001811115611f1e57611f1e612f03565b03611f36576000808551602087018986f49050611f46565b600080855160208701888a87f190505b95945050505050565b6001600160a01b03831615611fc157604051631264e26d60e31b81526004810183905281151560248201526001600160a01b03841690639327136890604401600060405180830381600087803b158015611fa857600080fd5b505af1158015611fbc573d6000803e3d6000fd5b505050505b8015611ff75760405133907f6895c13664aa4f67288b25d7a21d7aaa34916e355fb9b6fae0a139a9085becb890600090a2505050565b60405133907facd2c8702804128fdb0db2bb49f6d127dd0181c13fd45dbfe16de0930e2bd37590600090a2505050565b6000818310156120375781611c33565b5090919050565b60008282111561204d57600080fd5b60006120598385612ed9565b949350505050565b6000806001600160a01b03831615612079578261207b565b325b90506001600160a01b038416612139576120ad3a861061209b573a61209d565b855b6120a78989612627565b90611bfe565b91506000816001600160a01b03168360405160006040518083038185875af1925050503d80600081146120fc576040519150601f19603f3d011682016040523d82523d6000602084013e612101565b606091505b5050905080612133576121337f4753303131000000000000000000000000000000000000000000000000000000611bd9565b50612181565b612147856120a78989612627565b9150612154848284612643565b612181576121817f4753303132000000000000000000000000000000000000000000000000000000611bd9565b5095945050505050565b600454156121bc576121bc7f4753323030000000000000000000000000000000000000000000000000000000611bd9565b81518111156121d6576121d664475332303160d81b611bd9565b806000036121ef576121ef6423a999181960d91b611bd9565b600160005b83518110156122fc57600084828151811061221157612211613034565b6020026020010151905060006001600160a01b0316816001600160a01b0316148061224557506001600160a01b0381166001145b8061225857506001600160a01b03811630145b806122745750806001600160a01b0316836001600160a01b0316145b1561228a5761228a64475332303360d81b611bd9565b6001600160a01b0381811660009081526002602052604090205416156122bb576122bb6411d4cc8c0d60da1b611bd9565b6001600160a01b03928316600090815260026020526040902080546001600160a01b03191693821693909317909255806122f481612ec0565b9150506121f4565b506001600160a01b0316600090815260026020526040902080546001600160a01b03191660011790559051600355600455565b306001600160a01b03821603612368576123687f4753343030000000000000000000000000000000000000000000000000000000611bd9565b7f6c9a6c4a39284e37ed1cf53d337577d14212a4870fb976a4366c693b939918d555565b600160008190526020527fcc69885fda6bcc1a4ace058b4a62bf5e179ea78fd58a1ccd71c22cc9b688792f546001600160a01b0316156123ef576123ef7f4753313030000000000000000000000000000000000000000000000000000000611bd9565b6001600081905260208190527fcc69885fda6bcc1a4ace058b4a62bf5e179ea78fd58a1ccd71c22cc9b688792f80546001600160a01b03191690911790556001600160a01b0382161561080857813b61246b5761246b7f4753303032000000000000000000000000000000000000000000000000000000611bd9565b61247c826000836001600019611f08565b610808576108087f4753303030000000000000000000000000000000000000000000000000000000611bd9565b606060007fbb8310d486368db6bd6f849402fdd73ad53d316b5a4b2644ad6efe0f941286d860001b8d8d8d8d6040516124e39291906131ae565b604051908190038120612509949392918e908e908e908e908e908e908e906020016131be565b60408051601f19818403018152919052805160209091012090507f19000000000000000000000000000000000000000000000000000000000000007f01000000000000000000000000000000000000000000000000000000000000006125c2604080517f47e79534a245952e8b16893a336b85a3d9ea9fa8c573f3d803afb92a79469218602082015246918101829052306060820152600091906080016040516020818303038152906040528051906020012091505090565b6040517fff0000000000000000000000000000000000000000000000000000000000000093841660208201529290911660218301526022820152604281018290526062016040516020818303038152906040529150509b9a5050505050505050505050565b6000806126348385612fff565b905083811015611c3357600080fd5b604080516001600160a01b03841660248201526044808201849052825180830390910181526064909101909152602080820180517bffffffffffffffffffffffffffffffffffffffffffffffffffffffff167fa9059cbb000000000000000000000000000000000000000000000000000000001781528251600093929184919082896127105a03f13d80156126e357602081146126eb57600093506126f6565b8193506126f6565b600051158215171593505b5050509392505050565b6001600160a01b038116811461271557600080fd5b50565b803561272381612700565b919050565b6000806040838503121561273b57600080fd5b823561274681612700565b946020939093013593505050565b634e487b7160e01b600052604160045260246000fd5b600082601f83011261277b57600080fd5b813567ffffffffffffffff8082111561279657612796612754565b604051601f8301601f19908116603f011681019082821181831017156127be576127be612754565b816040528381528660208588010111156127d757600080fd5b836020870160208301376000602085830101528094505050505092915050565b6000806000806080858703121561280d57600080fd5b843561281881612700565b935060208501359250604085013567ffffffffffffffff81111561283b57600080fd5b6128478782880161276a565b949793965093946060013593505050565b60006020828403121561286a57600080fd5b8135611c3381612700565b80356002811061272357600080fd5b6000806000806080858703121561289a57600080fd5b84356128a581612700565b935060208501359250604085013567ffffffffffffffff8111156128c857600080fd5b6128d48782880161276a565b9250506128e360608601612875565b905092959194509250565b6000815180845260005b81811015612914576020818501810151868301820152016128f8565b506000602082860101526020601f19601f83011685010191505092915050565b821515815260406020820152600061205960408301846128ee565b6000806040838503121561296257600080fd5b50508035926020909101359150565b602081526000611c3360208301846128ee565b60006020828403121561299657600080fd5b5035919050565b60008083601f8401126129af57600080fd5b50813567ffffffffffffffff8111156129c757600080fd5b6020830191508360208285010111156129df57600080fd5b9250929050565b60008060008060008060008060008060006101408c8e031215612a0857600080fd5b612a118c612718565b9a5060208c0135995067ffffffffffffffff8060408e01351115612a3457600080fd5b612a448e60408f01358f0161299d565b909a509850612a5560608e01612875565b975060808d0135965060a08d0135955060c08d01359450612a7860e08e01612718565b9350612a876101008e01612718565b9250806101208e01351115612a9b57600080fd5b50612aad8d6101208e01358e0161276a565b90509295989b509295989b9093969950565b600080600060608486031215612ad457600080fd5b83359250602084013567ffffffffffffffff80821115612af357600080fd5b612aff8783880161276a565b93506040860135915080821115612b1557600080fd5b50612b228682870161276a565b9150509250925092565b600081518084526020808501945080840160005b83811015612b655781516001600160a01b031687529582019590820190600101612b40565b509495945050505050565b602081526000611c336020830184612b2c565b60008060408385031215612b9657600080fd5b8235612ba181612700565b9150602083013567ffffffffffffffff811115612bbd57600080fd5b612bc98582860161276a565b9150509250929050565b6000806000806000806000806000806101008b8d031215612bf357600080fd5b8a3567ffffffffffffffff80821115612c0b57600080fd5b818d0191508d601f830112612c1f57600080fd5b813581811115612c2e57600080fd5b8e60208260051b8501011115612c4357600080fd5b60208381019d50909b508d01359950612c5e60408e01612718565b985060608d0135915080821115612c7457600080fd5b50612c818d828e0161299d565b9097509550612c94905060808c01612718565b9350612ca260a08c01612718565b925060c08b01359150612cb760e08c01612718565b90509295989b9194979a5092959850565b604081526000612cdb6040830185612b2c565b90506001600160a01b03831660208301529392505050565b60008060008060008060008060008060006101408c8e031215612d1557600080fd5b8b35612d2081612700565b9a5060208c0135995060408c013567ffffffffffffffff811115612d4357600080fd5b612d4f8e828f0161299d565b909a509850612d62905060608d01612875565b965060808c0135955060a08c0135945060c08c0135935060e08c0135612d8781612700565b92506101008c0135612d9881612700565b809250506101208c013590509295989b509295989b9093969950565b60008060408385031215612dc757600080fd5b8235612dd281612700565b91506020830135612de281612700565b809150509250929050565b600080600060608486031215612e0257600080fd5b8335612e0d81612700565b92506020840135612e1d81612700565b91506040840135612e2d81612700565b809150509250925092565b60008060408385031215612e4b57600080fd5b82359150602083013567ffffffffffffffff811115612bbd57600080fd5b600080600060608486031215612e7e57600080fd5b8335612e8981612700565b92506020840135612e9981612700565b929592945050506040919091013590565b634e487b7160e01b600052601160045260246000fd5b600060018201612ed257612ed2612eaa565b5060010190565b81810381811115610b4857610b48612eaa565b8082028115828204841417610b4857610b48612eaa565b634e487b7160e01b600052602160045260246000fd5b60028110612f3757634e487b7160e01b600052602160045260246000fd5b9052565b60006101606001600160a01b038f1683528d60208401528060408401528b81840152506101808b8d828501376000838d01820152601f8c01601f19168301612f86606085018d612f19565b8a60808501528960a08501528860c0850152612fad60e08501896001600160a01b03169052565b6001600160a01b0387166101008501528184820301610120850152612fd4828201876128ee565b92505050612fee6101408301846001600160a01b03169052565b9d9c50505050505050505050505050565b80820180821115610b4857610b48612eaa565b60008261302f57634e487b7160e01b600052601260045260246000fd5b500490565b634e487b7160e01b600052603260045260246000fd5b6080808252810185905260008660a08301825b8881101561308d57823561307081612700565b6001600160a01b031682526020928301929091019060010161305d565b50602084019690965250506001600160a01b039283166040820152911660609091015292915050565b6000602082840312156130c857600080fd5b81518015158114611c3357600080fd5b6000816130e7576130e7612eaa565b506000190190565b82815260406020820152600061205960408301846128ee565b60006020828403121561311a57600080fd5b81517fffffffff0000000000000000000000000000000000000000000000000000000081168114611c3357600080fd5b60006001600160a01b03808816835286602084015260a0604084015261317360a08401876128ee565b91506131826060840186612f19565b8084166080840152509695505050505050565b6000602082840312156131a757600080fd5b5051919050565b8183823760009101908152919050565b6000610160820190508c82526001600160a01b03808d1660208401528b60408401528a60608401526131f3608084018b612f19565b60a083019890985260c082019690965260e081019490945291851661010084015290931661012082015261014001919091529594505050505056fea26469706673582212203d96957c7ba34decee93d9e4cd07da0dc94617f0e7d98cb409dfa817d3f3148564736f6c63430008140033",
  "devdoc": {
    "details": "Implementation of the PMultiSigWallet, which is a multi-sig wallet that requires a threshold of  owners to confirm a transaction before it can be executed.",
    "kind": "dev",
    "methods": {
      "addOwnerWithThreshold(address,uint256)": {
        "details": "This can only be done via a Safe transaction.",
        "params": {
          "_threshold": "New threshold.",
          "owner": "New owner address."
        }
      },
      "approveHash(bytes32)": {
        "details": "This can be used with a pre-approved hash transaction signature.      IMPORTANT: The approved hash stays approved forever. There's no revocation mechanism, so it behaves similarly to ECDSA signatures",
        "params": {
          "hashToApprove": "The hash to mark as approved for signatures that are verified by this contract."
        }
      },
      "changeThreshold(uint256)": {
        "details": "This can only be done via a Safe transaction.",
        "params": {
          "_threshold": "New threshold."
        }
      },
      "checkNSignatures(address,bytes32,bytes,uint256)": {
        "details": "Since the EIP-1271 does an external call, be mindful of reentrancy attacks.",
        "params": {
          "dataHash": "Hash of the data (could be either a message hash or transaction hash)",
          "executor": "Address that executing the transaction.         Make sure that the executor address is a legitmate executor.        Incorrectly passed the executor might reduce the threshold by 1 signature. ",
          "requiredSignatures": "Amount of required valid signatures.",
          "signatures": "Signature data that should be verified.                   Can be packed ECDSA signature ({bytes32 r}{bytes32 s}{uint8 v}), contract signature (EIP-1271) or approved hash."
        }
      },
      "checkSignatures(bytes32,bytes)": {
        "params": {
          "dataHash": "Hash of the data (could be either a message hash or transaction hash)",
          "signatures": "Signature data that should be verified.                   Can be packed ECDSA signature ({bytes32 r}{bytes32 s}{uint8 v}), contract signature (EIP-1271) or approved hash."
        }
      },
      "checkSignatures(bytes32,bytes,bytes)": {
        "details": "This function makes it compatible with previous versions.",
        "params": {
          "dataHash": "Hash of the data (could be either a message hash or transaction hash)",
          "signatures": "Signature data that should be verified.                   Can be packed ECDSA signature ({bytes32 r}{bytes32 s}{uint8 v}), contract signature (EIP-1271) or approved hash."
        }
      },
      "disableModule(address,address)": {
        "details": "This can only be done via a Safe transaction.",
        "params": {
          "module": "Module to be removed.",
          "prevModule": "Previous module in the modules linked list."
        }
      },
      "domainSeparator()": {
        "details": "Returns the domain separator for this contract, as defined in the EIP-712 standard.",
        "returns": {
          "_0": "bytes32 The domain separator hash."
        }
      },
      "enableModule(address)": {
        "details": "This can only be done via a Safe transaction.",
        "params": {
          "module": "Module to be whitelisted."
        }
      },
      "execTransaction(address,uint256,bytes,uint8,uint256,uint256,uint256,address,address,bytes)": {
        "details": "The fees are always transferred, even if the user transaction fails.      This method doesn't perform any sanity check of the transaction, such as:      - if the contract at `to` address has code or not      - if the `gasToken` is a contract or not      It is the responsibility of the caller to perform such checks.",
        "params": {
          "baseGas": "Gas costs that are independent of the transaction execution(e.g. base transaction fee, signature check, payment of the refund)",
          "data": "Data payload of Safe transaction.",
          "gasPrice": "Gas price that should be used for the payment calculation.",
          "gasToken": "Token address (or 0 if ETH) that is used for the payment.",
          "operation": "Operation type of Safe transaction.",
          "refundReceiver": "Address of receiver of gas payment (or 0 if tx.origin).",
          "safeTxGas": "Gas that should be used for the Safe transaction.",
          "signatures": "Signature data that should be verified.                   Can be packed ECDSA signature ({bytes32 r}{bytes32 s}{uint8 v}), contract signature (EIP-1271) or approved hash.",
          "to": "Destination address of Safe transaction.",
          "value": "Ether value of Safe transaction."
        },
        "returns": {
          "success": "Boolean indicating transaction's success."
        }
      },
      "execTransactionFromModule(address,uint256,bytes,uint8)": {
        "details": "Function is virtual to allow overriding for L2 singleton to emit an event for indexing.",
        "params": {
          "data": "Data payload of module transaction.",
          "operation": "Operation type of module transaction.",
          "to": "Destination address of module transaction.",
          "value": "Ether value of module transaction."
        },
        "returns": {
          "success": "Boolean flag indicating if the call succeeded."
        }
      },
      "execTransactionFromModuleReturnData(address,uint256,bytes,uint8)": {
        "params": {
          "data": "Data payload of module transaction.",
          "operation": "Operation type of module transaction.",
          "to": "Destination address of module transaction.",
          "value": "Ether value of module transaction."
        },
        "returns": {
          "returnData": "Data returned by the call.",
          "success": "Boolean flag indicating if the call succeeded."
        }
      },
      "getModulesPaginated(address,uint256)": {
        "params": {
          "pageSize": "Maximum number of modules that should be returned. Has to be > 0",
          "start": "Start of the page. Has to be a module or start pointer (0x1 address)"
        },
        "returns": {
          "array": "Array of modules.",
          "next": "Start of the next page."
        }
      },
      "getOwners()": {
        "returns": {
          "_0": "Array of Safe owners."
        }
      },
      "getStorageAt(uint256,uint256)": {
        "params": {
          "length": "- the number of words (32 bytes) of data to read",
          "offset": "- the offset in the current contract's storage in words to start reading from"
        },
        "returns": {
          "_0": "the bytes that were read."
        }
      },
      "getThreshold()": {
        "returns": {
          "_0": "Threshold number."
        }
      },
      "getTransactionHash(address,uint256,bytes,uint8,uint256,uint256,uint256,address,address,uint256)": {
        "params": {
          "_nonce": "Transaction nonce.",
          "baseGas": "Gas costs for data used to trigger the safe transaction.",
          "data": "Data payload.",
          "gasPrice": "Maximum gas price that should be used for this transaction.",
          "gasToken": "Token address (or 0 if ETH) that is used for the payment.",
          "operation": "Operation type.",
          "refundReceiver": "Address of receiver of gas payment (or 0 if tx.origin).",
          "safeTxGas": "Gas that should be used for the safe transaction.",
          "to": "Destination address.",
          "value": "Ether value."
        },
        "returns": {
          "_0": "Transaction hash."
        }
      },
      "isModuleEnabled(address)": {
        "returns": {
          "_0": "True if the module is enabled"
        }
      },
      "isOwner(address)": {
        "returns": {
          "_0": "Boolean if owner is an owner of the Safe."
        }
      },
      "removeOwner(address,address,uint256)": {
        "details": "This can only be done via a Safe transaction.",
        "params": {
          "_threshold": "New threshold.",
          "owner": "Owner address to be removed.",
          "prevOwner": "Owner that pointed to the owner to be removed in the linked list"
        }
      },
      "setFallbackHandler(address)": {
        "details": "Only fallback calls without value and with data will be forwarded.      This can only be done via a Safe transaction.      Cannot be set to the Safe itself.",
        "params": {
          "handler": "contract to handle fallback calls."
        }
      },
      "setGuard(address)": {
        "details": "Set a guard that checks transactions before execution      This can only be done via a Safe transaction.       IMPORTANT: Since a guard has full power to block Safe transaction execution,        a broken guard can cause a denial of service for the Safe. Make sure to carefully        audit the guard code and design recovery mechanisms.",
        "params": {
          "guard": "The address of the guard to be used or the 0 address to disable the guard"
        }
      },
      "setup(address[],uint256,address,bytes,address,address,uint256,address)": {
        "details": "This method can only be called once.      If a proxy was created without setting up, anyone can call setup and claim the proxy.",
        "params": {
          "_owners": "List of Safe owners.",
          "_threshold": "Number of required confirmations for a Safe transaction.",
          "data": "Data payload for optional delegate call.",
          "fallbackHandler": "Handler for fallback calls to this contract",
          "payment": "Value that should be paid",
          "paymentReceiver": "Address that should receive the payment (or 0 if tx.origin)",
          "paymentToken": "Token that should be used for the payment (0 is ETH)",
          "to": "Contract address for optional delegate call."
        }
      },
      "simulateAndRevert(address,bytes)": {
        "details": "Performs a delegatecall on a targetContract in the context of self. Internally reverts execution to avoid side effects (making it static). This method reverts with data equal to `abi.encode(bool(success), bytes(response))`. Specifically, the `returndata` after a call to this method will be: `success:bool || response.length:uint256 || response:bytes`.",
        "params": {
          "calldataPayload": "Calldata that should be sent to the target contract (encoded method name and arguments).",
          "targetContract": "Address of the contract containing the code to execute."
        }
      },
      "swapOwner(address,address,address)": {
        "details": "This can only be done via a Safe transaction.",
        "params": {
          "newOwner": "New owner address.",
          "oldOwner": "Owner address to be replaced.",
          "prevOwner": "Owner that pointed to the owner to be replaced in the linked list"
        }
      }
    },
    "title": "MultiSigWallet Contract",
    "version": 1
  },
  "userdoc": {
    "kind": "user",
    "methods": {
      "VERSION()": {
        "notice": "Returns the version of the Safe contract."
      },
      "addOwnerWithThreshold(address,uint256)": {
        "notice": "Adds the owner `owner` to the Safe and updates the threshold to `_threshold`."
      },
      "approveHash(bytes32)": {
        "notice": "Marks hash `hashToApprove` as approved."
      },
      "approvedHashes(address,bytes32)": {
        "notice": "Returns a uint if the messageHash is approved by the owner."
      },
      "changeThreshold(uint256)": {
        "notice": "Changes the threshold of the Safe to `_threshold`."
      },
      "checkNSignatures(address,bytes32,bytes,uint256)": {
        "notice": "Checks whether the signature provided is valid for the provided data and hash. Reverts otherwise."
      },
      "checkSignatures(bytes32,bytes)": {
        "notice": "Checks whether the signature provided is valid for the provided data and hash. Reverts otherwise."
      },
      "checkSignatures(bytes32,bytes,bytes)": {
        "notice": "Checks whether the signature provided is valid for the provided data and hash. Reverts otherwise."
      },
      "disableModule(address,address)": {
        "notice": "Disables the module `module` for the Safe."
      },
      "enableModule(address)": {
        "notice": "Enables the module `module` for the Safe."
      },
      "execTransaction(address,uint256,bytes,uint8,uint256,uint256,uint256,address,address,bytes)": {
        "notice": "Executes a `operation` {0: Call, 1: DelegateCall}} transaction to `to` with `value` (Native Currency)          and pays `gasPrice` * `gasLimit` in `gasToken` token to `refundReceiver`."
      },
      "execTransactionFromModule(address,uint256,bytes,uint8)": {
        "notice": "Execute `operation` (0: Call, 1: DelegateCall) to `to` with `value` (Native Token)"
      },
      "execTransactionFromModuleReturnData(address,uint256,bytes,uint8)": {
        "notice": "Execute `operation` (0: Call, 1: DelegateCall) to `to` with `value` (Native Token) and return data"
      },
      "getModulesPaginated(address,uint256)": {
        "notice": "Returns an array of modules.         If all entries fit into a single page, the next pointer will be 0x1.         If another page is present, next will be the last element of the returned array."
      },
      "getOwners()": {
        "notice": "Returns a list of Safe owners."
      },
      "getStorageAt(uint256,uint256)": {
        "notice": "Reads `length` bytes of storage in the currents contract"
      },
      "getThreshold()": {
        "notice": "Returns the number of required confirmations for a Safe transaction aka the threshold."
      },
      "getTransactionHash(address,uint256,bytes,uint8,uint256,uint256,uint256,address,address,uint256)": {
        "notice": "Returns transaction hash to be signed by owners."
      },
      "isModuleEnabled(address)": {
        "notice": "Returns if an module is enabled"
      },
      "isOwner(address)": {
        "notice": "Returns if `owner` is an owner of the Safe."
      },
      "nonce()": {
        "notice": "Returns the nonce of the Safe contract."
      },
      "removeOwner(address,address,uint256)": {
        "notice": "Removes the owner `owner` from the Safe and updates the threshold to `_threshold`."
      },
      "setFallbackHandler(address)": {
        "notice": "Set Fallback Handler to `handler` for the Safe."
      },
      "setGuard(address)": {
        "notice": "Set Transaction Guard `guard` for the Safe. Make sure you trust the guard."
      },
      "setup(address[],uint256,address,bytes,address,address,uint256,address)": {
        "notice": "Sets an initial storage of the Safe contract."
      },
      "signedMessages(bytes32)": {
        "notice": "Returns a uint if the messageHash is signed by the owner."
      },
      "swapOwner(address,address,address)": {
        "notice": "Replaces the owner `oldOwner` in the Safe with `newOwner`."
      }
    },
    "version": 1
  },
  "storageLayout": {
    "storage": [
      {
        "astId": 2340,
        "contract": "contracts/MultiSigWallet.sol:MultiSigWallet",
        "label": "singleton",
        "offset": 0,
        "slot": "0",
        "type": "t_address"
      },
      {
        "astId": 1198,
        "contract": "contracts/MultiSigWallet.sol:MultiSigWallet",
        "label": "modules",
        "offset": 0,
        "slot": "1",
        "type": "t_mapping(t_address,t_address)"
      },
      {
        "astId": 1732,
        "contract": "contracts/MultiSigWallet.sol:MultiSigWallet",
        "label": "owners",
        "offset": 0,
        "slot": "2",
        "type": "t_mapping(t_address,t_address)"
      },
      {
        "astId": 1734,
        "contract": "contracts/MultiSigWallet.sol:MultiSigWallet",
        "label": "ownerCount",
        "offset": 0,
        "slot": "3",
        "type": "t_uint256"
      },
      {
        "astId": 1736,
        "contract": "contracts/MultiSigWallet.sol:MultiSigWallet",
        "label": "threshold",
        "offset": 0,
        "slot": "4",
        "type": "t_uint256"
      },
      {
        "astId": 65,
        "contract": "contracts/MultiSigWallet.sol:MultiSigWallet",
        "label": "nonce",
        "offset": 0,
        "slot": "5",
        "type": "t_uint256"
      },
      {
        "astId": 67,
        "contract": "contracts/MultiSigWallet.sol:MultiSigWallet",
        "label": "_deprecatedDomainSeparator",
        "offset": 0,
        "slot": "6",
        "type": "t_bytes32"
      },
      {
        "astId": 72,
        "contract": "contracts/MultiSigWallet.sol:MultiSigWallet",
        "label": "signedMessages",
        "offset": 0,
        "slot": "7",
        "type": "t_mapping(t_bytes32,t_uint256)"
      },
      {
        "astId": 79,
        "contract": "contracts/MultiSigWallet.sol:MultiSigWallet",
        "label": "approvedHashes",
        "offset": 0,
        "slot": "8",
        "type": "t_mapping(t_address,t_mapping(t_bytes32,t_uint256))"
      }
    ],
    "types": {
      "t_address": {
        "encoding": "inplace",
        "label": "address",
        "numberOfBytes": "20"
      },
      "t_bytes32": {
        "encoding": "inplace",
        "label": "bytes32",
        "numberOfBytes": "32"
      },
      "t_mapping(t_address,t_address)": {
        "encoding": "mapping",
        "key": "t_address",
        "label": "mapping(address => address)",
        "numberOfBytes": "32",
        "value": "t_address"
      },
      "t_mapping(t_address,t_mapping(t_bytes32,t_uint256))": {
        "encoding": "mapping",
        "key": "t_address",
        "label": "mapping(address => mapping(bytes32 => uint256))",
        "numberOfBytes": "32",
        "value": "t_mapping(t_bytes32,t_uint256)"
      },
      "t_mapping(t_bytes32,t_uint256)": {
        "encoding": "mapping",
        "key": "t_bytes32",
        "label": "mapping(bytes32 => uint256)",
        "numberOfBytes": "32",
        "value": "t_uint256"
      },
      "t_uint256": {
        "encoding": "inplace",
        "label": "uint256",
        "numberOfBytes": "32"
      }
    }
  }
}