{
  "address": "0x87CE5275011e1E0d31eb80ddA08B541756E144aE",
  "abi": [
    {
      "inputs": [
        {
          "components": [
            {
              "internalType": "address",
              "name": "admin",
              "type": "address"
            },
            {
              "internalType": "address",
              "name": "factory",
              "type": "address"
            },
            {
              "internalType": "address",
              "name": "nft",
              "type": "address"
            },
            {
              "internalType": "address",
              "name": "router",
              "type": "address"
            }
          ],
          "internalType": "struct IPoolManager.UniswapParams",
          "name": "_uniswapParams",
          "type": "tuple"
        }
      ],
      "stateMutability": "nonpayable",
      "type": "constructor"
    },
    {
      "inputs": [
        {
          "internalType": "address",
          "name": "sender",
          "type": "address"
        }
      ],
      "name": "NoAdmin",
      "type": "error"
    },
    {
      "inputs": [
        {
          "internalType": "uint256",
          "name": "poolFee",
          "type": "uint256"
        }
      ],
      "name": "NoEnabledTickSpacing",
      "type": "error"
    },
    {
      "inputs": [
        {
          "internalType": "address",
          "name": "sellAsset",
          "type": "address"
        },
        {
          "internalType": "address",
          "name": "buyAsset",
          "type": "address"
        },
        {
          "internalType": "uint160",
          "name": "fee",
          "type": "uint160"
        }
      ],
      "name": "NoInitialSqrtPrice",
      "type": "error"
    },
    {
      "inputs": [],
      "name": "MIN_SWAP_OUT_AMOUNT",
      "outputs": [
        {
          "internalType": "uint256",
          "name": "",
          "type": "uint256"
        }
      ],
      "stateMutability": "view",
      "type": "function"
    },
    {
      "inputs": [],
      "name": "admin",
      "outputs": [
        {
          "internalType": "address",
          "name": "",
          "type": "address"
        }
      ],
      "stateMutability": "view",
      "type": "function"
    },
    {
      "inputs": [
        {
          "internalType": "address",
          "name": "sellAsset",
          "type": "address"
        },
        {
          "internalType": "address",
          "name": "buyAsset",
          "type": "address"
        },
        {
          "internalType": "uint24",
          "name": "poolFee",
          "type": "uint24"
        }
      ],
      "name": "createPool",
      "outputs": [],
      "stateMutability": "nonpayable",
      "type": "function"
    },
    {
      "inputs": [
        {
          "components": [
            {
              "internalType": "address",
              "name": "addr",
              "type": "address"
            },
            {
              "internalType": "uint256",
              "name": "amountDesired",
              "type": "uint256"
            },
            {
              "internalType": "uint256",
              "name": "amountMin",
              "type": "uint256"
            }
          ],
          "internalType": "struct IPoolManager.LpToken",
          "name": "sellAsset",
          "type": "tuple"
        },
        {
          "components": [
            {
              "internalType": "address",
              "name": "addr",
              "type": "address"
            },
            {
              "internalType": "uint256",
              "name": "amountDesired",
              "type": "uint256"
            },
            {
              "internalType": "uint256",
              "name": "amountMin",
              "type": "uint256"
            }
          ],
          "internalType": "struct IPoolManager.LpToken",
          "name": "buyAsset",
          "type": "tuple"
        },
        {
          "internalType": "address",
          "name": "owner",
          "type": "address"
        },
        {
          "internalType": "uint24",
          "name": "poolFee",
          "type": "uint24"
        },
        {
          "internalType": "uint256",
          "name": "deadline",
          "type": "uint256"
        },
        {
          "internalType": "int24",
          "name": "tickLower",
          "type": "int24"
        },
        {
          "internalType": "int24",
          "name": "tickUpper",
          "type": "int24"
        }
      ],
      "name": "createPosition",
      "outputs": [],
      "stateMutability": "nonpayable",
      "type": "function"
    },
    {
      "inputs": [
        {
          "internalType": "address",
          "name": "owner",
          "type": "address"
        },
        {
          "internalType": "uint256",
          "name": "amount0Min",
          "type": "uint256"
        },
        {
          "internalType": "uint256",
          "name": "amount1Min",
          "type": "uint256"
        },
        {
          "internalType": "uint256",
          "name": "deadline",
          "type": "uint256"
        }
      ],
      "name": "decreaseLiquidity",
      "outputs": [],
      "stateMutability": "nonpayable",
      "type": "function"
    },
    {
      "inputs": [
        {
          "internalType": "address",
          "name": "tokenIn",
          "type": "address"
        },
        {
          "internalType": "address",
          "name": "tokenOut",
          "type": "address"
        },
        {
          "internalType": "uint24",
          "name": "fee",
          "type": "uint24"
        },
        {
          "internalType": "uint256",
          "name": "amountIn",
          "type": "uint256"
        }
      ],
      "name": "exactInputSingle",
      "outputs": [
        {
          "internalType": "uint256",
          "name": "amountOut",
          "type": "uint256"
        }
      ],
      "stateMutability": "payable",
      "type": "function"
    },
    {
      "inputs": [],
      "name": "factory",
      "outputs": [
        {
          "internalType": "contract IUniswapV3Factory",
          "name": "",
          "type": "address"
        }
      ],
      "stateMutability": "view",
      "type": "function"
    },
    {
      "inputs": [
        {
          "internalType": "address",
          "name": "tokenA",
          "type": "address"
        },
        {
          "internalType": "address",
          "name": "tokenB",
          "type": "address"
        },
        {
          "internalType": "uint24",
          "name": "fee",
          "type": "uint24"
        }
      ],
      "name": "getPool",
      "outputs": [
        {
          "internalType": "address",
          "name": "pool",
          "type": "address"
        }
      ],
      "stateMutability": "view",
      "type": "function"
    },
    {
      "inputs": [
        {
          "internalType": "address",
          "name": "tokenA",
          "type": "address"
        },
        {
          "internalType": "address",
          "name": "tokenB",
          "type": "address"
        },
        {
          "internalType": "uint24",
          "name": "fee",
          "type": "uint24"
        }
      ],
      "name": "getPoolPrice",
      "outputs": [
        {
          "internalType": "uint160",
          "name": "sqrtPriceX96",
          "type": "uint160"
        }
      ],
      "stateMutability": "view",
      "type": "function"
    },
    {
      "inputs": [
        {
          "internalType": "uint256",
          "name": "tokenId",
          "type": "uint256"
        },
        {
          "components": [
            {
              "internalType": "address",
              "name": "addr",
              "type": "address"
            },
            {
              "internalType": "uint256",
              "name": "amountDesired",
              "type": "uint256"
            },
            {
              "internalType": "uint256",
              "name": "amountMin",
              "type": "uint256"
            }
          ],
          "internalType": "struct IPoolManager.LpToken",
          "name": "sellAsset",
          "type": "tuple"
        },
        {
          "components": [
            {
              "internalType": "address",
              "name": "addr",
              "type": "address"
            },
            {
              "internalType": "uint256",
              "name": "amountDesired",
              "type": "uint256"
            },
            {
              "internalType": "uint256",
              "name": "amountMin",
              "type": "uint256"
            }
          ],
          "internalType": "struct IPoolManager.LpToken",
          "name": "buyAsset",
          "type": "tuple"
        },
        {
          "internalType": "uint256",
          "name": "deadline",
          "type": "uint256"
        }
      ],
      "name": "increaseLiquidity",
      "outputs": [],
      "stateMutability": "nonpayable",
      "type": "function"
    },
    {
      "inputs": [
        {
          "internalType": "bytes32",
          "name": "",
          "type": "bytes32"
        }
      ],
      "name": "initialSqrtPrice",
      "outputs": [
        {
          "internalType": "uint160",
          "name": "",
          "type": "uint160"
        }
      ],
      "stateMutability": "view",
      "type": "function"
    },
    {
      "inputs": [
        {
          "internalType": "uint256",
          "name": "",
          "type": "uint256"
        }
      ],
      "name": "liquidities",
      "outputs": [
        {
          "internalType": "uint128",
          "name": "",
          "type": "uint128"
        }
      ],
      "stateMutability": "view",
      "type": "function"
    },
    {
      "inputs": [],
      "name": "positionManager",
      "outputs": [
        {
          "internalType": "contract IUniswapPositionManager",
          "name": "",
          "type": "address"
        }
      ],
      "stateMutability": "view",
      "type": "function"
    },
    {
      "inputs": [],
      "name": "router",
      "outputs": [
        {
          "internalType": "contract ISwapRouter",
          "name": "",
          "type": "address"
        }
      ],
      "stateMutability": "view",
      "type": "function"
    },
    {
      "inputs": [
        {
          "internalType": "address",
          "name": "sellToken",
          "type": "address"
        },
        {
          "internalType": "address",
          "name": "buyToken",
          "type": "address"
        },
        {
          "internalType": "uint24",
          "name": "fee",
          "type": "uint24"
        },
        {
          "internalType": "uint160",
          "name": "sqrtPriceX96",
          "type": "uint160"
        }
      ],
      "name": "setInitialSqrtPrice",
      "outputs": [],
      "stateMutability": "nonpayable",
      "type": "function"
    }
  ],
  "transactionHash": "0x3afd68b8b938915ff9302092ac7e576cf3ccac25455e74c3b4ccc8b5c7928d81",
  "args": [
    {
      "admin": "0x6ac76948F29A12Dde050b928D35F1506aFC3c0f2",
      "factory": "0x5140A77E94Db57EEc83A607A40C295A43474d345",
      "nft": "0xF91265aFA642f11fA0B12a2d3a0AB6a304367361",
      "router": "0xBB47D2a339dcFce541F1080E43396ae84cd72Bf1"
    }
  ],
  "numDeployments": 1,
  "solcInputHash": "2fd20d911d8de013566405c6f17dd1a7",
  "bytecode": "0x6080346200010857601f620015fe38819003918201601f19168301926001600160401b0392909183851183861017620000f257816080928492604097885283398101031262000108578251916080830190811183821017620000f257835260606200006a826200010d565b928381526200007c602084016200010d565b90816020820152620000a283620000958887016200010d565b958689850152016200010d565b928391015260018060a01b03928380928160018060a01b03199716876003541617600355168560005416176000551683600154161760015516906002541617600255516114db9081620001238239f35b634e487b7160e01b600052604160045260246000fd5b600080fd5b51906001600160a01b0382168203620001085756fe608080604052600436101561001357600080fd5b600090813560e01c9081630713051d14611237575080631698ee82146111825780632316690a14610d3e57806324f8c1be14610d225780633307452214610a6357806354908d89146108cf5780636834155b146107a9578063791b98bc14610782578063819a566014610472578063a16712951461022d578063a67f3e3b1461016f578063ab2ce1241461013c578063c45a015514610116578063f851a440146100ef5763f887ea40146100c657600080fd5b346100ec57806003193601126100ec5760206001600160a01b0360025416604051908152f35b80fd5b50346100ec57806003193601126100ec5760206001600160a01b0360035416604051908152f35b50346100ec57806003193601126100ec576001600160a01b036020915416604051908152f35b50346100ec5760203660031901126100ec576001600160a01b036040602092600435815260068452205416604051908152f35b50346100ec5760803660031901126100ec57610189611270565b610191611286565b9061019a61129c565b606435926001600160a01b03808516809503610229576003541633036101f9576101c39261141d565b8252600660205260408220907fffffffffffffffffffffffff000000000000000000000000000000000000000082541617905580f35b60246040517f98592959000000000000000000000000000000000000000000000000000000008152336004820152fd5b8580fd5b50346100ec5760603660031901126100ec57610247611270565b61024f611286565b9061025861129c565b6001600160a01b0390816003541633036101f957828216908483168083101561046a57849286955b8589541693604051986322afcccb60e01b8a528a62ffffff8316968760048d015260209b8c81602481855afa908115610372578391610431575b5060020b156103ba575b50506102cf9261141d565b8852600687528460408920541691821561037d575050918660849285948896600154169186604051998a9889977f13ead562000000000000000000000000000000000000000000000000000000008952166004880152166024860152604485015260648401525af1801561037257610345578280f35b8161036492903d1061036b575b61035c81836112de565b810190611300565b5038808280f35b503d610352565b6040513d85823e3d90fd5b9083606492604051927f1140bfd4000000000000000000000000000000000000000000000000000000008452600484015260248301526044820152fd5b803b1561042d578180916044604051809481937f8a7c195f0000000000000000000000000000000000000000000000000000000083528d6004840152600a60248401525af1801561042257156102c457610413906112ae565b61041e578a386102c4565b8a80fd5b6040513d84823e3d90fd5b5080fd5b90508c81813d8311610463575b61044881836112de565b8101031261045f576104599061131f565b386102ba565b8280fd5b503d61043e565b859285610280565b5060803660031901126100ec57610487611270565b61048f611286565b6001600160a01b03806104a061129c565b9316911680821015610767576401000276a4905b6040519361010085019185831067ffffffffffffffff841117610751576001600160a01b039462ffffff936040528652602086015216604084015233606084015242608084015260643560a0840152600160c08401521660e08201528160206001600160a01b0382541660246001600160a01b036002541660405194859384927f24d7806c00000000000000000000000000000000000000000000000000000000845260048401525af1908115610372578391610717575b50156106b3575b602060e06101046001600160a01b039385856002541660405196879586947f414bf389000000000000000000000000000000000000000000000000000000008652828151166004870152828982015116602487015262ffffff60408201511660448701528260608201511660648701526080810151608487015260a081015160a487015260c081015160c487015201511660e48401525af1908115610422578291610681575b50816001600160a01b038154166001600160a01b036002541690803b1561045f576024839260405194859384926305e17d4f60e21b845260048401525af180156103725761066d575b602082604051908152f35b61067783916112ae565b61042d5781610662565b90506020813d6020116106ab575b8161069c602093836112de565b8101031261042d575138610619565b3d915061068f565b816001600160a01b038154166001600160a01b0360025416813b1561045f578291602483926040519485938492637048027560e01b845260048401525af1801561042257610703575b5050610573565b61070c906112ae565b61042d5781386106fc565b90506020813d602011610749575b81610732602093836112de565b8101031261045f5761074390611410565b3861056c565b3d9150610725565b634e487b7160e01b600052604160045260246000fd5b73fffd8963efd1fc6a506488495d951d5263988d25906104b4565b50346100ec57806003193601126100ec5760206001600160a01b0360015416604051908152f35b50346100ec576101003660031901126100ec5760608060231936011261042d578060831936011261042d576001600160a01b0390816003541633036101f95760405160c081019080821067ffffffffffffffff831117610751578291604052600435815260c46020820191604435835286604082019660a4358852858301906064358252608084018535815260a085019160e435835260015416926040519a8b9889977f219f5d170000000000000000000000000000000000000000000000000000000089525160048901525160248801525160448701525160648601525160848501525160a48401525af18015610372576108a3578280f35b81813d83116108c8575b6108b781836112de565b8101031261042d576103649061132d565b503d6108ad565b50346100ec5760603660031901126100ec576108e9611270565b9061094660206108f7611286565b9361090061129c565b8454604051630b4c774160e11b81526001600160a01b039384166004820152968316602488015262ffffff90911660448701529094928391861690829081906064820190565b03915afa90811561042257839160e0918491610a45575b506004604051809681937f3850c7bd000000000000000000000000000000000000000000000000000000008352165afa918215610a395780926109a8575b6020838360405191168152f35b90915060e0833d60e011610a31575b816109c460e093836112de565b810103126100ec5782519082821682036100ec576109e46020850161131f565b506109f160408501611496565b506109fe60608501611496565b50610a0b60808501611496565b5060a084015160ff8116036100ec5750610a2960c060209401611410565b50903861099b565b3d91506109b7565b604051903d90823e3d90fd5b610a5d915060203d811161036b5761035c81836112de565b3861095d565b50346100ec5760808060031936011261042d57610a7e611270565b91606435906001600160a01b03916003928084541633036101f9576024948535928260443598168552602091600483526040862098604051610abf816112c2565b8781528785820152876040820152878360609282848201520152875b8b54811015610d1e5788610aef828e61134a565b9054908c1b1c8082526005885260408220546001906fffffffffffffffffffffffffffffffff1681871015610c1557918a610ba792604094855193610b33856112c2565b84528c8401528d8584015288888401528a8a8401525416908351948580948193630624e65f60e11b83526004830191909160808060a0830194805184526fffffffffffffffffffffffffffffffff602082015116602085015260408101516040850152606081015160608501520151910152565b03925af18015610c0a57610bdc575b505b6000198114610bc957600101610adb565b8a89634e487b7160e01b81526011600452fd5b610bfd9060403d604011610c03575b610bf581836112de565b8101906113fa565b50610bb6565b503d610beb565b6040513d8c823e3d90fd5b959a909192610d0b57996000198101908111610cf6576000928a604093610cb79398855193610c43856112c2565b84528c840152858584015280888401528a8a8401525416908351948580948193630624e65f60e11b83526004830191909160808060a0830194805184526fffffffffffffffffffffffffffffffff602082015116602085015260408101516040850152606081015160608501520151910152565b03925af18015610cea57610ccc575b50610bb8565b610ce49060403d604011610c0357610bf581836112de565b50610cc6565b6040513d6000823e3d90fd5b8d634e487b7160e01b60005260116004526000fd5b8d8c634e487b7160e01b81526011600452fd5b8880f35b50346100ec57806003193601126100ec57602060405160018152f35b50346100ec57610160366003190181811261045f5760601361042d57606036606319011261042d5760c435906001600160a01b038216820361045f5760e4359062ffffff8216820361109757610124358060020b810361117e5761014435918260020b8303610229576001600160a01b036003541633036101f9576001600160a01b038654166040516322afcccb60e01b815262ffffff86166004820152602081602481855afa908115611173578891611135575b5060020b156110ff5786906001600160a01b036001541690803b1561045f57602483926040519485938492637048027560e01b845260048401525af180156110f4576110e1575b50600435936001600160a01b03851685036110dc57606435946001600160a01b03861686036110dc5760405195868481011067ffffffffffffffff8589011117610751576001600160a01b03809262ffffff95890160405216875216602086015216604084015260020b606083015260020b608082015260243560a082015260843560c082015260443560e082015260a4356101008201526001600160a01b0382166101208201526101043561014082015260806101406101646001600160a01b0360015416938660405195869485937f883164560000000000000000000000000000000000000000000000000000000085526001600160a01b0381511660048601526001600160a01b03602082015116602486015262ffffff6040820151166044860152606081015160020b60648601528781015160020b608486015260a081015160a486015260c081015160c486015260e081015160e48601526101008101516101048601526001600160a01b036101208201511661012486015201516101448401525af1918215610372578391849361109b575b50836001600160a01b038154166001600160a01b0360015416813b1561045f5782916024839260405194859384926305e17d4f60e21b845260048401525af1801561042257611083575b50506001600160a01b03168352600460205261103a8160408520611378565b50825260056020526fffffffffffffffffffffffffffffffff6040832091167fffffffffffffffffffffffffffffffff0000000000000000000000000000000082541617905580f35b61108c906112ae565b61109757833861101b565b8380fd5b915091506080813d82116110d4575b816110b7608093836112de565b8101031261045f576110cd60208251920161132d565b9138610fd1565b3d91506110aa565b600080fd5b6110ed909691966112ae565b9438610e3a565b6040513d89823e3d90fd5b60248562ffffff604051917f7da9b5c3000000000000000000000000000000000000000000000000000000008352166004820152fd5b90506020813d60201161116b575b81611150602093836112de565b81010312611167576111619061131f565b38610df3565b8780fd5b3d9150611143565b6040513d8a823e3d90fd5b8480fd5b50346100ec5760603660031901126100ec576111fa61119f611270565b60206111a9611286565b916111b261129c565b8554604051630b4c774160e11b81526001600160a01b039384166004820152948316602486015262ffffff909116604485015292939092849190841690829081906064820190565b03915afa9182156103725760209392611218575b5060405191168152f35b611230919250833d811161036b5761035c81836112de565b903861120e565b90503461042d57602036600319011261042d576fffffffffffffffffffffffffffffffff60406020936004358152600585522054168152f35b600435906001600160a01b03821682036110dc57565b602435906001600160a01b03821682036110dc57565b6044359062ffffff821682036110dc57565b67ffffffffffffffff811161075157604052565b60a0810190811067ffffffffffffffff82111761075157604052565b90601f8019910116810190811067ffffffffffffffff82111761075157604052565b908160209103126110dc57516001600160a01b03811681036110dc5790565b51908160020b82036110dc57565b51906fffffffffffffffffffffffffffffffff821682036110dc57565b80548210156113625760005260206000200190600090565b634e487b7160e01b600052603260045260246000fd5b919060018301600090828252806020526040822054156000146113f457845494680100000000000000008610156113e0576113bd86600160409697980183558261134a565b81549060031b9087821b91600019901b1916179055549382526020522055600190565b602483634e487b7160e01b81526041600452fd5b50925050565b91908260409103126110dc576020825192015190565b519081151582036110dc57565b90917fffffff0000000000000000000000000000000000000000000000000000000000906040519260208401946bffffffffffffffffffffffff19809260601b16865260601b16603484015260e81b166048820152602b81526060810181811067ffffffffffffffff8211176107515760405251902090565b519061ffff821682036110dc5756fea264697066735822122004e0250dd2869564f9e8b318c6c87a9844085f6d6b23bc8eb8eb95cb3251cd9464736f6c63430008140033",
  "devdoc": {
    "details": "The  Pool Manager contract manages liquidity pools and positions on Uniswap V3.",
    "errors": {
      "NoAdmin(address)": [
        {
          "details": "Error thrown when no admin is found for the given address.",
          "params": {
            "sender": "The address for which no admin was found."
          }
        }
      ],
      "NoEnabledTickSpacing(uint256)": [
        {
          "details": "Error thrown when no enabled tick spacing is found for the given pool fee.",
          "params": {
            "poolFee": "The pool fee for which no enabled tick spacing was found."
          }
        }
      ],
      "NoInitialSqrtPrice(address,address,uint160)": [
        {
          "details": "Error thrown when no initial sqrt price is set for the given sell and buy assets.",
          "params": {
            "buyAsset": "The address of the buy asset.",
            "fee": "The fee of the pool.",
            "sellAsset": "The address of the sell asset."
          }
        }
      ]
    },
    "kind": "dev",
    "methods": {
      "constructor": {
        "details": "Constructor to initialize the contract.",
        "params": {
          "_uniswapParams": "The Uniswap parameters."
        }
      },
      "createPool(address,address,uint24)": {
        "details": "Creates a new pool for the given tokens and fee.",
        "params": {
          "buyAsset": "The address of the buy asset.",
          "poolFee": "The fee of the pool.",
          "sellAsset": "The address of the sell asset."
        }
      },
      "createPosition((address,uint256,uint256),(address,uint256,uint256),address,uint24,uint256,int24,int24)": {
        "details": "Creates a new liquidity position for the given assets and owner.",
        "params": {
          "buyAsset": "The LP token for the buy asset.",
          "deadline": "The deadline for the transaction.",
          "owner": "The address of the owner.",
          "poolFee": "The fee of the pool.",
          "sellAsset": "The LP token for the sell asset.",
          "tickLower": "The lower tick for the position.",
          "tickUpper": "The upper tick for the position."
        }
      },
      "decreaseLiquidity(address,uint256,uint256,uint256)": {
        "details": "Decreases liquidity for a given position.",
        "params": {
          "amount0Min": "Minimum amount of token0.",
          "amount1Min": "Minimum amount of token1.",
          "deadline": "Deadline for the transaction.",
          "owner": "Address of the position owner."
        }
      },
      "exactInputSingle(address,address,uint24,uint256)": {
        "details": "Executes a swap operation with exact input amount.",
        "params": {
          "amountIn": "Input token amount.",
          "fee": "Fee tier of the pool.",
          "tokenIn": "Address of the input token.",
          "tokenOut": "Address of the output token."
        },
        "returns": {
          "amountOut": "Output token amount."
        }
      },
      "getPool(address,address,uint24)": {
        "details": "Returns the address of the pool for the given tokens and fee.",
        "params": {
          "fee": "The fee of the pool.",
          "tokenA": "The address of token A.",
          "tokenB": "The address of token B."
        },
        "returns": {
          "pool": "The address of the pool."
        }
      },
      "getPoolPrice(address,address,uint24)": {
        "details": "Gets the price of a pool.",
        "params": {
          "fee": "Fee tier of the pool.",
          "tokenA": "Address of the first token.",
          "tokenB": "Address of the second token."
        },
        "returns": {
          "sqrtPriceX96": "Current sqrt price of the pool."
        }
      },
      "increaseLiquidity(uint256,(address,uint256,uint256),(address,uint256,uint256),uint256)": {
        "details": "Increases liquidity for a given position.",
        "params": {
          "buyAsset": "Details of the buy asset.",
          "deadline": "Deadline for the transaction.",
          "sellAsset": "Details of the sell asset.",
          "tokenId": "Token ID of the position."
        }
      },
      "setInitialSqrtPrice(address,address,uint24,uint160)": {
        "details": "Sets the initial sqrt price for a pool.",
        "params": {
          "buyToken": "Address of the buy token.",
          "fee": "Fee tier of the pool.",
          "sellToken": "Address of the sell token.",
          "sqrtPriceX96": "Initial sqrt price of the pool."
        }
      }
    },
    "stateVariables": {
      "MIN_SWAP_OUT_AMOUNT": {
        "details": "Minimum swap out amount."
      },
      "admin": {
        "details": "The admin address."
      },
      "factory": {
        "details": "The Uniswap V3 factory contract."
      },
      "initialSqrtPrice": {
        "details": "Mapping of pool IDs to initial sqrt prices."
      },
      "liquidities": {
        "details": "Mapping of token IDs to liquidity amounts."
      },
      "positionManager": {
        "details": "The Uniswap position manager contract."
      },
      "router": {
        "details": "The swap router contract."
      },
      "tokenIds": {
        "details": "Mapping of token IDs to EnumerableSet of uints."
      }
    },
    "title": "PoolManager",
    "version": 1
  },
  "userdoc": {
    "kind": "user",
    "methods": {},
    "notice": "This contract is used to interact with Uniswap V3 pools and positions.",
    "version": 1
  },
  "storageLayout": {
    "storage": [
      {
        "astId": 11701,
        "contract": "contracts/PoolManager.sol:PoolManager",
        "label": "factory",
        "offset": 0,
        "slot": "0",
        "type": "t_contract(IUniswapV3Factory)13846"
      },
      {
        "astId": 11705,
        "contract": "contracts/PoolManager.sol:PoolManager",
        "label": "positionManager",
        "offset": 0,
        "slot": "1",
        "type": "t_contract(IUniswapPositionManager)13367"
      },
      {
        "astId": 11709,
        "contract": "contracts/PoolManager.sol:PoolManager",
        "label": "router",
        "offset": 0,
        "slot": "2",
        "type": "t_contract(ISwapRouter)16297"
      },
      {
        "astId": 11712,
        "contract": "contracts/PoolManager.sol:PoolManager",
        "label": "admin",
        "offset": 0,
        "slot": "3",
        "type": "t_address"
      },
      {
        "astId": 11720,
        "contract": "contracts/PoolManager.sol:PoolManager",
        "label": "tokenIds",
        "offset": 0,
        "slot": "4",
        "type": "t_mapping(t_address,t_struct(UintSet)7238_storage)"
      },
      {
        "astId": 11725,
        "contract": "contracts/PoolManager.sol:PoolManager",
        "label": "liquidities",
        "offset": 0,
        "slot": "5",
        "type": "t_mapping(t_uint256,t_uint128)"
      },
      {
        "astId": 11730,
        "contract": "contracts/PoolManager.sol:PoolManager",
        "label": "initialSqrtPrice",
        "offset": 0,
        "slot": "6",
        "type": "t_mapping(t_bytes32,t_uint160)"
      }
    ],
    "types": {
      "t_address": {
        "encoding": "inplace",
        "label": "address",
        "numberOfBytes": "20"
      },
      "t_array(t_bytes32)dyn_storage": {
        "base": "t_bytes32",
        "encoding": "dynamic_array",
        "label": "bytes32[]",
        "numberOfBytes": "32"
      },
      "t_bytes32": {
        "encoding": "inplace",
        "label": "bytes32",
        "numberOfBytes": "32"
      },
      "t_contract(ISwapRouter)16297": {
        "encoding": "inplace",
        "label": "contract ISwapRouter",
        "numberOfBytes": "20"
      },
      "t_contract(IUniswapPositionManager)13367": {
        "encoding": "inplace",
        "label": "contract IUniswapPositionManager",
        "numberOfBytes": "20"
      },
      "t_contract(IUniswapV3Factory)13846": {
        "encoding": "inplace",
        "label": "contract IUniswapV3Factory",
        "numberOfBytes": "20"
      },
      "t_mapping(t_address,t_struct(UintSet)7238_storage)": {
        "encoding": "mapping",
        "key": "t_address",
        "label": "mapping(address => struct EnumerableSet.UintSet)",
        "numberOfBytes": "32",
        "value": "t_struct(UintSet)7238_storage"
      },
      "t_mapping(t_bytes32,t_uint160)": {
        "encoding": "mapping",
        "key": "t_bytes32",
        "label": "mapping(bytes32 => uint160)",
        "numberOfBytes": "32",
        "value": "t_uint160"
      },
      "t_mapping(t_bytes32,t_uint256)": {
        "encoding": "mapping",
        "key": "t_bytes32",
        "label": "mapping(bytes32 => uint256)",
        "numberOfBytes": "32",
        "value": "t_uint256"
      },
      "t_mapping(t_uint256,t_uint128)": {
        "encoding": "mapping",
        "key": "t_uint256",
        "label": "mapping(uint256 => uint128)",
        "numberOfBytes": "32",
        "value": "t_uint128"
      },
      "t_struct(Set)6766_storage": {
        "encoding": "inplace",
        "label": "struct EnumerableSet.Set",
        "members": [
          {
            "astId": 6761,
            "contract": "contracts/PoolManager.sol:PoolManager",
            "label": "_values",
            "offset": 0,
            "slot": "0",
            "type": "t_array(t_bytes32)dyn_storage"
          },
          {
            "astId": 6765,
            "contract": "contracts/PoolManager.sol:PoolManager",
            "label": "_positions",
            "offset": 0,
            "slot": "1",
            "type": "t_mapping(t_bytes32,t_uint256)"
          }
        ],
        "numberOfBytes": "64"
      },
      "t_struct(UintSet)7238_storage": {
        "encoding": "inplace",
        "label": "struct EnumerableSet.UintSet",
        "members": [
          {
            "astId": 7237,
            "contract": "contracts/PoolManager.sol:PoolManager",
            "label": "_inner",
            "offset": 0,
            "slot": "0",
            "type": "t_struct(Set)6766_storage"
          }
        ],
        "numberOfBytes": "64"
      },
      "t_uint128": {
        "encoding": "inplace",
        "label": "uint128",
        "numberOfBytes": "16"
      },
      "t_uint160": {
        "encoding": "inplace",
        "label": "uint160",
        "numberOfBytes": "20"
      },
      "t_uint256": {
        "encoding": "inplace",
        "label": "uint256",
        "numberOfBytes": "32"
      }
    }
  }
}