{
  "address": "0x5140A77E94Db57EEc83A607A40C295A43474d345",
  "abi": [
    {
      "inputs": [
        {
          "internalType": "address",
          "name": "_owner",
          "type": "address"
        }
      ],
      "stateMutability": "nonpayable",
      "type": "constructor"
    },
    {
      "anonymous": false,
      "inputs": [
        {
          "indexed": true,
          "internalType": "uint24",
          "name": "fee",
          "type": "uint24"
        },
        {
          "indexed": true,
          "internalType": "int24",
          "name": "tickSpacing",
          "type": "int24"
        }
      ],
      "name": "FeeAmountEnabled",
      "type": "event"
    },
    {
      "anonymous": false,
      "inputs": [
        {
          "indexed": true,
          "internalType": "address",
          "name": "oldOwner",
          "type": "address"
        },
        {
          "indexed": true,
          "internalType": "address",
          "name": "newOwner",
          "type": "address"
        }
      ],
      "name": "OwnerChanged",
      "type": "event"
    },
    {
      "anonymous": false,
      "inputs": [
        {
          "indexed": true,
          "internalType": "address",
          "name": "token0",
          "type": "address"
        },
        {
          "indexed": true,
          "internalType": "address",
          "name": "token1",
          "type": "address"
        },
        {
          "indexed": true,
          "internalType": "uint24",
          "name": "fee",
          "type": "uint24"
        },
        {
          "indexed": false,
          "internalType": "int24",
          "name": "tickSpacing",
          "type": "int24"
        },
        {
          "indexed": false,
          "internalType": "address",
          "name": "pool",
          "type": "address"
        }
      ],
      "name": "PoolCreated",
      "type": "event"
    },
    {
      "inputs": [
        {
          "internalType": "address",
          "name": "_admin",
          "type": "address"
        }
      ],
      "name": "addAdmin",
      "outputs": [],
      "stateMutability": "nonpayable",
      "type": "function"
    },
    {
      "inputs": [
        {
          "internalType": "address",
          "name": "tokenA",
          "type": "address"
        },
        {
          "internalType": "address",
          "name": "tokenB",
          "type": "address"
        },
        {
          "internalType": "uint24",
          "name": "fee",
          "type": "uint24"
        }
      ],
      "name": "createPool",
      "outputs": [
        {
          "internalType": "address",
          "name": "pool",
          "type": "address"
        }
      ],
      "stateMutability": "nonpayable",
      "type": "function"
    },
    {
      "inputs": [
        {
          "internalType": "uint24",
          "name": "fee",
          "type": "uint24"
        },
        {
          "internalType": "int24",
          "name": "tickSpacing",
          "type": "int24"
        }
      ],
      "name": "enableFeeAmount",
      "outputs": [],
      "stateMutability": "nonpayable",
      "type": "function"
    },
    {
      "inputs": [
        {
          "internalType": "uint24",
          "name": "",
          "type": "uint24"
        }
      ],
      "name": "feeAmountTickSpacing",
      "outputs": [
        {
          "internalType": "int24",
          "name": "",
          "type": "int24"
        }
      ],
      "stateMutability": "view",
      "type": "function"
    },
    {
      "inputs": [
        {
          "internalType": "address",
          "name": "",
          "type": "address"
        },
        {
          "internalType": "address",
          "name": "",
          "type": "address"
        },
        {
          "internalType": "uint24",
          "name": "",
          "type": "uint24"
        }
      ],
      "name": "getPool",
      "outputs": [
        {
          "internalType": "address",
          "name": "",
          "type": "address"
        }
      ],
      "stateMutability": "view",
      "type": "function"
    },
    {
      "inputs": [
        {
          "internalType": "address",
          "name": "_admin",
          "type": "address"
        }
      ],
      "name": "isAdmin",
      "outputs": [
        {
          "internalType": "bool",
          "name": "",
          "type": "bool"
        }
      ],
      "stateMutability": "view",
      "type": "function"
    },
    {
      "inputs": [],
      "name": "parameters",
      "outputs": [
        {
          "internalType": "address",
          "name": "factory",
          "type": "address"
        },
        {
          "internalType": "address",
          "name": "token0",
          "type": "address"
        },
        {
          "internalType": "address",
          "name": "token1",
          "type": "address"
        },
        {
          "internalType": "uint24",
          "name": "fee",
          "type": "uint24"
        },
        {
          "internalType": "int24",
          "name": "tickSpacing",
          "type": "int24"
        }
      ],
      "stateMutability": "view",
      "type": "function"
    },
    {
      "inputs": [
        {
          "internalType": "address",
          "name": "_admin",
          "type": "address"
        }
      ],
      "name": "removeAdmin",
      "outputs": [],
      "stateMutability": "nonpayable",
      "type": "function"
    }
  ],
  "transactionHash": "0xaabf091b95c0d61e26fc79564e89ab60e7dc068b3ca4e948eecb1bf3b2267ee5",
  "args": [
    "0x6ac76948F29A12Dde050b928D35F1506aFC3c0f2"
  ],
  "numDeployments": 1,
  "bytecode": "0x60a060405234801561001057600080fd5b506040516160ec3803806160ec8339818101604052602081101561003357600080fd5b50513060601b6080526001600160a01b038116600090815260036020526040808220805460ff19166001179055513391907fb532073b38c83145e3e5135377a08bf9aab55bc0fd7c1179cd4fb995d2a5159c908290a36101f4600081815260046020527ffb8cf1d12598d1a039dd1d106665851a96aadf67d0d9ed76fceea282119208b7805462ffffff1916600a9081179091556040519092916000805160206160cc83398151915291a3610bb8600081815260046020527f72dffa9b822156d9cf4b0090fa0b656bcb9cc2b2c60eb6acfc20a34f54b31743805462ffffff1916603c9081179091556040519092916000805160206160cc83398151915291a3612710600081815260046020527f8cc740d51daa94ff54f33bd779c2d20149f524c340519b49181be5a08615f829805462ffffff191660c89081179091556040519092916000805160206160cc83398151915291a35060805160601c615f266101a66000398061064b5250615f266000f3fe608060405234801561001057600080fd5b50600436106100885760003560e01c8063704802751161005b578063704802751461018057806389035730146101a65780638a7c195f146101f0578063a16712951461021b57610088565b80631698ee821461008d5780631785f53c146100e557806322afcccb1461010d57806324d7806c14610146575b600080fd5b6100c9600480360360608110156100a357600080fd5b5080356001600160a01b03908116916020810135909116906040013562ffffff16610257565b604080516001600160a01b039092168252519081900360200190f35b61010b600480360360208110156100fb57600080fd5b50356001600160a01b0316610283565b005b61012f6004803603602081101561012357600080fd5b503562ffffff166102f6565b6040805160029290920b8252519081900360200190f35b61016c6004803603602081101561015c57600080fd5b50356001600160a01b031661030b565b604080519115158252519081900360200190f35b61010b6004803603602081101561019657600080fd5b50356001600160a01b0316610329565b6101ae61039f565b604080516001600160a01b0396871681529486166020860152929094168383015262ffffff16606083015260029290920b608082015290519081900360a00190f35b61010b6004803603604081101561020657600080fd5b5062ffffff813516906020013560020b6103d5565b6100c96004803603606081101561023157600080fd5b5080356001600160a01b03908116916020810135909116906040013562ffffff1661049d565b60056020908152600093845260408085208252928452828420905282529020546001600160a01b031681565b3360009081526003602052604090205460ff1661029f57600080fd5b6040516001600160a01b0382169033907fb532073b38c83145e3e5135377a08bf9aab55bc0fd7c1179cd4fb995d2a5159c90600090a36001600160a01b03166000908152600360205260409020805460ff19169055565b60046020526000908152604090205460020b81565b6001600160a01b031660009081526003602052604090205460ff1690565b3360009081526003602052604090205460ff1661034557600080fd5b6040516001600160a01b0382169033907fb532073b38c83145e3e5135377a08bf9aab55bc0fd7c1179cd4fb995d2a5159c90600090a36001600160a01b03166000908152600360205260409020805460ff19166001179055565b600054600154600280546001600160a01b03938416939283169281169162ffffff600160a01b83041691600160b81b9004900b85565b3360009081526003602052604090205460ff166103f157600080fd5b620f42408262ffffff161061040557600080fd5b60008160020b13801561041c57506140008160020b125b61042557600080fd5b62ffffff8216600090815260046020526040902054600290810b900b1561044b57600080fd5b62ffffff828116600081815260046020526040808220805462ffffff1916600287900b958616179055517fc66a3fdf07232cdd185febcc6579d408c241b47ae2f9907d84be655141eeaecc9190a35050565b60006104a7610640565b826001600160a01b0316846001600160a01b031614156104c657600080fd5b600080846001600160a01b0316866001600160a01b0316106104e95784866104ec565b85855b90925090506001600160a01b03821661050457600080fd5b62ffffff8416600090815260046020526040902054600290810b9081900b61052b57600080fd5b6001600160a01b0383811660009081526005602090815260408083208685168452825280832062ffffff8a168452909152902054161561056a57600080fd5b6105773084848885610677565b6001600160a01b03808516600081815260056020818152604080842089871680865290835281852062ffffff8e168087529084528286208054988a1673ffffffffffffffffffffffffffffffffffffffff19998a1681179091558287529484528286208787528452828620818752845294829020805490971684179096558051600289900b815291820192909252815195995091947f783cca1c0412dd0d695e784568c96da2e9c22ff989357a2e8b1d9b2b4e6b71189281900390910190a45050509392505050565b306001600160a01b037f0000000000000000000000000000000000000000000000000000000000000000161461067557600080fd5b565b6040805160a0810182526001600160a01b03878116808352878216602080850182905292881684860181905262ffffff888116606080880182905260028a810b6080998a018190526000805473ffffffffffffffffffffffffffffffffffffffff199081169099178155600180548a1689179055825490981686177fffffffffffffffffff000000ffffffffffffffffffffffffffffffffffffffff16600160a01b8502177fffffffffffff000000ffffffffffffffffffffffffffffffffffffffffffffff16600160b81b91830b909516029390931790925587518087019490945283880192909252828101919091528551808303909101815293019384905282519290910191909120909161078d90610809565b8190604051809103906000f59050801580156107ad573d6000803e3d6000fd5b506000805473ffffffffffffffffffffffffffffffffffffffff19908116909155600180549091169055600280547fffffffffffff00000000000000000000000000000000000000000000000000001690559695505050505050565b615703806108178339019056fe6101606040523480156200001257600080fd5b503060601b60805260408051630890357360e41b81529051600091339163890357309160048082019260a092909190829003018186803b1580156200005657600080fd5b505afa1580156200006b573d6000803e3d6000fd5b505050506040513d60a08110156200008257600080fd5b508051602080830151604084015160608086015160809096015160e896871b6001600160e81b0319166101005291811b6001600160601b031990811660e05292811b831660c0529390931b1660a052600282810b900b90921b610120529150620000f79082906200010f811b620029c017901c565b60801b6001600160801b03191661014052506200017d565b60008082600281900b620d89e719816200012557fe5b05029050600083600281900b620d89e8816200013d57fe5b0502905060008460020b83830360020b816200015557fe5b0560010190508062ffffff166001600160801b038016816200017357fe5b0495945050505050565b60805160601c60a05160601c60c05160601c60e05160601c6101005160e81c6101205160e81c6101405160801c6154b96200024a60003980611dc4528061499a52806149d1525080610cd152806127395280614a055280614a37525080610dc052806117a152806117d8528061278152508061185b5280611cca5280612280528061275d5280613e775250806108d2528061182a5280611c6452806121fa5280613d3e52508061091f528061154d5280611e57528061208c5280612715525080612a3752506154b96000f3fe608060405234801561001057600080fd5b50600436106101ae5760003560e01c806370cf754a116100ee578063c45a015511610097578063ddca3f4311610071578063ddca3f4314610800578063f305839914610820578063f30dba9314610828578063f637731d146108aa576101ae565b8063c45a0155146107d1578063d0c93a7c146107d9578063d21220a7146107f8576101ae565b8063883bdbfd116100c8578063883bdbfd14610633578063a34123a71461073c578063a38807f214610776576101ae565b806370cf754a146105c65780638206a4d1146105ce57806385b66729146105f6576101ae565b80633850c7bd1161015b578063490e6cbc11610135578063490e6cbc146104705780634f1eb3d8146104fc578063514ea4bf1461054d5780635339c296146105a6576101ae565b80633850c7bd1461035b5780633c8a7d8d146103b45780634614131914610456576101ae565b80631ad8b03b1161018c5780631ad8b03b146102aa578063252c09d7146102e157806332148f6714610338576101ae565b80630dfe1681146101b3578063128acb08146101d75780631a68650214610286575b600080fd5b6101bb6108d0565b604080516001600160a01b039092168252519081900360200190f35b61026d600480360360a08110156101ed57600080fd5b6001600160a01b0382358116926020810135151592604082013592606083013516919081019060a08101608082013564010000000081111561022e57600080fd5b82018360208201111561024057600080fd5b8035906020019184600183028401116401000000008311171561026257600080fd5b5090925090506108f4565b6040805192835260208301919091528051918290030190f35b61028e611320565b604080516001600160801b039092168252519081900360200190f35b6102b261132f565b60405180836001600160801b03168152602001826001600160801b031681526020019250505060405180910390f35b6102fe600480360360208110156102f757600080fd5b5035611349565b6040805163ffffffff909516855260069390930b60208501526001600160a01b039091168383015215156060830152519081900360800190f35b6103596004803603602081101561034e57600080fd5b503561ffff1661138f565b005b610363611489565b604080516001600160a01b03909816885260029690960b602088015261ffff9485168787015292841660608701529216608085015260ff90911660a0840152151560c0830152519081900360e00190f35b61026d600480360360a08110156103ca57600080fd5b6001600160a01b03823516916020810135600290810b92604083013590910b916001600160801b036060820135169181019060a08101608082013564010000000081111561041757600080fd5b82018360208201111561042957600080fd5b8035906020019184600183028401116401000000008311171561044b57600080fd5b5090925090506114d9565b61045e6116f8565b60408051918252519081900360200190f35b6103596004803603608081101561048657600080fd5b6001600160a01b0382351691602081013591604082013591908101906080810160608201356401000000008111156104bd57600080fd5b8201836020820111156104cf57600080fd5b803590602001918460018302840111640100000000831117156104f157600080fd5b5090925090506116fe565b6102b2600480360360a081101561051257600080fd5b506001600160a01b03813516906020810135600290810b91604081013590910b906001600160801b0360608201358116916080013516611b59565b61056a6004803603602081101561056357600080fd5b5035611d73565b604080516001600160801b0396871681526020810195909552848101939093529084166060840152909216608082015290519081900360a00190f35b61045e600480360360208110156105bc57600080fd5b503560010b611db0565b61028e611dc2565b610359600480360360408110156105e457600080fd5b5060ff81358116916020013516611de6565b6102b26004803603606081101561060c57600080fd5b506001600160a01b03813516906001600160801b0360208201358116916040013516612018565b6106a36004803603602081101561064957600080fd5b81019060208101813564010000000081111561066457600080fd5b82018360208201111561067657600080fd5b8035906020019184602083028401116401000000008311171561069857600080fd5b509092509050612318565b604051808060200180602001838103835285818151815260200191508051906020019060200280838360005b838110156106e75781810151838201526020016106cf565b50505050905001838103825284818151815260200191508051906020019060200280838360005b8381101561072657818101518382015260200161070e565b5050505090500194505050505060405180910390f35b61026d6004803603606081101561075257600080fd5b508035600290810b91602081013590910b90604001356001600160801b03166123a5565b6107a06004803603604081101561078c57600080fd5b508035600290810b9160200135900b61251c565b6040805160069490940b84526001600160a01b03909216602084015263ffffffff1682820152519081900360600190f35b6101bb612713565b6107e1612737565b6040805160029290920b8252519081900360200190f35b6101bb61275b565b61080861277f565b6040805162ffffff9092168252519081900360200190f35b61045e6127a3565b6108486004803603602081101561083e57600080fd5b503560020b6127a9565b604080516001600160801b039099168952600f9790970b602089015287870195909552606087019390935260069190910b60808601526001600160a01b031660a085015263ffffffff1660c0840152151560e083015251908190036101000190f35b610359600480360360208110156108c057600080fd5b50356001600160a01b0316612817565b7f000000000000000000000000000000000000000000000000000000000000000081565b6000806108ff612a2c565b60408051630935e01b60e21b815233600482015290516001600160a01b037f000000000000000000000000000000000000000000000000000000000000000016916324d7806c9160248083019260209291908290030181600087803b15801561096757600080fd5b505af115801561097b573d6000803e3d6000fd5b505050506040513d602081101561099157600080fd5b50516109d0576040805162461bcd60e51b81526020600482015260096024820152682737ba1027bbb732b960b91b604482015290519081900360640190fd5b85610a07576040805162461bcd60e51b8152602060048201526002602482015261415360f01b604482015290519081900360640190fd5b6040805160e0810182526000546001600160a01b0381168252600160a01b8104600290810b810b900b602083015261ffff600160b81b8204811693830193909352600160c81b810483166060830152600160d81b8104909216608082015260ff600160e81b8304811660a0830152600160f01b909204909116151560c08201819052610ac0576040805162461bcd60e51b81526020600482015260036024820152624c4f4b60e81b604482015290519081900360640190fd5b87610b0b5780600001516001600160a01b0316866001600160a01b0316118015610b06575073fffd8963efd1fc6a506488495d951d5263988d266001600160a01b038716105b610b3d565b80600001516001600160a01b0316866001600160a01b0316108015610b3d57506401000276a36001600160a01b038716115b610b74576040805162461bcd60e51b815260206004820152600360248201526214d41360ea1b604482015290519081900360640190fd5b6000805460ff60f01b191681556040805160c08101909152808a610ba35760048460a0015160ff16901c610bb6565b60108460a0015160ff1681610bb457fe5b065b60ff1681526004546001600160801b03166020820152604001610bd7612a63565b63ffffffff168152602001600060060b815260200160006001600160a01b031681526020016000151581525090506000808913905060006040518060e001604052808b81526020016000815260200185600001516001600160a01b03168152602001856020015160020b81526020018c610c5357600254610c57565b6001545b815260200160006001600160801b0316815260200184602001516001600160801b031681525090505b805115801590610ca65750886001600160a01b031681604001516001600160a01b031614155b1561107057610cb3615449565b60408201516001600160a01b031681526060820151610cf6906006907f00000000000000000000000000000000000000000000000000000000000000008f612a67565b15156040830152600290810b810b60208301819052620d89e719910b1215610d2757620d89e7196020820152610d46565b6020810151620d89e860029190910b1315610d4657620d89e860208201525b610d538160200151612ba9565b6001600160a01b031660608201526040820151610de4908d610d8d578b6001600160a01b031683606001516001600160a01b031611610da7565b8b6001600160a01b031683606001516001600160a01b0316105b610db5578260600151610db7565b8b5b60c085015185517f0000000000000000000000000000000000000000000000000000000000000000612edb565b60c085015260a084015260808301526001600160a01b031660408301528215610e4657610e1a8160c001518260800151016130cd565b825103825260a0810151610e3c90610e31906130cd565b6020840151906130e3565b6020830152610e81565b610e538160a001516130cd565b825101825260c08101516080820151610e7b91610e7091016130cd565b6020840151906130ff565b60208301525b835160ff1615610ec7576000846000015160ff168260c0015181610ea157fe5b60c0840180519290910491829003905260a0840180519091016001600160801b03169052505b60c08201516001600160801b031615610f0657610efa8160c00151600160801b8460c001516001600160801b0316613115565b60808301805190910190525b80606001516001600160a01b031682604001516001600160a01b0316141561102f57806040015115611006578360a00151610f9057610f6e846040015160008760200151886040015188602001518a6060015160086131c5909695949392919063ffffffff16565b6001600160a01b03166080860152600690810b900b6060850152600160a08501525b6000610fdc82602001518e610fa757600154610fad565b84608001515b8f610fbc578560800151610fc0565b6002545b608089015160608a015160408b01516005959493929190613358565b90508c15610fe8576000035b610ff68360c001518261342b565b6001600160801b031660c0840152505b8b61101557806020015161101e565b60018160200151035b600290810b900b606083015261106a565b80600001516001600160a01b031682604001516001600160a01b03161461106a5761105d82604001516134e1565b600290810b900b60608301525b50610c80565b836020015160020b816060015160020b1461114b576000806110be86604001518660400151886020015188602001518a606001518b60800151600861380d909695949392919063ffffffff16565b604085015160608601516000805461ffff60c81b1916600160c81b61ffff958616021761ffff60b81b1916600160b81b95909416949094029290921762ffffff60a01b1916600160a01b62ffffff60029490940b93909316929092029190911773ffffffffffffffffffffffffffffffffffffffff19166001600160a01b039091161790555061117d9050565b60408101516000805473ffffffffffffffffffffffffffffffffffffffff19166001600160a01b039092169190911790555b8060c001516001600160801b031683602001516001600160801b0316146111c35760c0810151600480546001600160801b0319166001600160801b039092169190911790555b8a1561121357608081015160015560a08101516001600160801b03161561120e5760a0810151600380546001600160801b031981166001600160801b03918216909301169190911790555b611259565b608081015160025560a08101516001600160801b0316156112595760a0810151600380546001600160801b03808216600160801b92839004821690940116029190911790555b8115158b15151461127257602081015181518b0361127f565b80600001518a0381602001515b909650945060408082015160c083015160608085015184518b8152602081018b90526001600160a01b03948516818701526001600160801b039093169183019190915260020b60808201529151908e169133917fc42079f94a6350d7e6235f29174924f928cc2ac818eb64fed8004e115fbcca679181900360a00190a350506000805460ff60f01b1916600160f01b17905550919890975095505050505050565b6004546001600160801b031681565b6003546001600160801b0380821691600160801b90041682565b60088161ffff811061135a57600080fd5b015463ffffffff81169150640100000000810460060b90600160581b81046001600160a01b031690600160f81b900460ff1684565b600054600160f01b900460ff166113d3576040805162461bcd60e51b81526020600482015260036024820152624c4f4b60e81b604482015290519081900360640190fd5b6000805460ff60f01b191690556113e8612a2c565b60008054600160d81b900461ffff1690611404600883856139c2565b6000805461ffff808416600160d81b810261ffff60d81b1990931692909217909255919250831614611471576040805161ffff80851682528316602082015281517fac49e518f90a358f652e4400164f05a5d8f7e35e7747279bc3a93dbf584e125a929181900390910190a15b50506000805460ff60f01b1916600160f01b17905550565b6000546001600160a01b03811690600160a01b810460020b9061ffff600160b81b8204811691600160c81b8104821691600160d81b8204169060ff600160e81b8204811691600160f01b90041687565b600080548190600160f01b900460ff16611520576040805162461bcd60e51b81526020600482015260036024820152624c4f4b60e81b604482015290519081900360640190fd5b6000805460ff60f01b1916815560408051630935e01b60e21b815233600482015290516001600160a01b037f000000000000000000000000000000000000000000000000000000000000000016926324d7806c92602480820193602093909283900390910190829087803b15801561159757600080fd5b505af11580156115ab573d6000803e3d6000fd5b505050506040513d60208110156115c157600080fd5b5051611600576040805162461bcd60e51b81526020600482015260096024820152682737ba1027bbb732b960b91b604482015290519081900360640190fd5b6000856001600160801b03161161161657600080fd5b60008061166460405180608001604052808c6001600160a01b031681526020018b60020b81526020018a60020b815260200161165a8a6001600160801b0316613a65565b600f0b9052613a76565b604080513381526001600160801b038c16602082015280820184905260608101839052905192975090955086945085935060028b810b93508c900b916001600160a01b038e16917f7a53080ba414158be7ec69b987b5fb7d07dee101fe85488f0853ae16239d0bde919081900360800190a450506000805460ff60f01b1916600160f01b1790559097909650945050505050565b60025481565b600054600160f01b900460ff16611742576040805162461bcd60e51b81526020600482015260036024820152624c4f4b60e81b604482015290519081900360640190fd5b6000805460ff60f01b19169055611757612a2c565b6004546001600160801b031680611799576040805162461bcd60e51b81526020600482015260016024820152601360fa1b604482015290519081900360640190fd5b60006117ce867f000000000000000000000000000000000000000000000000000000000000000062ffffff16620f4240613cb6565b90506000611805867f000000000000000000000000000000000000000000000000000000000000000062ffffff16620f4240613cb6565b90506000611811613cf0565b9050600061181d613e29565b90508815611850576118507f00000000000000000000000000000000000000000000000000000000000000008b8b613ec1565b8715611881576118817f00000000000000000000000000000000000000000000000000000000000000008b8a613ec1565b336001600160a01b031663e9cbafb085858a8a6040518563ffffffff1660e01b815260040180858152602001848152602001806020018281038252848482818152602001925080828437600081840152601f19601f82011690508083019250505095505050505050600060405180830381600087803b15801561190357600080fd5b505af1158015611917573d6000803e3d6000fd5b505050506000611925613cf0565b90506000611931613e29565b90508161193e858861400f565b1115611976576040805162461bcd60e51b8152602060048201526002602482015261046360f41b604482015290519081900360640190fd5b80611981848761400f565b11156119b9576040805162461bcd60e51b8152602060048201526002602482015261463160f01b604482015290519081900360640190fd5b8382038382038115611a485760008054600160e81b9004600f169081156119ec578160ff1684816119e657fe5b046119ef565b60005b90506001600160801b03811615611a2257600380546001600160801b038082168401166001600160801b03199091161790555b611a3c818503600160801b8d6001600160801b0316613115565b60018054909101905550505b8015611ad35760008054600160e81b900460041c600f16908115611a78578160ff168381611a7257fe5b04611a7b565b60005b90506001600160801b03811615611aad57600380546001600160801b03600160801b8083048216850182160291161790555b611ac7818403600160801b8d6001600160801b0316613115565b60028054909101905550505b8d6001600160a01b0316336001600160a01b03167fbdbdb71d7860376ba52b25a5028beea23581364a40522f6bcfb86bb1f2dca6338f8f86866040518085815260200184815260200183815260200182815260200194505050505060405180910390a350506000805460ff60f01b1916600160f01b179055505050505050505050505050565b600080548190600160f01b900460ff16611ba0576040805162461bcd60e51b81526020600482015260036024820152624c4f4b60e81b604482015290519081900360640190fd5b6000805460ff60f01b19168155611bba600733898961401f565b60038101549091506001600160801b0390811690861611611bdb5784611bea565b60038101546001600160801b03165b60038201549093506001600160801b03600160801b909104811690851611611c125783611c28565b6003810154600160801b90046001600160801b03165b91506001600160801b03831615611c8d576003810180546001600160801b031981166001600160801b03918216869003821617909155611c8d907f0000000000000000000000000000000000000000000000000000000000000000908a908616613ec1565b6001600160801b03821615611cf3576003810180546001600160801b03600160801b808304821686900382160291811691909117909155611cf3907f0000000000000000000000000000000000000000000000000000000000000000908a908516613ec1565b604080516001600160a01b038a1681526001600160801b0380861660208301528416818301529051600288810b92908a900b9133917f70935338e69775456a85ddef226c395fb668b63fa0115f5f20610b388e6ca9c0919081900360600190a4506000805460ff60f01b1916600160f01b17905590969095509350505050565b60076020526000908152604090208054600182015460028301546003909301546001600160801b0392831693919281811691600160801b90041685565b60066020526000908152604090205481565b7f000000000000000000000000000000000000000000000000000000000000000081565b600054600160f01b900460ff16611e2a576040805162461bcd60e51b81526020600482015260036024820152624c4f4b60e81b604482015290519081900360640190fd5b6000805460ff60f01b1916815560408051630935e01b60e21b815233600482015290516001600160a01b037f000000000000000000000000000000000000000000000000000000000000000016926324d7806c92602480820193602093909283900390910190829087803b158015611ea157600080fd5b505af1158015611eb5573d6000803e3d6000fd5b505050506040513d6020811015611ecb57600080fd5b5051611f0a576040805162461bcd60e51b81526020600482015260096024820152682737ba1027bbb732b960b91b604482015290519081900360640190fd5b60ff82161580611f2d575060048260ff1610158015611f2d5750600a8260ff1611155b8015611f57575060ff81161580611f57575060048160ff1610158015611f575750600a8160ff1611155b611f6057600080fd5b60008054610ff0600484901b16840160ff908116600160e81b9081027fffff00ffffffffffffffffffffffffffffffffffffffffffffffffffffffffff841617909355919004167f973d8d92bb299f4af6ce49b52a8adb85ae46b9f214c4c4fc06ac77401237b1336010826040805160ff9390920683168252600f600486901c16602083015286831682820152918516606082015290519081900360800190a150506000805460ff60f01b1916600160f01b17905550565b600080548190600160f01b900460ff1661205f576040805162461bcd60e51b81526020600482015260036024820152624c4f4b60e81b604482015290519081900360640190fd5b6000805460ff60f01b1916815560408051630935e01b60e21b815233600482015290516001600160a01b037f000000000000000000000000000000000000000000000000000000000000000016926324d7806c92602480820193602093909283900390910190829087803b1580156120d657600080fd5b505af11580156120ea573d6000803e3d6000fd5b505050506040513d602081101561210057600080fd5b505161213f576040805162461bcd60e51b81526020600482015260096024820152682737ba1027bbb732b960b91b604482015290519081900360640190fd5b6003546001600160801b039081169085161161215b5783612168565b6003546001600160801b03165b6003549092506001600160801b03600160801b90910481169084161161218e57826121a2565b600354600160801b90046001600160801b03165b90506001600160801b03821615612223576003546001600160801b03838116911614156121d157600019909101905b600380546001600160801b031981166001600160801b03918216859003821617909155612223907f00000000000000000000000000000000000000000000000000000000000000009087908516613ec1565b6001600160801b038116156122a9576003546001600160801b03828116600160801b90920416141561225457600019015b600380546001600160801b03600160801b8083048216859003821602918116919091179091556122a9907f00000000000000000000000000000000000000000000000000000000000000009087908416613ec1565b604080516001600160801b0380851682528316602082015281516001600160a01b0388169233927f596b573906218d3411850b26a6b437d6c4522fdb43d2d2386263f86d50b8b151929081900390910190a36000805460ff60f01b1916600160f01b1790559094909350915050565b606080612323612a2c565b61239a61232e612a63565b858580806020026020016040519081016040528093929190818152602001838360200280828437600092018290525054600454600896959450600160a01b820460020b935061ffff600160b81b8304811693506001600160801b0390911691600160c81b900416614083565b915091509250929050565b600080548190600160f01b900460ff166123ec576040805162461bcd60e51b81526020600482015260036024820152624c4f4b60e81b604482015290519081900360640190fd5b6000805460ff60f01b1916815560408051608081018252338152600288810b602083015287900b918101919091528190819061244590606081016124386001600160801b038a16613a65565b600003600f0b9052613a76565b92509250925081600003945080600003935060008511806124665750600084115b156124a5576003830180546001600160801b038082168089018216600160801b93849004831689019092169092029091176001600160801b0319161790555b604080516001600160801b0388168152602081018790528082018690529051600289810b92908b900b9133917f0c396cd989a39f4459b5fa1aed6a9a8dcdbc45908acfd67e028cd568da98982c919081900360600190a450506000805460ff60f01b1916600160f01b179055509094909350915050565b6000806000612529612a2c565b61253385856141dd565b600285810b810b60009081526005602052604080822087840b90930b825281206003830154600681900b9367010000000000000082046001600160a01b0316928492600160d81b810463ffffffff169284929091600160f81b900460ff168061259b57600080fd5b6003820154600681900b985067010000000000000081046001600160a01b03169650600160d81b810463ffffffff169450600160f81b900460ff16806125e057600080fd5b50506040805160e0810182526000546001600160a01b0381168252600160a01b8104600290810b810b810b6020840181905261ffff600160b81b8404811695850195909552600160c81b830485166060850152600160d81b8304909416608084015260ff600160e81b8304811660a0850152600160f01b909204909116151560c08301529093508e810b91900b121590506126895750939094039650900393509003905061270c565b8a60020b816020015160020b12156126fd5760006126a5612a63565b60208301516040840151600454606086015193945060009384936126db936008938893879392916001600160801b0316906131c5565b9a9003989098039b50509490960392909203965090910303925061270c915050565b50949093039650039350900390505b9250925092565b7f000000000000000000000000000000000000000000000000000000000000000081565b7f000000000000000000000000000000000000000000000000000000000000000081565b7f000000000000000000000000000000000000000000000000000000000000000081565b7f000000000000000000000000000000000000000000000000000000000000000081565b60015481565b60056020526000908152604090208054600182015460028301546003909301546001600160801b03831693600160801b909304600f0b9290600681900b9067010000000000000081046001600160a01b031690600160d81b810463ffffffff1690600160f81b900460ff1688565b6000546001600160a01b03161561285a576040805162461bcd60e51b8152602060048201526002602482015261414960f01b604482015290519081900360640190fd5b6000612865826134e1565b905060008061287d612875612a63565b6008906142a6565b6040805160e0810182526001600160a01b038816808252600288810b6020808501829052600085870181905261ffff898116606088018190529089166080880181905260a08801839052600160c0909801979097528154600160f01b73ffffffffffffffffffffffffffffffffffffffff19909116871762ffffff60a01b1916600160a01b62ffffff9787900b9790971696909602959095177fffffffffff00000000ffffffffffffffffffffffffffffffffffffffffffffff16600160c81b9091021761ffff60d81b1916600160d81b909602959095177fff0000ffffffffffffffffffffffffffffffffffffffffffffffffffffffffff1692909217909355835191825281019190915281519395509193507f98636036cb66a9c19a37435efc1e90142190214e8abeb821bdba3f2990dd4c9592918290030190a150505050565b60008082600281900b620d89e719816129d557fe5b05029050600083600281900b620d89e8816129ec57fe5b0502905060008460020b83830360020b81612a0357fe5b0560010190508062ffffff166001600160801b03801681612a2057fe5b0493505050505b919050565b306001600160a01b037f00000000000000000000000000000000000000000000000000000000000000001614612a6157600080fd5b565b4290565b60008060008460020b8660020b81612a7b57fe5b05905060008660020b128015612aa257508460020b8660020b81612a9b57fe5b0760020b15155b15612aac57600019015b8315612b2157600080612abe836142f2565b600182810b810b600090815260208d9052604090205460ff83169190911b80016000190190811680151597509294509092509085612b0357888360ff16860302612b16565b88612b0d82614303565b840360ff168603025b965050505050612b9f565b600080612b30836001016142f2565b91509150600060018260ff166001901b031990506000818b60008660010b60010b8152602001908152602001600020541690508060001415955085612b8257888360ff0360ff16866001010102612b98565b8883612b8d836143a3565b0360ff168660010101025b9650505050505b5094509492505050565b60008060008360020b12612bc0578260020b612bc8565b8260020b6000035b9050620d89e8811115612c06576040805162461bcd60e51b81526020600482015260016024820152601560fa1b604482015290519081900360640190fd5b600060018216612c1a57600160801b612c2c565b6ffffcb933bd6fad37aa2d162d1a5940015b70ffffffffffffffffffffffffffffffffff1690506002821615612c60576ffff97272373d413259a46990580e213a0260801c5b6004821615612c7f576ffff2e50f5f656932ef12357cf3c7fdcc0260801c5b6008821615612c9e576fffe5caca7e10e4e61c3624eaa0941cd00260801c5b6010821615612cbd576fffcb9843d60f6159c9db58835c9266440260801c5b6020821615612cdc576fff973b41fa98c081472e6896dfb254c00260801c5b6040821615612cfb576fff2ea16466c96a3843ec78b326b528610260801c5b6080821615612d1a576ffe5dee046a99a2a811c461f1969c30530260801c5b610100821615612d3a576ffcbe86c7900a88aedcffc83b479aa3a40260801c5b610200821615612d5a576ff987a7253ac413176f2b074cf7815e540260801c5b610400821615612d7a576ff3392b0822b70005940c7a398e4b70f30260801c5b610800821615612d9a576fe7159475a2c29b7443b29c7fa6e889d90260801c5b611000821615612dba576fd097f3bdfd2022b8845ad8f792aa58250260801c5b612000821615612dda576fa9f746462d870fdf8a65dc1f90e061e50260801c5b614000821615612dfa576f70d869a156d2a1b890bb3df62baf32f70260801c5b618000821615612e1a576f31be135f97d08fd981231505542fcfa60260801c5b62010000821615612e3b576f09aa508b5b7a84e1c677de54f3e99bc90260801c5b62020000821615612e5b576e5d6af8dedb81196699c329225ee6040260801c5b62040000821615612e7a576d2216e584f5fa1ea926041bedfe980260801c5b62080000821615612e97576b048a170391f7dc42444e8fa20260801c5b60008460020b1315612eb2578060001981612eae57fe5b0490505b640100000000810615612ec6576001612ec9565b60005b60ff16602082901c0192505050919050565b60008080806001600160a01b03808916908a161015818712801590612f60576000612f148989620f42400362ffffff16620f4240613115565b905082612f2d57612f288c8c8c600161448d565b612f3a565b612f3a8b8d8c6001614508565b9550858110612f4b578a9650612f5a565b612f578c8b83866145c5565b96505b50612faa565b81612f7757612f728b8b8b6000614508565b612f84565b612f848a8c8b600061448d565b9350838860000310612f9857899550612faa565b612fa78b8a8a60000385614611565b95505b6001600160a01b038a811690871614821561300d57808015612fc95750815b612fdf57612fda878d8c6001614508565b612fe1565b855b9550808015612fee575081155b61300457612fff878d8c600061448d565b613006565b845b9450613057565b8080156130175750815b61302d576130288c888c600161448d565b61302f565b855b955080801561303c575081155b6130525761304d8c888c6000614508565b613054565b845b94505b8115801561306757508860000385115b15613073578860000394505b81801561309257508a6001600160a01b0316876001600160a01b031614155b156130a15785890393506130be565b6130bb868962ffffff168a620f42400362ffffff16613cb6565b93505b50505095509550955095915050565b6000600160ff1b82106130df57600080fd5b5090565b808203828113156000831215146130f957600080fd5b92915050565b818101828112156000831215146130f957600080fd5b600080806000198587098686029250828110908390030390508061314b576000841161314057600080fd5b5082900490506131be565b80841161315757600080fd5b6000848688096000868103871696879004966002600389028118808a02820302808a02820302808a02820302808a02820302808a02820302808a02909103029181900381900460010186841190950394909402919094039290920491909117919091029150505b9392505050565b60008063ffffffff871661326c576000898661ffff1661ffff81106131e657fe5b60408051608081018252919092015463ffffffff8082168084526401000000008304600690810b810b900b6020850152600160581b83046001600160a01b031694840194909452600160f81b90910460ff16151560608301529092508a161461325857613255818a898861465d565b90505b80602001518160400151925092505061334c565b8688036000806132818c8c858c8c8c8c61470d565b91509150816000015163ffffffff168363ffffffff1614156132b357816020015182604001519450945050505061334c565b805163ffffffff848116911614156132db57806020015181604001519450945050505061334c565b8151815160208085015190840151918390039286039163ffffffff80841692908516910360060b8161330957fe5b05028460200151018263ffffffff168263ffffffff1686604001518660400151036001600160a01b0316028161333b57fe5b048560400151019650965050505050505b97509795505050505050565b600295860b860b60009081526020979097526040909620600181018054909503909455938301805490920390915560038201805463ffffffff600160d81b6001600160a01b036701000000000000008085048216909603169094027fffffffffff0000000000000000000000000000000000000000ffffffffffffff90921691909117600681810b90960390950b66ffffffffffffff1666ffffffffffffff199095169490941782810485169095039093160263ffffffff60d81b1990931692909217905554600160801b9004600f0b90565b60008082600f0b121561349057826001600160801b03168260000384039150816001600160801b03161061348b576040805162461bcd60e51b81526020600482015260026024820152614c5360f01b604482015290519081900360640190fd5b6130f9565b826001600160801b03168284019150816001600160801b031610156130f9576040805162461bcd60e51b81526020600482015260026024820152614c4160f01b604482015290519081900360640190fd5b60006401000276a36001600160a01b0383161080159061351d575073fffd8963efd1fc6a506488495d951d5263988d266001600160a01b038316105b613552576040805162461bcd60e51b81526020600482015260016024820152602960f91b604482015290519081900360640190fd5b77ffffffffffffffffffffffffffffffffffffffff00000000602083901b166001600160801b03811160071b81811c67ffffffffffffffff811160061b90811c63ffffffff811160051b90811c61ffff811160041b90811c60ff8111600390811b91821c600f811160021b90811c918211600190811b92831c979088119617909417909217179091171717608081106135f357607f810383901c91506135fd565b80607f0383901b91505b908002607f81811c60ff83811c9190911c800280831c81831c1c800280841c81841c1c800280851c81851c1c800280861c81861c1c800280871c81871c1c800280881c81881c1c800280891c81891c1c8002808a1c818a1c1c8002808b1c818b1c1c8002808c1c818c1c1c8002808d1c818d1c1c8002808e1c9c81901c9c909c1c80029c8d901c9e9d607f198f0160401b60c09190911c678000000000000000161760c19b909b1c674000000000000000169a909a1760c29990991c672000000000000000169890981760c39790971c671000000000000000169690961760c49590951c670800000000000000169490941760c59390931c670400000000000000169290921760c69190911c670200000000000000161760c79190911c670100000000000000161760c89190911c6680000000000000161760c99190911c6640000000000000161760ca9190911c6620000000000000161760cb9190911c6610000000000000161760cc9190911c6608000000000000161760cd9190911c66040000000000001617693627a301d71055774c8581026f028f6481ab7f045a5af012a19d003aa9198101608090811d906fdb2df09e81959a81455e260799a0632f8301901d600281810b9083900b146137fe57886001600160a01b03166137e282612ba9565b6001600160a01b031611156137f757816137f9565b805b613800565b815b9998505050505050505050565b6000806000898961ffff1661ffff811061382357fe5b60408051608081018252919092015463ffffffff8082168084526401000000008304600690810b810b900b6020850152600160581b83046001600160a01b031694840194909452600160f81b90910460ff161515606083015290925089161415613893578885925092505061334c565b8461ffff168461ffff161180156138b457506001850361ffff168961ffff16145b156138c1578391506138c5565b8491505b8161ffff168960010161ffff16816138d957fe5b0692506138e88189898961465d565b8a8461ffff1661ffff81106138f957fe5b825191018054602084015160408501516060909501511515600160f81b027effffffffffffffffffffffffffffffffffffffffffffffffffffffffffffff6001600160a01b03909616600160581b027fff0000000000000000000000000000000000000000ffffffffffffffffffffff60069390930b66ffffffffffffff16640100000000026affffffffffffff000000001963ffffffff90971663ffffffff199095169490941795909516929092171692909217929092161790555097509795505050505050565b6000808361ffff1611613a00576040805162461bcd60e51b81526020600482015260016024820152604960f81b604482015290519081900360640190fd5b8261ffff168261ffff1611613a165750816131be565b825b8261ffff168161ffff161015613a5c576001858261ffff1661ffff8110613a3b57fe5b01805463ffffffff191663ffffffff92909216919091179055600101613a18565b50909392505050565b80600f81900b8114612a2757600080fd5b6000806000613a83612a2c565b613a95846020015185604001516141dd565b6040805160e0810182526000546001600160a01b0381168252600160a01b8104600290810b810b900b602080840182905261ffff600160b81b8404811685870152600160c81b84048116606080870191909152600160d81b8504909116608086015260ff600160e81b8504811660a0870152600160f01b909404909316151560c085015288519089015194890151928901519394613b39949193909290919061490a565b93508460600151600f0b600014613cae57846020015160020b816020015160020b1215613b8e57613b87613b708660200151612ba9565b613b7d8760400151612ba9565b8760600151614abf565b9250613cae565b846040015160020b816020015160020b1215613c845760045460408201516001600160801b0390911690613be090613bc4612a63565b602085015160608601516080870151600894939291879161380d565b6000805461ffff60c81b1916600160c81b61ffff938416021761ffff60b81b1916600160b81b939092169290920217905581516040870151613c309190613c2690612ba9565b8860600151614abf565b9350613c4e613c428760200151612ba9565b83516060890151614b03565b9250613c5e81876060015161342b565b600480546001600160801b0319166001600160801b039290921691909117905550613cae565b613cab613c948660200151612ba9565b613ca18760400151612ba9565b8760600151614b03565b91505b509193909250565b6000613cc3848484613115565b905060008280613ccf57fe5b84860911156131be576000198110613ce657600080fd5b6001019392505050565b604080513060248083019190915282518083039091018152604490910182526020810180516001600160e01b03166370a0823160e01b17815291518151600093849384936001600160a01b037f00000000000000000000000000000000000000000000000000000000000000001693919290918291908083835b60208310613d895780518252601f199092019160209182019101613d6a565b6001836020036101000a038019825116818451168082178552505050505050905001915050600060405180830381855afa9150503d8060008114613de9576040519150601f19603f3d011682016040523d82523d6000602084013e613dee565b606091505b5091509150818015613e0257506020815110155b613e0b57600080fd5b808060200190516020811015613e2057600080fd5b50519250505090565b604080513060248083019190915282518083039091018152604490910182526020810180516001600160e01b03166370a0823160e01b17815291518151600093849384936001600160a01b037f000000000000000000000000000000000000000000000000000000000000000016939192909182919080838360208310613d895780518252601f199092019160209182019101613d6a565b604080516001600160a01b038481166024830152604480830185905283518084039091018152606490920183526020820180516001600160e01b031663a9059cbb60e01b1781529251825160009485949389169392918291908083835b60208310613f3d5780518252601f199092019160209182019101613f1e565b6001836020036101000a0380198251168184511680821785525050505050509050019150506000604051808303816000865af19150503d8060008114613f9f576040519150601f19603f3d011682016040523d82523d6000602084013e613fa4565b606091505b5091509150818015613fd2575080511580613fd25750808060200190516020811015613fcf57600080fd5b50515b614008576040805162461bcd60e51b81526020600482015260026024820152612a2360f11b604482015290519081900360640190fd5b5050505050565b808201828110156130f957600080fd5b6040805160609490941b6bffffffffffffffffffffffff1916602080860191909152600293840b60e890811b60348701529290930b90911b60378401528051808403601a018152603a90930181528251928201929092206000908152929052902090565b60608060008361ffff16116140c3576040805162461bcd60e51b81526020600482015260016024820152604960f81b604482015290519081900360640190fd5b865167ffffffffffffffff811180156140db57600080fd5b50604051908082528060200260200182016040528015614105578160200160208202803683370190505b509150865167ffffffffffffffff8111801561412057600080fd5b5060405190808252806020026020018201604052801561414a578160200160208202803683370190505b50905060005b87518110156141d05761417b8a8a8a848151811061416a57fe5b60200260200101518a8a8a8a6131c5565b84838151811061418757fe5b6020026020010184848151811061419a57fe5b60200260200101826001600160a01b03166001600160a01b03168152508260060b60060b81525050508080600101915050614150565b5097509795505050505050565b8060020b8260020b1261421d576040805162461bcd60e51b8152602060048201526003602482015262544c5560e81b604482015290519081900360640190fd5b620d89e719600283900b1215614260576040805162461bcd60e51b8152602060048201526003602482015262544c4d60e81b604482015290519081900360640190fd5b620d89e8600282900b13156142a2576040805162461bcd60e51b815260206004820152600360248201526254554d60e81b604482015290519081900360640190fd5b5050565b6040805160808101825263ffffffff9283168082526000602083018190529282019290925260016060909101819052835463ffffffff1916909117909116600160f81b17909155908190565b600281900b60081d9160ff90911690565b600080821161431157600080fd5b600160801b821061432457608091821c91015b68010000000000000000821061433c57604091821c91015b640100000000821061435057602091821c91015b62010000821061436257601091821c91015b610100821061437357600891821c91015b6010821061438357600491821c91015b6004821061439357600291821c91015b60028210612a2757600101919050565b60008082116143b157600080fd5b5060ff6001600160801b038216156143cc57607f19016143d4565b608082901c91505b67ffffffffffffffff8216156143ed57603f19016143f5565b604082901c91505b63ffffffff82161561440a57601f1901614412565b602082901c91505b61ffff82161561442557600f190161442d565b601082901c91505b60ff82161561443f5760071901614447565b600882901c91505b600f8216156144595760031901614461565b600482901c91505b6003821615614473576001190161447b565b600282901c91505b6001821615612a275760001901919050565b6000836001600160a01b0316856001600160a01b031611156144ad579293925b816144da576144d5836001600160801b03168686036001600160a01b0316600160601b613115565b6144fd565b6144fd836001600160801b03168686036001600160a01b0316600160601b613cb6565b90505b949350505050565b6000836001600160a01b0316856001600160a01b03161115614528579293925b7bffffffffffffffffffffffffffffffff000000000000000000000000606084901b166001600160a01b03868603811690871661456457600080fd5b8361459457866001600160a01b03166145878383896001600160a01b0316613115565b8161458e57fe5b046145ba565b6145ba6145ab8383896001600160a01b0316613cb6565b886001600160a01b0316614b32565b979650505050505050565b600080856001600160a01b0316116145dc57600080fd5b6000846001600160801b0316116145f257600080fd5b81614604576144d58585856001614b3d565b6144fd8585856001614c1e565b600080856001600160a01b03161161462857600080fd5b6000846001600160801b03161161463e57600080fd5b81614650576144d58585856000614c1e565b6144fd8585856000614b3d565b614665615485565b600085600001518503905060405180608001604052808663ffffffff1681526020018263ffffffff168660020b0288602001510160060b81526020016000856001600160801b0316116146b95760016146bb565b845b6001600160801b031673ffffffff00000000000000000000000000000000608085901b16816146e657fe5b048860400151016001600160a01b0316815260200160011515815250915050949350505050565b614715615485565b61471d615485565b888561ffff1661ffff811061472e57fe5b60408051608081018252919092015463ffffffff81168083526401000000008204600690810b810b900b6020840152600160581b82046001600160a01b031693830193909352600160f81b900460ff1615156060820152925061479390899089614d13565b156147cb578663ffffffff16826000015163ffffffff1614156147b55761334c565b816147c28389898861465d565b9150915061334c565b888361ffff168660010161ffff16816147e057fe5b0661ffff1661ffff81106147f057fe5b60408051608081018252929091015463ffffffff811683526401000000008104600690810b810b900b60208401526001600160a01b03600160581b8204169183019190915260ff600160f81b909104161515606082018190529092506148a757604080516080810182528a5463ffffffff811682526401000000008104600690810b810b900b6020830152600160581b81046001600160a01b031692820192909252600160f81b90910460ff161515606082015291505b6148b688836000015189614d13565b6148ed576040805162461bcd60e51b815260206004820152600360248201526213d31160ea1b604482015290519081900360640190fd5b6148fa8989898887614dd6565b9150915097509795505050505050565b6000614919600787878761401f565b60015460025491925090600080600f87900b15614a5f57600061493a612a63565b60008054600454929350909182916149849160089186918591600160a01b810460020b9161ffff600160b81b83048116926001600160801b0390921691600160c81b9004166131c5565b90925090506149be60058d8b8d8b8b87898b60007f0000000000000000000000000000000000000000000000000000000000000000614f76565b94506149f560058c8b8d8b8b87898b60017f0000000000000000000000000000000000000000000000000000000000000000614f76565b93508415614a2957614a2960068d7f0000000000000000000000000000000000000000000000000000000000000000615160565b8315614a5b57614a5b60068c7f0000000000000000000000000000000000000000000000000000000000000000615160565b5050505b600080614a7160058c8c8b8a8a6151c6565b9092509050614a82878a8484615272565b600089600f0b1215614ab0578315614a9f57614a9f60058c615407565b8215614ab057614ab060058b615407565b50505050505095945050505050565b60008082600f0b12614ae557614ae0614adb8585856001614508565b6130cd565b614500565b614af8614adb8585856000036000614508565b600003949350505050565b60008082600f0b12614b1f57614ae0614adb858585600161448d565b614af8614adb858585600003600061448d565b808204910615150190565b60008115614bb05760006001600160a01b03841115614b7357614b6e84600160601b876001600160801b0316613115565b614b8b565b6001600160801b038516606085901b81614b8957fe5b045b9050614ba8614ba36001600160a01b0388168361400f565b615433565b915050614500565b60006001600160a01b03841115614bde57614bd984600160601b876001600160801b0316613cb6565b614bf5565b614bf5606085901b6001600160801b038716614b32565b905080866001600160a01b031611614c0c57600080fd5b6001600160a01b038616039050614500565b600082614c2c575083614500565b7bffffffffffffffffffffffffffffffff000000000000000000000000606085901b168215614ccc576001600160a01b03861684810290858281614c6c57fe5b041415614c9d57818101828110614c9b57614c9183896001600160a01b031683613cb6565b9350505050614500565b505b614cc382614cbe878a6001600160a01b03168681614cb757fe5b049061400f565b614b32565b92505050614500565b6001600160a01b03861684810290858281614ce357fe5b04148015614cf057508082115b614cf957600080fd5b808203614c91614ba3846001600160a01b038b1684613cb6565b60008363ffffffff168363ffffffff1611158015614d3d57508363ffffffff168263ffffffff1611155b15614d59578163ffffffff168363ffffffff16111590506131be565b60008463ffffffff168463ffffffff1611614d81578363ffffffff1664010000000001614d89565b8363ffffffff165b64ffffffffff16905060008563ffffffff168463ffffffff1611614dba578363ffffffff1664010000000001614dc2565b8363ffffffff165b64ffffffffff169091111595945050505050565b614dde615485565b614de6615485565b60008361ffff168560010161ffff1681614dfc57fe5b0661ffff169050600060018561ffff16830103905060005b506002818301048961ffff87168281614e2957fe5b0661ffff8110614e3557fe5b60408051608081018252929091015463ffffffff811683526401000000008104600690810b810b900b60208401526001600160a01b03600160581b8204169183019190915260ff600160f81b90910416151560608201819052909550614ea057806001019250614e14565b898661ffff168260010181614eb157fe5b0661ffff8110614ebd57fe5b60408051608081018252929091015463ffffffff811683526401000000008104600690810b810b900b60208401526001600160a01b03600160581b8204169183019190915260ff600160f81b90910416151560608201528551909450600090614f28908b908b614d13565b9050808015614f415750614f418a8a8760000151614d13565b15614f4c5750614f69565b80614f5c57600182039250614f63565b8160010193505b50614e14565b5050509550959350505050565b60028a810b900b600090815260208c90526040812080546001600160801b031682614fa1828d61342b565b9050846001600160801b0316816001600160801b03161115614fef576040805162461bcd60e51b81526020600482015260026024820152614c4f60f01b604482015290519081900360640190fd5b6001600160801b0382811615908216158114159450156150c5578c60020b8e60020b1361509557600183018b9055600283018a90556003830180547fffffffffff0000000000000000000000000000000000000000ffffffffffffff166701000000000000006001600160a01b038c16021766ffffffffffffff191666ffffffffffffff60068b900b161763ffffffff60d81b1916600160d81b63ffffffff8a16021790555b6003830180547effffffffffffffffffffffffffffffffffffffffffffffffffffffffffffff16600160f81b1790555b82546001600160801b0319166001600160801b0382161783558561510e5782546151099061510490600160801b9004600f90810b810b908f900b6130ff565b613a65565b61512f565b825461512f9061510490600160801b9004600f90810b810b908f900b6130e3565b8354600f9190910b6001600160801b03908116600160801b0291161790925550909c9b505050505050505050505050565b8060020b8260020b8161516f57fe5b0760020b1561517d57600080fd5b6000806151988360020b8560020b8161519257fe5b056142f2565b600191820b820b60009081526020979097526040909620805460ff9097169190911b90951890945550505050565b600285810b80820b60009081526020899052604080822088850b850b83529082209193849391929184918291908a900b1261520c5750506001820154600283015461521f565b8360010154880391508360020154870390505b6000808b60020b8b60020b121561524157505060018301546002840154615254565b84600101548a0391508460020154890390505b92909803979097039b96909503949094039850939650505050505050565b6040805160a08101825285546001600160801b0390811682526001870154602083015260028701549282019290925260038601548083166060830152600160801b900490911660808201526000600f85900b6153115781516001600160801b0316615309576040805162461bcd60e51b815260206004820152600260248201526104e560f41b604482015290519081900360640190fd5b508051615320565b815161531d908661342b565b90505b60006153448360200151860384600001516001600160801b0316600160801b613115565b9050600061536a8460400151860385600001516001600160801b0316600160801b613115565b905086600f0b6000146153915787546001600160801b0319166001600160801b0384161788555b60018801869055600288018590556001600160801b0382161515806153bf57506000816001600160801b0316115b156153fd576003880180546001600160801b031981166001600160801b039182168501821617808216600160801b9182900483168501909216021790555b5050505050505050565b600290810b810b6000908152602092909252604082208281556001810183905590810182905560030155565b806001600160a01b0381168114612a2757600080fd5b6040805160e081018252600080825260208201819052918101829052606081018290526080810182905260a0810182905260c081019190915290565b6040805160808101825260008082526020820181905291810182905260608101919091529056fea164736f6c6343000706000aa164736f6c6343000706000ac66a3fdf07232cdd185febcc6579d408c241b47ae2f9907d84be655141eeaecc"
}