{
  "address": "0xd7Cb4589f8F38A01fCd5aCe541697e26F730D55f",
  "abi": [
    {
      "inputs": [
        {
          "internalType": "address",
          "name": "_tokenAddress",
          "type": "address"
        }
      ],
      "stateMutability": "nonpayable",
      "type": "constructor"
    },
    {
      "inputs": [
        {
          "internalType": "bytes32",
          "name": "swapId",
          "type": "bytes32"
        }
      ],
      "name": "AlreadyAuthorized",
      "type": "error"
    },
    {
      "inputs": [
        {
          "internalType": "uint256",
          "name": "amount",
          "type": "uint256"
        }
      ],
      "name": "IncorrectETHAmount",
      "type": "error"
    },
    {
      "inputs": [
        {
          "internalType": "uint256",
          "name": "",
          "type": "uint256"
        }
      ],
      "name": "NoExpiredFeeUpdateNotice",
      "type": "error"
    },
    {
      "inputs": [
        {
          "internalType": "address",
          "name": "sender",
          "type": "address"
        }
      ],
      "name": "NotOwner",
      "type": "error"
    },
    {
      "inputs": [
        {
          "internalType": "uint256",
          "name": "amount",
          "type": "uint256"
        }
      ],
      "name": "OverflowFeeCap",
      "type": "error"
    },
    {
      "inputs": [
        {
          "internalType": "address",
          "name": "sender",
          "type": "address"
        }
      ],
      "name": "PermissionDeniedToAuthorize",
      "type": "error"
    },
    {
      "anonymous": false,
      "inputs": [
        {
          "indexed": true,
          "internalType": "bytes32",
          "name": "swapId",
          "type": "bytes32"
        },
        {
          "indexed": true,
          "internalType": "address",
          "name": "swapOwner",
          "type": "address"
        },
        {
          "indexed": true,
          "internalType": "address",
          "name": "counterParty",
          "type": "address"
        },
        {
          "indexed": false,
          "internalType": "address",
          "name": "sellAsset",
          "type": "address"
        },
        {
          "indexed": false,
          "internalType": "uint256",
          "name": "sellAmount",
          "type": "uint256"
        }
      ],
      "name": "InvoiceCreated",
      "type": "event"
    },
    {
      "anonymous": false,
      "inputs": [
        {
          "indexed": true,
          "internalType": "bytes32",
          "name": "swapId",
          "type": "bytes32"
        },
        {
          "indexed": true,
          "internalType": "bytes32",
          "name": "secret",
          "type": "bytes32"
        },
        {
          "indexed": true,
          "internalType": "address",
          "name": "counterParty",
          "type": "address"
        },
        {
          "indexed": false,
          "internalType": "address",
          "name": "sellAsset",
          "type": "address"
        },
        {
          "indexed": false,
          "internalType": "uint256",
          "name": "sellAmount",
          "type": "uint256"
        }
      ],
      "name": "InvoiceSettled",
      "type": "event"
    },
    {
      "anonymous": false,
      "inputs": [
        {
          "indexed": true,
          "internalType": "address",
          "name": "liquidityOwner",
          "type": "address"
        },
        {
          "indexed": true,
          "internalType": "address",
          "name": "depositAsset",
          "type": "address"
        },
        {
          "indexed": false,
          "internalType": "uint256",
          "name": "depositAmount",
          "type": "uint256"
        }
      ],
      "name": "LiquidityDeposited",
      "type": "event"
    },
    {
      "anonymous": false,
      "inputs": [
        {
          "indexed": true,
          "internalType": "address",
          "name": "liquidityOwner",
          "type": "address"
        },
        {
          "indexed": true,
          "internalType": "address",
          "name": "withdrawalAsset",
          "type": "address"
        },
        {
          "indexed": false,
          "internalType": "uint256",
          "name": "withdrawalAmount",
          "type": "uint256"
        },
        {
          "indexed": false,
          "internalType": "uint256",
          "name": "noticeCompletion",
          "type": "uint256"
        }
      ],
      "name": "LiquidityRemovalNotice",
      "type": "event"
    },
    {
      "anonymous": false,
      "inputs": [
        {
          "indexed": true,
          "internalType": "address",
          "name": "liquidityOwner",
          "type": "address"
        },
        {
          "indexed": true,
          "internalType": "address",
          "name": "withdrawalAsset",
          "type": "address"
        },
        {
          "indexed": false,
          "internalType": "uint256",
          "name": "withdrawalAmount",
          "type": "uint256"
        }
      ],
      "name": "LiquidityRemoved",
      "type": "event"
    },
    {
      "inputs": [
        {
          "internalType": "bytes32",
          "name": "swapId",
          "type": "bytes32"
        },
        {
          "internalType": "address",
          "name": "sellAsset",
          "type": "address"
        },
        {
          "internalType": "uint256",
          "name": "sellAmount",
          "type": "uint256"
        },
        {
          "internalType": "address",
          "name": "counterParty",
          "type": "address"
        }
      ],
      "name": "createInvoice",
      "outputs": [],
      "stateMutability": "nonpayable",
      "type": "function"
    },
    {
      "inputs": [
        {
          "internalType": "address",
          "name": "depositAsset",
          "type": "address"
        },
        {
          "internalType": "uint256",
          "name": "depositAmount",
          "type": "uint256"
        },
        {
          "internalType": "address",
          "name": "depositOwner",
          "type": "address"
        }
      ],
      "name": "depositLiquidity",
      "outputs": [],
      "stateMutability": "payable",
      "type": "function"
    },
    {
      "inputs": [
        {
          "internalType": "address",
          "name": "",
          "type": "address"
        },
        {
          "internalType": "address",
          "name": "",
          "type": "address"
        }
      ],
      "name": "liquidities",
      "outputs": [
        {
          "internalType": "uint256",
          "name": "",
          "type": "uint256"
        }
      ],
      "stateMutability": "view",
      "type": "function"
    },
    {
      "inputs": [
        {
          "internalType": "address",
          "name": "",
          "type": "address"
        },
        {
          "internalType": "address",
          "name": "",
          "type": "address"
        }
      ],
      "name": "liquidityTimelocks",
      "outputs": [
        {
          "internalType": "uint256",
          "name": "unlockTime",
          "type": "uint256"
        },
        {
          "internalType": "uint256",
          "name": "maxWithdrawalAmount",
          "type": "uint256"
        }
      ],
      "stateMutability": "view",
      "type": "function"
    },
    {
      "inputs": [
        {
          "internalType": "address",
          "name": "user",
          "type": "address"
        },
        {
          "internalType": "address",
          "name": "penaltyAsset",
          "type": "address"
        },
        {
          "internalType": "uint256",
          "name": "penaltyAmount",
          "type": "uint256"
        }
      ],
      "name": "lpPenalty",
      "outputs": [],
      "stateMutability": "nonpayable",
      "type": "function"
    },
    {
      "inputs": [
        {
          "internalType": "address",
          "name": "",
          "type": "address"
        }
      ],
      "name": "penalties",
      "outputs": [
        {
          "internalType": "uint256",
          "name": "",
          "type": "uint256"
        }
      ],
      "stateMutability": "view",
      "type": "function"
    },
    {
      "inputs": [
        {
          "internalType": "address",
          "name": "withdrawalAsset",
          "type": "address"
        },
        {
          "internalType": "uint256",
          "name": "withdrawalAmount",
          "type": "uint256"
        }
      ],
      "name": "removeLiquidity",
      "outputs": [],
      "stateMutability": "nonpayable",
      "type": "function"
    },
    {
      "inputs": [
        {
          "internalType": "address",
          "name": "withdrawalAsset",
          "type": "address"
        },
        {
          "internalType": "uint256",
          "name": "maxWithdrawalAmount",
          "type": "uint256"
        }
      ],
      "name": "removeLiquidityNotice",
      "outputs": [],
      "stateMutability": "nonpayable",
      "type": "function"
    },
    {
      "inputs": [
        {
          "internalType": "bytes32",
          "name": "secret",
          "type": "bytes32"
        },
        {
          "internalType": "bytes32",
          "name": "swapId",
          "type": "bytes32"
        }
      ],
      "name": "settleInvoice",
      "outputs": [],
      "stateMutability": "nonpayable",
      "type": "function"
    },
    {
      "inputs": [],
      "name": "stakePercentage",
      "outputs": [
        {
          "internalType": "uint256",
          "name": "",
          "type": "uint256"
        }
      ],
      "stateMutability": "view",
      "type": "function"
    },
    {
      "inputs": [
        {
          "internalType": "address",
          "name": "",
          "type": "address"
        },
        {
          "internalType": "address",
          "name": "",
          "type": "address"
        }
      ],
      "name": "stakes",
      "outputs": [
        {
          "internalType": "uint256",
          "name": "",
          "type": "uint256"
        }
      ],
      "stateMutability": "view",
      "type": "function"
    },
    {
      "inputs": [
        {
          "internalType": "bytes32",
          "name": "",
          "type": "bytes32"
        }
      ],
      "name": "swaps",
      "outputs": [
        {
          "internalType": "address",
          "name": "swapOwner",
          "type": "address"
        },
        {
          "internalType": "address",
          "name": "sellAsset",
          "type": "address"
        },
        {
          "internalType": "uint256",
          "name": "sellAmount",
          "type": "uint256"
        },
        {
          "internalType": "uint256",
          "name": "swapCreation",
          "type": "uint256"
        },
        {
          "internalType": "address",
          "name": "counterParty",
          "type": "address"
        }
      ],
      "stateMutability": "view",
      "type": "function"
    },
    {
      "inputs": [],
      "name": "tokenContract",
      "outputs": [
        {
          "internalType": "contract IPortalToken",
          "name": "",
          "type": "address"
        }
      ],
      "stateMutability": "view",
      "type": "function"
    },
    {
      "inputs": [
        {
          "internalType": "address",
          "name": "withdrawAsset",
          "type": "address"
        },
        {
          "internalType": "uint256",
          "name": "withdrawAmount",
          "type": "uint256"
        }
      ],
      "name": "withdrawPenalties",
      "outputs": [],
      "stateMutability": "nonpayable",
      "type": "function"
    }
  ],
  "transactionHash": "0x7cdda2d58d373da631031c7ef15988951e30eb1d63952a243e97a42b984dfb49",
  "args": [
    "0x4466c7c755FEB90E3868C8D42cE344e7C4F5eA1E"
  ],
  "numDeployments": 1,
  "solcInputHash": "7e3273cadf4394700cf7107ba792470f",
  "bytecode": "0x608060405234801561001057600080fd5b5060405161163338038061163383398101604081905261002f9161005a565b600080546001600160a01b0319166001600160a01b039290921691909117905561012c60015561008a565b60006020828403121561006c57600080fd5b81516001600160a01b038116811461008357600080fd5b9392505050565b61159a806100996000396000f3fe6080604052600436106100dd5760003560e01c8063a4e47b661161007f578063eb84e7f211610059578063eb84e7f21461029e578063f668091014610329578063f9201ff61461033c578063fc7e3b7c1461037457600080fd5b8063a4e47b66146101fc578063c1a70d1414610234578063eb22629e1461024a57600080fd5b806331e8d9a6116100bb57806331e8d9a61461014457806354e8724f1461018457806355a373d6146101a4578063a201ccf6146101dc57600080fd5b8063068a2ccb146100e25780632640d2ea1461010457806328ea8ccf14610124575b600080fd5b3480156100ee57600080fd5b506101026100fd3660046112d1565b610394565b005b34801561011057600080fd5b5061010261011f366004611312565b610538565b34801561013057600080fd5b5061010261013f36600461135c565b610725565b34801561015057600080fd5b5061017161015f36600461137e565b60046020526000908152604090205481565b6040519081526020015b60405180910390f35b34801561019057600080fd5b5061010261019f3660046113a2565b610a79565b3480156101b057600080fd5b506000546101c4906001600160a01b031681565b6040516001600160a01b03909116815260200161017b565b3480156101e857600080fd5b506101026101f73660046113a2565b610c7b565b34801561020857600080fd5b506101716102173660046113ce565b600360209081526000928352604080842090915290825290205481565b34801561024057600080fd5b5061017160015481565b34801561025657600080fd5b506102896102653660046113ce565b60056020908152600092835260408084209091529082529020805460019091015482565b6040805192835260208301919091520161017b565b3480156102aa57600080fd5b506102f56102b9366004611407565b600660205260009081526040902080546001820154600283015460038401546004909401546001600160a01b0393841694928416939192911685565b604080516001600160a01b03968716815294861660208601528401929092526060830152909116608082015260a00161017b565b610102610337366004611420565b61102a565b34801561034857600080fd5b506101716103573660046113ce565b600260209081526000928352604080842090915290825290205481565b34801561038057600080fd5b5061010261038f3660046113a2565b611217565b60005460408051638da5cb5b60e01b8152905133926001600160a01b031691638da5cb5b9160048083019260209291908290030181865afa1580156103dd573d6000803e3d6000fd5b505050506040513d601f19601f820116820180604052508101906104019190611462565b6001600160a01b03161461042f5760405163245aecd360e01b81523360048201526024015b60405180910390fd5b6001600160a01b038083166000908152600360209081526040808320938716835292905220548111156104ca5760405162461bcd60e51b815260206004820152602160248201527f70656e616c74792073686f756c64206265206c657373207468616e207374616b60448201527f65000000000000000000000000000000000000000000000000000000000000006064820152608401610426565b6001600160a01b03808316600090815260036020908152604080832093871683529290529081208054839290610501908490611495565b90915550506001600160a01b0382166000908152600460205260408120805483929061052e9084906114ae565b9091555050505050565b600084815260066020526040902060020154156105975760405162461bcd60e51b815260206004820152601560248201527f73776170496420616c72656164792065786973747300000000000000000000006044820152606401610426565b6001600160a01b038316600090815260026020908152604080832033845290915290205482111561060a5760405162461bcd60e51b815260206004820152601260248201527f416464206d6f7265206c697175696469747900000000000000000000000000006044820152606401610426565b6001600160a01b03831660009081526002602090815260408083203384529091528120805484929061063d908490611495565b90915550506040805160a081018252338082526001600160a01b03868116602080850191825284860188815242606087019081528885166080880181815260008e8152600686528a90209851895490881673ffffffffffffffffffffffffffffffffffffffff19918216178a55955160018a01805491891691881682179055935160028a01819055925160038a0155516004909801805498909616979094169690961790935585519283528201939093529192909187917f8a34f297a78dbe631d7c866ca1c9e04586da2b3c62316bebfb9e2e9ebfacff1f910160405180910390a450505050565b6000818152600660205260409020600201546107835760405162461bcd60e51b815260206004820152601d60248201527f496e76616c69642073656372657420666f72207769746864726177616c0000006044820152606401610426565b60008181526006602052604081206003015442906107a4906202a3006114ae565b106108ad576002836040516020016107be91815260200190565b60408051601f19818403018152908290526107d8916114c1565b602060405180830381855afa1580156107f5573d6000803e3d6000fd5b5050506040513d601f19601f8201168201806040525081019061081891906114f0565b821461088c5760405162461bcd60e51b815260206004820152602260248201527f737761704964206d757374206265206d6174636865642077697468207365637260448201527f65740000000000000000000000000000000000000000000000000000000000006064820152608401610426565b506000818152600660205260409020600401546001600160a01b03166108c7565b506000818152600660205260409020546001600160a01b03165b6000828152600660205260409020600101546001600160a01b0316610932576000828152600660205260408082206002015490516001600160a01b0384169282156108fc02929190818181858888f1935050505015801561092c573d6000803e3d6000fd5b506109c5565b600082815260066020526040908190206001810154600290910154915163a9059cbb60e01b81526001600160a01b0384811660048301526024820193909352911690819063a9059cbb906044016020604051808303816000875af115801561099e573d6000803e3d6000fd5b505050506040513d601f19601f820116820180604052508101906109c29190611509565b50505b600082815260066020908152604091829020600181015460029091015483516001600160a01b03928316815292830152831691859185917f2ccea7e7475b767ccbea60b8c84fccdfa4f66d7be32e177ae5629cc42d8ccb3f910160405180910390a4506000908152600660205260408120805473ffffffffffffffffffffffffffffffffffffffff199081168255600182018054821690556002820183905560038201929092556004018054909116905550565b60005460408051638da5cb5b60e01b8152905133926001600160a01b031691638da5cb5b9160048083019260209291908290030181865afa158015610ac2573d6000803e3d6000fd5b505050506040513d601f19601f82011682018060405250810190610ae69190611462565b6001600160a01b031614610b0f5760405163245aecd360e01b8152336004820152602401610426565b6001600160a01b038216600090815260046020526040902054811115610b9d5760405162461bcd60e51b815260206004820152602c60248201527f7769746864726177416d6f756e742073686f756c64206265206c65737320746860448201527f616e2070656e616c7469657300000000000000000000000000000000000000006064820152608401610426565b6001600160a01b03821660009081526004602052604081208054839290610bc5908490611495565b90915550506001600160a01b038216610c0a57604051339082156108fc029083906000818181858888f19350505050158015610c05573d6000803e3d6000fd5b505050565b60405163a9059cbb60e01b8152336004820152602481018290526001600160a01b0383169063a9059cbb906044016020604051808303816000875af1158015610c57573d6000803e3d6000fd5b505050506040513d601f19601f82011682018060405250810190610c059190611509565b6001600160a01b0382166000908152600260209081526040808320338452909152902054811115610cee5760405162461bcd60e51b815260206004820152601660248201527f496e73756666696369656e74206c6971756964697479000000000000000000006044820152606401610426565b6001600160a01b0382166000908152600560209081526040808320338452909152902080544211610d615760405162461bcd60e51b815260206004820152601b60248201527f576169742074696c6c206e6f7469636520636f6d706c6574696f6e00000000006044820152606401610426565b8060010154821115610db55760405162461bcd60e51b815260206004820152601f60248201527f5769746864726177616c20616d6f756e742065786365656473206c696d6974006044820152606401610426565b81816001016000828254610dc99190611495565b90915550506001600160a01b038316600090815260026020908152604080832033845290915281208054849290610e01908490611495565b90915550506001546001600160a01b03841660008181526003602090815260408083203380855290835281842054948452600283528184209084529091528120549092612710929091610e5491906114ae565b610e5e919061152b565b610e689190611542565b6001600160a01b038516600090815260036020908152604080832033845290915281205491925090821015610eef576001600160a01b0385166000908152600360209081526040808320338452909152902054610ec6908390611495565b6001600160a01b0386166000908152600360209081526040808320338452909152902083905590505b6001600160a01b038516610f3957336108fc610f0b83876114ae565b6040518115909202916000818181858888f19350505050158015610f33573d6000803e3d6000fd5b50610fdc565b6001600160a01b03851663a9059cbb33610f5384886114ae565b6040517fffffffff0000000000000000000000000000000000000000000000000000000060e085901b1681526001600160a01b03909216600483015260248201526044016020604051808303816000875af1158015610fb6573d6000803e3d6000fd5b505050506040513d601f19601f82011682018060405250810190610fda9190611509565b505b6001600160a01b038516337f983e86fda8e7b1e2eae380201830eaf1cac55772e8e39583da349865e817886361101284886114ae565b60405190815260200160405180910390a35050505050565b6001600160a01b03831661107957813414611074576040517fbd3d1d3d00000000000000000000000000000000000000000000000000000000815260048101839052602401610426565b61110b565b6040517f23b872dd000000000000000000000000000000000000000000000000000000008152336004820152306024820152604481018390526001600160a01b038416906323b872dd906064016020604051808303816000875af11580156110e5573d6000803e3d6000fd5b505050506040513d601f19601f820116820180604052508101906111099190611509565b505b6127106001548361111c919061152b565b6111269190611542565b6001600160a01b0380851660009081526003602090815260408083209386168352929052908120805490919061115d9084906114ae565b909155505060015461271090611173908461152b565b61117d9190611542565b6111879083611495565b6001600160a01b038085166000908152600260209081526040808320938616835292905290812080549091906111be9084906114ae565b92505081905550826001600160a01b0316816001600160a01b03167fc72a439d25ca984ced5b3d76fd3fa4c85e46f52177e4f18cbcbe98433a58cc868460405161120a91815260200190565b60405180910390a3505050565b6040518060400160405280426202a30061123191906114ae565b815260209081018390526001600160a01b03841660008181526005835260408082203380845290855291208451815593909201516001909301929092557f57d4b7b5d7a8bfb5a5db7c1a52ff349407eba3c746734912d9cfa1260eae44f88361129d426202a3006114ae565b6040805192835260208301919091520160405180910390a35050565b6001600160a01b03811681146112ce57600080fd5b50565b6000806000606084860312156112e657600080fd5b83356112f1816112b9565b92506020840135611301816112b9565b929592945050506040919091013590565b6000806000806080858703121561132857600080fd5b84359350602085013561133a816112b9565b9250604085013591506060850135611351816112b9565b939692955090935050565b6000806040838503121561136f57600080fd5b50508035926020909101359150565b60006020828403121561139057600080fd5b813561139b816112b9565b9392505050565b600080604083850312156113b557600080fd5b82356113c0816112b9565b946020939093013593505050565b600080604083850312156113e157600080fd5b82356113ec816112b9565b915060208301356113fc816112b9565b809150509250929050565b60006020828403121561141957600080fd5b5035919050565b60008060006060848603121561143557600080fd5b8335611440816112b9565b9250602084013591506040840135611457816112b9565b809150509250925092565b60006020828403121561147457600080fd5b815161139b816112b9565b634e487b7160e01b600052601160045260246000fd5b818103818111156114a8576114a861147f565b92915050565b808201808211156114a8576114a861147f565b6000825160005b818110156114e257602081860181015185830152016114c8565b506000920191825250919050565b60006020828403121561150257600080fd5b5051919050565b60006020828403121561151b57600080fd5b8151801515811461139b57600080fd5b80820281158282048414176114a8576114a861147f565b60008261155f57634e487b7160e01b600052601260045260246000fd5b50049056fea2646970667358221220e4ff8f81b80383dab886f93d1790abc61ed77f6a45cfcd80ae532b9ce297585c64736f6c63430008140033",
  "devdoc": {
    "details": "Implementation of the Liquidity Provider which manages liquidity management and dispatching funds for the swap",
    "events": {
      "InvoiceCreated(bytes32,address,address,address,uint256)": {
        "params": {
          "counterParty": "Address of the other party in trade",
          "sellAmount": "Amount of the asset to be sold",
          "sellAsset": "Asset address to be sold (0x0 for ETH)",
          "swapId": "Identifier for the swap",
          "swapOwner": "Address of the trader initiating the swap"
        }
      },
      "InvoiceSettled(bytes32,bytes32,address,address,uint256)": {
        "params": {
          "counterParty": "Address of the other party in trade",
          "secret": "Secret to unlock the swap",
          "sellAmount": "Amount of the asset to be sold",
          "sellAsset": "Asset address to be sold (0x0 for ETH)",
          "swapId": "Identifier for the swap"
        }
      },
      "LiquidityDeposited(address,address,uint256)": {
        "params": {
          "depositAmount": "Amount of the asset deposited",
          "depositAsset": "Address of the asset deposited",
          "liquidityOwner": "Address of the liquidity provider"
        }
      },
      "LiquidityRemovalNotice(address,address,uint256,uint256)": {
        "params": {
          "liquidityOwner": "Address of the liquidity provider",
          "noticeCompletion": "Timestamp of notice completion",
          "withdrawalAmount": "Amount of the asset withdrawn",
          "withdrawalAsset": "Address of the asset withdrawn"
        }
      },
      "LiquidityRemoved(address,address,uint256)": {
        "params": {
          "liquidityOwner": "Address of the liquidity provider",
          "withdrawalAmount": "Amount of the asset withdrawn",
          "withdrawalAsset": "Address of the asset withdrawn"
        }
      }
    },
    "kind": "dev",
    "methods": {
      "constructor": {
        "params": {
          "_tokenAddress": "Address of the Portal Token contract"
        }
      },
      "createInvoice(bytes32,address,uint256,address)": {
        "params": {
          "counterParty": "Address of the other party in trade",
          "sellAmount": "Amount of the asset to be sold",
          "sellAsset": "Asset address to be sold (0x0 for ETH)",
          "swapId": "Identifier for the swap"
        }
      },
      "depositLiquidity(address,uint256,address)": {
        "params": {
          "depositAmount": "Amount of the asset to be deposited",
          "depositAsset": "Address of the asset to be deposited"
        }
      },
      "lpPenalty(address,address,uint256)": {
        "params": {
          "penaltyAmount": "Amount of the asset to be penalized",
          "penaltyAsset": "Address of the asset to be penalized",
          "user": "Address of the user to be penalized"
        }
      },
      "removeLiquidity(address,uint256)": {
        "params": {
          "withdrawalAmount": "Amount of the asset to be withdrawn",
          "withdrawalAsset": "Address of the asset to be withdrawn"
        }
      },
      "removeLiquidityNotice(address,uint256)": {
        "params": {
          "maxWithdrawalAmount": "Maximum amount of the asset to be withdrawn",
          "withdrawalAsset": "Address of the asset to be withdrawn"
        }
      },
      "settleInvoice(bytes32,bytes32)": {
        "params": {
          "secret": "Secret to unlock the swap",
          "swapId": "Identifier for the swap"
        }
      },
      "withdrawPenalties(address,uint256)": {
        "params": {
          "withdrawAmount": "Amount of the asset to be withdrawn",
          "withdrawAsset": "Address of the asset to be withdrawn"
        }
      }
    },
    "title": "Liquidity Provider contract",
    "version": 1
  },
  "userdoc": {
    "events": {
      "InvoiceCreated(bytes32,address,address,address,uint256)": {
        "notice": "Event emitted upon Invoice Creation"
      },
      "InvoiceSettled(bytes32,bytes32,address,address,uint256)": {
        "notice": "Event emitted upon Invoice Settlement"
      },
      "LiquidityDeposited(address,address,uint256)": {
        "notice": "Event emitted when liquidity is deposited"
      },
      "LiquidityRemovalNotice(address,address,uint256,uint256)": {
        "notice": "Event emitted when notice to liquidity removal is successfully received"
      },
      "LiquidityRemoved(address,address,uint256)": {
        "notice": "Event emitted when liquidity is removed"
      }
    },
    "kind": "user",
    "methods": {
      "constructor": {
        "notice": "Initialize the contract with the PORTAL Token address and stake percentage"
      },
      "createInvoice(bytes32,address,uint256,address)": {
        "notice": "Function to create an invoice for a swap"
      },
      "depositLiquidity(address,uint256,address)": {
        "notice": "Function to deposit liquidity into the contract"
      },
      "liquidities(address,address)": {
        "notice": "mapping between liquidity asset, liquidity owner and the liquidity amount"
      },
      "liquidityTimelocks(address,address)": {
        "notice": "mapping between liquidity asset, liquidity owner and the withdrawal info"
      },
      "lpPenalty(address,address,uint256)": {
        "notice": "Function to penalize the user for any misconduct"
      },
      "penalties(address)": {
        "notice": "mapping between penalty asset and the penalty amount"
      },
      "removeLiquidity(address,uint256)": {
        "notice": "Function to remove liquidity from the contract"
      },
      "removeLiquidityNotice(address,uint256)": {
        "notice": "Function to give notice to remove liquidity from the contract"
      },
      "settleInvoice(bytes32,bytes32)": {
        "notice": "Function to settle an invoice"
      },
      "stakePercentage()": {
        "notice": "Stake percentage in basis points (100 basis points = 1%)"
      },
      "stakes(address,address)": {
        "notice": "mapping between liquidity asset, liquidity owner and the stake amount"
      },
      "swaps(bytes32)": {
        "notice": "mapping between swapId and the swap order details"
      },
      "tokenContract()": {
        "notice": "Address on the PORTAL Token contract"
      },
      "withdrawPenalties(address,uint256)": {
        "notice": "Function to withdraw penalties"
      }
    },
    "version": 1
  },
  "storageLayout": {
    "storage": [
      {
        "astId": 7392,
        "contract": "contracts/LiquidityProvider.sol:LiquidityProvider",
        "label": "tokenContract",
        "offset": 0,
        "slot": "0",
        "type": "t_contract(IPortalToken)8703"
      },
      {
        "astId": 7395,
        "contract": "contracts/LiquidityProvider.sol:LiquidityProvider",
        "label": "stakePercentage",
        "offset": 0,
        "slot": "1",
        "type": "t_uint256"
      },
      {
        "astId": 7437,
        "contract": "contracts/LiquidityProvider.sol:LiquidityProvider",
        "label": "liquidities",
        "offset": 0,
        "slot": "2",
        "type": "t_mapping(t_address,t_mapping(t_address,t_uint256))"
      },
      {
        "astId": 7444,
        "contract": "contracts/LiquidityProvider.sol:LiquidityProvider",
        "label": "stakes",
        "offset": 0,
        "slot": "3",
        "type": "t_mapping(t_address,t_mapping(t_address,t_uint256))"
      },
      {
        "astId": 7526,
        "contract": "contracts/LiquidityProvider.sol:LiquidityProvider",
        "label": "penalties",
        "offset": 0,
        "slot": "4",
        "type": "t_mapping(t_address,t_uint256)"
      },
      {
        "astId": 7625,
        "contract": "contracts/LiquidityProvider.sol:LiquidityProvider",
        "label": "liquidityTimelocks",
        "offset": 0,
        "slot": "5",
        "type": "t_mapping(t_address,t_mapping(t_address,t_struct(WithdrawalInfo)8600_storage))"
      },
      {
        "astId": 7825,
        "contract": "contracts/LiquidityProvider.sol:LiquidityProvider",
        "label": "swaps",
        "offset": 0,
        "slot": "6",
        "type": "t_mapping(t_bytes32,t_struct(Order)8612_storage)"
      }
    ],
    "types": {
      "t_address": {
        "encoding": "inplace",
        "label": "address",
        "numberOfBytes": "20"
      },
      "t_bytes32": {
        "encoding": "inplace",
        "label": "bytes32",
        "numberOfBytes": "32"
      },
      "t_contract(IPortalToken)8703": {
        "encoding": "inplace",
        "label": "contract IPortalToken",
        "numberOfBytes": "20"
      },
      "t_mapping(t_address,t_mapping(t_address,t_struct(WithdrawalInfo)8600_storage))": {
        "encoding": "mapping",
        "key": "t_address",
        "label": "mapping(address => mapping(address => struct ILiquidityProvider.WithdrawalInfo))",
        "numberOfBytes": "32",
        "value": "t_mapping(t_address,t_struct(WithdrawalInfo)8600_storage)"
      },
      "t_mapping(t_address,t_mapping(t_address,t_uint256))": {
        "encoding": "mapping",
        "key": "t_address",
        "label": "mapping(address => mapping(address => uint256))",
        "numberOfBytes": "32",
        "value": "t_mapping(t_address,t_uint256)"
      },
      "t_mapping(t_address,t_struct(WithdrawalInfo)8600_storage)": {
        "encoding": "mapping",
        "key": "t_address",
        "label": "mapping(address => struct ILiquidityProvider.WithdrawalInfo)",
        "numberOfBytes": "32",
        "value": "t_struct(WithdrawalInfo)8600_storage"
      },
      "t_mapping(t_address,t_uint256)": {
        "encoding": "mapping",
        "key": "t_address",
        "label": "mapping(address => uint256)",
        "numberOfBytes": "32",
        "value": "t_uint256"
      },
      "t_mapping(t_bytes32,t_struct(Order)8612_storage)": {
        "encoding": "mapping",
        "key": "t_bytes32",
        "label": "mapping(bytes32 => struct ILiquidityProvider.Order)",
        "numberOfBytes": "32",
        "value": "t_struct(Order)8612_storage"
      },
      "t_struct(Order)8612_storage": {
        "encoding": "inplace",
        "label": "struct ILiquidityProvider.Order",
        "members": [
          {
            "astId": 8603,
            "contract": "contracts/LiquidityProvider.sol:LiquidityProvider",
            "label": "swapOwner",
            "offset": 0,
            "slot": "0",
            "type": "t_address"
          },
          {
            "astId": 8605,
            "contract": "contracts/LiquidityProvider.sol:LiquidityProvider",
            "label": "sellAsset",
            "offset": 0,
            "slot": "1",
            "type": "t_address"
          },
          {
            "astId": 8607,
            "contract": "contracts/LiquidityProvider.sol:LiquidityProvider",
            "label": "sellAmount",
            "offset": 0,
            "slot": "2",
            "type": "t_uint256"
          },
          {
            "astId": 8609,
            "contract": "contracts/LiquidityProvider.sol:LiquidityProvider",
            "label": "swapCreation",
            "offset": 0,
            "slot": "3",
            "type": "t_uint256"
          },
          {
            "astId": 8611,
            "contract": "contracts/LiquidityProvider.sol:LiquidityProvider",
            "label": "counterParty",
            "offset": 0,
            "slot": "4",
            "type": "t_address"
          }
        ],
        "numberOfBytes": "160"
      },
      "t_struct(WithdrawalInfo)8600_storage": {
        "encoding": "inplace",
        "label": "struct ILiquidityProvider.WithdrawalInfo",
        "members": [
          {
            "astId": 8597,
            "contract": "contracts/LiquidityProvider.sol:LiquidityProvider",
            "label": "unlockTime",
            "offset": 0,
            "slot": "0",
            "type": "t_uint256"
          },
          {
            "astId": 8599,
            "contract": "contracts/LiquidityProvider.sol:LiquidityProvider",
            "label": "maxWithdrawalAmount",
            "offset": 0,
            "slot": "1",
            "type": "t_uint256"
          }
        ],
        "numberOfBytes": "64"
      },
      "t_uint256": {
        "encoding": "inplace",
        "label": "uint256",
        "numberOfBytes": "32"
      }
    }
  }
}