{
  "address": "0x4466c7c755FEB90E3868C8D42cE344e7C4F5eA1E",
  "abi": [
    {
      "inputs": [
        {
          "internalType": "address",
          "name": "_portalFoundation",
          "type": "address"
        }
      ],
      "stateMutability": "nonpayable",
      "type": "constructor"
    },
    {
      "inputs": [],
      "name": "ECDSAInvalidSignature",
      "type": "error"
    },
    {
      "inputs": [
        {
          "internalType": "uint256",
          "name": "length",
          "type": "uint256"
        }
      ],
      "name": "ECDSAInvalidSignatureLength",
      "type": "error"
    },
    {
      "inputs": [
        {
          "internalType": "bytes32",
          "name": "s",
          "type": "bytes32"
        }
      ],
      "name": "ECDSAInvalidSignatureS",
      "type": "error"
    },
    {
      "inputs": [
        {
          "internalType": "address",
          "name": "spender",
          "type": "address"
        },
        {
          "internalType": "uint256",
          "name": "allowance",
          "type": "uint256"
        },
        {
          "internalType": "uint256",
          "name": "needed",
          "type": "uint256"
        }
      ],
      "name": "ERC20InsufficientAllowance",
      "type": "error"
    },
    {
      "inputs": [
        {
          "internalType": "address",
          "name": "sender",
          "type": "address"
        },
        {
          "internalType": "uint256",
          "name": "balance",
          "type": "uint256"
        },
        {
          "internalType": "uint256",
          "name": "needed",
          "type": "uint256"
        }
      ],
      "name": "ERC20InsufficientBalance",
      "type": "error"
    },
    {
      "inputs": [
        {
          "internalType": "address",
          "name": "approver",
          "type": "address"
        }
      ],
      "name": "ERC20InvalidApprover",
      "type": "error"
    },
    {
      "inputs": [
        {
          "internalType": "address",
          "name": "receiver",
          "type": "address"
        }
      ],
      "name": "ERC20InvalidReceiver",
      "type": "error"
    },
    {
      "inputs": [
        {
          "internalType": "address",
          "name": "sender",
          "type": "address"
        }
      ],
      "name": "ERC20InvalidSender",
      "type": "error"
    },
    {
      "inputs": [
        {
          "internalType": "address",
          "name": "spender",
          "type": "address"
        }
      ],
      "name": "ERC20InvalidSpender",
      "type": "error"
    },
    {
      "inputs": [
        {
          "internalType": "uint256",
          "name": "deadline",
          "type": "uint256"
        }
      ],
      "name": "ERC2612ExpiredSignature",
      "type": "error"
    },
    {
      "inputs": [
        {
          "internalType": "address",
          "name": "signer",
          "type": "address"
        },
        {
          "internalType": "address",
          "name": "owner",
          "type": "address"
        }
      ],
      "name": "ERC2612InvalidSigner",
      "type": "error"
    },
    {
      "inputs": [
        {
          "internalType": "address",
          "name": "account",
          "type": "address"
        },
        {
          "internalType": "uint256",
          "name": "currentNonce",
          "type": "uint256"
        }
      ],
      "name": "InvalidAccountNonce",
      "type": "error"
    },
    {
      "inputs": [],
      "name": "InvalidShortString",
      "type": "error"
    },
    {
      "inputs": [
        {
          "internalType": "string",
          "name": "str",
          "type": "string"
        }
      ],
      "name": "StringTooLong",
      "type": "error"
    },
    {
      "anonymous": false,
      "inputs": [
        {
          "indexed": true,
          "internalType": "address",
          "name": "owner",
          "type": "address"
        },
        {
          "indexed": true,
          "internalType": "address",
          "name": "spender",
          "type": "address"
        },
        {
          "indexed": false,
          "internalType": "uint256",
          "name": "value",
          "type": "uint256"
        }
      ],
      "name": "Approval",
      "type": "event"
    },
    {
      "anonymous": false,
      "inputs": [],
      "name": "EIP712DomainChanged",
      "type": "event"
    },
    {
      "anonymous": false,
      "inputs": [
        {
          "indexed": true,
          "internalType": "address",
          "name": "user",
          "type": "address"
        },
        {
          "indexed": false,
          "internalType": "uint256",
          "name": "amount",
          "type": "uint256"
        }
      ],
      "name": "TokensBurned",
      "type": "event"
    },
    {
      "anonymous": false,
      "inputs": [
        {
          "indexed": true,
          "internalType": "address",
          "name": "user",
          "type": "address"
        },
        {
          "indexed": false,
          "internalType": "uint256",
          "name": "amount",
          "type": "uint256"
        }
      ],
      "name": "TokensLocked",
      "type": "event"
    },
    {
      "anonymous": false,
      "inputs": [
        {
          "indexed": true,
          "internalType": "address",
          "name": "user",
          "type": "address"
        },
        {
          "indexed": false,
          "internalType": "uint256",
          "name": "amount",
          "type": "uint256"
        }
      ],
      "name": "TokensUnlocked",
      "type": "event"
    },
    {
      "anonymous": false,
      "inputs": [
        {
          "indexed": true,
          "internalType": "address",
          "name": "from",
          "type": "address"
        },
        {
          "indexed": true,
          "internalType": "address",
          "name": "to",
          "type": "address"
        },
        {
          "indexed": false,
          "internalType": "uint256",
          "name": "value",
          "type": "uint256"
        }
      ],
      "name": "Transfer",
      "type": "event"
    },
    {
      "inputs": [],
      "name": "DOMAIN_SEPARATOR",
      "outputs": [
        {
          "internalType": "bytes32",
          "name": "",
          "type": "bytes32"
        }
      ],
      "stateMutability": "view",
      "type": "function"
    },
    {
      "inputs": [],
      "name": "EPOCH_DURATION",
      "outputs": [
        {
          "internalType": "uint256",
          "name": "",
          "type": "uint256"
        }
      ],
      "stateMutability": "view",
      "type": "function"
    },
    {
      "inputs": [],
      "name": "INITIAL_SUPPLY",
      "outputs": [
        {
          "internalType": "uint256",
          "name": "",
          "type": "uint256"
        }
      ],
      "stateMutability": "view",
      "type": "function"
    },
    {
      "inputs": [
        {
          "internalType": "address",
          "name": "owner",
          "type": "address"
        },
        {
          "internalType": "address",
          "name": "spender",
          "type": "address"
        }
      ],
      "name": "allowance",
      "outputs": [
        {
          "internalType": "uint256",
          "name": "",
          "type": "uint256"
        }
      ],
      "stateMutability": "view",
      "type": "function"
    },
    {
      "inputs": [
        {
          "internalType": "address",
          "name": "spender",
          "type": "address"
        },
        {
          "internalType": "uint256",
          "name": "value",
          "type": "uint256"
        }
      ],
      "name": "approve",
      "outputs": [
        {
          "internalType": "bool",
          "name": "",
          "type": "bool"
        }
      ],
      "stateMutability": "nonpayable",
      "type": "function"
    },
    {
      "inputs": [
        {
          "internalType": "address",
          "name": "account",
          "type": "address"
        }
      ],
      "name": "balanceOf",
      "outputs": [
        {
          "internalType": "uint256",
          "name": "",
          "type": "uint256"
        }
      ],
      "stateMutability": "view",
      "type": "function"
    },
    {
      "inputs": [
        {
          "internalType": "uint256",
          "name": "value",
          "type": "uint256"
        }
      ],
      "name": "burn",
      "outputs": [],
      "stateMutability": "nonpayable",
      "type": "function"
    },
    {
      "inputs": [
        {
          "internalType": "address",
          "name": "account",
          "type": "address"
        },
        {
          "internalType": "uint256",
          "name": "value",
          "type": "uint256"
        }
      ],
      "name": "burnFrom",
      "outputs": [],
      "stateMutability": "nonpayable",
      "type": "function"
    },
    {
      "inputs": [
        {
          "internalType": "address",
          "name": "_user",
          "type": "address"
        },
        {
          "internalType": "uint256",
          "name": "_amount",
          "type": "uint256"
        }
      ],
      "name": "burnLockedTokens",
      "outputs": [],
      "stateMutability": "nonpayable",
      "type": "function"
    },
    {
      "inputs": [],
      "name": "decimals",
      "outputs": [
        {
          "internalType": "uint8",
          "name": "",
          "type": "uint8"
        }
      ],
      "stateMutability": "view",
      "type": "function"
    },
    {
      "inputs": [],
      "name": "eip712Domain",
      "outputs": [
        {
          "internalType": "bytes1",
          "name": "fields",
          "type": "bytes1"
        },
        {
          "internalType": "string",
          "name": "name",
          "type": "string"
        },
        {
          "internalType": "string",
          "name": "version",
          "type": "string"
        },
        {
          "internalType": "uint256",
          "name": "chainId",
          "type": "uint256"
        },
        {
          "internalType": "address",
          "name": "verifyingContract",
          "type": "address"
        },
        {
          "internalType": "bytes32",
          "name": "salt",
          "type": "bytes32"
        },
        {
          "internalType": "uint256[]",
          "name": "extensions",
          "type": "uint256[]"
        }
      ],
      "stateMutability": "view",
      "type": "function"
    },
    {
      "inputs": [],
      "name": "lastOwnershipTransition",
      "outputs": [
        {
          "internalType": "uint256",
          "name": "",
          "type": "uint256"
        }
      ],
      "stateMutability": "view",
      "type": "function"
    },
    {
      "inputs": [
        {
          "internalType": "uint256",
          "name": "_amount",
          "type": "uint256"
        },
        {
          "internalType": "uint256",
          "name": "_lockTime",
          "type": "uint256"
        }
      ],
      "name": "lockTokens",
      "outputs": [],
      "stateMutability": "nonpayable",
      "type": "function"
    },
    {
      "inputs": [
        {
          "internalType": "address",
          "name": "",
          "type": "address"
        }
      ],
      "name": "lockedTokens",
      "outputs": [
        {
          "internalType": "uint256",
          "name": "amount",
          "type": "uint256"
        },
        {
          "internalType": "uint256",
          "name": "lockTime",
          "type": "uint256"
        }
      ],
      "stateMutability": "view",
      "type": "function"
    },
    {
      "inputs": [],
      "name": "mintableAmount",
      "outputs": [
        {
          "internalType": "uint256",
          "name": "",
          "type": "uint256"
        }
      ],
      "stateMutability": "view",
      "type": "function"
    },
    {
      "inputs": [],
      "name": "name",
      "outputs": [
        {
          "internalType": "string",
          "name": "",
          "type": "string"
        }
      ],
      "stateMutability": "view",
      "type": "function"
    },
    {
      "inputs": [
        {
          "internalType": "address",
          "name": "owner",
          "type": "address"
        }
      ],
      "name": "nonces",
      "outputs": [
        {
          "internalType": "uint256",
          "name": "",
          "type": "uint256"
        }
      ],
      "stateMutability": "view",
      "type": "function"
    },
    {
      "inputs": [],
      "name": "owner",
      "outputs": [
        {
          "internalType": "address",
          "name": "",
          "type": "address"
        }
      ],
      "stateMutability": "view",
      "type": "function"
    },
    {
      "inputs": [
        {
          "internalType": "address",
          "name": "owner",
          "type": "address"
        },
        {
          "internalType": "address",
          "name": "spender",
          "type": "address"
        },
        {
          "internalType": "uint256",
          "name": "value",
          "type": "uint256"
        },
        {
          "internalType": "uint256",
          "name": "deadline",
          "type": "uint256"
        },
        {
          "internalType": "uint8",
          "name": "v",
          "type": "uint8"
        },
        {
          "internalType": "bytes32",
          "name": "r",
          "type": "bytes32"
        },
        {
          "internalType": "bytes32",
          "name": "s",
          "type": "bytes32"
        }
      ],
      "name": "permit",
      "outputs": [],
      "stateMutability": "nonpayable",
      "type": "function"
    },
    {
      "inputs": [],
      "name": "portalFoundation",
      "outputs": [
        {
          "internalType": "address",
          "name": "",
          "type": "address"
        }
      ],
      "stateMutability": "view",
      "type": "function"
    },
    {
      "inputs": [],
      "name": "revertOwnershipToFoundation",
      "outputs": [],
      "stateMutability": "nonpayable",
      "type": "function"
    },
    {
      "inputs": [],
      "name": "symbol",
      "outputs": [
        {
          "internalType": "string",
          "name": "",
          "type": "string"
        }
      ],
      "stateMutability": "view",
      "type": "function"
    },
    {
      "inputs": [],
      "name": "totalSupply",
      "outputs": [
        {
          "internalType": "uint256",
          "name": "",
          "type": "uint256"
        }
      ],
      "stateMutability": "view",
      "type": "function"
    },
    {
      "inputs": [
        {
          "internalType": "address",
          "name": "to",
          "type": "address"
        },
        {
          "internalType": "uint256",
          "name": "value",
          "type": "uint256"
        }
      ],
      "name": "transfer",
      "outputs": [
        {
          "internalType": "bool",
          "name": "",
          "type": "bool"
        }
      ],
      "stateMutability": "nonpayable",
      "type": "function"
    },
    {
      "inputs": [
        {
          "internalType": "address",
          "name": "from",
          "type": "address"
        },
        {
          "internalType": "address",
          "name": "to",
          "type": "address"
        },
        {
          "internalType": "uint256",
          "name": "value",
          "type": "uint256"
        }
      ],
      "name": "transferFrom",
      "outputs": [
        {
          "internalType": "bool",
          "name": "",
          "type": "bool"
        }
      ],
      "stateMutability": "nonpayable",
      "type": "function"
    },
    {
      "inputs": [
        {
          "internalType": "address",
          "name": "_newOwner",
          "type": "address"
        }
      ],
      "name": "transferOwnership",
      "outputs": [],
      "stateMutability": "nonpayable",
      "type": "function"
    },
    {
      "inputs": [
        {
          "internalType": "address",
          "name": "_user",
          "type": "address"
        },
        {
          "internalType": "uint256",
          "name": "_amount",
          "type": "uint256"
        }
      ],
      "name": "unlockTokens",
      "outputs": [],
      "stateMutability": "nonpayable",
      "type": "function"
    }
  ],
  "transactionHash": "0x2663a8c8114f04588ceec48101c0d48a7d5d271991d7cc30cdc9f95c4026009a",
  "args": [
    "0x32578A43FF35c16Df144BE3a55E212a209fF402B"
  ],
  "numDeployments": 1,
  "solcInputHash": "7e3273cadf4394700cf7107ba792470f",
  "bytecode": "0x6101806040523480156200001257600080fd5b50604051620022e5380380620022e5833981016040819052620000359162000460565b604051806040016040528060068152602001651413d495105360d21b81525080604051806040016040528060018152602001603160f81b815250604051806040016040528060068152602001651413d495105360d21b815250604051806040016040528060058152602001641e1413d49560da1b8152508160039081620000bd919062000537565b506004620000cc828262000537565b50620000de9150839050600562000273565b61012052620000ef81600662000273565b61014052815160208084019190912060e052815190820120610100524660a0526200017d60e05161010051604080517f8b73c3c69bb8fe3d512ecc4cf759cc79239f7b179b0ffacaa9a75d522b39400f60208201529081019290925260608201524660808201523060a082015260009060c00160405160208183030381529060405280519060200120905090565b60805250503060c052506001600160a01b038116620002095760405162461bcd60e51b815260206004820152603460248201527f5f706f7274616c466f756e646174696f6e20616464726573732063616e6e6f7460448201527f20626520746865207a65726f206164647265737300000000000000000000000060648201526084015b60405180910390fd5b6001600160a01b038116610160526200022e816a39e7139a8c08fa06000000620002ac565b62000246600a6a39e7139a8c08fa0600000062000603565b60095542600855600a80546001600160a01b0319166001600160a01b0392909216919091179055620006bd565b600060208351101562000293576200028b83620002ea565b9050620002a6565b81620002a0848262000537565b5060ff90505b92915050565b6001600160a01b038216620002d85760405163ec442f0560e01b81526000600482015260240162000200565b620002e6600083836200032d565b5050565b600080829050601f8151111562000318578260405163305a27a960e01b815260040162000200919062000626565b8051620003258262000676565b179392505050565b6001600160a01b0383166200035c5780600260008282546200035091906200069b565b90915550620003d09050565b6001600160a01b03831660009081526020819052604090205481811015620003b15760405163391434e360e21b81526001600160a01b0385166004820152602481018290526044810183905260640162000200565b6001600160a01b03841660009081526020819052604090209082900390555b6001600160a01b038216620003ee576002805482900390556200040d565b6001600160a01b03821660009081526020819052604090208054820190555b816001600160a01b0316836001600160a01b03167fddf252ad1be2c89b69c2b068fc378daa952ba7f163c4a11628f55a4df523b3ef836040516200045391815260200190565b60405180910390a3505050565b6000602082840312156200047357600080fd5b81516001600160a01b03811681146200048b57600080fd5b9392505050565b634e487b7160e01b600052604160045260246000fd5b600181811c90821680620004bd57607f821691505b602082108103620004de57634e487b7160e01b600052602260045260246000fd5b50919050565b601f8211156200053257600081815260208120601f850160051c810160208610156200050d5750805b601f850160051c820191505b818110156200052e5782815560010162000519565b5050505b505050565b81516001600160401b0381111562000553576200055362000492565b6200056b81620005648454620004a8565b84620004e4565b602080601f831160018114620005a357600084156200058a5750858301515b600019600386901b1c1916600185901b1785556200052e565b600085815260208120601f198616915b82811015620005d457888601518255948401946001909101908401620005b3565b5085821015620005f35787850151600019600388901b60f8161c191681555b5050505050600190811b01905550565b6000826200062157634e487b7160e01b600052601260045260246000fd5b500490565b600060208083528351808285015260005b81811015620006555785810183015185820160400152820162000637565b506000604082860101526040601f19601f8301168501019250505092915050565b80516020808301519190811015620004de5760001960209190910360031b1b16919050565b80820180821115620002a657634e487b7160e01b600052601160045260246000fd5b60805160a05160c05160e05161010051610120516101405161016051611bb462000731600039600081816102a3015281816105bf01526106870152600061124501526000611218015260006111540152600061112c01526000611087015260006110b1015260006110db0152611bb46000f3fe608060405234801561001057600080fd5b50600436106101b95760003560e01c80637ecebe00116100f9578063a9059cbb11610097578063d505accf11610071578063d505accf146103bf578063d67024ee146103d2578063dd62ed3e146103e5578063f2fde38b1461041e57600080fd5b8063a9059cbb1461039a578063ae3baf4d146103ad578063b1d3693f146103b657600080fd5b80638da5cb5b116100d35780638da5cb5b1461036257806395d89b41146103755780639d564d9a1461037d578063a70b9f0c1461039057600080fd5b80637ecebe001461032157806384b0196e1461033457806389158d8e1461034f57600080fd5b80633644e515116101665780635ebe6125116101405780635ebe61251461029e57806370a08231146102dd57806370ae9f6f1461030657806379cc67901461030e57600080fd5b80633644e5151461024557806342966c681461024d5780635eb7413a1461026257600080fd5b806323b872dd1161019757806323b872dd146102115780632ff2e9dc14610224578063313ce5671461023657600080fd5b806306fdde03146101be578063095ea7b3146101dc57806318160ddd146101ff575b600080fd5b6101c6610431565b6040516101d3919061186f565b60405180910390f35b6101ef6101ea3660046118a5565b6104c3565b60405190151581526020016101d3565b6002545b6040519081526020016101d3565b6101ef61021f3660046118cf565b6104dd565b6102036a39e7139a8c08fa0600000081565b604051601281526020016101d3565b610203610501565b61026061025b36600461190b565b610510565b005b610289610270366004611924565b600b602052600090815260409020805460019091015482565b604080519283526020830191909152016101d3565b6102c57f000000000000000000000000000000000000000000000000000000000000000081565b6040516001600160a01b0390911681526020016101d3565b6102036102eb366004611924565b6001600160a01b031660009081526020819052604090205490565b61026061051d565b61026061031c3660046118a5565b6106b8565b61020361032f366004611924565b6106d1565b61033c6106ef565b6040516101d3979695949392919061193f565b61026061035d3660046119f1565b610751565b600a546102c5906001600160a01b031681565b6101c6610921565b61026061038b3660046118a5565b610930565b61020362278d0081565b6101ef6103a83660046118a5565b610b11565b61020360095481565b61020360085481565b6102606103cd366004611a13565b610b1f565b6102606103e03660046118a5565b610c8b565b6102036103f3366004611a86565b6001600160a01b03918216600090815260016020908152604080832093909416825291909152205490565b61026061042c366004611924565b610e10565b60606003805461044090611ab9565b80601f016020809104026020016040519081016040528092919081815260200182805461046c90611ab9565b80156104b95780601f1061048e576101008083540402835291602001916104b9565b820191906000526020600020905b81548152906001019060200180831161049c57829003601f168201915b5050505050905090565b6000336104d1818585610f72565b60019150505b92915050565b6000336104eb858285610f84565b6104f685858561101b565b506001949350505050565b600061050b61107a565b905090565b61051a33826111a5565b50565b62278d0060085461052e9190611b09565b61053b9062015180611b09565b42116105b45760405162461bcd60e51b815260206004820152602760248201527f4f776e6572736869702072657665727420706572696f64206e6f74207965742060448201527f657870697265640000000000000000000000000000000000000000000000000060648201526084015b60405180910390fd5b336001600160a01b037f0000000000000000000000000000000000000000000000000000000000000000161461062c5760405162461bcd60e51b815260206004820152601e60248201527f53656e646572206973206e6f7420706f7274616c466f756e646174696f6e000060448201526064016105ab565b600a54600954610645916001600160a01b0316906111db565b60146009546106549190611b1c565b600960008282546106659190611b3e565b9091555050600a805473ffffffffffffffffffffffffffffffffffffffff19167f00000000000000000000000000000000000000000000000000000000000000006001600160a01b031617905542600855565b6106c3823383610f84565b6106cd82826111a5565b5050565b6001600160a01b0381166000908152600760205260408120546104d7565b600060608060008060006060610703611211565b61070b61123e565b604080516000808252602082019092527f0f000000000000000000000000000000000000000000000000000000000000009b939a50919850469750309650945092509050565b336000908152602081905260409020548211156107b05760405162461bcd60e51b815260206004820152601460248201527f496e73756666696369656e742062616c616e636500000000000000000000000060448201526064016105ab565b6107be62278d006002611b51565b6107c89042611b09565b8110156108175760405162461bcd60e51b815260206004820152601f60248201527f4c6f636b2074696d65206d75737420626520696e20746865206675747572650060448201526064016105ab565b336000908152600b602052604090206001015481101561089f5760405162461bcd60e51b815260206004820152603060248201527f4e6577206c6f636b54696d65206d757374206265206c61746572207468616e2060448201527f63757272656e74206c6f636b54696d650000000000000000000000000000000060648201526084016105ab565b6108aa33308461101b565b336000908152600b6020526040812080548492906108c9908490611b09565b9091555050336000818152600b602052604090819020600101839055517fac87f20a77d28ee8bbb58ec87ea8fa968b3393efae1a368fd50b767c2847391c906109159085815260200190565b60405180910390a25050565b60606004805461044090611ab9565b600081116109805760405162461bcd60e51b815260206004820152601760248201527f416d6f756e74206d75737420626520706f73697469766500000000000000000060448201526064016105ab565b6001600160a01b0382166000908152600b60205260409020548111156109e85760405162461bcd60e51b815260206004820152601a60248201527f496e73756666696369656e74206c6f636b656420746f6b656e7300000000000060448201526064016105ab565b600a546001600160a01b03163314610a9d57336001600160a01b038316148015610a2c57506001600160a01b0382166000908152600b602052604090206001015442115b610a9d5760405162461bcd60e51b8152602060048201526024808201527f556e6c6f636b696e67206e6f7420616c6c6f77656420696e207468697320706560448201527f72696f640000000000000000000000000000000000000000000000000000000060648201526084016105ab565b6001600160a01b0382166000908152600b602052604081208054839290610ac5908490611b3e565b90915550610ad6905030838361101b565b816001600160a01b03167fe7b379c6c1fa169e9079c25e9143b127637eef8ec8c9d5c06ddb4ab3e11958888260405161091591815260200190565b6000336104d181858561101b565b83421115610b5c576040517f62791302000000000000000000000000000000000000000000000000000000008152600481018590526024016105ab565b60007f6e71edae12b1b97f4d1f60370fef10105fa2faae0126114a169c64845d6126c9888888610ba98c6001600160a01b0316600090815260076020526040902080546001810190915590565b6040805160208101969096526001600160a01b0394851690860152929091166060840152608083015260a082015260c0810186905260e0016040516020818303038152906040528051906020012090506000610c048261126b565b90506000610c14828787876112b3565b9050896001600160a01b0316816001600160a01b031614610c74576040517f4b800e460000000000000000000000000000000000000000000000000000000081526001600160a01b0380831660048301528b1660248201526044016105ab565b610c7f8a8a8a610f72565b50505050505050505050565b600a546001600160a01b03163314610ce55760405162461bcd60e51b815260206004820152601760248201527f43616c6c6572206973206e6f7420746865206f776e657200000000000000000060448201526064016105ab565b60008111610d355760405162461bcd60e51b815260206004820152601760248201527f416d6f756e74206d75737420626520706f73697469766500000000000000000060448201526064016105ab565b6001600160a01b0382166000908152600b6020526040902054811115610d9d5760405162461bcd60e51b815260206004820152601a60248201527f496e73756666696369656e74206c6f636b656420746f6b656e7300000000000060448201526064016105ab565b6001600160a01b0382166000908152600b602052604081208054839290610dc5908490611b3e565b90915550610dd5905030826111a5565b816001600160a01b03167ffd38818f5291bf0bb3a2a48aadc06ba8757865d1dabd804585338aab3009dcb68260405161091591815260200190565b600a546001600160a01b03163314610e6a5760405162461bcd60e51b815260206004820152601760248201527f73656e646572206973206e6f7420746865206f776e657200000000000000000060448201526064016105ab565b6202a30062278d00600854610e7f9190611b09565b610e899190611b3e565b4210158015610eb5575062278d00600854610ea49190611b09565b610eb19062015180611b09565b4211155b610f015760405162461bcd60e51b815260206004820152601760248201527f5472616e7366657220706572696f64206578706972656400000000000000000060448201526064016105ab565b600a54600954610f1a916001600160a01b0316906111db565b6014600954610f299190611b1c565b60096000828254610f3a9190611b3e565b9091555050600a805473ffffffffffffffffffffffffffffffffffffffff19166001600160a01b039290921691909117905542600855565b610f7f83838360016112e1565b505050565b6001600160a01b0383811660009081526001602090815260408083209386168352929052205460001981146110155781811015611006576040517ffb8f41b20000000000000000000000000000000000000000000000000000000081526001600160a01b038416600482015260248101829052604481018390526064016105ab565b611015848484840360006112e1565b50505050565b6001600160a01b03831661104557604051634b637e8f60e11b8152600060048201526024016105ab565b6001600160a01b03821661106f5760405163ec442f0560e01b8152600060048201526024016105ab565b610f7f8383836113e8565b6000306001600160a01b037f0000000000000000000000000000000000000000000000000000000000000000161480156110d357507f000000000000000000000000000000000000000000000000000000000000000046145b156110fd57507f000000000000000000000000000000000000000000000000000000000000000090565b61050b604080517f8b73c3c69bb8fe3d512ecc4cf759cc79239f7b179b0ffacaa9a75d522b39400f60208201527f0000000000000000000000000000000000000000000000000000000000000000918101919091527f000000000000000000000000000000000000000000000000000000000000000060608201524660808201523060a082015260009060c00160405160208183030381529060405280519060200120905090565b6001600160a01b0382166111cf57604051634b637e8f60e11b8152600060048201526024016105ab565b6106cd826000836113e8565b6001600160a01b0382166112055760405163ec442f0560e01b8152600060048201526024016105ab565b6106cd600083836113e8565b606061050b7f0000000000000000000000000000000000000000000000000000000000000000600561152b565b606061050b7f0000000000000000000000000000000000000000000000000000000000000000600661152b565b60006104d761127861107a565b836040517f19010000000000000000000000000000000000000000000000000000000000008152600281019290925260228201526042902090565b6000806000806112c5888888886115d6565b9250925092506112d582826116a5565b50909695505050505050565b6001600160a01b038416611324576040517fe602df05000000000000000000000000000000000000000000000000000000008152600060048201526024016105ab565b6001600160a01b038316611367576040517f94280d62000000000000000000000000000000000000000000000000000000008152600060048201526024016105ab565b6001600160a01b038085166000908152600160209081526040808320938716835292905220829055801561101557826001600160a01b0316846001600160a01b03167f8c5be1e5ebec7d5bd14f71427d1e84f3dd0314c0f7b2291e5b200ac8c7c3b925846040516113da91815260200190565b60405180910390a350505050565b6001600160a01b0383166114135780600260008282546114089190611b09565b9091555061149e9050565b6001600160a01b0383166000908152602081905260409020548181101561147f576040517fe450d38c0000000000000000000000000000000000000000000000000000000081526001600160a01b038516600482015260248101829052604481018390526064016105ab565b6001600160a01b03841660009081526020819052604090209082900390555b6001600160a01b0382166114ba576002805482900390556114d9565b6001600160a01b03821660009081526020819052604090208054820190555b816001600160a01b0316836001600160a01b03167fddf252ad1be2c89b69c2b068fc378daa952ba7f163c4a11628f55a4df523b3ef8360405161151e91815260200190565b60405180910390a3505050565b606060ff83146115455761153e836117a9565b90506104d7565b81805461155190611ab9565b80601f016020809104026020016040519081016040528092919081815260200182805461157d90611ab9565b80156115ca5780601f1061159f576101008083540402835291602001916115ca565b820191906000526020600020905b8154815290600101906020018083116115ad57829003601f168201915b505050505090506104d7565b600080807f7fffffffffffffffffffffffffffffff5d576e7357a4501ddfe92f46681b20a0841115611611575060009150600390508261169b565b604080516000808252602082018084528a905260ff891692820192909252606081018790526080810186905260019060a0016020604051602081039080840390855afa158015611665573d6000803e3d6000fd5b5050604051601f1901519150506001600160a01b0381166116915750600092506001915082905061169b565b9250600091508190505b9450945094915050565b60008260038111156116b9576116b9611b68565b036116c2575050565b60018260038111156116d6576116d6611b68565b0361170d576040517ff645eedf00000000000000000000000000000000000000000000000000000000815260040160405180910390fd5b600282600381111561172157611721611b68565b0361175b576040517ffce698f7000000000000000000000000000000000000000000000000000000008152600481018290526024016105ab565b600382600381111561176f5761176f611b68565b036106cd576040517fd78bce0c000000000000000000000000000000000000000000000000000000008152600481018290526024016105ab565b606060006117b6836117e8565b604080516020808252818301909252919250600091906020820181803683375050509182525060208101929092525090565b600060ff8216601f8111156104d7576040517fb3512b0c00000000000000000000000000000000000000000000000000000000815260040160405180910390fd5b6000815180845260005b8181101561184f57602081850181015186830182015201611833565b506000602082860101526020601f19601f83011685010191505092915050565b6020815260006118826020830184611829565b9392505050565b80356001600160a01b03811681146118a057600080fd5b919050565b600080604083850312156118b857600080fd5b6118c183611889565b946020939093013593505050565b6000806000606084860312156118e457600080fd5b6118ed84611889565b92506118fb60208501611889565b9150604084013590509250925092565b60006020828403121561191d57600080fd5b5035919050565b60006020828403121561193657600080fd5b61188282611889565b7fff00000000000000000000000000000000000000000000000000000000000000881681526000602060e08184015261197b60e084018a611829565b838103604085015261198d818a611829565b606085018990526001600160a01b038816608086015260a0850187905284810360c0860152855180825283870192509083019060005b818110156119df578351835292840192918401916001016119c3565b50909c9b505050505050505050505050565b60008060408385031215611a0457600080fd5b50508035926020909101359150565b600080600080600080600060e0888a031215611a2e57600080fd5b611a3788611889565b9650611a4560208901611889565b95506040880135945060608801359350608088013560ff81168114611a6957600080fd5b9699959850939692959460a0840135945060c09093013592915050565b60008060408385031215611a9957600080fd5b611aa283611889565b9150611ab060208401611889565b90509250929050565b600181811c90821680611acd57607f821691505b602082108103611aed57634e487b7160e01b600052602260045260246000fd5b50919050565b634e487b7160e01b600052601160045260246000fd5b808201808211156104d7576104d7611af3565b600082611b3957634e487b7160e01b600052601260045260246000fd5b500490565b818103818111156104d7576104d7611af3565b80820281158282048414176104d7576104d7611af3565b634e487b7160e01b600052602160045260246000fdfea26469706673582212205f920efaa894a5023ee402cccd6d9ef5f7b19a7556764402ee0fd6826712499764736f6c63430008140033",
  "devdoc": {
    "details": "Implementation of the PORTAL token, an ERC20 token with burn and permit capabilities.      The token has a feature for locked tokens and ownership transitions.",
    "errors": {
      "ECDSAInvalidSignature()": [
        {
          "details": "The signature derives the `address(0)`."
        }
      ],
      "ECDSAInvalidSignatureLength(uint256)": [
        {
          "details": "The signature has an invalid length."
        }
      ],
      "ECDSAInvalidSignatureS(bytes32)": [
        {
          "details": "The signature has an S value that is in the upper half order."
        }
      ],
      "ERC20InsufficientAllowance(address,uint256,uint256)": [
        {
          "details": "Indicates a failure with the `spender`s `allowance`. Used in transfers.",
          "params": {
            "allowance": "Amount of tokens a `spender` is allowed to operate with.",
            "needed": "Minimum amount required to perform a transfer.",
            "spender": "Address that may be allowed to operate on tokens without being their owner."
          }
        }
      ],
      "ERC20InsufficientBalance(address,uint256,uint256)": [
        {
          "details": "Indicates an error related to the current `balance` of a `sender`. Used in transfers.",
          "params": {
            "balance": "Current balance for the interacting account.",
            "needed": "Minimum amount required to perform a transfer.",
            "sender": "Address whose tokens are being transferred."
          }
        }
      ],
      "ERC20InvalidApprover(address)": [
        {
          "details": "Indicates a failure with the `approver` of a token to be approved. Used in approvals.",
          "params": {
            "approver": "Address initiating an approval operation."
          }
        }
      ],
      "ERC20InvalidReceiver(address)": [
        {
          "details": "Indicates a failure with the token `receiver`. Used in transfers.",
          "params": {
            "receiver": "Address to which tokens are being transferred."
          }
        }
      ],
      "ERC20InvalidSender(address)": [
        {
          "details": "Indicates a failure with the token `sender`. Used in transfers.",
          "params": {
            "sender": "Address whose tokens are being transferred."
          }
        }
      ],
      "ERC20InvalidSpender(address)": [
        {
          "details": "Indicates a failure with the `spender` to be approved. Used in approvals.",
          "params": {
            "spender": "Address that may be allowed to operate on tokens without being their owner."
          }
        }
      ],
      "ERC2612ExpiredSignature(uint256)": [
        {
          "details": "Permit deadline has expired."
        }
      ],
      "ERC2612InvalidSigner(address,address)": [
        {
          "details": "Mismatched signature."
        }
      ],
      "InvalidAccountNonce(address,uint256)": [
        {
          "details": "The nonce used for an `account` is not the expected current nonce."
        }
      ]
    },
    "events": {
      "Approval(address,address,uint256)": {
        "details": "Emitted when the allowance of a `spender` for an `owner` is set by a call to {approve}. `value` is the new allowance."
      },
      "EIP712DomainChanged()": {
        "details": "MAY be emitted to signal that the domain could have changed."
      },
      "TokensLocked(address,uint256)": {
        "params": {
          "amount": "The amount of tokens locked",
          "user": "The user whose tokens were locked"
        }
      },
      "TokensUnlocked(address,uint256)": {
        "params": {
          "amount": "The amount of the tokens unlocked",
          "user": "The user whose tokens were unlocked"
        }
      },
      "Transfer(address,address,uint256)": {
        "details": "Emitted when `value` tokens are moved from one account (`from`) to another (`to`). Note that `value` may be zero."
      }
    },
    "kind": "dev",
    "methods": {
      "DOMAIN_SEPARATOR()": {
        "details": "Returns the domain separator used in the encoding of the signature for {permit}, as defined by {EIP712}."
      },
      "allowance(address,address)": {
        "details": "See {IERC20-allowance}."
      },
      "approve(address,uint256)": {
        "details": "See {IERC20-approve}. NOTE: If `value` is the maximum `uint256`, the allowance is not updated on `transferFrom`. This is semantically equivalent to an infinite approval. Requirements: - `spender` cannot be the zero address."
      },
      "balanceOf(address)": {
        "details": "See {IERC20-balanceOf}."
      },
      "burn(uint256)": {
        "details": "Destroys a `value` amount of tokens from the caller. See {ERC20-_burn}."
      },
      "burnFrom(address,uint256)": {
        "details": "Destroys a `value` amount of tokens from `account`, deducting from the caller's allowance. See {ERC20-_burn} and {ERC20-allowance}. Requirements: - the caller must have allowance for ``accounts``'s tokens of at least `value`."
      },
      "constructor": {
        "details": "Sets the initial values for the PORTAL token.",
        "params": {
          "_portalFoundation": "Address of the Portal Foundation."
        }
      },
      "decimals()": {
        "details": "Returns the number of decimals used to get its user representation. For example, if `decimals` equals `2`, a balance of `505` tokens should be displayed to a user as `5.05` (`505 / 10 ** 2`). Tokens usually opt for a value of 18, imitating the relationship between Ether and Wei. This is the default value returned by this function, unless it's overridden. NOTE: This information is only used for _display_ purposes: it in no way affects any of the arithmetic of the contract, including {IERC20-balanceOf} and {IERC20-transfer}."
      },
      "eip712Domain()": {
        "details": "See {IERC-5267}."
      },
      "lockTokens(uint256,uint256)": {
        "details": "Allows a user to lock a specified amount of their tokens until a specified time.",
        "params": {
          "_amount": "Amount of tokens to be locked.",
          "_lockTime": "Timestamp until which the tokens are locked."
        }
      },
      "name()": {
        "details": "Returns the name of the token."
      },
      "nonces(address)": {
        "details": "Returns the current nonce for `owner`. This value must be included whenever a signature is generated for {permit}. Every successful call to {permit} increases ``owner``'s nonce by one. This prevents a signature from being used multiple times."
      },
      "permit(address,address,uint256,uint256,uint8,bytes32,bytes32)": {
        "details": "Sets `value` as the allowance of `spender` over ``owner``'s tokens, given ``owner``'s signed approval. IMPORTANT: The same issues {IERC20-approve} has related to transaction ordering also apply here. Emits an {Approval} event. Requirements: - `spender` cannot be the zero address. - `deadline` must be a timestamp in the future. - `v`, `r` and `s` must be a valid `secp256k1` signature from `owner` over the EIP712-formatted function arguments. - the signature must use ``owner``'s current nonce (see {nonces}). For more information on the signature format, see the https://eips.ethereum.org/EIPS/eip-2612#specification[relevant EIP section]. CAUTION: See Security Considerations above."
      },
      "revertOwnershipToFoundation()": {
        "details": "Reverts ownership to the Portal Foundation after a specific period."
      },
      "symbol()": {
        "details": "Returns the symbol of the token, usually a shorter version of the name."
      },
      "totalSupply()": {
        "details": "See {IERC20-totalSupply}."
      },
      "transfer(address,uint256)": {
        "details": "See {IERC20-transfer}. Requirements: - `to` cannot be the zero address. - the caller must have a balance of at least `value`."
      },
      "transferFrom(address,address,uint256)": {
        "details": "See {IERC20-transferFrom}. Emits an {Approval} event indicating the updated allowance. This is not required by the EIP. See the note at the beginning of {ERC20}. NOTE: Does not update the allowance if the current allowance is the maximum `uint256`. Requirements: - `from` and `to` cannot be the zero address. - `from` must have a balance of at least `value`. - the caller must have allowance for ``from``'s tokens of at least `value`."
      },
      "transferOwnership(address)": {
        "details": "Transfers ownership with added minting logic. Can only be called by the current owner.",
        "params": {
          "_newOwner": "Address of the new owner."
        }
      },
      "unlockTokens(address,uint256)": {
        "details": "Allows a user or the owner to unlock a specified amount of tokens.",
        "params": {
          "_amount": "Amount of tokens to be unlocked.",
          "_user": "Address of the user whose tokens are to be unlocked."
        }
      }
    },
    "title": "PORTAL Token Contract",
    "version": 1
  },
  "userdoc": {
    "events": {
      "TokensLocked(address,uint256)": {
        "notice": "Fired when a user locks tokens."
      },
      "TokensUnlocked(address,uint256)": {
        "notice": "Fired after a user loses the bidding process."
      }
    },
    "kind": "user",
    "methods": {
      "EPOCH_DURATION()": {
        "notice": "The duration of each epoch, set to 30 days."
      },
      "INITIAL_SUPPLY()": {
        "notice": "The total initial supply of PORTAL tokens, set to 70 million."
      },
      "lastOwnershipTransition()": {
        "notice": "The timestamp of the last ownership transition."
      },
      "lockedTokens(address)": {
        "notice": "Mapping from user address to their locked token information."
      },
      "mintableAmount()": {
        "notice": "The amount that can be minted in each ownership transition."
      },
      "owner()": {
        "notice": "The address of the owner of the contract."
      },
      "portalFoundation()": {
        "notice": "The address of the Portal Foundation."
      }
    },
    "version": 1
  },
  "storageLayout": {
    "storage": [
      {
        "astId": 3435,
        "contract": "contracts/PortalToken.sol:PortalToken",
        "label": "_balances",
        "offset": 0,
        "slot": "0",
        "type": "t_mapping(t_address,t_uint256)"
      },
      {
        "astId": 3441,
        "contract": "contracts/PortalToken.sol:PortalToken",
        "label": "_allowances",
        "offset": 0,
        "slot": "1",
        "type": "t_mapping(t_address,t_mapping(t_address,t_uint256))"
      },
      {
        "astId": 3443,
        "contract": "contracts/PortalToken.sol:PortalToken",
        "label": "_totalSupply",
        "offset": 0,
        "slot": "2",
        "type": "t_uint256"
      },
      {
        "astId": 3445,
        "contract": "contracts/PortalToken.sol:PortalToken",
        "label": "_name",
        "offset": 0,
        "slot": "3",
        "type": "t_string_storage"
      },
      {
        "astId": 3447,
        "contract": "contracts/PortalToken.sol:PortalToken",
        "label": "_symbol",
        "offset": 0,
        "slot": "4",
        "type": "t_string_storage"
      },
      {
        "astId": 5332,
        "contract": "contracts/PortalToken.sol:PortalToken",
        "label": "_nameFallback",
        "offset": 0,
        "slot": "5",
        "type": "t_string_storage"
      },
      {
        "astId": 5334,
        "contract": "contracts/PortalToken.sol:PortalToken",
        "label": "_versionFallback",
        "offset": 0,
        "slot": "6",
        "type": "t_string_storage"
      },
      {
        "astId": 4311,
        "contract": "contracts/PortalToken.sol:PortalToken",
        "label": "_nonces",
        "offset": 0,
        "slot": "7",
        "type": "t_mapping(t_address,t_uint256)"
      },
      {
        "astId": 8082,
        "contract": "contracts/PortalToken.sol:PortalToken",
        "label": "lastOwnershipTransition",
        "offset": 0,
        "slot": "8",
        "type": "t_uint256"
      },
      {
        "astId": 8085,
        "contract": "contracts/PortalToken.sol:PortalToken",
        "label": "mintableAmount",
        "offset": 0,
        "slot": "9",
        "type": "t_uint256"
      },
      {
        "astId": 8091,
        "contract": "contracts/PortalToken.sol:PortalToken",
        "label": "owner",
        "offset": 0,
        "slot": "10",
        "type": "t_address"
      },
      {
        "astId": 8103,
        "contract": "contracts/PortalToken.sol:PortalToken",
        "label": "lockedTokens",
        "offset": 0,
        "slot": "11",
        "type": "t_mapping(t_address,t_struct(LockedTokenInfo)8097_storage)"
      }
    ],
    "types": {
      "t_address": {
        "encoding": "inplace",
        "label": "address",
        "numberOfBytes": "20"
      },
      "t_mapping(t_address,t_mapping(t_address,t_uint256))": {
        "encoding": "mapping",
        "key": "t_address",
        "label": "mapping(address => mapping(address => uint256))",
        "numberOfBytes": "32",
        "value": "t_mapping(t_address,t_uint256)"
      },
      "t_mapping(t_address,t_struct(LockedTokenInfo)8097_storage)": {
        "encoding": "mapping",
        "key": "t_address",
        "label": "mapping(address => struct PortalToken.LockedTokenInfo)",
        "numberOfBytes": "32",
        "value": "t_struct(LockedTokenInfo)8097_storage"
      },
      "t_mapping(t_address,t_uint256)": {
        "encoding": "mapping",
        "key": "t_address",
        "label": "mapping(address => uint256)",
        "numberOfBytes": "32",
        "value": "t_uint256"
      },
      "t_string_storage": {
        "encoding": "bytes",
        "label": "string",
        "numberOfBytes": "32"
      },
      "t_struct(LockedTokenInfo)8097_storage": {
        "encoding": "inplace",
        "label": "struct PortalToken.LockedTokenInfo",
        "members": [
          {
            "astId": 8094,
            "contract": "contracts/PortalToken.sol:PortalToken",
            "label": "amount",
            "offset": 0,
            "slot": "0",
            "type": "t_uint256"
          },
          {
            "astId": 8096,
            "contract": "contracts/PortalToken.sol:PortalToken",
            "label": "lockTime",
            "offset": 0,
            "slot": "1",
            "type": "t_uint256"
          }
        ],
        "numberOfBytes": "64"
      },
      "t_uint256": {
        "encoding": "inplace",
        "label": "uint256",
        "numberOfBytes": "32"
      }
    }
  }
}