{
  "address": "0x2c4B68d6D01c24dC54316a322652707535126D4a",
  "abi": [
    {
      "inputs": [
        {
          "internalType": "address",
          "name": "_tokenAddress",
          "type": "address"
        },
        {
          "internalType": "address",
          "name": "_assetManager",
          "type": "address"
        },
        {
          "internalType": "address",
          "name": "_liquidityPool",
          "type": "address"
        }
      ],
      "stateMutability": "nonpayable",
      "type": "constructor"
    },
    {
      "anonymous": false,
      "inputs": [
        {
          "components": [
            {
              "internalType": "bytes32",
              "name": "id",
              "type": "bytes32"
            },
            {
              "internalType": "bytes32",
              "name": "secretHash",
              "type": "bytes32"
            },
            {
              "internalType": "uint256",
              "name": "amount",
              "type": "uint256"
            },
            {
              "internalType": "string",
              "name": "invoice",
              "type": "string"
            }
          ],
          "indexed": false,
          "internalType": "struct IADMM.Invoice",
          "name": "invoice",
          "type": "tuple"
        }
      ],
      "name": "InvoiceRegistered",
      "type": "event"
    },
    {
      "anonymous": false,
      "inputs": [
        {
          "components": [
            {
              "internalType": "address",
              "name": "owner",
              "type": "address"
            },
            {
              "internalType": "address",
              "name": "sellAsset",
              "type": "address"
            },
            {
              "internalType": "uint256",
              "name": "sellAmount",
              "type": "uint256"
            },
            {
              "internalType": "address",
              "name": "buyAsset",
              "type": "address"
            },
            {
              "internalType": "uint256",
              "name": "poolFee",
              "type": "uint256"
            },
            {
              "internalType": "uint256",
              "name": "buyRangeLowLimit",
              "type": "uint256"
            },
            {
              "internalType": "uint256",
              "name": "buyRangeHighLimit",
              "type": "uint256"
            }
          ],
          "indexed": false,
          "internalType": "struct IADMM.Liquidity",
          "name": "liquidity",
          "type": "tuple"
        }
      ],
      "name": "LiquidityCommitted",
      "type": "event"
    },
    {
      "anonymous": false,
      "inputs": [
        {
          "components": [
            {
              "internalType": "address",
              "name": "liquidityOwner",
              "type": "address"
            },
            {
              "internalType": "address",
              "name": "sellAsset",
              "type": "address"
            },
            {
              "internalType": "uint256",
              "name": "sellAmount",
              "type": "uint256"
            }
          ],
          "indexed": false,
          "internalType": "struct IADMM.LiquidityLimit",
          "name": "liquidityLimit",
          "type": "tuple"
        }
      ],
      "name": "LiquidityLimitUpdated",
      "type": "event"
    },
    {
      "anonymous": false,
      "inputs": [
        {
          "components": [
            {
              "internalType": "address",
              "name": "owner",
              "type": "address"
            },
            {
              "internalType": "address",
              "name": "sellAsset",
              "type": "address"
            },
            {
              "internalType": "uint256",
              "name": "sellAmount",
              "type": "uint256"
            },
            {
              "internalType": "address",
              "name": "buyAsset",
              "type": "address"
            },
            {
              "internalType": "uint256",
              "name": "poolFee",
              "type": "uint256"
            },
            {
              "internalType": "uint256",
              "name": "buyRangeLowLimit",
              "type": "uint256"
            },
            {
              "internalType": "uint256",
              "name": "buyRangeHighLimit",
              "type": "uint256"
            }
          ],
          "indexed": false,
          "internalType": "struct IADMM.Liquidity",
          "name": "liquidity",
          "type": "tuple"
        }
      ],
      "name": "LiquidityRemoved",
      "type": "event"
    },
    {
      "anonymous": false,
      "inputs": [
        {
          "components": [
            {
              "internalType": "bytes32",
              "name": "id",
              "type": "bytes32"
            },
            {
              "internalType": "bytes32",
              "name": "liquidityPoolId",
              "type": "bytes32"
            },
            {
              "internalType": "bytes32",
              "name": "secretHash",
              "type": "bytes32"
            },
            {
              "internalType": "address",
              "name": "sellAsset",
              "type": "address"
            },
            {
              "internalType": "uint256",
              "name": "sellAmount",
              "type": "uint256"
            },
            {
              "internalType": "address",
              "name": "buyAsset",
              "type": "address"
            },
            {
              "internalType": "uint256",
              "name": "buyAmount",
              "type": "uint256"
            },
            {
              "internalType": "uint256",
              "name": "slippage",
              "type": "uint256"
            },
            {
              "internalType": "uint256",
              "name": "swapCreation",
              "type": "uint256"
            },
            {
              "internalType": "address",
              "name": "swapOwner",
              "type": "address"
            },
            {
              "internalType": "string",
              "name": "buyId",
              "type": "string"
            },
            {
              "internalType": "string",
              "name": "status",
              "type": "string"
            }
          ],
          "indexed": false,
          "internalType": "struct IADMM.Swap",
          "name": "swap",
          "type": "tuple"
        }
      ],
      "name": "SwapCreated",
      "type": "event"
    },
    {
      "anonymous": false,
      "inputs": [
        {
          "indexed": true,
          "internalType": "bytes32",
          "name": "id",
          "type": "bytes32"
        },
        {
          "indexed": true,
          "internalType": "address",
          "name": "liquidityOwner",
          "type": "address"
        },
        {
          "indexed": false,
          "internalType": "address",
          "name": "sellAsset",
          "type": "address"
        },
        {
          "indexed": false,
          "internalType": "uint256",
          "name": "matchedSellAmount",
          "type": "uint256"
        },
        {
          "indexed": false,
          "internalType": "uint256",
          "name": "matchedBuyAmount",
          "type": "uint256"
        }
      ],
      "name": "SwapMatched",
      "type": "event"
    },
    {
      "anonymous": false,
      "inputs": [
        {
          "components": [
            {
              "internalType": "bytes32",
              "name": "id",
              "type": "bytes32"
            },
            {
              "internalType": "bytes32",
              "name": "liquidityPoolId",
              "type": "bytes32"
            },
            {
              "internalType": "bytes32",
              "name": "secretHash",
              "type": "bytes32"
            },
            {
              "internalType": "address",
              "name": "sellAsset",
              "type": "address"
            },
            {
              "internalType": "uint256",
              "name": "sellAmount",
              "type": "uint256"
            },
            {
              "internalType": "address",
              "name": "buyAsset",
              "type": "address"
            },
            {
              "internalType": "uint256",
              "name": "buyAmount",
              "type": "uint256"
            },
            {
              "internalType": "uint256",
              "name": "slippage",
              "type": "uint256"
            },
            {
              "internalType": "uint256",
              "name": "swapCreation",
              "type": "uint256"
            },
            {
              "internalType": "address",
              "name": "swapOwner",
              "type": "address"
            },
            {
              "internalType": "string",
              "name": "buyId",
              "type": "string"
            },
            {
              "internalType": "string",
              "name": "status",
              "type": "string"
            }
          ],
          "indexed": false,
          "internalType": "struct IADMM.Swap",
          "name": "swap",
          "type": "tuple"
        }
      ],
      "name": "SwapValidated",
      "type": "event"
    },
    {
      "inputs": [],
      "name": "MULTIPLIER",
      "outputs": [
        {
          "internalType": "uint256",
          "name": "",
          "type": "uint256"
        }
      ],
      "stateMutability": "view",
      "type": "function"
    },
    {
      "inputs": [],
      "name": "assetManager",
      "outputs": [
        {
          "internalType": "contract IAssetManagement",
          "name": "",
          "type": "address"
        }
      ],
      "stateMutability": "view",
      "type": "function"
    },
    {
      "inputs": [
        {
          "components": [
            {
              "internalType": "address",
              "name": "owner",
              "type": "address"
            },
            {
              "internalType": "address",
              "name": "sellAsset",
              "type": "address"
            },
            {
              "internalType": "uint256",
              "name": "sellAmount",
              "type": "uint256"
            },
            {
              "internalType": "address",
              "name": "buyAsset",
              "type": "address"
            },
            {
              "internalType": "uint256",
              "name": "poolFee",
              "type": "uint256"
            },
            {
              "internalType": "uint256",
              "name": "buyRangeLowLimit",
              "type": "uint256"
            },
            {
              "internalType": "uint256",
              "name": "buyRangeHighLimit",
              "type": "uint256"
            }
          ],
          "internalType": "struct IADMM.Liquidity",
          "name": "liquidity",
          "type": "tuple"
        }
      ],
      "name": "commitLiquidity",
      "outputs": [],
      "stateMutability": "nonpayable",
      "type": "function"
    },
    {
      "inputs": [
        {
          "components": [
            {
              "internalType": "bytes32",
              "name": "id",
              "type": "bytes32"
            },
            {
              "internalType": "bytes32",
              "name": "liquidityPoolId",
              "type": "bytes32"
            },
            {
              "internalType": "bytes32",
              "name": "secretHash",
              "type": "bytes32"
            },
            {
              "internalType": "address",
              "name": "sellAsset",
              "type": "address"
            },
            {
              "internalType": "uint256",
              "name": "sellAmount",
              "type": "uint256"
            },
            {
              "internalType": "address",
              "name": "buyAsset",
              "type": "address"
            },
            {
              "internalType": "uint256",
              "name": "buyAmount",
              "type": "uint256"
            },
            {
              "internalType": "uint256",
              "name": "slippage",
              "type": "uint256"
            },
            {
              "internalType": "uint256",
              "name": "swapCreation",
              "type": "uint256"
            },
            {
              "internalType": "address",
              "name": "swapOwner",
              "type": "address"
            },
            {
              "internalType": "string",
              "name": "buyId",
              "type": "string"
            },
            {
              "internalType": "string",
              "name": "status",
              "type": "string"
            }
          ],
          "internalType": "struct IADMM.Swap",
          "name": "swap",
          "type": "tuple"
        }
      ],
      "name": "createSwap",
      "outputs": [],
      "stateMutability": "nonpayable",
      "type": "function"
    },
    {
      "inputs": [
        {
          "internalType": "bytes32",
          "name": "",
          "type": "bytes32"
        }
      ],
      "name": "eventOutputs",
      "outputs": [
        {
          "internalType": "bytes32",
          "name": "id",
          "type": "bytes32"
        },
        {
          "internalType": "bytes32",
          "name": "secretHash",
          "type": "bytes32"
        },
        {
          "internalType": "address",
          "name": "matchedLp",
          "type": "address"
        },
        {
          "internalType": "uint256",
          "name": "matchedSellAmount",
          "type": "uint256"
        },
        {
          "internalType": "uint256",
          "name": "matchedBuyAmount",
          "type": "uint256"
        },
        {
          "internalType": "string",
          "name": "invoice",
          "type": "string"
        }
      ],
      "stateMutability": "view",
      "type": "function"
    },
    {
      "inputs": [
        {
          "internalType": "bytes32",
          "name": "",
          "type": "bytes32"
        },
        {
          "internalType": "uint256",
          "name": "",
          "type": "uint256"
        }
      ],
      "name": "liquidities",
      "outputs": [
        {
          "internalType": "address",
          "name": "owner",
          "type": "address"
        },
        {
          "internalType": "address",
          "name": "sellAsset",
          "type": "address"
        },
        {
          "internalType": "uint256",
          "name": "sellAmount",
          "type": "uint256"
        },
        {
          "internalType": "address",
          "name": "buyAsset",
          "type": "address"
        },
        {
          "internalType": "uint256",
          "name": "poolFee",
          "type": "uint256"
        },
        {
          "internalType": "uint256",
          "name": "buyRangeLowLimit",
          "type": "uint256"
        },
        {
          "internalType": "uint256",
          "name": "buyRangeHighLimit",
          "type": "uint256"
        }
      ],
      "stateMutability": "view",
      "type": "function"
    },
    {
      "inputs": [
        {
          "internalType": "bytes32",
          "name": "",
          "type": "bytes32"
        },
        {
          "internalType": "uint256",
          "name": "",
          "type": "uint256"
        }
      ],
      "name": "liquidityIds",
      "outputs": [
        {
          "internalType": "uint256",
          "name": "",
          "type": "uint256"
        }
      ],
      "stateMutability": "view",
      "type": "function"
    },
    {
      "inputs": [
        {
          "internalType": "address",
          "name": "",
          "type": "address"
        },
        {
          "internalType": "address",
          "name": "",
          "type": "address"
        }
      ],
      "name": "liquidityLimits",
      "outputs": [
        {
          "internalType": "address",
          "name": "liquidityOwner",
          "type": "address"
        },
        {
          "internalType": "address",
          "name": "sellAsset",
          "type": "address"
        },
        {
          "internalType": "uint256",
          "name": "sellAmount",
          "type": "uint256"
        }
      ],
      "stateMutability": "view",
      "type": "function"
    },
    {
      "inputs": [],
      "name": "liquidityPool",
      "outputs": [
        {
          "internalType": "contract ILiquidityPool",
          "name": "",
          "type": "address"
        }
      ],
      "stateMutability": "view",
      "type": "function"
    },
    {
      "inputs": [
        {
          "internalType": "bytes32",
          "name": "id",
          "type": "bytes32"
        }
      ],
      "name": "matchSwap",
      "outputs": [],
      "stateMutability": "nonpayable",
      "type": "function"
    },
    {
      "inputs": [],
      "name": "poolManager",
      "outputs": [
        {
          "internalType": "contract IPoolManager",
          "name": "",
          "type": "address"
        }
      ],
      "stateMutability": "view",
      "type": "function"
    },
    {
      "inputs": [],
      "name": "priceBTCtoETH",
      "outputs": [
        {
          "internalType": "uint256",
          "name": "",
          "type": "uint256"
        }
      ],
      "stateMutability": "view",
      "type": "function"
    },
    {
      "inputs": [
        {
          "components": [
            {
              "internalType": "bytes32",
              "name": "id",
              "type": "bytes32"
            },
            {
              "internalType": "bytes32",
              "name": "secretHash",
              "type": "bytes32"
            },
            {
              "internalType": "uint256",
              "name": "amount",
              "type": "uint256"
            },
            {
              "internalType": "string",
              "name": "invoice",
              "type": "string"
            }
          ],
          "internalType": "struct IADMM.Invoice",
          "name": "invoice",
          "type": "tuple"
        }
      ],
      "name": "registerInvoice",
      "outputs": [],
      "stateMutability": "nonpayable",
      "type": "function"
    },
    {
      "inputs": [
        {
          "internalType": "uint256",
          "name": "liquidityId",
          "type": "uint256"
        },
        {
          "internalType": "bytes32",
          "name": "liquidityPoolId",
          "type": "bytes32"
        }
      ],
      "name": "removeLiquidity",
      "outputs": [],
      "stateMutability": "nonpayable",
      "type": "function"
    },
    {
      "inputs": [
        {
          "internalType": "address",
          "name": "sellAsset",
          "type": "address"
        },
        {
          "internalType": "address",
          "name": "buyAsset",
          "type": "address"
        },
        {
          "internalType": "uint24",
          "name": "poolFee",
          "type": "uint24"
        },
        {
          "internalType": "uint160",
          "name": "initialSqrtPriceX96ToPrice",
          "type": "uint160"
        }
      ],
      "name": "setInitialSqrtPrice",
      "outputs": [],
      "stateMutability": "nonpayable",
      "type": "function"
    },
    {
      "inputs": [
        {
          "components": [
            {
              "internalType": "address",
              "name": "liquidityOwner",
              "type": "address"
            },
            {
              "internalType": "address",
              "name": "sellAsset",
              "type": "address"
            },
            {
              "internalType": "uint256",
              "name": "sellAmount",
              "type": "uint256"
            }
          ],
          "internalType": "struct IADMM.LiquidityLimit",
          "name": "liquidityLimit",
          "type": "tuple"
        }
      ],
      "name": "setLiquidityLimit",
      "outputs": [],
      "stateMutability": "nonpayable",
      "type": "function"
    },
    {
      "inputs": [
        {
          "internalType": "address",
          "name": "_poolManager",
          "type": "address"
        }
      ],
      "name": "setPoolManager",
      "outputs": [],
      "stateMutability": "nonpayable",
      "type": "function"
    },
    {
      "inputs": [
        {
          "internalType": "uint256",
          "name": "price",
          "type": "uint256"
        }
      ],
      "name": "setPriceBTCtoETH",
      "outputs": [],
      "stateMutability": "nonpayable",
      "type": "function"
    },
    {
      "inputs": [
        {
          "internalType": "uint160",
          "name": "sqrtPriceX96",
          "type": "uint160"
        }
      ],
      "name": "sqrtPriceX96ToPrice",
      "outputs": [
        {
          "internalType": "uint256",
          "name": "price",
          "type": "uint256"
        }
      ],
      "stateMutability": "pure",
      "type": "function"
    },
    {
      "inputs": [
        {
          "internalType": "bytes32",
          "name": "",
          "type": "bytes32"
        }
      ],
      "name": "swaps",
      "outputs": [
        {
          "internalType": "bytes32",
          "name": "id",
          "type": "bytes32"
        },
        {
          "internalType": "bytes32",
          "name": "liquidityPoolId",
          "type": "bytes32"
        },
        {
          "internalType": "bytes32",
          "name": "secretHash",
          "type": "bytes32"
        },
        {
          "internalType": "address",
          "name": "sellAsset",
          "type": "address"
        },
        {
          "internalType": "uint256",
          "name": "sellAmount",
          "type": "uint256"
        },
        {
          "internalType": "address",
          "name": "buyAsset",
          "type": "address"
        },
        {
          "internalType": "uint256",
          "name": "buyAmount",
          "type": "uint256"
        },
        {
          "internalType": "uint256",
          "name": "slippage",
          "type": "uint256"
        },
        {
          "internalType": "uint256",
          "name": "swapCreation",
          "type": "uint256"
        },
        {
          "internalType": "address",
          "name": "swapOwner",
          "type": "address"
        },
        {
          "internalType": "string",
          "name": "buyId",
          "type": "string"
        },
        {
          "internalType": "string",
          "name": "status",
          "type": "string"
        }
      ],
      "stateMutability": "view",
      "type": "function"
    },
    {
      "inputs": [],
      "name": "tokenContract",
      "outputs": [
        {
          "internalType": "contract IPortalToken",
          "name": "",
          "type": "address"
        }
      ],
      "stateMutability": "view",
      "type": "function"
    },
    {
      "inputs": [
        {
          "internalType": "bytes32",
          "name": "id",
          "type": "bytes32"
        }
      ],
      "name": "validateSwap",
      "outputs": [],
      "stateMutability": "nonpayable",
      "type": "function"
    }
  ],
  "transactionHash": "0xad7ab308a58e92143b910434db1543729ce66abb9b80e6e111dac5d8c7958fec",
  "args": [
    "0x742f24592459e189f520214E2f2110C4528d784c",
    "0x4F617b7Dd233552eBef69ECfF646f5A53A618550",
    "0x1425C0c80c5798490e29d2005768e5C549659E26"
  ],
  "numDeployments": 2,
  "solcInputHash": "c1572bf22a333d4dcfe2fbabfb658fd5",
  "bytecode": "0x608034620000b057601f6200307638819003918201601f19168301916001600160401b03831184841017620000b557808492606094604052833981010312620000b0576200004d81620000cb565b906200006a60406200006260208401620000cb565b9201620000cb565b601d60045560018060a01b0380928160018060a01b031995168560005416176000551683600254161760025516906003541617600355604051612f959081620000e18239f35b600080fd5b634e487b7160e01b600052604160045260246000fd5b51906001600160a01b0382168203620000b05756fe608080604052600436101561001357600080fd5b60003560e01c908163059f8b16146127915750806320776dd91461270757806324b4c8a6146126e957806328eb1e89146124d15780633bfbec0f1461249257806351b9cb781461232c57806353c6ac1f1461182757806355a373d614611800578063665a11ca146117d95780637aef67151461166a57806387783b8d146111e15780638f8b76761461115c57806394217ad1146111355780639c44007914610da2578063a67f3e3b14610c79578063aa52cba714610c41578063ae84e95e14610751578063bc25d95b146106b0578063cabc521314610621578063dc4c90d3146105fa578063eb84e7f2146104f95763f76742b31461011157600080fd5b34610394576003196020368201126103945767ffffffffffffffff60043511610394576080600435360391820112610394576004356004013560005260056020526040600020906002820180546000526006602052600b604060002093016040516020810190610193816101858486612d63565b03601f1981018352826128d0565b5190206040516020810190661b585d18da195960ca1b8252600781526101b8816128b4565b519020036104b5576101d36101cd8254612955565b82612cf4565b60227f696e766f69636552656769737465726564000000000000000000000000000000019055602460043501359055602460043501356001830155602219016064600435013512156103945767ffffffffffffffff60048035606481013501013511610394576004803560648101350190810135360360249091011361039457610279600460648135013581350101356102706005840154612955565b60058401612d1e565b60006001601f6004803560648101350101351114610408576000906004803560648101350101356103f2575b50600019600480356064810135010135600381901b9190911c1990911660019190911b1760058201555b6024600435013560005260066020526040600020818103610399575b5050604051602081526004356004013560208201526024600435013560408201526044600435013560608201526004356064600435013501906024600483013592019167ffffffffffffffff811161039457803603831361039457818160c0927f9370909cadd2a6e582f59de4953af02a4befd85448ce4d81c98bf89a7ec47abb956080808501528160a0850152848401376000828201840152601f01601f19168101030190a1005b600080fd5b600580836103eb9454845560018101546001850155600284016001600160a01b036002830154166001600160a01b03198254161790556003810154600385015560048101546004850155019101612de5565b38806102eb565b60043560648101350101602401359050386102a5565b6005820160005260206000209060005b600480356064810135010135601f191681106104925750600480356064810135010135601f19811610610464575b5050600160046064813501358135010135811b0160058201556102cf565b6004803560648101350191820160240135600019929091013560031b60f8169190911c191690553880610446565b600435606481013501820160240135835560019092019160209182019101610418565b606460405162461bcd60e51b815260206004820152601c60248201527f53776170206973206e6f7420696e206d617463686564207374617465000000006044820152fd5b34610394576020366003190112610394576004356000526005602052602060406000206105f68154916105e7600a600183015460028401546001600160a01b0390816003870154166004870154836005890154169060068901549260078a01549460088b01549660098c015416976105828c61057b604051809d81930161298f565b038b6128d0565b61059f600b6105986040519e8f9283910161298f565b038d6128d0565b6040519e8f9e8f908152015260408d015260608c015260808b015260a08a015260c089015260e088015261010087015261012086015261018080610140870152850190612a48565b90838203610160850152612a48565b0390f35b346103945760003660031901126103945760206001600160a01b0360015416604051908152f35b34610394576020366003190112610394576004356000526006602052604060002080546105f660056001840154936001600160a01b0360028201541660038201549061068360048401549361067c604051809781930161298f565b03856128d0565b6040519687968752602087015260408601526060850152608084015260c060a084015260c0830190612a48565b346103945760203660031901126103945760046001600160a01b036020816000541660405193848092638da5cb5b60e01b82525afa90811561074557600091610709575b6107019250163314612a81565b600480359055005b90506020823d821161073d575b81610723602093836128d0565b810103126103945761073761070192612a6d565b906106f4565b3d9150610716565b6040513d6000823e3d90fd5b34610394576003196020368201126103945767ffffffffffffffff6004351161039457610180906004353603011261039457604051610180810181811067ffffffffffffffff821117610bb2576040526004356004013581526024600435013560208201526044600435013560408201526107d0606460043501612854565b60608201526084600435013560808201526107ef60a460043501612854565b60a082015260043560c481013560c083015260e481013560e08301526101048101356101008301526108249061012401612854565b61012082015267ffffffffffffffff610144600435013511610394576108553660048035610144810135010161290e565b61014082015267ffffffffffffffff610164600435013511610394576108863660048035610164810135010161290e565b6101608201524261010082015260405161089f816128b4565b600781526618dc99585d195960ca1b6020820152610160820152805160005260056020526040600020908051825560208101516001830155604081015160028301556001600160a01b03606082015116600383016001600160a01b0319918282541617905560808201516004840155600583016001600160a01b0360a0840151168282541617905560c0820151600684015560e08201516007840155610100820151600884015560098301906001600160a01b03610120840151169082541617905561014081015191825167ffffffffffffffff8111610bb2576109938161098a600a850154612955565b600a8501612d1e565b6020601f8211600114610bd35781929394600092610bc8575b50508160011b916000199060031b1c191617600a8201555b61016082015180519067ffffffffffffffff8211610bb2576109f6826109ed600b860154612955565b600b8601612d1e565b602090601f8311600114610b1c57827f44834e060b6b8e870f29d3e0519a1dfdb1c830f6ed9767a4cc8d113c5f40ee429593610b0c9593600b93600092610b11575b50508160011b916000199060031b1c1916179101555b604051918291602083528051602084015260208101516040840152604081015160608401526001600160a01b036060820151166080840152608081015160a08401526001600160a01b0360a08201511660c084015260c081015160e084015260e08101516101008401526101008101516101208401526001600160a01b0361012082015116610140840152610160610af7610140830151610180838701526101a0860190612a48565b910151838203601f1901610180850152612a48565b0390a1005b015190508780610a38565b90600b840160005260206000209160005b601f1985168110610b9a575083610b0c9593600b936001937f44834e060b6b8e870f29d3e0519a1dfdb1c830f6ed9767a4cc8d113c5f40ee429997601f19811610610b81575b505050811b01910155610a4e565b015160001960f88460031b161c19169055878080610b73565b91926020600181928685015181550194019201610b2d565b634e487b7160e01b600052604160045260246000fd5b0151905084806109ac565b600a830160005260206000209060005b601f1984168110610c295750600193949583601f19811610610c10575b505050811b01600a8201556109c4565b015160001960f88460031b161c19169055848080610c00565b9091602060018192858a015181550193019101610be3565b34610394576020366003190112610394576020610c6e6001600160a01b03610c67612812565b1680612f09565b60c01c604051908152f35b3461039457608036600319011261039457610c92612812565b610c9a612828565b906044359062ffffff821680920361039457610cb461283e565b916001600160a01b039160046020846000541660405192838092638da5cb5b60e01b82525afa801561074557600090610d68575b610cf6915084163314612a81565b826001541693843b1561039457600094848692608495826040519a8b998a987fa67f3e3b000000000000000000000000000000000000000000000000000000008a5216600489015216602487015260448601521660648401525af1801561074557610d5d57005b610d6690612884565b005b506020813d8211610d9a575b81610d81602093836128d0565b8101031261039457610d95610cf691612a6d565b610ce8565b3d9150610d74565b3461039457604036600319011261039457610dc06024351515612b8f565b602435600052600760205260406000205460043510156110f1576024356000526007602052610df560043560406000206127c8565b50600660405191610e0583612898565b6001600160a01b0381541683526001600160a01b036001820154166020840152600281015460408401526001600160a01b03600382015416606084015260048101546080840152600581015460a0840152015460c0820152600460206001600160a01b036000541660405192838092638da5cb5b60e01b82525afa8015610745576000906110b1575b6001600160a01b0391501633148015611099575b610eab90612b1e565b6004355b602435600052600760205260406000205480600019810111610f2f5760001901811015610f45576024356000526007602052604060002090600181018111610f2f57610f25610f05610f2a9360018401906127c8565b506024356000526007602052610f1f8360406000206127c8565b90612c55565b612be7565b610eaf565b634e487b7160e01b600052601160045260246000fd5b5060243560005260076020526040600020805491821561108357610f6d6000198401836127c8565b92909261106d577f798836e95c4934842129df2a514f0a3804b9b90e79c60ba6efa0e20649af6a199360006006858260e09755826001820155826002820155826003820155826004820155826005820155015560001901905560408101516001600160a01b03602083015116600052600860205260406000206001600160a01b0383511660005260205261100a6002604060002001918254612cd0565b905560c0604051916001600160a01b0381511683526001600160a01b036020820151166020840152604081015160408401526001600160a01b0360608201511660608401526080810151608084015260a081015160a0840152015160c0820152a1005b634e487b7160e01b600052600060045260246000fd5b634e487b7160e01b600052603160045260246000fd5b50610eab6001600160a01b0382511633149050610ea2565b506020813d6020116110e9575b816110cb602093836128d0565b81010312610394576110e46001600160a01b0391612a6d565b610e8e565b3d91506110be565b606460405162461bcd60e51b815260206004820152601360248201527f496e76616c6964206c69717569646974794964000000000000000000000000006044820152fd5b346103945760003660031901126103945760206001600160a01b0360025416604051908152f35b3461039457604036600319011261039457611175612812565b61117d612828565b6001600160a01b03809216600052600860205281604060002091166000526020526040600020906105f660028284541692600185015416930154604051938493846040919493929460608201956001600160a01b0380921683521660208201520152565b346103945760e036600319011261039457600460206001600160a01b036000541660405192838092638da5cb5b60e01b82525afa80156107455760009061162a575b6001600160a01b039150163314801561160c575b61124090612b1e565b6001600160a01b03611250612af2565b16600052600860205260406000206001600160a01b0361126e612b08565b16600052602052600260406000200154604435116115c8576001600160a01b036003541661129a612af2565b606435906001600160a01b0382168203610394576040517f46965e250000000000000000000000000000000000000000000000000000000081526001600160a01b03918216600482015291166024820152608435604482015290602090829060649082905afa90811561074557600091611596575b5061131b811515612b8f565b61132760a43582612bf6565b6040519061133482612898565b61133c612812565b8252611346612828565b6020830152604435604083015261135b61283e565b6060830152608435608083015260a43560a083015260c43560c08301528260005260076020526040600020805468010000000000000000811015610bb2576113a8916001820181556127c8565b50508260005260076020526040600020546001811161152c575b506113da9192600052600760205260406000206127c8565b91909161106d5760c0816001600160a01b0360069351166001600160a01b03199081865416178555600185016001600160a01b03602084015116828254161790556040820151600286015560038501906001600160a01b03606084015116908254161790556080810151600485015560a0810151600585015501519101556001600160a01b03611468612af2565b16600052600860205260406000206001600160a01b03611486612b08565b1660005260205260026040600020016114a26044358254612bda565b90557ff59a5948e4b4ba056adfeb8c0f7537f8fb22f680c14c97470c9ac110d190d2fc60e06040516001600160a01b036114da612812565b1681526001600160a01b036114ed612828565b16602082015260443560408201526001600160a01b0361150b61283e565b166060820152608435608082015260a43560a082015260c43560c0820152a1005b80600019810111610f2f57600019015b818111156113c257836000526007602052604060002081600019810111610f2f5761156f611587916000198401906127c8565b50856000526007602052610f1f8360406000206127c8565b8015610f2f576000190161153c565b90506020813d6020116115c0575b816115b1602093836128d0565b8101031261039457518161130f565b3d91506115a4565b606460405162461bcd60e51b815260206004820152601860248201527f4272656163686564204c6971756964697479204c696d697400000000000000006044820152fd5b506112406001600160a01b03611620612b08565b1633149050611237565b506020813d602011611662575b81611644602093836128d0565b810103126103945761165d6001600160a01b0391612a6d565b611223565b3d9150611637565b346103945760208060031936011261039457611684612812565b60046001600160a01b039183836000541660405193848092638da5cb5b60e01b82525afa801561074557839260009161179e575b506116c69083163314612a81565b1691826001600160a01b031960015416176001556040517fc45a01550000000000000000000000000000000000000000000000000000000081528181600481875afa91821561074557600092611767575b50501690813b15610394576000916024839260405194859384927f7048027500000000000000000000000000000000000000000000000000000000845260048401525af1801561074557610d5d57005b90809250813d8311611797575b61177e81836128d0565b8101031261039457518181168103610394578380611717565b503d611774565b809350858092503d83116117d2575b6117b781836128d0565b81010312610394576116c66117cc8493612a6d565b906116b8565b503d6117ad565b346103945760003660031901126103945760206001600160a01b0360035416604051908152f35b346103945760003660031901126103945760206001600160a01b0360005416604051908152f35b346103945760203660031901126103945760043560005260056020526040600020600b81016040516020810190611862816101858486612d63565b5190206040516020810190681d985b1a59185d195960ba1b825260098152611889816128b4565b519020036122e85761189e6101cd8254612955565b600e661b585d18da195960ca1b0190556001810154906001600160a01b036002541660006001600160a01b036003840154166024604051809481937f4e1d7bac00000000000000000000000000000000000000000000000000000000835260048301525afa801561074557600090612178575b604091500151604051611941602082816119348183019687815193849201612a25565b81010380845201826128d0565b51902060405160208101907f425443000000000000000000000000000000000000000000000000000000000082526003815261197c816128b4565b5190200361214a57611995600482015460045490612f09565b6402540be40090818102918183041490151715610f2f57905b81670de0b6b3a7640000810204670de0b6b3a76400001482151715610f2f576119e56004820154670de0b6b3a76400008402612f1c565b60005b84600052600760205260406000208054821015611acc57611a0a8286926127c8565b506001600160a01b036001820154166001600160a01b036005870154161480611aa9575b611a43575b5050611a3e90612be7565b6119e8565b600201541015611a55575b8386611a33565b600435600052600960205260406000209081549168010000000000000000831015610bb25782611a8d916001611a3e950181556127fa565b81549060031b9083821b91600019901b19161790559050611a4e565b506001600160a01b036003820154166001600160a01b0360038701541614611a2e565b5050839060043560005260096020526040600020541515600014611dcc5750600435600052600960205260406000205443600019430111610f2f5760405160001943014060208201524460408201526040815280606081011067ffffffffffffffff606083011117610bb25760608101604052602081519101208115611db657611b639260005260076020520660406000206127c8565b5060028101611b73848254612bda565b905560028201546001600160a01b038254169060048401549160405192611b9984612868565b6004358452602084019183835260408501908152606085019182526080850192888452611bc4612f26565b9460a0870195865260005260066020526040600020955186555160018601556001600160a01b03600286019151166001600160a01b03198254161790555160038401555160048301555180519067ffffffffffffffff8211610bb257611c3a82611c316005860154612955565b60058601612d1e565b602090601f8311600114611d1b57827fd6cc21c31e96cb4a1f271a96910130d1e0d0e1dd5ef69328dd4ea3c72b5d847f95936001600160a01b039593600593600092611d10575b50508160011b916000199060031b1c1916179101555b54169260046001600160a01b03600385015416930154611cda60405192839260043596846040919493926001600160a01b03606083019616825260208201520152565b0390a35b6004356000526009602052604060002080546000825580611cfb57005b610d6691600052602060002090810190612cdd565b015190508980611c81565b906005840160005260206000209160005b601f1985168110611d9e5750836001600160a01b0395936005936001937fd6cc21c31e96cb4a1f271a96910130d1e0d0e1dd5ef69328dd4ea3c72b5d847f9997601f19811610611d85575b505050811b01910155611c97565b015160001960f88460031b161c19169055898080611d77565b91926020600181928685015181550194019201611d2c565b634e487b7160e01b600052601260045260246000fd5b6000939192935b8360005260076020526040600020805482101561213f5781611df4916127c8565b50906001600160a01b036001830154166001600160a01b03600588015416148061211c575b80612100575b806120f3575b80612086575b611e3f575b611e3a9150612be7565b611dd3565b6002820154916000600282015560028701546001600160a01b03825416908515611db65760405191611e7083612868565b60043583526020830190828252604084019081526060840190600082526080850192888452611e9d612f26565b9460a0870195865260005260066020526040600020955186555160018601556001600160a01b03600286019151166001600160a01b03198254161790555160038401555160048301555180519067ffffffffffffffff8211610bb257611f0a82611c316005860154612955565b602090601f831160011461201657600592916000918361200b575b50508160011b916000199060031b1c1916179101555b6001600160a01b038154169060026001600160a01b0360038a0154169101549384670de0b6b3a7640000810204670de0b6b3a76400001485151715610f2f5784611fe69387937fd6cc21c31e96cb4a1f271a96910130d1e0d0e1dd5ef69328dd4ea3c72b5d847f670de0b6b3a764000094611fbb8787611e3a9c02612f1c565b604080516001600160a01b03959095168552602085019190915283015260043591606090a302612f1c565b60043560005260056020526120046004604060002001918254612bda565b9055611e30565b015190508b80611f25565b906005840160005260206000209160005b601f198516811061206e5750918391600193600595601f19811610612055575b505050811b01910155611f3b565b015160001960f88460031b161c191690558b8080612047565b91926020600181928685015181550194019201612027565b50600582015480670de0b6b3a7640000810204670de0b6b3a76400001481151715610f2f57670de0b6b3a76400000283118015611e2b5750600682015480670de0b6b3a7640000810204670de0b6b3a76400001481151715610f2f57670de0b6b3a7640000028310611e2b565b5083600283015410611e25565b506121146006870154600788015490612cd0565b841115611e1f565b506001600160a01b036003830154166001600160a01b0360038801541614611e19565b505050505050611cde565b60048101546004546402540be40090818102918183041490151715610f2f5761217291612f1c565b906119ae565b503d806000833e61218981836128d0565b602082828101031261039457815167ffffffffffffffff811161039457610100928382820184830103126103945760405193848181011067ffffffffffffffff8287011117610bb25784016040526121e2828201612a6d565b84526020828201015167ffffffffffffffff81116103945761220b908483019084840101612ec4565b60208501526040828201015167ffffffffffffffff811161039457612237908483019084840101612ec4565b60408501526060828201015167ffffffffffffffff811161039457612263908483019084840101612ec4565b60608501528082016080818101519086015260a0015167ffffffffffffffff811161039457612299908483019084840101612ec4565b60a085015260c082820101519267ffffffffffffffff84116103945760e0936122c89183019084840101612ec4565b60c08501520101519060ff821682036103945760409160e0820152611911565b606460405162461bcd60e51b815260206004820152601e60248201527f53776170206973206e6f7420696e2076616c69646174656420737461746500006044820152fd5b34610394576060366003190112610394576001600160a01b0380600054166040518091638da5cb5b60e01b825281600460209485935afa9081156107455760009161242e575b7f5b63864dfb4a19dd435e0c5b1f6e039ed91862cf9b709802a2bccdee9fec80fe6060856002866123a68784163314612a81565b826123af612af2565b16600052600881526040600020836123c5612b08565b1660005281526040600020836123d9612b08565b166001600160a01b031990818354161782556001820190856123f9612af2565b169082541617905560443592839101556040519280612416612812565b168452612421612828565b16908301526040820152a1005b9290508183813d831161248b575b61244681836128d0565b810103126103945760026060926123a66124807f5b63864dfb4a19dd435e0c5b1f6e039ed91862cf9b709802a2bccdee9fec80fe96612a6d565b939550509250612372565b503d61243c565b34610394576124a0366127b2565b90600052600960205260406000208054821015610394576020916124c3916127fa565b90546040519160031b1c8152f35b3461039457602080600319360112610394576001600160a01b03600482826000541660405192838092638da5cb5b60e01b82525afa8015610745576000906126b3575b612522915082163314612a81565b600435600052600582526040600020600b810160405191848301836125478285612d63565b039361255b601f19958681018352826128d0565b519020604051868101906618dc99585d195960ca1b82526007815261257f816128b4565b5190200361266f5791817fd4965279c5ca49ceadbd1832e902fa9a2231cf3727ef8863ab2cfb896102fb3b95936125c26125bc610b0c9554612955565b83612cf4565b6012681d985b1a59185d195960ba1b0182556040519585879687528254908701526001820154604087015260028201546060870152806003830154166080870152600482015460a08701528060058301541660c0870152600682015460e0870152600782015461010087015260088201546101208701526009820154166101408601526126616101809182610160880152600a6101a08801910161298f565b92858403019085015261298f565b6064856040519062461bcd60e51b82526004820152601c60248201527f53776170206973206e6f7420696e2063726561746564207374617465000000006044820152fd5b508281813d83116126e2575b6126c981836128d0565b81010312610394576126dd61252291612a6d565b612514565b503d6126bf565b34610394576000366003190112610394576020600454604051908152f35b3461039457612715366127b2565b906000526007602052604060002080548210156103945760e091612738916127c8565b506001600160a01b03808254169181600182015416916002820154906003830154166004830154916006600585015494015494604051968752602087015260408601526060850152608084015260a083015260c0820152f35b346103945760003660031901126103945780670de0b6b3a764000060209252f35b6040906003190112610394576004359060243590565b80548210156127e4576000526007602060002091020190600090565b634e487b7160e01b600052603260045260246000fd5b80548210156127e45760005260206000200190600090565b600435906001600160a01b038216820361039457565b602435906001600160a01b038216820361039457565b606435906001600160a01b038216820361039457565b35906001600160a01b038216820361039457565b60c0810190811067ffffffffffffffff821117610bb257604052565b67ffffffffffffffff8111610bb257604052565b60e0810190811067ffffffffffffffff821117610bb257604052565b6040810190811067ffffffffffffffff821117610bb257604052565b90601f8019910116810190811067ffffffffffffffff821117610bb257604052565b67ffffffffffffffff8111610bb257601f01601f191660200190565b81601f8201121561039457803590612925826128f2565b9261293360405194856128d0565b8284526020838301011161039457816000926020809301838601378301015290565b90600182811c92168015612985575b602083101461296f57565b634e487b7160e01b600052602260045260246000fd5b91607f1691612964565b90600092918054916129a083612955565b918282526001938481169081600014612a0257506001146129c2575b50505050565b90919394506000526020928360002092846000945b8386106129ee5750505050010190388080806129bc565b8054858701830152940193859082016129d7565b9294505050602093945060ff191683830152151560051b010190388080806129bc565b60005b838110612a385750506000910152565b8181015183820152602001612a28565b90602091612a6181518092818552858086019101612a25565b601f01601f1916010190565b51906001600160a01b038216820361039457565b15612a8857565b608460405162461bcd60e51b815260206004820152602660248201527f43616c6c6572206973206e6f742074686520746f6b656e20636f6e747261637460448201527f206f776e657200000000000000000000000000000000000000000000000000006064820152fd5b6024356001600160a01b03811681036103945790565b6004356001600160a01b03811681036103945790565b15612b2557565b608460405162461bcd60e51b815260206004820152602e60248201527f43616c6c6572206973206e6f7420746865206f776e6572206f7220746865206c60448201527f6971756964697479206f776e65720000000000000000000000000000000000006064820152fd5b15612b9657565b606460405162461bcd60e51b815260206004820152601960248201527f41737365742070616972206e6f742072656769737465726564000000000000006044820152fd5b91908203918211610f2f57565b6000198114610f2f5760010190565b60009181835260076020938185526040918282205495825b878110612c1f575050505050505090565b8684528282526005612c33828787206127c8565b5001548610612c4a57612c4590612be7565b612c0e565b965050505050505090565b919061106d57808203612c66575050565b600680916001600160a01b03808254166001600160a01b031990818754161786556001860182600185015416828254161790556002830154600287015560038601916003840154169082541617905560048101546004850155600581015460058501550154910155565b91908201809211610f2f57565b818110612ce8575050565b60008155600101612cdd565b90601f8111612d01575050565b612d1c91600052601f6020600020910160051c810190612cdd565b565b9190601f8111612d2d57505050565b612d1c926000526020600020906020601f840160051c83019310612d59575b601f0160051c0190612cdd565b9091508190612d4c565b600092918154612d7281612955565b92600191808316908115612dca5750600114612d8e5750505050565b90919293945060005260209081600020906000915b858310612db957505050500190388080806129bc565b805485840152918301918101612da3565b60ff19168452505050811515909102019150388080806129bc565b90808214612ec057612df78154612955565b9067ffffffffffffffff8211610bb2578190612e1d82612e178654612955565b86612d1e565b600090601f8311600114612e5457600092612e49575b50508160011b916000199060031b1c1916179055565b015490503880612e33565b81526020808220858352818320935090601f1985169083905b828210612ea7575050908460019594939210612e8e575b505050811b019055565b015460001960f88460031b161c19169055388080612e84565b8495819295850154815560018091019601940190612e6d565b5050565b81601f82011215610394578051612eda816128f2565b92612ee860405194856128d0565b8184526020828401011161039457612f069160208085019101612a25565b90565b81810292918115918404141715610f2f57565b8115611db6570490565b60405190612f33826128b4565b600582527f3132333435000000000000000000000000000000000000000000000000000000602083015256fea264697066735822122043897e8e8a9a512f32107fc3c21d4f20fe0fd8b899f05969eece1026e3bbdc8964736f6c63430008140033",
  "devdoc": {
    "details": "Contract which manages the swap Process and liquidity accounting and management",
    "events": {
      "InvoiceRegistered((bytes32,bytes32,uint256,string))": {
        "details": "Event emitted when an invoice is successfully registered",
        "params": {
          "invoice": "invoice of the swap which is registered on portal chain"
        }
      },
      "LiquidityCommitted((address,address,uint256,address,uint256,uint256,uint256))": {
        "details": "Event emitted when liquidity position is committed for a particular pool",
        "params": {
          "liquidity": "Liquidity position to be committed"
        }
      },
      "LiquidityLimitUpdated((address,address,uint256))": {
        "details": "Event emitted when liquidity position is updated",
        "params": {
          "liquidityLimit": "LiquidityLimit details"
        }
      },
      "LiquidityRemoved((address,address,uint256,address,uint256,uint256,uint256))": {
        "details": "Event emitted when liquidity position is removed",
        "params": {
          "liquidity": "Liquidity position to be committed"
        }
      },
      "SwapCreated((bytes32,bytes32,bytes32,address,uint256,address,uint256,uint256,uint256,address,string,string))": {
        "details": "Event emitted when a swap is registered",
        "params": {
          "swap": "swap details"
        }
      },
      "SwapMatched(bytes32,address,address,uint256,uint256)": {
        "details": "Event emitted when a swap is matched",
        "params": {
          "id": "Unique identifier of the swap",
          "liquidityOwner": "Address of the liquidity owner",
          "matchedBuyAmount": "Matched amount of the asset to be bought",
          "matchedSellAmount": "Matched amount of the asset to be sold",
          "sellAsset": "asset address to be sold"
        }
      },
      "SwapValidated((bytes32,bytes32,bytes32,address,uint256,address,uint256,uint256,uint256,address,string,string))": {
        "details": "Event emitted when a swap is registered",
        "params": {
          "swap": "swap details"
        }
      }
    },
    "kind": "dev",
    "methods": {
      "commitLiquidity((address,address,uint256,address,uint256,uint256,uint256))": {
        "params": {
          "liquidity": "liquidity position details"
        }
      },
      "constructor": {
        "params": {
          "_assetManager": "address of the asset manager contract",
          "_liquidityPool": "address of the liquidity pool contract",
          "_tokenAddress": "address of the portal token contract"
        }
      },
      "createSwap((bytes32,bytes32,bytes32,address,uint256,address,uint256,uint256,uint256,address,string,string))": {
        "params": {
          "swap": "details of the swap"
        }
      },
      "matchSwap(bytes32)": {
        "params": {
          "id": "Unique Id for the swap"
        }
      },
      "registerInvoice((bytes32,bytes32,uint256,string))": {
        "params": {
          "invoice": "lightning Invoice details for the swap"
        }
      },
      "removeLiquidity(uint256,bytes32)": {
        "params": {
          "liquidityId": "liquidity position id referring to the index of the position",
          "liquidityPoolId": "unique identifier of the liquidity pool"
        }
      },
      "setInitialSqrtPrice(address,address,uint24,uint160)": {
        "params": {
          "buyAsset": "Liquidity Provider's Buy asset address",
          "initialSqrtPriceX96ToPrice": "initial price of the pool",
          "poolFee": "Fee of the trading pool",
          "sellAsset": "Liquidity Provider's Sell asset address"
        }
      },
      "setLiquidityLimit((address,address,uint256))": {
        "params": {
          "liquidityLimit": "liquidity limit details"
        }
      },
      "setPoolManager(address)": {
        "params": {
          "_poolManager": "address of the pool manager contract"
        }
      },
      "setPriceBTCtoETH(uint256)": {
        "params": {
          "price": "price of the asset"
        }
      },
      "sqrtPriceX96ToPrice(uint160)": {
        "params": {
          "sqrtPriceX96": "initial price of the pool"
        }
      },
      "validateSwap(bytes32)": {
        "params": {
          "id": "unique id of the swap"
        }
      }
    },
    "title": "ADMM Contract",
    "version": 1
  },
  "userdoc": {
    "kind": "user",
    "methods": {
      "MULTIPLIER()": {
        "notice": "MULTIPLIER of all accounting assets"
      },
      "assetManager()": {
        "notice": "address of the asset manager contract"
      },
      "commitLiquidity((address,address,uint256,address,uint256,uint256,uint256))": {
        "notice": "Liquidity Provider's liquidity committed for a concentrated position for a particular pool"
      },
      "constructor": {
        "notice": "Constructor to initialize the management contract"
      },
      "createSwap((bytes32,bytes32,bytes32,address,uint256,address,uint256,uint256,uint256,address,string,string))": {
        "notice": "function to register a swap in Portal Chain"
      },
      "eventOutputs(bytes32)": {
        "notice": "Struct to store mapping of all active event outputs of the swap by secretHash"
      },
      "liquidities(bytes32,uint256)": {
        "notice": "Struct to store mapping of all active liquidityPoolId to liquidity of that liquidityPoolId"
      },
      "liquidityIds(bytes32,uint256)": {
        "notice": "Struct to store mapping of all active matched liquidities with id"
      },
      "liquidityLimits(address,address)": {
        "notice": "Struct to store mapping of all active liquidity limits with sellAsset and liquidityOwner"
      },
      "liquidityPool()": {
        "notice": "address of the liquidity pool contract"
      },
      "matchSwap(bytes32)": {
        "notice": "function to match a swap with a liquidity position"
      },
      "poolManager()": {
        "notice": "address of the pool manager contract"
      },
      "registerInvoice((bytes32,bytes32,uint256,string))": {
        "notice": "function to register lightning invoice in Portal Chain"
      },
      "removeLiquidity(uint256,bytes32)": {
        "notice": "function to remove liquidity from the pool"
      },
      "setInitialSqrtPrice(address,address,uint24,uint160)": {
        "notice": "function to set initial sqrt price of the pool"
      },
      "setLiquidityLimit((address,address,uint256))": {
        "notice": "set the liquidity limit for given owner and the asset"
      },
      "setPoolManager(address)": {
        "notice": "set the address of pool manager contract and admin to the factory"
      },
      "setPriceBTCtoETH(uint256)": {
        "notice": "function to set the price of BTC in terms of ETH"
      },
      "sqrtPriceX96ToPrice(uint160)": {
        "notice": "function to retrieve current price of the pool"
      },
      "swaps(bytes32)": {
        "notice": "Struct to store mapping of all active swaps by id of the swap"
      },
      "tokenContract()": {
        "notice": "address of the portal Token contract"
      },
      "validateSwap(bytes32)": {
        "notice": "function to validate a swap"
      }
    },
    "version": 1
  },
  "storageLayout": {
    "storage": [
      {
        "astId": 2224,
        "contract": "contracts/ADMM.sol:ADMM",
        "label": "tokenContract",
        "offset": 0,
        "slot": "0",
        "type": "t_contract(IPortalToken)3956"
      },
      {
        "astId": 2228,
        "contract": "contracts/ADMM.sol:ADMM",
        "label": "poolManager",
        "offset": 0,
        "slot": "1",
        "type": "t_contract(IPoolManager)3935"
      },
      {
        "astId": 2232,
        "contract": "contracts/ADMM.sol:ADMM",
        "label": "assetManager",
        "offset": 0,
        "slot": "2",
        "type": "t_contract(IAssetManagement)3709"
      },
      {
        "astId": 2236,
        "contract": "contracts/ADMM.sol:ADMM",
        "label": "liquidityPool",
        "offset": 0,
        "slot": "3",
        "type": "t_contract(ILiquidityPool)3773"
      },
      {
        "astId": 2243,
        "contract": "contracts/ADMM.sol:ADMM",
        "label": "priceBTCtoETH",
        "offset": 0,
        "slot": "4",
        "type": "t_uint256"
      },
      {
        "astId": 2319,
        "contract": "contracts/ADMM.sol:ADMM",
        "label": "swaps",
        "offset": 0,
        "slot": "5",
        "type": "t_mapping(t_bytes32,t_struct(Swap)3574_storage)"
      },
      {
        "astId": 2325,
        "contract": "contracts/ADMM.sol:ADMM",
        "label": "eventOutputs",
        "offset": 0,
        "slot": "6",
        "type": "t_mapping(t_bytes32,t_struct(EventOutput)3587_storage)"
      },
      {
        "astId": 2332,
        "contract": "contracts/ADMM.sol:ADMM",
        "label": "liquidities",
        "offset": 0,
        "slot": "7",
        "type": "t_mapping(t_bytes32,t_array(t_struct(Liquidity)3536_storage)dyn_storage)"
      },
      {
        "astId": 2340,
        "contract": "contracts/ADMM.sol:ADMM",
        "label": "liquidityLimits",
        "offset": 0,
        "slot": "8",
        "type": "t_mapping(t_address,t_mapping(t_address,t_struct(LiquidityLimit)3514_storage))"
      },
      {
        "astId": 2346,
        "contract": "contracts/ADMM.sol:ADMM",
        "label": "liquidityIds",
        "offset": 0,
        "slot": "9",
        "type": "t_mapping(t_bytes32,t_array(t_uint256)dyn_storage)"
      }
    ],
    "types": {
      "t_address": {
        "encoding": "inplace",
        "label": "address",
        "numberOfBytes": "20"
      },
      "t_array(t_struct(Liquidity)3536_storage)dyn_storage": {
        "base": "t_struct(Liquidity)3536_storage",
        "encoding": "dynamic_array",
        "label": "struct IADMM.Liquidity[]",
        "numberOfBytes": "32"
      },
      "t_array(t_uint256)dyn_storage": {
        "base": "t_uint256",
        "encoding": "dynamic_array",
        "label": "uint256[]",
        "numberOfBytes": "32"
      },
      "t_bytes32": {
        "encoding": "inplace",
        "label": "bytes32",
        "numberOfBytes": "32"
      },
      "t_contract(IAssetManagement)3709": {
        "encoding": "inplace",
        "label": "contract IAssetManagement",
        "numberOfBytes": "20"
      },
      "t_contract(ILiquidityPool)3773": {
        "encoding": "inplace",
        "label": "contract ILiquidityPool",
        "numberOfBytes": "20"
      },
      "t_contract(IPoolManager)3935": {
        "encoding": "inplace",
        "label": "contract IPoolManager",
        "numberOfBytes": "20"
      },
      "t_contract(IPortalToken)3956": {
        "encoding": "inplace",
        "label": "contract IPortalToken",
        "numberOfBytes": "20"
      },
      "t_mapping(t_address,t_mapping(t_address,t_struct(LiquidityLimit)3514_storage))": {
        "encoding": "mapping",
        "key": "t_address",
        "label": "mapping(address => mapping(address => struct IADMM.LiquidityLimit))",
        "numberOfBytes": "32",
        "value": "t_mapping(t_address,t_struct(LiquidityLimit)3514_storage)"
      },
      "t_mapping(t_address,t_struct(LiquidityLimit)3514_storage)": {
        "encoding": "mapping",
        "key": "t_address",
        "label": "mapping(address => struct IADMM.LiquidityLimit)",
        "numberOfBytes": "32",
        "value": "t_struct(LiquidityLimit)3514_storage"
      },
      "t_mapping(t_bytes32,t_array(t_struct(Liquidity)3536_storage)dyn_storage)": {
        "encoding": "mapping",
        "key": "t_bytes32",
        "label": "mapping(bytes32 => struct IADMM.Liquidity[])",
        "numberOfBytes": "32",
        "value": "t_array(t_struct(Liquidity)3536_storage)dyn_storage"
      },
      "t_mapping(t_bytes32,t_array(t_uint256)dyn_storage)": {
        "encoding": "mapping",
        "key": "t_bytes32",
        "label": "mapping(bytes32 => uint256[])",
        "numberOfBytes": "32",
        "value": "t_array(t_uint256)dyn_storage"
      },
      "t_mapping(t_bytes32,t_struct(EventOutput)3587_storage)": {
        "encoding": "mapping",
        "key": "t_bytes32",
        "label": "mapping(bytes32 => struct IADMM.EventOutput)",
        "numberOfBytes": "32",
        "value": "t_struct(EventOutput)3587_storage"
      },
      "t_mapping(t_bytes32,t_struct(Swap)3574_storage)": {
        "encoding": "mapping",
        "key": "t_bytes32",
        "label": "mapping(bytes32 => struct IADMM.Swap)",
        "numberOfBytes": "32",
        "value": "t_struct(Swap)3574_storage"
      },
      "t_string_storage": {
        "encoding": "bytes",
        "label": "string",
        "numberOfBytes": "32"
      },
      "t_struct(EventOutput)3587_storage": {
        "encoding": "inplace",
        "label": "struct IADMM.EventOutput",
        "members": [
          {
            "astId": 3576,
            "contract": "contracts/ADMM.sol:ADMM",
            "label": "id",
            "offset": 0,
            "slot": "0",
            "type": "t_bytes32"
          },
          {
            "astId": 3578,
            "contract": "contracts/ADMM.sol:ADMM",
            "label": "secretHash",
            "offset": 0,
            "slot": "1",
            "type": "t_bytes32"
          },
          {
            "astId": 3580,
            "contract": "contracts/ADMM.sol:ADMM",
            "label": "matchedLp",
            "offset": 0,
            "slot": "2",
            "type": "t_address"
          },
          {
            "astId": 3582,
            "contract": "contracts/ADMM.sol:ADMM",
            "label": "matchedSellAmount",
            "offset": 0,
            "slot": "3",
            "type": "t_uint256"
          },
          {
            "astId": 3584,
            "contract": "contracts/ADMM.sol:ADMM",
            "label": "matchedBuyAmount",
            "offset": 0,
            "slot": "4",
            "type": "t_uint256"
          },
          {
            "astId": 3586,
            "contract": "contracts/ADMM.sol:ADMM",
            "label": "invoice",
            "offset": 0,
            "slot": "5",
            "type": "t_string_storage"
          }
        ],
        "numberOfBytes": "192"
      },
      "t_struct(Liquidity)3536_storage": {
        "encoding": "inplace",
        "label": "struct IADMM.Liquidity",
        "members": [
          {
            "astId": 3523,
            "contract": "contracts/ADMM.sol:ADMM",
            "label": "owner",
            "offset": 0,
            "slot": "0",
            "type": "t_address"
          },
          {
            "astId": 3525,
            "contract": "contracts/ADMM.sol:ADMM",
            "label": "sellAsset",
            "offset": 0,
            "slot": "1",
            "type": "t_address"
          },
          {
            "astId": 3527,
            "contract": "contracts/ADMM.sol:ADMM",
            "label": "sellAmount",
            "offset": 0,
            "slot": "2",
            "type": "t_uint256"
          },
          {
            "astId": 3529,
            "contract": "contracts/ADMM.sol:ADMM",
            "label": "buyAsset",
            "offset": 0,
            "slot": "3",
            "type": "t_address"
          },
          {
            "astId": 3531,
            "contract": "contracts/ADMM.sol:ADMM",
            "label": "poolFee",
            "offset": 0,
            "slot": "4",
            "type": "t_uint256"
          },
          {
            "astId": 3533,
            "contract": "contracts/ADMM.sol:ADMM",
            "label": "buyRangeLowLimit",
            "offset": 0,
            "slot": "5",
            "type": "t_uint256"
          },
          {
            "astId": 3535,
            "contract": "contracts/ADMM.sol:ADMM",
            "label": "buyRangeHighLimit",
            "offset": 0,
            "slot": "6",
            "type": "t_uint256"
          }
        ],
        "numberOfBytes": "224"
      },
      "t_struct(LiquidityLimit)3514_storage": {
        "encoding": "inplace",
        "label": "struct IADMM.LiquidityLimit",
        "members": [
          {
            "astId": 3509,
            "contract": "contracts/ADMM.sol:ADMM",
            "label": "liquidityOwner",
            "offset": 0,
            "slot": "0",
            "type": "t_address"
          },
          {
            "astId": 3511,
            "contract": "contracts/ADMM.sol:ADMM",
            "label": "sellAsset",
            "offset": 0,
            "slot": "1",
            "type": "t_address"
          },
          {
            "astId": 3513,
            "contract": "contracts/ADMM.sol:ADMM",
            "label": "sellAmount",
            "offset": 0,
            "slot": "2",
            "type": "t_uint256"
          }
        ],
        "numberOfBytes": "96"
      },
      "t_struct(Swap)3574_storage": {
        "encoding": "inplace",
        "label": "struct IADMM.Swap",
        "members": [
          {
            "astId": 3551,
            "contract": "contracts/ADMM.sol:ADMM",
            "label": "id",
            "offset": 0,
            "slot": "0",
            "type": "t_bytes32"
          },
          {
            "astId": 3553,
            "contract": "contracts/ADMM.sol:ADMM",
            "label": "liquidityPoolId",
            "offset": 0,
            "slot": "1",
            "type": "t_bytes32"
          },
          {
            "astId": 3555,
            "contract": "contracts/ADMM.sol:ADMM",
            "label": "secretHash",
            "offset": 0,
            "slot": "2",
            "type": "t_bytes32"
          },
          {
            "astId": 3557,
            "contract": "contracts/ADMM.sol:ADMM",
            "label": "sellAsset",
            "offset": 0,
            "slot": "3",
            "type": "t_address"
          },
          {
            "astId": 3559,
            "contract": "contracts/ADMM.sol:ADMM",
            "label": "sellAmount",
            "offset": 0,
            "slot": "4",
            "type": "t_uint256"
          },
          {
            "astId": 3561,
            "contract": "contracts/ADMM.sol:ADMM",
            "label": "buyAsset",
            "offset": 0,
            "slot": "5",
            "type": "t_address"
          },
          {
            "astId": 3563,
            "contract": "contracts/ADMM.sol:ADMM",
            "label": "buyAmount",
            "offset": 0,
            "slot": "6",
            "type": "t_uint256"
          },
          {
            "astId": 3565,
            "contract": "contracts/ADMM.sol:ADMM",
            "label": "slippage",
            "offset": 0,
            "slot": "7",
            "type": "t_uint256"
          },
          {
            "astId": 3567,
            "contract": "contracts/ADMM.sol:ADMM",
            "label": "swapCreation",
            "offset": 0,
            "slot": "8",
            "type": "t_uint256"
          },
          {
            "astId": 3569,
            "contract": "contracts/ADMM.sol:ADMM",
            "label": "swapOwner",
            "offset": 0,
            "slot": "9",
            "type": "t_address"
          },
          {
            "astId": 3571,
            "contract": "contracts/ADMM.sol:ADMM",
            "label": "buyId",
            "offset": 0,
            "slot": "10",
            "type": "t_string_storage"
          },
          {
            "astId": 3573,
            "contract": "contracts/ADMM.sol:ADMM",
            "label": "status",
            "offset": 0,
            "slot": "11",
            "type": "t_string_storage"
          }
        ],
        "numberOfBytes": "384"
      },
      "t_uint256": {
        "encoding": "inplace",
        "label": "uint256",
        "numberOfBytes": "32"
      }
    }
  }
}