{
  "address": "0x1D108d5b4bA37339A810186EB63E7E01B2FeAFE7",
  "abi": [
    {
      "inputs": [
        {
          "internalType": "address",
          "name": "_tokenAddress",
          "type": "address"
        },
        {
          "internalType": "address",
          "name": "_assetManager",
          "type": "address"
        },
        {
          "internalType": "address",
          "name": "_liquidityPool",
          "type": "address"
        }
      ],
      "stateMutability": "nonpayable",
      "type": "constructor"
    },
    {
      "anonymous": false,
      "inputs": [
        {
          "components": [
            {
              "internalType": "bytes32",
              "name": "id",
              "type": "bytes32"
            },
            {
              "internalType": "bytes32",
              "name": "secretHash",
              "type": "bytes32"
            },
            {
              "internalType": "uint256",
              "name": "amount",
              "type": "uint256"
            },
            {
              "internalType": "string",
              "name": "invoice",
              "type": "string"
            }
          ],
          "indexed": false,
          "internalType": "struct IADMM.Invoice",
          "name": "invoice",
          "type": "tuple"
        }
      ],
      "name": "InvoiceRegistered",
      "type": "event"
    },
    {
      "anonymous": false,
      "inputs": [
        {
          "components": [
            {
              "internalType": "address",
              "name": "owner",
              "type": "address"
            },
            {
              "internalType": "address",
              "name": "sellAsset",
              "type": "address"
            },
            {
              "internalType": "uint256",
              "name": "sellAmount",
              "type": "uint256"
            },
            {
              "internalType": "address",
              "name": "buyAsset",
              "type": "address"
            },
            {
              "internalType": "uint256",
              "name": "poolFee",
              "type": "uint256"
            },
            {
              "internalType": "uint256",
              "name": "buyRangeLowLimit",
              "type": "uint256"
            },
            {
              "internalType": "uint256",
              "name": "buyRangeHighLimit",
              "type": "uint256"
            }
          ],
          "indexed": false,
          "internalType": "struct IADMM.Liquidity",
          "name": "liquidity",
          "type": "tuple"
        }
      ],
      "name": "LiquidityCommitted",
      "type": "event"
    },
    {
      "anonymous": false,
      "inputs": [
        {
          "components": [
            {
              "internalType": "address",
              "name": "liquidityOwner",
              "type": "address"
            },
            {
              "internalType": "address",
              "name": "sellAsset",
              "type": "address"
            },
            {
              "internalType": "uint256",
              "name": "sellAmount",
              "type": "uint256"
            }
          ],
          "indexed": false,
          "internalType": "struct IADMM.LiquidityLimit",
          "name": "liquidityLimit",
          "type": "tuple"
        }
      ],
      "name": "LiquidityLimitUpdated",
      "type": "event"
    },
    {
      "anonymous": false,
      "inputs": [
        {
          "components": [
            {
              "internalType": "address",
              "name": "owner",
              "type": "address"
            },
            {
              "internalType": "address",
              "name": "sellAsset",
              "type": "address"
            },
            {
              "internalType": "uint256",
              "name": "sellAmount",
              "type": "uint256"
            },
            {
              "internalType": "address",
              "name": "buyAsset",
              "type": "address"
            },
            {
              "internalType": "uint256",
              "name": "poolFee",
              "type": "uint256"
            },
            {
              "internalType": "uint256",
              "name": "buyRangeLowLimit",
              "type": "uint256"
            },
            {
              "internalType": "uint256",
              "name": "buyRangeHighLimit",
              "type": "uint256"
            }
          ],
          "indexed": false,
          "internalType": "struct IADMM.Liquidity",
          "name": "liquidity",
          "type": "tuple"
        }
      ],
      "name": "LiquidityRemoved",
      "type": "event"
    },
    {
      "anonymous": false,
      "inputs": [
        {
          "components": [
            {
              "internalType": "bytes32",
              "name": "id",
              "type": "bytes32"
            },
            {
              "internalType": "bytes32",
              "name": "liquidityPoolId",
              "type": "bytes32"
            },
            {
              "internalType": "bytes32",
              "name": "secretHash",
              "type": "bytes32"
            },
            {
              "internalType": "address",
              "name": "sellAsset",
              "type": "address"
            },
            {
              "internalType": "uint256",
              "name": "sellAmount",
              "type": "uint256"
            },
            {
              "internalType": "address",
              "name": "buyAsset",
              "type": "address"
            },
            {
              "internalType": "uint256",
              "name": "buyAmount",
              "type": "uint256"
            },
            {
              "internalType": "uint256",
              "name": "slippage",
              "type": "uint256"
            },
            {
              "internalType": "uint256",
              "name": "swapCreation",
              "type": "uint256"
            },
            {
              "internalType": "address",
              "name": "swapOwner",
              "type": "address"
            },
            {
              "internalType": "string",
              "name": "buyId",
              "type": "string"
            },
            {
              "internalType": "string",
              "name": "status",
              "type": "string"
            }
          ],
          "indexed": false,
          "internalType": "struct IADMM.Swap",
          "name": "swap",
          "type": "tuple"
        }
      ],
      "name": "SwapCreated",
      "type": "event"
    },
    {
      "anonymous": false,
      "inputs": [
        {
          "indexed": true,
          "internalType": "bytes32",
          "name": "id",
          "type": "bytes32"
        },
        {
          "indexed": true,
          "internalType": "address",
          "name": "liquidityOwner",
          "type": "address"
        },
        {
          "indexed": false,
          "internalType": "address",
          "name": "sellAsset",
          "type": "address"
        },
        {
          "indexed": false,
          "internalType": "uint256",
          "name": "matchedSellAmount",
          "type": "uint256"
        },
        {
          "indexed": false,
          "internalType": "uint256",
          "name": "matchedBuyAmount",
          "type": "uint256"
        }
      ],
      "name": "SwapMatched",
      "type": "event"
    },
    {
      "anonymous": false,
      "inputs": [
        {
          "components": [
            {
              "internalType": "bytes32",
              "name": "id",
              "type": "bytes32"
            },
            {
              "internalType": "bytes32",
              "name": "liquidityPoolId",
              "type": "bytes32"
            },
            {
              "internalType": "bytes32",
              "name": "secretHash",
              "type": "bytes32"
            },
            {
              "internalType": "address",
              "name": "sellAsset",
              "type": "address"
            },
            {
              "internalType": "uint256",
              "name": "sellAmount",
              "type": "uint256"
            },
            {
              "internalType": "address",
              "name": "buyAsset",
              "type": "address"
            },
            {
              "internalType": "uint256",
              "name": "buyAmount",
              "type": "uint256"
            },
            {
              "internalType": "uint256",
              "name": "slippage",
              "type": "uint256"
            },
            {
              "internalType": "uint256",
              "name": "swapCreation",
              "type": "uint256"
            },
            {
              "internalType": "address",
              "name": "swapOwner",
              "type": "address"
            },
            {
              "internalType": "string",
              "name": "buyId",
              "type": "string"
            },
            {
              "internalType": "string",
              "name": "status",
              "type": "string"
            }
          ],
          "indexed": false,
          "internalType": "struct IADMM.Swap",
          "name": "swap",
          "type": "tuple"
        }
      ],
      "name": "SwapValidated",
      "type": "event"
    },
    {
      "inputs": [],
      "name": "MULTIPLIER",
      "outputs": [
        {
          "internalType": "uint256",
          "name": "",
          "type": "uint256"
        }
      ],
      "stateMutability": "view",
      "type": "function"
    },
    {
      "inputs": [],
      "name": "assetManager",
      "outputs": [
        {
          "internalType": "contract IAssetManagement",
          "name": "",
          "type": "address"
        }
      ],
      "stateMutability": "view",
      "type": "function"
    },
    {
      "inputs": [
        {
          "components": [
            {
              "internalType": "address",
              "name": "owner",
              "type": "address"
            },
            {
              "internalType": "address",
              "name": "sellAsset",
              "type": "address"
            },
            {
              "internalType": "uint256",
              "name": "sellAmount",
              "type": "uint256"
            },
            {
              "internalType": "address",
              "name": "buyAsset",
              "type": "address"
            },
            {
              "internalType": "uint256",
              "name": "poolFee",
              "type": "uint256"
            },
            {
              "internalType": "uint256",
              "name": "buyRangeLowLimit",
              "type": "uint256"
            },
            {
              "internalType": "uint256",
              "name": "buyRangeHighLimit",
              "type": "uint256"
            }
          ],
          "internalType": "struct IADMM.Liquidity",
          "name": "liquidity",
          "type": "tuple"
        }
      ],
      "name": "commitLiquidity",
      "outputs": [],
      "stateMutability": "nonpayable",
      "type": "function"
    },
    {
      "inputs": [
        {
          "components": [
            {
              "internalType": "bytes32",
              "name": "id",
              "type": "bytes32"
            },
            {
              "internalType": "bytes32",
              "name": "liquidityPoolId",
              "type": "bytes32"
            },
            {
              "internalType": "bytes32",
              "name": "secretHash",
              "type": "bytes32"
            },
            {
              "internalType": "address",
              "name": "sellAsset",
              "type": "address"
            },
            {
              "internalType": "uint256",
              "name": "sellAmount",
              "type": "uint256"
            },
            {
              "internalType": "address",
              "name": "buyAsset",
              "type": "address"
            },
            {
              "internalType": "uint256",
              "name": "buyAmount",
              "type": "uint256"
            },
            {
              "internalType": "uint256",
              "name": "slippage",
              "type": "uint256"
            },
            {
              "internalType": "uint256",
              "name": "swapCreation",
              "type": "uint256"
            },
            {
              "internalType": "address",
              "name": "swapOwner",
              "type": "address"
            },
            {
              "internalType": "string",
              "name": "buyId",
              "type": "string"
            },
            {
              "internalType": "string",
              "name": "status",
              "type": "string"
            }
          ],
          "internalType": "struct IADMM.Swap",
          "name": "swap",
          "type": "tuple"
        }
      ],
      "name": "createSwap",
      "outputs": [],
      "stateMutability": "nonpayable",
      "type": "function"
    },
    {
      "inputs": [
        {
          "internalType": "bytes32",
          "name": "",
          "type": "bytes32"
        }
      ],
      "name": "eventOutputs",
      "outputs": [
        {
          "internalType": "bytes32",
          "name": "id",
          "type": "bytes32"
        },
        {
          "internalType": "bytes32",
          "name": "secretHash",
          "type": "bytes32"
        },
        {
          "internalType": "address",
          "name": "matchedLp",
          "type": "address"
        },
        {
          "internalType": "uint256",
          "name": "matchedSellAmount",
          "type": "uint256"
        },
        {
          "internalType": "uint256",
          "name": "matchedBuyAmount",
          "type": "uint256"
        },
        {
          "internalType": "string",
          "name": "invoice",
          "type": "string"
        }
      ],
      "stateMutability": "view",
      "type": "function"
    },
    {
      "inputs": [
        {
          "internalType": "bytes32",
          "name": "",
          "type": "bytes32"
        },
        {
          "internalType": "uint256",
          "name": "",
          "type": "uint256"
        }
      ],
      "name": "liquidities",
      "outputs": [
        {
          "internalType": "address",
          "name": "owner",
          "type": "address"
        },
        {
          "internalType": "address",
          "name": "sellAsset",
          "type": "address"
        },
        {
          "internalType": "uint256",
          "name": "sellAmount",
          "type": "uint256"
        },
        {
          "internalType": "address",
          "name": "buyAsset",
          "type": "address"
        },
        {
          "internalType": "uint256",
          "name": "poolFee",
          "type": "uint256"
        },
        {
          "internalType": "uint256",
          "name": "buyRangeLowLimit",
          "type": "uint256"
        },
        {
          "internalType": "uint256",
          "name": "buyRangeHighLimit",
          "type": "uint256"
        }
      ],
      "stateMutability": "view",
      "type": "function"
    },
    {
      "inputs": [
        {
          "internalType": "bytes32",
          "name": "",
          "type": "bytes32"
        },
        {
          "internalType": "uint256",
          "name": "",
          "type": "uint256"
        }
      ],
      "name": "liquidityIds",
      "outputs": [
        {
          "internalType": "uint256",
          "name": "",
          "type": "uint256"
        }
      ],
      "stateMutability": "view",
      "type": "function"
    },
    {
      "inputs": [
        {
          "internalType": "address",
          "name": "",
          "type": "address"
        },
        {
          "internalType": "address",
          "name": "",
          "type": "address"
        }
      ],
      "name": "liquidityLimits",
      "outputs": [
        {
          "internalType": "address",
          "name": "liquidityOwner",
          "type": "address"
        },
        {
          "internalType": "address",
          "name": "sellAsset",
          "type": "address"
        },
        {
          "internalType": "uint256",
          "name": "sellAmount",
          "type": "uint256"
        }
      ],
      "stateMutability": "view",
      "type": "function"
    },
    {
      "inputs": [],
      "name": "liquidityPool",
      "outputs": [
        {
          "internalType": "contract ILiquidityPool",
          "name": "",
          "type": "address"
        }
      ],
      "stateMutability": "view",
      "type": "function"
    },
    {
      "inputs": [
        {
          "internalType": "bytes32",
          "name": "id",
          "type": "bytes32"
        }
      ],
      "name": "matchSwap",
      "outputs": [],
      "stateMutability": "nonpayable",
      "type": "function"
    },
    {
      "inputs": [],
      "name": "poolManager",
      "outputs": [
        {
          "internalType": "contract IPoolManager",
          "name": "",
          "type": "address"
        }
      ],
      "stateMutability": "view",
      "type": "function"
    },
    {
      "inputs": [
        {
          "components": [
            {
              "internalType": "bytes32",
              "name": "id",
              "type": "bytes32"
            },
            {
              "internalType": "bytes32",
              "name": "secretHash",
              "type": "bytes32"
            },
            {
              "internalType": "uint256",
              "name": "amount",
              "type": "uint256"
            },
            {
              "internalType": "string",
              "name": "invoice",
              "type": "string"
            }
          ],
          "internalType": "struct IADMM.Invoice",
          "name": "invoice",
          "type": "tuple"
        }
      ],
      "name": "registerInvoice",
      "outputs": [],
      "stateMutability": "nonpayable",
      "type": "function"
    },
    {
      "inputs": [
        {
          "internalType": "uint256",
          "name": "liquidityId",
          "type": "uint256"
        },
        {
          "internalType": "bytes32",
          "name": "liquidityPoolId",
          "type": "bytes32"
        }
      ],
      "name": "removeLiquidity",
      "outputs": [],
      "stateMutability": "nonpayable",
      "type": "function"
    },
    {
      "inputs": [
        {
          "internalType": "address",
          "name": "sellAsset",
          "type": "address"
        },
        {
          "internalType": "address",
          "name": "buyAsset",
          "type": "address"
        },
        {
          "internalType": "uint24",
          "name": "poolFee",
          "type": "uint24"
        },
        {
          "internalType": "uint160",
          "name": "initialSqrtPriceX96ToPrice",
          "type": "uint160"
        }
      ],
      "name": "setInitialSqrtPrice",
      "outputs": [],
      "stateMutability": "nonpayable",
      "type": "function"
    },
    {
      "inputs": [
        {
          "components": [
            {
              "internalType": "address",
              "name": "liquidityOwner",
              "type": "address"
            },
            {
              "internalType": "address",
              "name": "sellAsset",
              "type": "address"
            },
            {
              "internalType": "uint256",
              "name": "sellAmount",
              "type": "uint256"
            }
          ],
          "internalType": "struct IADMM.LiquidityLimit",
          "name": "liquidityLimit",
          "type": "tuple"
        }
      ],
      "name": "setLiquidityLimit",
      "outputs": [],
      "stateMutability": "nonpayable",
      "type": "function"
    },
    {
      "inputs": [
        {
          "internalType": "address",
          "name": "_poolManager",
          "type": "address"
        }
      ],
      "name": "setPoolManager",
      "outputs": [],
      "stateMutability": "nonpayable",
      "type": "function"
    },
    {
      "inputs": [
        {
          "internalType": "uint160",
          "name": "sqrtPriceX96",
          "type": "uint160"
        }
      ],
      "name": "sqrtPriceX96ToPrice",
      "outputs": [
        {
          "internalType": "uint256",
          "name": "price",
          "type": "uint256"
        }
      ],
      "stateMutability": "pure",
      "type": "function"
    },
    {
      "inputs": [
        {
          "internalType": "bytes32",
          "name": "",
          "type": "bytes32"
        }
      ],
      "name": "swaps",
      "outputs": [
        {
          "internalType": "bytes32",
          "name": "id",
          "type": "bytes32"
        },
        {
          "internalType": "bytes32",
          "name": "liquidityPoolId",
          "type": "bytes32"
        },
        {
          "internalType": "bytes32",
          "name": "secretHash",
          "type": "bytes32"
        },
        {
          "internalType": "address",
          "name": "sellAsset",
          "type": "address"
        },
        {
          "internalType": "uint256",
          "name": "sellAmount",
          "type": "uint256"
        },
        {
          "internalType": "address",
          "name": "buyAsset",
          "type": "address"
        },
        {
          "internalType": "uint256",
          "name": "buyAmount",
          "type": "uint256"
        },
        {
          "internalType": "uint256",
          "name": "slippage",
          "type": "uint256"
        },
        {
          "internalType": "uint256",
          "name": "swapCreation",
          "type": "uint256"
        },
        {
          "internalType": "address",
          "name": "swapOwner",
          "type": "address"
        },
        {
          "internalType": "string",
          "name": "buyId",
          "type": "string"
        },
        {
          "internalType": "string",
          "name": "status",
          "type": "string"
        }
      ],
      "stateMutability": "view",
      "type": "function"
    },
    {
      "inputs": [],
      "name": "tokenContract",
      "outputs": [
        {
          "internalType": "contract IPortalToken",
          "name": "",
          "type": "address"
        }
      ],
      "stateMutability": "view",
      "type": "function"
    },
    {
      "inputs": [
        {
          "internalType": "bytes32",
          "name": "id",
          "type": "bytes32"
        }
      ],
      "name": "validateSwap",
      "outputs": [],
      "stateMutability": "nonpayable",
      "type": "function"
    }
  ],
  "transactionHash": "0x70a885580db41bad5f5d8834bf296bde02d12d61cfdfa9f618060c0e4eb622e3",
  "args": [
    "0x742f24592459e189f520214E2f2110C4528d784c",
    "0x4F617b7Dd233552eBef69ECfF646f5A53A618550",
    "0x1425C0c80c5798490e29d2005768e5C549659E26"
  ],
  "numDeployments": 1,
  "solcInputHash": "73db4c515bdb05adaa0069452c142af6",
  "bytecode": "0x608034620000ab57601f62002f9138819003918201601f19168301916001600160401b03831184841017620000b057808492606094604052833981010312620000ab576200004d81620000c6565b906200006a60406200006260208401620000c6565b9201620000c6565b60018060a01b0380928160018060a01b031995168560005416176000551683600254161760025516906003541617600355604051612eb59081620000dc8239f35b600080fd5b634e487b7160e01b600052604160045260246000fd5b51906001600160a01b0382168203620000ab5756fe608080604052600436101561001357600080fd5b60003560e01c908163059f8b16146126c45750806320776dd91461263a57806328eb1e89146124225780633bfbec0f146123e357806351b9cb781461227d57806353c6ac1f1461178557806355a373d61461175e578063665a11ca146117375780637aef6715146115c857806387783b8d1461113f5780638f8b7676146110ba57806394217ad1146110935780639c44007914610d16578063a67f3e3b14610be1578063aa52cba714610b8a578063ae84e95e1461069a578063cabc52131461060b578063dc4c90d3146105e4578063eb84e7f2146104e35763f76742b3146100fb57600080fd5b3461037e5760031960203682011261037e5767ffffffffffffffff6004351161037e57608060043536039182011261037e576004356004013560005260046020526040600020906002820180546000526005602052600b60406000209301604051602081019061017d8161016f8486612c96565b03601f198101835282612803565b5190206040516020810190661b585d18da195960ca1b8252600781526101a2816127e7565b5190200361049f576101bd6101b78254612888565b82612c27565b60227f696e766f696365526567697374657265640000000000000000000000000000000190556024600435013590556024600435013560018301556022190160646004350135121561037e5767ffffffffffffffff6004803560648101350101351161037e576004803560648101350190810135360360249091011361037e576102636004606481350135813501013561025a6005840154612888565b60058401612c51565b60006001601f60048035606481013501013511146103f2576000906004803560648101350101356103dc575b50600019600480356064810135010135600381901b9190911c1990911660019190911b1760058201555b6024600435013560005260056020526040600020818103610383575b5050604051602081526004356004013560208201526024600435013560408201526044600435013560608201526004356064600435013501906024600483013592019167ffffffffffffffff811161037e57803603831361037e57818160c0927f9370909cadd2a6e582f59de4953af02a4befd85448ce4d81c98bf89a7ec47abb956080808501528160a0850152848401376000828201840152601f01601f19168101030190a1005b600080fd5b600580836103d59454845560018101546001850155600284016001600160a01b036002830154166001600160a01b03198254161790556003810154600385015560048101546004850155019101612d18565b38806102d5565b600435606481013501016024013590503861028f565b6005820160005260206000209060005b600480356064810135010135601f1916811061047c5750600480356064810135010135601f1981161061044e575b5050600160046064813501358135010135811b0160058201556102b9565b6004803560648101350191820160240135600019929091013560031b60f8169190911c191690553880610430565b600435606481013501820160240135835560019092019160209182019101610402565b606460405162461bcd60e51b815260206004820152601c60248201527f53776170206973206e6f7420696e206d617463686564207374617465000000006044820152fd5b3461037e57602036600319011261037e576004356000526004602052602060406000206105e08154916105d1600a600183015460028401546001600160a01b0390816003870154166004870154836005890154169060068901549260078a01549460088b01549660098c0154169761056c8c610565604051809d8193016128c2565b038b612803565b610589600b6105826040519e8f928391016128c2565b038d612803565b6040519e8f9e8f908152015260408d015260608c015260808b015260a08a015260c089015260e08801526101008701526101208601526101808061014087015285019061297b565b9083820361016085015261297b565b0390f35b3461037e57600036600319011261037e5760206001600160a01b0360015416604051908152f35b3461037e57602036600319011261037e576004356000526005602052604060002080546105e060056001840154936001600160a01b0360028201541660038201549061066d60048401549361066660405180978193016128c2565b0385612803565b6040519687968752602087015260408601526060850152608084015260c060a084015260c083019061297b565b3461037e5760031960203682011261037e5767ffffffffffffffff6004351161037e57610180906004353603011261037e57604051610180810181811067ffffffffffffffff821117610afb57604052600435600401358152602460043501356020820152604460043501356040820152610719606460043501612787565b606082015260846004350135608082015261073860a460043501612787565b60a082015260043560c481013560c083015260e481013560e083015261010481013561010083015261076d9061012401612787565b61012082015267ffffffffffffffff61014460043501351161037e5761079e36600480356101448101350101612841565b61014082015267ffffffffffffffff61016460043501351161037e576107cf36600480356101648101350101612841565b610160820152426101008201526040516107e8816127e7565b600781526618dc99585d195960ca1b6020820152610160820152805160005260046020526040600020908051825560208101516001830155604081015160028301556001600160a01b03606082015116600383016001600160a01b0319918282541617905560808201516004840155600583016001600160a01b0360a0840151168282541617905560c0820151600684015560e08201516007840155610100820151600884015560098301906001600160a01b03610120840151169082541617905561014081015191825167ffffffffffffffff8111610afb576108dc816108d3600a850154612888565b600a8501612c51565b6020601f8211600114610b1c5781929394600092610b11575b50508160011b916000199060031b1c191617600a8201555b61016082015180519067ffffffffffffffff8211610afb5761093f82610936600b860154612888565b600b8601612c51565b602090601f8311600114610a6557827f44834e060b6b8e870f29d3e0519a1dfdb1c830f6ed9767a4cc8d113c5f40ee429593610a559593600b93600092610a5a575b50508160011b916000199060031b1c1916179101555b604051918291602083528051602084015260208101516040840152604081015160608401526001600160a01b036060820151166080840152608081015160a08401526001600160a01b0360a08201511660c084015260c081015160e084015260e08101516101008401526101008101516101208401526001600160a01b0361012082015116610140840152610160610a40610140830151610180838701526101a086019061297b565b910151838203601f190161018085015261297b565b0390a1005b015190508780610981565b90600b840160005260206000209160005b601f1985168110610ae3575083610a559593600b936001937f44834e060b6b8e870f29d3e0519a1dfdb1c830f6ed9767a4cc8d113c5f40ee429997601f19811610610aca575b505050811b01910155610997565b015160001960f88460031b161c19169055878080610abc565b91926020600181928685015181550194019201610a76565b634e487b7160e01b600052604160045260246000fd5b0151905084806108f5565b600a830160005260206000209060005b601f1984168110610b725750600193949583601f19811610610b59575b505050811b01600a82015561090d565b015160001960f88460031b161c19169055848080610b49565b9091602060018192858a015181550193019101610b2c565b3461037e57602036600319011261037e576001600160a01b03610bab612745565b1680800290808204811490151715610bcb576020906040519060c01c8152f35b634e487b7160e01b600052601160045260246000fd5b3461037e57608036600319011261037e57610bfa612745565b610c0261275b565b906044359062ffffff821680920361037e57610c1c612771565b916001600160a01b039160046020846000541660405192838092638da5cb5b60e01b82525afa8015610cd057600090610cdc575b610c5e9150841633146129b4565b826001541693843b1561037e57600094848692608495826040519a8b998a987fa67f3e3b000000000000000000000000000000000000000000000000000000008a5216600489015216602487015260448601521660648401525af18015610cd057610cc557005b610cce906127b7565b005b6040513d6000823e3d90fd5b506020813d8211610d0e575b81610cf560209383612803565b8101031261037e57610d09610c5e916129a0565b610c50565b3d9150610ce8565b3461037e57604036600319011261037e57610d346024351515612ac2565b6024356000526006602052604060002054600435101561104f576024356000526006602052610d6960043560406000206126fb565b50600660405191610d79836127cb565b6001600160a01b0381541683526001600160a01b036001820154166020840152600281015460408401526001600160a01b03600382015416606084015260048101546080840152600581015460a0840152015460c0820152600460206001600160a01b036000541660405192838092638da5cb5b60e01b82525afa8015610cd05760009061100f575b6001600160a01b0391501633148015610ff7575b610e1f90612a51565b6004355b602435600052600660205260406000205480600019810111610bcb5760001901811015610ea3576024356000526006602052604060002090600181018111610bcb57610e99610e79610e9e9360018401906126fb565b506024356000526006602052610e938360406000206126fb565b90612b88565b612b1a565b610e23565b50602435600052600660205260406000208054918215610fe157610ecb6000198401836126fb565b929092610fcb577f798836e95c4934842129df2a514f0a3804b9b90e79c60ba6efa0e20649af6a199360006006858260e09755826001820155826002820155826003820155826004820155826005820155015560001901905560408101516001600160a01b03602083015116600052600760205260406000206001600160a01b03835116600052602052610f686002604060002001918254612c03565b905560c0604051916001600160a01b0381511683526001600160a01b036020820151166020840152604081015160408401526001600160a01b0360608201511660608401526080810151608084015260a081015160a0840152015160c0820152a1005b634e487b7160e01b600052600060045260246000fd5b634e487b7160e01b600052603160045260246000fd5b50610e1f6001600160a01b0382511633149050610e16565b506020813d602011611047575b8161102960209383612803565b8101031261037e576110426001600160a01b03916129a0565b610e02565b3d915061101c565b606460405162461bcd60e51b815260206004820152601360248201527f496e76616c6964206c69717569646974794964000000000000000000000000006044820152fd5b3461037e57600036600319011261037e5760206001600160a01b0360025416604051908152f35b3461037e57604036600319011261037e576110d3612745565b6110db61275b565b6001600160a01b03809216600052600760205281604060002091166000526020526040600020906105e060028284541692600185015416930154604051938493846040919493929460608201956001600160a01b0380921683521660208201520152565b3461037e5760e036600319011261037e57600460206001600160a01b036000541660405192838092638da5cb5b60e01b82525afa8015610cd057600090611588575b6001600160a01b039150163314801561156a575b61119e90612a51565b6001600160a01b036111ae612a25565b16600052600760205260406000206001600160a01b036111cc612a3b565b1660005260205260026040600020015460443511611526576001600160a01b03600354166111f8612a25565b606435906001600160a01b038216820361037e576040517f46965e250000000000000000000000000000000000000000000000000000000081526001600160a01b03918216600482015291166024820152608435604482015290602090829060649082905afa908115610cd0576000916114f4575b50611279811515612ac2565b61128560a43582612b29565b60405190611292826127cb565b61129a612745565b82526112a461275b565b602083015260443560408301526112b9612771565b6060830152608435608083015260a43560a083015260c43560c08301528260005260066020526040600020805468010000000000000000811015610afb57611306916001820181556126fb565b50508260005260066020526040600020546001811161148a575b506113389192600052600660205260406000206126fb565b919091610fcb5760c0816001600160a01b0360069351166001600160a01b03199081865416178555600185016001600160a01b03602084015116828254161790556040820151600286015560038501906001600160a01b03606084015116908254161790556080810151600485015560a0810151600585015501519101556001600160a01b036113c6612a25565b16600052600760205260406000206001600160a01b036113e4612a3b565b1660005260205260026040600020016114006044358254612b0d565b90557ff59a5948e4b4ba056adfeb8c0f7537f8fb22f680c14c97470c9ac110d190d2fc60e06040516001600160a01b03611438612745565b1681526001600160a01b0361144b61275b565b16602082015260443560408201526001600160a01b03611469612771565b166060820152608435608082015260a43560a082015260c43560c0820152a1005b80600019810111610bcb57600019015b8181111561132057836000526006602052604060002081600019810111610bcb576114cd6114e5916000198401906126fb565b50856000526006602052610e938360406000206126fb565b8015610bcb576000190161149a565b90506020813d60201161151e575b8161150f60209383612803565b8101031261037e57518161126d565b3d9150611502565b606460405162461bcd60e51b815260206004820152601860248201527f4272656163686564204c6971756964697479204c696d697400000000000000006044820152fd5b5061119e6001600160a01b0361157e612a3b565b1633149050611195565b506020813d6020116115c0575b816115a260209383612803565b8101031261037e576115bb6001600160a01b03916129a0565b611181565b3d9150611595565b3461037e5760208060031936011261037e576115e2612745565b60046001600160a01b039183836000541660405193848092638da5cb5b60e01b82525afa8015610cd05783926000916116fc575b5061162490831633146129b4565b1691826001600160a01b031960015416176001556040517fc45a01550000000000000000000000000000000000000000000000000000000081528181600481875afa918215610cd0576000926116c5575b50501690813b1561037e576000916024839260405194859384927f7048027500000000000000000000000000000000000000000000000000000000845260048401525af18015610cd057610cc557005b90809250813d83116116f5575b6116dc8183612803565b8101031261037e5751818116810361037e578380611675565b503d6116d2565b809350858092503d8311611730575b6117158183612803565b8101031261037e5761162461172a84936129a0565b90611616565b503d61170b565b3461037e57600036600319011261037e5760206001600160a01b0360035416604051908152f35b3461037e57600036600319011261037e5760206001600160a01b0360005416604051908152f35b3461037e57602036600319011261037e5760043560005260046020526040600020600b810160405160208101906117c08161016f8486612c96565b5190206040516020810190681d985b1a59185d195960ba1b8252600981526117e7816127e7565b51902003612239576117fc6101b78254612888565b600e661b585d18da195960ca1b0190556001810154906001600160a01b036002541660006001600160a01b036003840154166024604051809481937f4e1d7bac00000000000000000000000000000000000000000000000000000000835260048301525afa8015610cd0576000906120c4575b60409150015160405161189f602082816118928183019687815193849201612958565b8101038084520182612803565b51902060405160208101907f42544300000000000000000000000000000000000000000000000000000000008252600381526118da816127e7565b519020036120b2576004810154600a810290808204600a1481151715610bcb5764174876e80002908082046402540be4001490151715610bcb57905b81670de0b6b3a7640000810204670de0b6b3a76400001482151715610bcb5761194d6004820154670de0b6b3a76400008402612e3c565b60005b84600052600660205260406000208054821015611a34576119728286926126fb565b506001600160a01b036001820154166001600160a01b036005870154161480611a11575b6119ab575b50506119a690612b1a565b611950565b6002015410156119bd575b838661199b565b600435600052600860205260406000209081549168010000000000000000831015610afb57826119f59160016119a69501815561272d565b81549060031b9083821b91600019901b191617905590506119b6565b506001600160a01b036003820154166001600160a01b0360038701541614611996565b5050839060043560005260086020526040600020541515600014611d345750600435600052600860205260406000205443600019430111610bcb5760405160001943014060208201524460408201526040815280606081011067ffffffffffffffff606083011117610afb5760608101604052602081519101208115611d1e57611acb9260005260066020520660406000206126fb565b5060028101611adb848254612b0d565b905560028201546001600160a01b038254169060048401549160405192611b018461279b565b6004358452602084019183835260408501908152606085019182526080850192888452611b2c612e46565b9460a0870195865260005260056020526040600020955186555160018601556001600160a01b03600286019151166001600160a01b03198254161790555160038401555160048301555180519067ffffffffffffffff8211610afb57611ba282611b996005860154612888565b60058601612c51565b602090601f8311600114611c8357827fd6cc21c31e96cb4a1f271a96910130d1e0d0e1dd5ef69328dd4ea3c72b5d847f95936001600160a01b039593600593600092611c78575b50508160011b916000199060031b1c1916179101555b54169260046001600160a01b03600385015416930154611c4260405192839260043596846040919493926001600160a01b03606083019616825260208201520152565b0390a35b6004356000526008602052604060002080546000825580611c6357005b610cce91600052602060002090810190612c10565b015190508980611be9565b906005840160005260206000209160005b601f1985168110611d065750836001600160a01b0395936005936001937fd6cc21c31e96cb4a1f271a96910130d1e0d0e1dd5ef69328dd4ea3c72b5d847f9997601f19811610611ced575b505050811b01910155611bff565b015160001960f88460031b161c19169055898080611cdf565b91926020600181928685015181550194019201611c94565b634e487b7160e01b600052601260045260246000fd5b6000939192935b836000526006602052604060002080548210156120a75781611d5c916126fb565b50906001600160a01b036001830154166001600160a01b036005880154161480612084575b80612068575b8061205b575b80611fee575b611da7575b611da29150612b1a565b611d3b565b6002820154916000600282015560028701546001600160a01b03825416908515611d1e5760405191611dd88361279b565b60043583526020830190828252604084019081526060840190600082526080850192888452611e05612e46565b9460a0870195865260005260056020526040600020955186555160018601556001600160a01b03600286019151166001600160a01b03198254161790555160038401555160048301555180519067ffffffffffffffff8211610afb57611e7282611b996005860154612888565b602090601f8311600114611f7e576005929160009183611f73575b50508160011b916000199060031b1c1916179101555b6001600160a01b038154169060026001600160a01b0360038a0154169101549384670de0b6b3a7640000810204670de0b6b3a76400001485151715610bcb5784611f4e9387937fd6cc21c31e96cb4a1f271a96910130d1e0d0e1dd5ef69328dd4ea3c72b5d847f670de0b6b3a764000094611f238787611da29c02612e3c565b604080516001600160a01b03959095168552602085019190915283015260043591606090a302612e3c565b6004356000526004602052611f6c6004604060002001918254612b0d565b9055611d98565b015190508b80611e8d565b906005840160005260206000209160005b601f1985168110611fd65750918391600193600595601f19811610611fbd575b505050811b01910155611ea3565b015160001960f88460031b161c191690558b8080611faf565b91926020600181928685015181550194019201611f8f565b50600582015480670de0b6b3a7640000810204670de0b6b3a76400001481151715610bcb57670de0b6b3a76400000283118015611d935750600682015480670de0b6b3a7640000810204670de0b6b3a76400001481151715610bcb57670de0b6b3a7640000028310611d93565b5083600283015410611d8d565b5061207c6006870154600788015490612c03565b841115611d87565b506001600160a01b036003830154166001600160a01b0360038801541614611d81565b505050505050611c46565b64174876e80060048201540490611916565b503d806000833e6120d58183612803565b602082828101031261037e57815167ffffffffffffffff811161037e57610100818401838501031261037e57604051928361010081011067ffffffffffffffff61010086011117610afb5761010084016040526121338282016129a0565b84526020828201015167ffffffffffffffff811161037e5761215c908483019084840101612df7565b60208501526040828201015167ffffffffffffffff811161037e57612188908483019084840101612df7565b60408501526060828201015167ffffffffffffffff811161037e576121b4908483019084840101612df7565b60608501528082016080818101519086015260a0015167ffffffffffffffff811161037e576121ea908483019084840101612df7565b60a085015260c082820101519267ffffffffffffffff841161037e5760e0936122199183019084840101612df7565b60c08501520101519060ff8216820361037e5760409160e082015261186f565b606460405162461bcd60e51b815260206004820152601e60248201527f53776170206973206e6f7420696e2076616c69646174656420737461746500006044820152fd5b3461037e57606036600319011261037e576001600160a01b0380600054166040518091638da5cb5b60e01b825281600460209485935afa908115610cd05760009161237f575b7f5b63864dfb4a19dd435e0c5b1f6e039ed91862cf9b709802a2bccdee9fec80fe6060856002866122f787841633146129b4565b82612300612a25565b1660005260078152604060002083612316612a3b565b16600052815260406000208361232a612a3b565b166001600160a01b0319908183541617825560018201908561234a612a25565b169082541617905560443592839101556040519280612367612745565b16845261237261275b565b16908301526040820152a1005b9290508183813d83116123dc575b6123978183612803565b8101031261037e5760026060926122f76123d17f5b63864dfb4a19dd435e0c5b1f6e039ed91862cf9b709802a2bccdee9fec80fe966129a0565b9395505092506122c3565b503d61238d565b3461037e576123f1366126e5565b9060005260086020526040600020805482101561037e576020916124149161272d565b90546040519160031b1c8152f35b3461037e5760208060031936011261037e576001600160a01b03600482826000541660405192838092638da5cb5b60e01b82525afa8015610cd057600090612604575b6124739150821633146129b4565b600435600052600482526040600020600b810160405191848301836124988285612c96565b03936124ac601f1995868101835282612803565b519020604051868101906618dc99585d195960ca1b8252600781526124d0816127e7565b519020036125c05791817fd4965279c5ca49ceadbd1832e902fa9a2231cf3727ef8863ab2cfb896102fb3b959361251361250d610a559554612888565b83612c27565b6012681d985b1a59185d195960ba1b0182556040519585879687528254908701526001820154604087015260028201546060870152806003830154166080870152600482015460a08701528060058301541660c0870152600682015460e0870152600782015461010087015260088201546101208701526009820154166101408601526125b26101809182610160880152600a6101a0880191016128c2565b9285840301908501526128c2565b6064856040519062461bcd60e51b82526004820152601c60248201527f53776170206973206e6f7420696e2063726561746564207374617465000000006044820152fd5b508281813d8311612633575b61261a8183612803565b8101031261037e5761262e612473916129a0565b612465565b503d612610565b3461037e57612648366126e5565b9060005260066020526040600020805482101561037e5760e09161266b916126fb565b506001600160a01b03808254169181600182015416916002820154906003830154166004830154916006600585015494015494604051968752602087015260408601526060850152608084015260a083015260c0820152f35b3461037e57600036600319011261037e5780670de0b6b3a764000060209252f35b604090600319011261037e576004359060243590565b8054821015612717576000526007602060002091020190600090565b634e487b7160e01b600052603260045260246000fd5b80548210156127175760005260206000200190600090565b600435906001600160a01b038216820361037e57565b602435906001600160a01b038216820361037e57565b606435906001600160a01b038216820361037e57565b35906001600160a01b038216820361037e57565b60c0810190811067ffffffffffffffff821117610afb57604052565b67ffffffffffffffff8111610afb57604052565b60e0810190811067ffffffffffffffff821117610afb57604052565b6040810190811067ffffffffffffffff821117610afb57604052565b90601f8019910116810190811067ffffffffffffffff821117610afb57604052565b67ffffffffffffffff8111610afb57601f01601f191660200190565b81601f8201121561037e5780359061285882612825565b926128666040519485612803565b8284526020838301011161037e57816000926020809301838601378301015290565b90600182811c921680156128b8575b60208310146128a257565b634e487b7160e01b600052602260045260246000fd5b91607f1691612897565b90600092918054916128d383612888565b91828252600193848116908160001461293557506001146128f5575b50505050565b90919394506000526020928360002092846000945b8386106129215750505050010190388080806128ef565b80548587018301529401938590820161290a565b9294505050602093945060ff191683830152151560051b010190388080806128ef565b60005b83811061296b5750506000910152565b818101518382015260200161295b565b9060209161299481518092818552858086019101612958565b601f01601f1916010190565b51906001600160a01b038216820361037e57565b156129bb57565b608460405162461bcd60e51b815260206004820152602660248201527f43616c6c6572206973206e6f742074686520746f6b656e20636f6e747261637460448201527f206f776e657200000000000000000000000000000000000000000000000000006064820152fd5b6024356001600160a01b038116810361037e5790565b6004356001600160a01b038116810361037e5790565b15612a5857565b608460405162461bcd60e51b815260206004820152602e60248201527f43616c6c6572206973206e6f7420746865206f776e6572206f7220746865206c60448201527f6971756964697479206f776e65720000000000000000000000000000000000006064820152fd5b15612ac957565b606460405162461bcd60e51b815260206004820152601960248201527f41737365742070616972206e6f742072656769737465726564000000000000006044820152fd5b91908203918211610bcb57565b6000198114610bcb5760010190565b60009181835260066020938185526040918282205495825b878110612b52575050505050505090565b8684528282526005612b66828787206126fb565b5001548610612b7d57612b7890612b1a565b612b41565b965050505050505090565b9190610fcb57808203612b99575050565b600680916001600160a01b03808254166001600160a01b031990818754161786556001860182600185015416828254161790556002830154600287015560038601916003840154169082541617905560048101546004850155600581015460058501550154910155565b91908201809211610bcb57565b818110612c1b575050565b60008155600101612c10565b90601f8111612c34575050565b612c4f91600052601f6020600020910160051c810190612c10565b565b9190601f8111612c6057505050565b612c4f926000526020600020906020601f840160051c83019310612c8c575b601f0160051c0190612c10565b9091508190612c7f565b600092918154612ca581612888565b92600191808316908115612cfd5750600114612cc15750505050565b90919293945060005260209081600020906000915b858310612cec57505050500190388080806128ef565b805485840152918301918101612cd6565b60ff19168452505050811515909102019150388080806128ef565b90808214612df357612d2a8154612888565b9067ffffffffffffffff8211610afb578190612d5082612d4a8654612888565b86612c51565b600090601f8311600114612d8757600092612d7c575b50508160011b916000199060031b1c1916179055565b015490503880612d66565b81526020808220858352818320935090601f1985169083905b828210612dda575050908460019594939210612dc1575b505050811b019055565b015460001960f88460031b161c19169055388080612db7565b8495819295850154815560018091019601940190612da0565b5050565b81601f8201121561037e578051612e0d81612825565b92612e1b6040519485612803565b8184526020828401011161037e57612e399160208085019101612958565b90565b8115611d1e570490565b60405190612e53826127e7565b600582527f3132333435000000000000000000000000000000000000000000000000000000602083015256fea2646970667358221220d8dc601a76d3a5c69ea6e9b6faa3225134c7ebda26e856f4e1a40c4793f672e164736f6c63430008140033",
  "devdoc": {
    "details": "Contract which manages the swap Process and liquidity accounting and management",
    "events": {
      "InvoiceRegistered((bytes32,bytes32,uint256,string))": {
        "details": "Event emitted when an invoice is successfully registered",
        "params": {
          "invoice": "invoice of the swap which is registered on portal chain"
        }
      },
      "LiquidityCommitted((address,address,uint256,address,uint256,uint256,uint256))": {
        "details": "Event emitted when liquidity position is committed for a particular pool",
        "params": {
          "liquidity": "Liquidity position to be committed"
        }
      },
      "LiquidityLimitUpdated((address,address,uint256))": {
        "details": "Event emitted when liquidity position is updated",
        "params": {
          "liquidityLimit": "LiquidityLimit details"
        }
      },
      "LiquidityRemoved((address,address,uint256,address,uint256,uint256,uint256))": {
        "details": "Event emitted when liquidity position is removed",
        "params": {
          "liquidity": "Liquidity position to be committed"
        }
      },
      "SwapCreated((bytes32,bytes32,bytes32,address,uint256,address,uint256,uint256,uint256,address,string,string))": {
        "details": "Event emitted when a swap is registered",
        "params": {
          "swap": "swap details"
        }
      },
      "SwapMatched(bytes32,address,address,uint256,uint256)": {
        "details": "Event emitted when a swap is matched",
        "params": {
          "id": "Unique identifier of the swap",
          "liquidityOwner": "Address of the liquidity owner",
          "matchedBuyAmount": "Matched amount of the asset to be bought",
          "matchedSellAmount": "Matched amount of the asset to be sold",
          "sellAsset": "asset address to be sold"
        }
      },
      "SwapValidated((bytes32,bytes32,bytes32,address,uint256,address,uint256,uint256,uint256,address,string,string))": {
        "details": "Event emitted when a swap is registered",
        "params": {
          "swap": "swap details"
        }
      }
    },
    "kind": "dev",
    "methods": {
      "commitLiquidity((address,address,uint256,address,uint256,uint256,uint256))": {
        "params": {
          "liquidity": "liquidity position details"
        }
      },
      "constructor": {
        "params": {
          "_assetManager": "address of the asset manager contract",
          "_liquidityPool": "address of the liquidity pool contract",
          "_tokenAddress": "address of the portal token contract"
        }
      },
      "createSwap((bytes32,bytes32,bytes32,address,uint256,address,uint256,uint256,uint256,address,string,string))": {
        "params": {
          "swap": "details of the swap"
        }
      },
      "matchSwap(bytes32)": {
        "params": {
          "id": "Unique Id for the swap"
        }
      },
      "registerInvoice((bytes32,bytes32,uint256,string))": {
        "params": {
          "invoice": "lightning Invoice details for the swap"
        }
      },
      "removeLiquidity(uint256,bytes32)": {
        "params": {
          "liquidityId": "liquidity position id referring to the index of the position",
          "liquidityPoolId": "unique identifier of the liquidity pool"
        }
      },
      "setInitialSqrtPrice(address,address,uint24,uint160)": {
        "params": {
          "buyAsset": "Liquidity Provider's Buy asset address",
          "initialSqrtPriceX96ToPrice": "initial price of the pool",
          "poolFee": "Fee of the trading pool",
          "sellAsset": "Liquidity Provider's Sell asset address"
        }
      },
      "setLiquidityLimit((address,address,uint256))": {
        "params": {
          "liquidityLimit": "liquidity limit details"
        }
      },
      "setPoolManager(address)": {
        "params": {
          "_poolManager": "address of the pool manager contract"
        }
      },
      "sqrtPriceX96ToPrice(uint160)": {
        "params": {
          "sqrtPriceX96": "initial price of the pool"
        }
      },
      "validateSwap(bytes32)": {
        "params": {
          "id": "unique id of the swap"
        }
      }
    },
    "title": "ADMM Contract",
    "version": 1
  },
  "userdoc": {
    "kind": "user",
    "methods": {
      "MULTIPLIER()": {
        "notice": "MULTIPLIER of all accounting assets"
      },
      "assetManager()": {
        "notice": "address of the asset manager contract"
      },
      "commitLiquidity((address,address,uint256,address,uint256,uint256,uint256))": {
        "notice": "Liquidity Provider's liquidity committed for a concentrated position for a particular pool"
      },
      "constructor": {
        "notice": "Constructor to initialize the management contract"
      },
      "createSwap((bytes32,bytes32,bytes32,address,uint256,address,uint256,uint256,uint256,address,string,string))": {
        "notice": "function to register a swap in Portal Chain"
      },
      "eventOutputs(bytes32)": {
        "notice": "Struct to store mapping of all active event outputs of the swap by secretHash"
      },
      "liquidities(bytes32,uint256)": {
        "notice": "Struct to store mapping of all active liquidityPoolId to liquidity of that liquidityPoolId"
      },
      "liquidityIds(bytes32,uint256)": {
        "notice": "Struct to store mapping of all active matched liquidities with id"
      },
      "liquidityLimits(address,address)": {
        "notice": "Struct to store mapping of all active liquidity limits with sellAsset and liquidityOwner"
      },
      "liquidityPool()": {
        "notice": "address of the liquidity pool contract"
      },
      "matchSwap(bytes32)": {
        "notice": "function to match a swap with a liquidity position"
      },
      "poolManager()": {
        "notice": "address of the pool manager contract"
      },
      "registerInvoice((bytes32,bytes32,uint256,string))": {
        "notice": "function to register lightning invoice in Portal Chain"
      },
      "removeLiquidity(uint256,bytes32)": {
        "notice": "function to remove liquidity from the pool"
      },
      "setInitialSqrtPrice(address,address,uint24,uint160)": {
        "notice": "function to set initial sqrt price of the pool"
      },
      "setLiquidityLimit((address,address,uint256))": {
        "notice": "set the liquidity limit for given owner and the asset"
      },
      "setPoolManager(address)": {
        "notice": "set the address of pool manager contract and admin to the factory"
      },
      "sqrtPriceX96ToPrice(uint160)": {
        "notice": "function to retrieve current price of the pool"
      },
      "swaps(bytes32)": {
        "notice": "Struct to store mapping of all active swaps by id of the swap"
      },
      "tokenContract()": {
        "notice": "address of the portal Token contract"
      },
      "validateSwap(bytes32)": {
        "notice": "function to validate a swap"
      }
    },
    "version": 1
  },
  "storageLayout": {
    "storage": [
      {
        "astId": 8938,
        "contract": "contracts/ADMM.sol:ADMM",
        "label": "tokenContract",
        "offset": 0,
        "slot": "0",
        "type": "t_contract(IPortalToken)13203"
      },
      {
        "astId": 8942,
        "contract": "contracts/ADMM.sol:ADMM",
        "label": "poolManager",
        "offset": 0,
        "slot": "1",
        "type": "t_contract(IPoolManager)13182"
      },
      {
        "astId": 8946,
        "contract": "contracts/ADMM.sol:ADMM",
        "label": "assetManager",
        "offset": 0,
        "slot": "2",
        "type": "t_contract(IAssetManagement)12934"
      },
      {
        "astId": 8950,
        "contract": "contracts/ADMM.sol:ADMM",
        "label": "liquidityPool",
        "offset": 0,
        "slot": "3",
        "type": "t_contract(ILiquidityPool)12998"
      },
      {
        "astId": 9030,
        "contract": "contracts/ADMM.sol:ADMM",
        "label": "swaps",
        "offset": 0,
        "slot": "4",
        "type": "t_mapping(t_bytes32,t_struct(Swap)12799_storage)"
      },
      {
        "astId": 9036,
        "contract": "contracts/ADMM.sol:ADMM",
        "label": "eventOutputs",
        "offset": 0,
        "slot": "5",
        "type": "t_mapping(t_bytes32,t_struct(EventOutput)12812_storage)"
      },
      {
        "astId": 9043,
        "contract": "contracts/ADMM.sol:ADMM",
        "label": "liquidities",
        "offset": 0,
        "slot": "6",
        "type": "t_mapping(t_bytes32,t_array(t_struct(Liquidity)12761_storage)dyn_storage)"
      },
      {
        "astId": 9051,
        "contract": "contracts/ADMM.sol:ADMM",
        "label": "liquidityLimits",
        "offset": 0,
        "slot": "7",
        "type": "t_mapping(t_address,t_mapping(t_address,t_struct(LiquidityLimit)12739_storage))"
      },
      {
        "astId": 9057,
        "contract": "contracts/ADMM.sol:ADMM",
        "label": "liquidityIds",
        "offset": 0,
        "slot": "8",
        "type": "t_mapping(t_bytes32,t_array(t_uint256)dyn_storage)"
      }
    ],
    "types": {
      "t_address": {
        "encoding": "inplace",
        "label": "address",
        "numberOfBytes": "20"
      },
      "t_array(t_struct(Liquidity)12761_storage)dyn_storage": {
        "base": "t_struct(Liquidity)12761_storage",
        "encoding": "dynamic_array",
        "label": "struct IADMM.Liquidity[]",
        "numberOfBytes": "32"
      },
      "t_array(t_uint256)dyn_storage": {
        "base": "t_uint256",
        "encoding": "dynamic_array",
        "label": "uint256[]",
        "numberOfBytes": "32"
      },
      "t_bytes32": {
        "encoding": "inplace",
        "label": "bytes32",
        "numberOfBytes": "32"
      },
      "t_contract(IAssetManagement)12934": {
        "encoding": "inplace",
        "label": "contract IAssetManagement",
        "numberOfBytes": "20"
      },
      "t_contract(ILiquidityPool)12998": {
        "encoding": "inplace",
        "label": "contract ILiquidityPool",
        "numberOfBytes": "20"
      },
      "t_contract(IPoolManager)13182": {
        "encoding": "inplace",
        "label": "contract IPoolManager",
        "numberOfBytes": "20"
      },
      "t_contract(IPortalToken)13203": {
        "encoding": "inplace",
        "label": "contract IPortalToken",
        "numberOfBytes": "20"
      },
      "t_mapping(t_address,t_mapping(t_address,t_struct(LiquidityLimit)12739_storage))": {
        "encoding": "mapping",
        "key": "t_address",
        "label": "mapping(address => mapping(address => struct IADMM.LiquidityLimit))",
        "numberOfBytes": "32",
        "value": "t_mapping(t_address,t_struct(LiquidityLimit)12739_storage)"
      },
      "t_mapping(t_address,t_struct(LiquidityLimit)12739_storage)": {
        "encoding": "mapping",
        "key": "t_address",
        "label": "mapping(address => struct IADMM.LiquidityLimit)",
        "numberOfBytes": "32",
        "value": "t_struct(LiquidityLimit)12739_storage"
      },
      "t_mapping(t_bytes32,t_array(t_struct(Liquidity)12761_storage)dyn_storage)": {
        "encoding": "mapping",
        "key": "t_bytes32",
        "label": "mapping(bytes32 => struct IADMM.Liquidity[])",
        "numberOfBytes": "32",
        "value": "t_array(t_struct(Liquidity)12761_storage)dyn_storage"
      },
      "t_mapping(t_bytes32,t_array(t_uint256)dyn_storage)": {
        "encoding": "mapping",
        "key": "t_bytes32",
        "label": "mapping(bytes32 => uint256[])",
        "numberOfBytes": "32",
        "value": "t_array(t_uint256)dyn_storage"
      },
      "t_mapping(t_bytes32,t_struct(EventOutput)12812_storage)": {
        "encoding": "mapping",
        "key": "t_bytes32",
        "label": "mapping(bytes32 => struct IADMM.EventOutput)",
        "numberOfBytes": "32",
        "value": "t_struct(EventOutput)12812_storage"
      },
      "t_mapping(t_bytes32,t_struct(Swap)12799_storage)": {
        "encoding": "mapping",
        "key": "t_bytes32",
        "label": "mapping(bytes32 => struct IADMM.Swap)",
        "numberOfBytes": "32",
        "value": "t_struct(Swap)12799_storage"
      },
      "t_string_storage": {
        "encoding": "bytes",
        "label": "string",
        "numberOfBytes": "32"
      },
      "t_struct(EventOutput)12812_storage": {
        "encoding": "inplace",
        "label": "struct IADMM.EventOutput",
        "members": [
          {
            "astId": 12801,
            "contract": "contracts/ADMM.sol:ADMM",
            "label": "id",
            "offset": 0,
            "slot": "0",
            "type": "t_bytes32"
          },
          {
            "astId": 12803,
            "contract": "contracts/ADMM.sol:ADMM",
            "label": "secretHash",
            "offset": 0,
            "slot": "1",
            "type": "t_bytes32"
          },
          {
            "astId": 12805,
            "contract": "contracts/ADMM.sol:ADMM",
            "label": "matchedLp",
            "offset": 0,
            "slot": "2",
            "type": "t_address"
          },
          {
            "astId": 12807,
            "contract": "contracts/ADMM.sol:ADMM",
            "label": "matchedSellAmount",
            "offset": 0,
            "slot": "3",
            "type": "t_uint256"
          },
          {
            "astId": 12809,
            "contract": "contracts/ADMM.sol:ADMM",
            "label": "matchedBuyAmount",
            "offset": 0,
            "slot": "4",
            "type": "t_uint256"
          },
          {
            "astId": 12811,
            "contract": "contracts/ADMM.sol:ADMM",
            "label": "invoice",
            "offset": 0,
            "slot": "5",
            "type": "t_string_storage"
          }
        ],
        "numberOfBytes": "192"
      },
      "t_struct(Liquidity)12761_storage": {
        "encoding": "inplace",
        "label": "struct IADMM.Liquidity",
        "members": [
          {
            "astId": 12748,
            "contract": "contracts/ADMM.sol:ADMM",
            "label": "owner",
            "offset": 0,
            "slot": "0",
            "type": "t_address"
          },
          {
            "astId": 12750,
            "contract": "contracts/ADMM.sol:ADMM",
            "label": "sellAsset",
            "offset": 0,
            "slot": "1",
            "type": "t_address"
          },
          {
            "astId": 12752,
            "contract": "contracts/ADMM.sol:ADMM",
            "label": "sellAmount",
            "offset": 0,
            "slot": "2",
            "type": "t_uint256"
          },
          {
            "astId": 12754,
            "contract": "contracts/ADMM.sol:ADMM",
            "label": "buyAsset",
            "offset": 0,
            "slot": "3",
            "type": "t_address"
          },
          {
            "astId": 12756,
            "contract": "contracts/ADMM.sol:ADMM",
            "label": "poolFee",
            "offset": 0,
            "slot": "4",
            "type": "t_uint256"
          },
          {
            "astId": 12758,
            "contract": "contracts/ADMM.sol:ADMM",
            "label": "buyRangeLowLimit",
            "offset": 0,
            "slot": "5",
            "type": "t_uint256"
          },
          {
            "astId": 12760,
            "contract": "contracts/ADMM.sol:ADMM",
            "label": "buyRangeHighLimit",
            "offset": 0,
            "slot": "6",
            "type": "t_uint256"
          }
        ],
        "numberOfBytes": "224"
      },
      "t_struct(LiquidityLimit)12739_storage": {
        "encoding": "inplace",
        "label": "struct IADMM.LiquidityLimit",
        "members": [
          {
            "astId": 12734,
            "contract": "contracts/ADMM.sol:ADMM",
            "label": "liquidityOwner",
            "offset": 0,
            "slot": "0",
            "type": "t_address"
          },
          {
            "astId": 12736,
            "contract": "contracts/ADMM.sol:ADMM",
            "label": "sellAsset",
            "offset": 0,
            "slot": "1",
            "type": "t_address"
          },
          {
            "astId": 12738,
            "contract": "contracts/ADMM.sol:ADMM",
            "label": "sellAmount",
            "offset": 0,
            "slot": "2",
            "type": "t_uint256"
          }
        ],
        "numberOfBytes": "96"
      },
      "t_struct(Swap)12799_storage": {
        "encoding": "inplace",
        "label": "struct IADMM.Swap",
        "members": [
          {
            "astId": 12776,
            "contract": "contracts/ADMM.sol:ADMM",
            "label": "id",
            "offset": 0,
            "slot": "0",
            "type": "t_bytes32"
          },
          {
            "astId": 12778,
            "contract": "contracts/ADMM.sol:ADMM",
            "label": "liquidityPoolId",
            "offset": 0,
            "slot": "1",
            "type": "t_bytes32"
          },
          {
            "astId": 12780,
            "contract": "contracts/ADMM.sol:ADMM",
            "label": "secretHash",
            "offset": 0,
            "slot": "2",
            "type": "t_bytes32"
          },
          {
            "astId": 12782,
            "contract": "contracts/ADMM.sol:ADMM",
            "label": "sellAsset",
            "offset": 0,
            "slot": "3",
            "type": "t_address"
          },
          {
            "astId": 12784,
            "contract": "contracts/ADMM.sol:ADMM",
            "label": "sellAmount",
            "offset": 0,
            "slot": "4",
            "type": "t_uint256"
          },
          {
            "astId": 12786,
            "contract": "contracts/ADMM.sol:ADMM",
            "label": "buyAsset",
            "offset": 0,
            "slot": "5",
            "type": "t_address"
          },
          {
            "astId": 12788,
            "contract": "contracts/ADMM.sol:ADMM",
            "label": "buyAmount",
            "offset": 0,
            "slot": "6",
            "type": "t_uint256"
          },
          {
            "astId": 12790,
            "contract": "contracts/ADMM.sol:ADMM",
            "label": "slippage",
            "offset": 0,
            "slot": "7",
            "type": "t_uint256"
          },
          {
            "astId": 12792,
            "contract": "contracts/ADMM.sol:ADMM",
            "label": "swapCreation",
            "offset": 0,
            "slot": "8",
            "type": "t_uint256"
          },
          {
            "astId": 12794,
            "contract": "contracts/ADMM.sol:ADMM",
            "label": "swapOwner",
            "offset": 0,
            "slot": "9",
            "type": "t_address"
          },
          {
            "astId": 12796,
            "contract": "contracts/ADMM.sol:ADMM",
            "label": "buyId",
            "offset": 0,
            "slot": "10",
            "type": "t_string_storage"
          },
          {
            "astId": 12798,
            "contract": "contracts/ADMM.sol:ADMM",
            "label": "status",
            "offset": 0,
            "slot": "11",
            "type": "t_string_storage"
          }
        ],
        "numberOfBytes": "384"
      },
      "t_uint256": {
        "encoding": "inplace",
        "label": "uint256",
        "numberOfBytes": "32"
      }
    }
  }
}