{
  "address": "0x3abB8673FF1cB3565ba2a5b2581B2e9ec19DCEfc",
  "abi": [
    {
      "inputs": [
        {
          "internalType": "address",
          "name": "_tokenAddress",
          "type": "address"
        },
        {
          "internalType": "address",
          "name": "_assetManager",
          "type": "address"
        },
        {
          "internalType": "address",
          "name": "_liquidityPool",
          "type": "address"
        }
      ],
      "stateMutability": "nonpayable",
      "type": "constructor"
    },
    {
      "anonymous": false,
      "inputs": [
        {
          "components": [
            {
              "internalType": "bytes32",
              "name": "id",
              "type": "bytes32"
            },
            {
              "internalType": "bytes32",
              "name": "secretHash",
              "type": "bytes32"
            },
            {
              "internalType": "uint256",
              "name": "amount",
              "type": "uint256"
            },
            {
              "internalType": "string",
              "name": "invoice",
              "type": "string"
            }
          ],
          "indexed": false,
          "internalType": "struct IADMM.Invoice",
          "name": "invoice",
          "type": "tuple"
        }
      ],
      "name": "InvoiceRegistered",
      "type": "event"
    },
    {
      "anonymous": false,
      "inputs": [
        {
          "components": [
            {
              "internalType": "address",
              "name": "owner",
              "type": "address"
            },
            {
              "internalType": "address",
              "name": "sellAsset",
              "type": "address"
            },
            {
              "internalType": "uint256",
              "name": "sellAmount",
              "type": "uint256"
            },
            {
              "internalType": "address",
              "name": "buyAsset",
              "type": "address"
            },
            {
              "internalType": "uint256",
              "name": "poolFee",
              "type": "uint256"
            },
            {
              "internalType": "uint256",
              "name": "buyRangeLowLimit",
              "type": "uint256"
            },
            {
              "internalType": "uint256",
              "name": "buyRangeHighLimit",
              "type": "uint256"
            }
          ],
          "indexed": false,
          "internalType": "struct IADMM.Liquidity",
          "name": "liquidity",
          "type": "tuple"
        }
      ],
      "name": "LiquidityCommitted",
      "type": "event"
    },
    {
      "anonymous": false,
      "inputs": [
        {
          "components": [
            {
              "internalType": "address",
              "name": "liquidityOwner",
              "type": "address"
            },
            {
              "internalType": "address",
              "name": "sellAsset",
              "type": "address"
            },
            {
              "internalType": "uint256",
              "name": "sellAmount",
              "type": "uint256"
            }
          ],
          "indexed": false,
          "internalType": "struct IADMM.LiquidityLimit",
          "name": "liquidityLimit",
          "type": "tuple"
        }
      ],
      "name": "LiquidityLimitUpdated",
      "type": "event"
    },
    {
      "anonymous": false,
      "inputs": [
        {
          "components": [
            {
              "internalType": "address",
              "name": "owner",
              "type": "address"
            },
            {
              "internalType": "address",
              "name": "sellAsset",
              "type": "address"
            },
            {
              "internalType": "uint256",
              "name": "sellAmount",
              "type": "uint256"
            },
            {
              "internalType": "address",
              "name": "buyAsset",
              "type": "address"
            },
            {
              "internalType": "uint256",
              "name": "poolFee",
              "type": "uint256"
            },
            {
              "internalType": "uint256",
              "name": "buyRangeLowLimit",
              "type": "uint256"
            },
            {
              "internalType": "uint256",
              "name": "buyRangeHighLimit",
              "type": "uint256"
            }
          ],
          "indexed": false,
          "internalType": "struct IADMM.Liquidity",
          "name": "liquidity",
          "type": "tuple"
        }
      ],
      "name": "LiquidityRemoved",
      "type": "event"
    },
    {
      "anonymous": false,
      "inputs": [
        {
          "components": [
            {
              "internalType": "bytes32",
              "name": "id",
              "type": "bytes32"
            },
            {
              "internalType": "bytes32",
              "name": "liquidityPoolId",
              "type": "bytes32"
            },
            {
              "internalType": "bytes32",
              "name": "secretHash",
              "type": "bytes32"
            },
            {
              "internalType": "address",
              "name": "sellAsset",
              "type": "address"
            },
            {
              "internalType": "uint256",
              "name": "sellAmount",
              "type": "uint256"
            },
            {
              "internalType": "address",
              "name": "buyAsset",
              "type": "address"
            },
            {
              "internalType": "uint256",
              "name": "buyAmount",
              "type": "uint256"
            },
            {
              "internalType": "uint256",
              "name": "slippage",
              "type": "uint256"
            },
            {
              "internalType": "uint256",
              "name": "swapCreation",
              "type": "uint256"
            },
            {
              "internalType": "address",
              "name": "swapOwner",
              "type": "address"
            },
            {
              "internalType": "string",
              "name": "buyId",
              "type": "string"
            },
            {
              "internalType": "string",
              "name": "status",
              "type": "string"
            }
          ],
          "indexed": false,
          "internalType": "struct IADMM.Swap",
          "name": "swap",
          "type": "tuple"
        }
      ],
      "name": "SwapCreated",
      "type": "event"
    },
    {
      "anonymous": false,
      "inputs": [
        {
          "indexed": true,
          "internalType": "bytes32",
          "name": "id",
          "type": "bytes32"
        },
        {
          "indexed": true,
          "internalType": "address",
          "name": "liquidityOwner",
          "type": "address"
        },
        {
          "indexed": false,
          "internalType": "address",
          "name": "sellAsset",
          "type": "address"
        },
        {
          "indexed": false,
          "internalType": "uint256",
          "name": "matchedSellAmount",
          "type": "uint256"
        },
        {
          "indexed": false,
          "internalType": "uint256",
          "name": "matchedBuyAmount",
          "type": "uint256"
        }
      ],
      "name": "SwapMatched",
      "type": "event"
    },
    {
      "anonymous": false,
      "inputs": [
        {
          "components": [
            {
              "internalType": "bytes32",
              "name": "id",
              "type": "bytes32"
            },
            {
              "internalType": "bytes32",
              "name": "liquidityPoolId",
              "type": "bytes32"
            },
            {
              "internalType": "bytes32",
              "name": "secretHash",
              "type": "bytes32"
            },
            {
              "internalType": "address",
              "name": "sellAsset",
              "type": "address"
            },
            {
              "internalType": "uint256",
              "name": "sellAmount",
              "type": "uint256"
            },
            {
              "internalType": "address",
              "name": "buyAsset",
              "type": "address"
            },
            {
              "internalType": "uint256",
              "name": "buyAmount",
              "type": "uint256"
            },
            {
              "internalType": "uint256",
              "name": "slippage",
              "type": "uint256"
            },
            {
              "internalType": "uint256",
              "name": "swapCreation",
              "type": "uint256"
            },
            {
              "internalType": "address",
              "name": "swapOwner",
              "type": "address"
            },
            {
              "internalType": "string",
              "name": "buyId",
              "type": "string"
            },
            {
              "internalType": "string",
              "name": "status",
              "type": "string"
            }
          ],
          "indexed": false,
          "internalType": "struct IADMM.Swap",
          "name": "swap",
          "type": "tuple"
        }
      ],
      "name": "SwapValidated",
      "type": "event"
    },
    {
      "inputs": [],
      "name": "MULTIPLIER",
      "outputs": [
        {
          "internalType": "uint256",
          "name": "",
          "type": "uint256"
        }
      ],
      "stateMutability": "view",
      "type": "function"
    },
    {
      "inputs": [],
      "name": "assetManager",
      "outputs": [
        {
          "internalType": "contract IAssetManagement",
          "name": "",
          "type": "address"
        }
      ],
      "stateMutability": "view",
      "type": "function"
    },
    {
      "inputs": [
        {
          "components": [
            {
              "internalType": "address",
              "name": "owner",
              "type": "address"
            },
            {
              "internalType": "address",
              "name": "sellAsset",
              "type": "address"
            },
            {
              "internalType": "uint256",
              "name": "sellAmount",
              "type": "uint256"
            },
            {
              "internalType": "address",
              "name": "buyAsset",
              "type": "address"
            },
            {
              "internalType": "uint256",
              "name": "poolFee",
              "type": "uint256"
            },
            {
              "internalType": "uint256",
              "name": "buyRangeLowLimit",
              "type": "uint256"
            },
            {
              "internalType": "uint256",
              "name": "buyRangeHighLimit",
              "type": "uint256"
            }
          ],
          "internalType": "struct IADMM.Liquidity",
          "name": "liquidity",
          "type": "tuple"
        }
      ],
      "name": "commitLiquidity",
      "outputs": [],
      "stateMutability": "nonpayable",
      "type": "function"
    },
    {
      "inputs": [
        {
          "components": [
            {
              "internalType": "bytes32",
              "name": "id",
              "type": "bytes32"
            },
            {
              "internalType": "bytes32",
              "name": "liquidityPoolId",
              "type": "bytes32"
            },
            {
              "internalType": "bytes32",
              "name": "secretHash",
              "type": "bytes32"
            },
            {
              "internalType": "address",
              "name": "sellAsset",
              "type": "address"
            },
            {
              "internalType": "uint256",
              "name": "sellAmount",
              "type": "uint256"
            },
            {
              "internalType": "address",
              "name": "buyAsset",
              "type": "address"
            },
            {
              "internalType": "uint256",
              "name": "buyAmount",
              "type": "uint256"
            },
            {
              "internalType": "uint256",
              "name": "slippage",
              "type": "uint256"
            },
            {
              "internalType": "uint256",
              "name": "swapCreation",
              "type": "uint256"
            },
            {
              "internalType": "address",
              "name": "swapOwner",
              "type": "address"
            },
            {
              "internalType": "string",
              "name": "buyId",
              "type": "string"
            },
            {
              "internalType": "string",
              "name": "status",
              "type": "string"
            }
          ],
          "internalType": "struct IADMM.Swap",
          "name": "swap",
          "type": "tuple"
        }
      ],
      "name": "createSwap",
      "outputs": [],
      "stateMutability": "nonpayable",
      "type": "function"
    },
    {
      "inputs": [
        {
          "internalType": "bytes32",
          "name": "",
          "type": "bytes32"
        }
      ],
      "name": "eventOutputs",
      "outputs": [
        {
          "internalType": "bytes32",
          "name": "id",
          "type": "bytes32"
        },
        {
          "internalType": "bytes32",
          "name": "secretHash",
          "type": "bytes32"
        },
        {
          "internalType": "address",
          "name": "matchedLp",
          "type": "address"
        },
        {
          "internalType": "uint256",
          "name": "matchedSellAmount",
          "type": "uint256"
        },
        {
          "internalType": "uint256",
          "name": "matchedBuyAmount",
          "type": "uint256"
        },
        {
          "internalType": "string",
          "name": "invoice",
          "type": "string"
        }
      ],
      "stateMutability": "view",
      "type": "function"
    },
    {
      "inputs": [
        {
          "internalType": "bytes32",
          "name": "poolId",
          "type": "bytes32"
        },
        {
          "internalType": "uint256",
          "name": "index",
          "type": "uint256"
        }
      ],
      "name": "getLiquidity",
      "outputs": [
        {
          "components": [
            {
              "internalType": "address",
              "name": "owner",
              "type": "address"
            },
            {
              "internalType": "address",
              "name": "sellAsset",
              "type": "address"
            },
            {
              "internalType": "uint256",
              "name": "sellAmount",
              "type": "uint256"
            },
            {
              "internalType": "address",
              "name": "buyAsset",
              "type": "address"
            },
            {
              "internalType": "uint256",
              "name": "poolFee",
              "type": "uint256"
            },
            {
              "internalType": "uint256",
              "name": "buyRangeLowLimit",
              "type": "uint256"
            },
            {
              "internalType": "uint256",
              "name": "buyRangeHighLimit",
              "type": "uint256"
            }
          ],
          "internalType": "struct IADMM.Liquidity",
          "name": "",
          "type": "tuple"
        }
      ],
      "stateMutability": "view",
      "type": "function"
    },
    {
      "inputs": [
        {
          "internalType": "bytes32",
          "name": "poolId",
          "type": "bytes32"
        }
      ],
      "name": "getLiquidityCount",
      "outputs": [
        {
          "internalType": "uint256",
          "name": "",
          "type": "uint256"
        }
      ],
      "stateMutability": "view",
      "type": "function"
    },
    {
      "inputs": [
        {
          "internalType": "bytes32",
          "name": "",
          "type": "bytes32"
        },
        {
          "internalType": "uint256",
          "name": "",
          "type": "uint256"
        }
      ],
      "name": "liquidities",
      "outputs": [
        {
          "internalType": "address",
          "name": "owner",
          "type": "address"
        },
        {
          "internalType": "address",
          "name": "sellAsset",
          "type": "address"
        },
        {
          "internalType": "uint256",
          "name": "sellAmount",
          "type": "uint256"
        },
        {
          "internalType": "address",
          "name": "buyAsset",
          "type": "address"
        },
        {
          "internalType": "uint256",
          "name": "poolFee",
          "type": "uint256"
        },
        {
          "internalType": "uint256",
          "name": "buyRangeLowLimit",
          "type": "uint256"
        },
        {
          "internalType": "uint256",
          "name": "buyRangeHighLimit",
          "type": "uint256"
        }
      ],
      "stateMutability": "view",
      "type": "function"
    },
    {
      "inputs": [
        {
          "internalType": "bytes32",
          "name": "",
          "type": "bytes32"
        },
        {
          "internalType": "uint256",
          "name": "",
          "type": "uint256"
        }
      ],
      "name": "liquidityIds",
      "outputs": [
        {
          "internalType": "uint256",
          "name": "",
          "type": "uint256"
        }
      ],
      "stateMutability": "view",
      "type": "function"
    },
    {
      "inputs": [
        {
          "internalType": "address",
          "name": "",
          "type": "address"
        },
        {
          "internalType": "address",
          "name": "",
          "type": "address"
        }
      ],
      "name": "liquidityLimits",
      "outputs": [
        {
          "internalType": "address",
          "name": "liquidityOwner",
          "type": "address"
        },
        {
          "internalType": "address",
          "name": "sellAsset",
          "type": "address"
        },
        {
          "internalType": "uint256",
          "name": "sellAmount",
          "type": "uint256"
        }
      ],
      "stateMutability": "view",
      "type": "function"
    },
    {
      "inputs": [],
      "name": "liquidityPool",
      "outputs": [
        {
          "internalType": "contract ILiquidityPool",
          "name": "",
          "type": "address"
        }
      ],
      "stateMutability": "view",
      "type": "function"
    },
    {
      "inputs": [
        {
          "internalType": "bytes32",
          "name": "id",
          "type": "bytes32"
        }
      ],
      "name": "matchSwap",
      "outputs": [],
      "stateMutability": "nonpayable",
      "type": "function"
    },
    {
      "inputs": [],
      "name": "poolManager",
      "outputs": [
        {
          "internalType": "contract IPoolManager",
          "name": "",
          "type": "address"
        }
      ],
      "stateMutability": "view",
      "type": "function"
    },
    {
      "inputs": [],
      "name": "priceBTCtoETH",
      "outputs": [
        {
          "internalType": "uint256",
          "name": "",
          "type": "uint256"
        }
      ],
      "stateMutability": "view",
      "type": "function"
    },
    {
      "inputs": [
        {
          "components": [
            {
              "internalType": "bytes32",
              "name": "id",
              "type": "bytes32"
            },
            {
              "internalType": "bytes32",
              "name": "secretHash",
              "type": "bytes32"
            },
            {
              "internalType": "uint256",
              "name": "amount",
              "type": "uint256"
            },
            {
              "internalType": "string",
              "name": "invoice",
              "type": "string"
            }
          ],
          "internalType": "struct IADMM.Invoice",
          "name": "invoice",
          "type": "tuple"
        }
      ],
      "name": "registerInvoice",
      "outputs": [],
      "stateMutability": "nonpayable",
      "type": "function"
    },
    {
      "inputs": [
        {
          "internalType": "uint256",
          "name": "liquidityId",
          "type": "uint256"
        },
        {
          "internalType": "bytes32",
          "name": "liquidityPoolId",
          "type": "bytes32"
        }
      ],
      "name": "removeLiquidity",
      "outputs": [],
      "stateMutability": "nonpayable",
      "type": "function"
    },
    {
      "inputs": [
        {
          "internalType": "address",
          "name": "sellAsset",
          "type": "address"
        },
        {
          "internalType": "address",
          "name": "buyAsset",
          "type": "address"
        },
        {
          "internalType": "uint24",
          "name": "poolFee",
          "type": "uint24"
        },
        {
          "internalType": "uint160",
          "name": "initialSqrtPriceX96ToPrice",
          "type": "uint160"
        }
      ],
      "name": "setInitialSqrtPrice",
      "outputs": [],
      "stateMutability": "nonpayable",
      "type": "function"
    },
    {
      "inputs": [
        {
          "components": [
            {
              "internalType": "address",
              "name": "liquidityOwner",
              "type": "address"
            },
            {
              "internalType": "address",
              "name": "sellAsset",
              "type": "address"
            },
            {
              "internalType": "uint256",
              "name": "sellAmount",
              "type": "uint256"
            }
          ],
          "internalType": "struct IADMM.LiquidityLimit",
          "name": "liquidityLimit",
          "type": "tuple"
        }
      ],
      "name": "setLiquidityLimit",
      "outputs": [],
      "stateMutability": "nonpayable",
      "type": "function"
    },
    {
      "inputs": [
        {
          "internalType": "address",
          "name": "_poolManager",
          "type": "address"
        }
      ],
      "name": "setPoolManager",
      "outputs": [],
      "stateMutability": "nonpayable",
      "type": "function"
    },
    {
      "inputs": [
        {
          "internalType": "uint256",
          "name": "price",
          "type": "uint256"
        }
      ],
      "name": "setPriceBTCtoETH",
      "outputs": [],
      "stateMutability": "nonpayable",
      "type": "function"
    },
    {
      "inputs": [
        {
          "internalType": "uint160",
          "name": "sqrtPriceX96",
          "type": "uint160"
        }
      ],
      "name": "sqrtPriceX96ToPrice",
      "outputs": [
        {
          "internalType": "uint256",
          "name": "price",
          "type": "uint256"
        }
      ],
      "stateMutability": "pure",
      "type": "function"
    },
    {
      "inputs": [
        {
          "internalType": "bytes32",
          "name": "",
          "type": "bytes32"
        }
      ],
      "name": "swaps",
      "outputs": [
        {
          "internalType": "bytes32",
          "name": "id",
          "type": "bytes32"
        },
        {
          "internalType": "bytes32",
          "name": "liquidityPoolId",
          "type": "bytes32"
        },
        {
          "internalType": "bytes32",
          "name": "secretHash",
          "type": "bytes32"
        },
        {
          "internalType": "address",
          "name": "sellAsset",
          "type": "address"
        },
        {
          "internalType": "uint256",
          "name": "sellAmount",
          "type": "uint256"
        },
        {
          "internalType": "address",
          "name": "buyAsset",
          "type": "address"
        },
        {
          "internalType": "uint256",
          "name": "buyAmount",
          "type": "uint256"
        },
        {
          "internalType": "uint256",
          "name": "slippage",
          "type": "uint256"
        },
        {
          "internalType": "uint256",
          "name": "swapCreation",
          "type": "uint256"
        },
        {
          "internalType": "address",
          "name": "swapOwner",
          "type": "address"
        },
        {
          "internalType": "string",
          "name": "buyId",
          "type": "string"
        },
        {
          "internalType": "string",
          "name": "status",
          "type": "string"
        }
      ],
      "stateMutability": "view",
      "type": "function"
    },
    {
      "inputs": [],
      "name": "tokenContract",
      "outputs": [
        {
          "internalType": "contract IPortalToken",
          "name": "",
          "type": "address"
        }
      ],
      "stateMutability": "view",
      "type": "function"
    },
    {
      "inputs": [
        {
          "internalType": "bytes32",
          "name": "id",
          "type": "bytes32"
        }
      ],
      "name": "validateSwap",
      "outputs": [],
      "stateMutability": "nonpayable",
      "type": "function"
    }
  ],
  "transactionHash": "0xb3b2680573d49a46a6991a94466245996e742b9e05662a8e94fffd7ab83ee917",
  "args": [
    "0x742f24592459e189f520214E2f2110C4528d784c",
    "0x4F617b7Dd233552eBef69ECfF646f5A53A618550",
    "0x1425C0c80c5798490e29d2005768e5C549659E26"
  ],
  "numDeployments": 3,
  "solcInputHash": "14b1617be3550a8b8206799612553125",
  "bytecode": "0x608034620000b057601f6200320938819003918201601f19168301916001600160401b03831184841017620000b557808492606094604052833981010312620000b0576200004d81620000cb565b906200006a60406200006260208401620000cb565b9201620000cb565b601d60045560018060a01b0380928160018060a01b0319951685600054161760005516836002541617600255169060035416176003556040516131289081620000e18239f35b600080fd5b634e487b7160e01b600052604160045260246000fd5b51906001600160a01b0382168203620000b05756fe608080604052600436101561001357600080fd5b60003560e01c908163059f8b16146128a35750806320776dd91461281957806324b4c8a6146127fb57806328eb1e89146125e35780633bfbec0f146125a457806351b9cb781461243e57806353c6ac1f1461191457806355a373d6146118ed578063665a11ca146118c657806369ab1291146117b25780637aef67151461164357806387783b8d1461118e5780638f8b76761461110957806394217ad1146110e25780639c44007914610de4578063a67f3e3b14610cbb578063aa52cba714610c83578063ae84e95e14610793578063aeb3a69a14610767578063bc25d95b146106c6578063cabc521314610637578063dc4c90d314610610578063eb84e7f21461050f5763f76742b31461012757600080fd5b346103aa576003196020368201126103aa5767ffffffffffffffff600435116103aa5760806004353603918201126103aa576004356004013560005260056020526040600020906002820180546000526006602052600b6040600020930160405160208101906101a98161019b8486612ed2565b03601f1981018352826129e2565b5190206040516020810190661b585d18da195960ca1b8252600781526101ce816129c6565b519020036104cb576101e96101e38254612a67565b82612e63565b60227f696e766f69636552656769737465726564000000000000000000000000000000019055602460043501359055602460043501356001830155602219016064600435013512156103aa5767ffffffffffffffff600480356064810135010135116103aa57600480356064810135019081013536036024909101136103aa5761028f600460648135013581350101356102866005840154612a67565b60058401612e8d565b60006001601f600480356064810135010135111461041e57600090600480356064810135010135610408575b50600019600480356064810135010135600381901b9190911c1990911660019190911b1760058201555b60246004350135600052600660205260406000208181036103af575b5050604051602081526004356004013560208201526024600435013560408201526044600435013560608201526004356064600435013501906024600483013592019167ffffffffffffffff81116103aa5780360383136103aa57818160c0927f9370909cadd2a6e582f59de4953af02a4befd85448ce4d81c98bf89a7ec47abb956080808501528160a0850152848401376000828201840152601f01601f19168101030190a1005b600080fd5b600580836104019454845560018101546001850155600284016001600160a01b036002830154166001600160a01b03198254161790556003810154600385015560048101546004850155019101612f54565b3880610301565b60043560648101350101602401359050386102bb565b6005820160005260206000209060005b600480356064810135010135601f191681106104a85750600480356064810135010135601f1981161061047a575b5050600160046064813501358135010135811b0160058201556102e5565b6004803560648101350191820160240135600019929091013560031b60f8169190911c19169055388061045c565b60043560648101350182016024013583556001909201916020918201910161042e565b606460405162461bcd60e51b815260206004820152601c60248201527f53776170206973206e6f7420696e206d617463686564207374617465000000006044820152fd5b346103aa5760203660031901126103aa5760043560005260056020526020604060002061060c8154916105fd600a600183015460028401546001600160a01b0390816003870154166004870154836005890154169060068901549260078a01549460088b01549660098c015416976105988c610591604051809d819301612aa1565b038b6129e2565b6105b5600b6105ae6040519e8f92839101612aa1565b038d6129e2565b6040519e8f9e8f908152015260408d015260608c015260808b015260a08a015260c089015260e088015261010087015261012086015261018080610140870152850190612b5a565b90838203610160850152612b5a565b0390f35b346103aa5760003660031901126103aa5760206001600160a01b0360015416604051908152f35b346103aa5760203660031901126103aa5760043560005260066020526040600020805461060c60056001840154936001600160a01b036002820154166003820154906106996004840154936106926040518097819301612aa1565b03856129e2565b6040519687968752602087015260408601526060850152608084015260c060a084015260c0830190612b5a565b346103aa5760203660031901126103aa5760046001600160a01b036020816000541660405193848092638da5cb5b60e01b82525afa90811561075b5760009161071f575b6107179250163314612b93565b600480359055005b90506020823d8211610753575b81610739602093836129e2565b810103126103aa5761074d61071792612b7f565b9061070a565b3d915061072c565b6040513d6000823e3d90fd5b346103aa5760203660031901126103aa5760043560005260076020526020604060002054604051908152f35b346103aa576003196020368201126103aa5767ffffffffffffffff600435116103aa5761018090600435360301126103aa57604051610180810181811067ffffffffffffffff821117610bf457604052600435600401358152602460043501356020820152604460043501356040820152610812606460043501612966565b606082015260846004350135608082015261083160a460043501612966565b60a082015260043560c481013560c083015260e481013560e08301526101048101356101008301526108669061012401612966565b61012082015267ffffffffffffffff6101446004350135116103aa5761089736600480356101448101350101612a20565b61014082015267ffffffffffffffff6101646004350135116103aa576108c836600480356101648101350101612a20565b610160820152426101008201526040516108e1816129c6565b600781526618dc99585d195960ca1b6020820152610160820152805160005260056020526040600020908051825560208101516001830155604081015160028301556001600160a01b03606082015116600383016001600160a01b0319918282541617905560808201516004840155600583016001600160a01b0360a0840151168282541617905560c0820151600684015560e08201516007840155610100820151600884015560098301906001600160a01b03610120840151169082541617905561014081015191825167ffffffffffffffff8111610bf4576109d5816109cc600a850154612a67565b600a8501612e8d565b6020601f8211600114610c155781929394600092610c0a575b50508160011b916000199060031b1c191617600a8201555b61016082015180519067ffffffffffffffff8211610bf457610a3882610a2f600b860154612a67565b600b8601612e8d565b602090601f8311600114610b5e57827f44834e060b6b8e870f29d3e0519a1dfdb1c830f6ed9767a4cc8d113c5f40ee429593610b4e9593600b93600092610b53575b50508160011b916000199060031b1c1916179101555b604051918291602083528051602084015260208101516040840152604081015160608401526001600160a01b036060820151166080840152608081015160a08401526001600160a01b0360a08201511660c084015260c081015160e084015260e08101516101008401526101008101516101208401526001600160a01b0361012082015116610140840152610160610b39610140830151610180838701526101a0860190612b5a565b910151838203601f1901610180850152612b5a565b0390a1005b015190508780610a7a565b90600b840160005260206000209160005b601f1985168110610bdc575083610b4e9593600b936001937f44834e060b6b8e870f29d3e0519a1dfdb1c830f6ed9767a4cc8d113c5f40ee429997601f19811610610bc3575b505050811b01910155610a90565b015160001960f88460031b161c19169055878080610bb5565b91926020600181928685015181550194019201610b6f565b634e487b7160e01b600052604160045260246000fd5b0151905084806109ee565b600a830160005260206000209060005b601f1984168110610c6b5750600193949583601f19811610610c52575b505050811b01600a820155610a06565b015160001960f88460031b161c19169055848080610c42565b9091602060018192858a015181550193019101610c25565b346103aa5760203660031901126103aa576020610cb06001600160a01b03610ca9612924565b1680613078565b60c01c604051908152f35b346103aa5760803660031901126103aa57610cd4612924565b610cdc61293a565b906044359062ffffff82168092036103aa57610cf6612950565b916001600160a01b039160046020846000541660405192838092638da5cb5b60e01b82525afa801561075b57600090610daa575b610d38915084163314612b93565b826001541693843b156103aa57600094848692608495826040519a8b998a987fa67f3e3b000000000000000000000000000000000000000000000000000000008a5216600489015216602487015260448601521660648401525af1801561075b57610d9f57005b610da8906129b2565b005b506020813d8211610ddc575b81610dc3602093836129e2565b810103126103aa57610dd7610d3891612b7f565b610d2a565b3d9150610db6565b346103aa5760403660031901126103aa57600435602490813591610e09831515612cfe565b8260005260079060209082825260406000205484101561109f5784600052828252610e41610e3b8560406000206128da565b50612c30565b6001600160a01b0394600484876000541660405192838092638da5cb5b60e01b82525afa801561075b578791600091611067575b50163314801561105b575b610e8990612c8d565b86600052848452604060002054600019810190811161104657811015610f0d578660005284845260406000206001820190818311610ef857610ed2610ef39392610eee926128da565b5089600052878752610ee88360406000206128da565b90612dc4565b612d56565b610e89565b84634e487b7160e01b60005260116004526000fd5b50939192856000528352604060002080548015611031576000190191610f3383836128da565b91909161101d577f798836e95c4934842129df2a514f0a3804b9b90e79c60ba6efa0e20649af6a19610b4e8888888888600060068a8281558260018201558260028201558260038201558260048201558260058201550155556040830151918181850151166000526008815260406000209184511660005252610fbf6002604060002001918254612e3f565b90556040519182918291909160c08060e08301946001600160a01b038082511685528060208301511660208601526040820151604086015260608201511660608501526080810151608085015260a081015160a08501520151910152565b634e487b7160e01b60005260006004526000fd5b82634e487b7160e01b60005260316004526000fd5b83634e487b7160e01b60005260116004526000fd5b50815186163314610e80565b809250868092503d8311611098575b61108081836129e2565b810103126103aa576110928791612b7f565b89610e75565b503d611076565b9060136064926040519262461bcd60e51b845260048401528201527f496e76616c6964206c69717569646974794964000000000000000000000000006044820152fd5b346103aa5760003660031901126103aa5760206001600160a01b0360025416604051908152f35b346103aa5760403660031901126103aa57611122612924565b61112a61293a565b6001600160a01b038092166000526008602052816040600020911660005260205260406000209061060c60028284541692600185015416930154604051938493846040919493929460608201956001600160a01b0380921683521660208201520152565b346103aa5760e03660031901126103aa57600460206001600160a01b036000541660405192838092638da5cb5b60e01b82525afa801561075b57600090611603575b6001600160a01b03915016331480156115e5575b6111ed90612c8d565b6001600160a01b036111fd612c04565b16600052600860205260406000206001600160a01b0361121b612c1a565b16600052602052600260406000200154604435116115a1576001600160a01b0360035416611247612c04565b606435906001600160a01b03821682036103aa576040517f46965e250000000000000000000000000000000000000000000000000000000081526001600160a01b03918216600482015291166024820152608435604482015290602090829060649082905afa90811561075b5760009161156f575b506112c8811515612cfe565b6112d460a43582612d65565b604051906112e182612996565b6112e9612924565b82526112f361293a565b60208301526044356040830152611308612950565b6060830152608435608083015260a43560a083015260c43560c08301528260005260076020526040600020805468010000000000000000811015610bf457611355916001820181556128da565b5050826000526007602052604060002054600181116114ef575b506113879192600052600760205260406000206128da565b9190916114d95760c0816001600160a01b0360069351166001600160a01b03199081865416178555600185016001600160a01b03602084015116828254161790556040820151600286015560038501906001600160a01b03606084015116908254161790556080810151600485015560a0810151600585015501519101556001600160a01b03611415612c04565b16600052600860205260406000206001600160a01b03611433612c1a565b16600052602052600260406000200161144f6044358254612d49565b90557ff59a5948e4b4ba056adfeb8c0f7537f8fb22f680c14c97470c9ac110d190d2fc60e06040516001600160a01b03611487612924565b1681526001600160a01b0361149a61293a565b16602082015260443560408201526001600160a01b036114b8612950565b166060820152608435608082015260a43560a082015260c43560c0820152a1005b634e487b7160e01b600052600060045260246000fd5b8060001981011161155957600019015b8181111561136f578360005260076020526040600020816000198101116115595761153261154a916000198401906128da565b50856000526007602052610ee88360406000206128da565b801561155957600019016114ff565b634e487b7160e01b600052601160045260246000fd5b90506020813d602011611599575b8161158a602093836129e2565b810103126103aa5751816112bc565b3d915061157d565b606460405162461bcd60e51b815260206004820152601860248201527f4272656163686564204c6971756964697479204c696d697400000000000000006044820152fd5b506111ed6001600160a01b036115f9612c1a565b16331490506111e4565b506020813d60201161163b575b8161161d602093836129e2565b810103126103aa576116366001600160a01b0391612b7f565b6111d0565b3d9150611610565b346103aa576020806003193601126103aa5761165d612924565b60046001600160a01b039183836000541660405193848092638da5cb5b60e01b82525afa801561075b578392600091611777575b5061169f9083163314612b93565b1691826001600160a01b031960015416176001556040517fc45a01550000000000000000000000000000000000000000000000000000000081528181600481875afa91821561075b57600092611740575b50501690813b156103aa576000916024839260405194859384927f7048027500000000000000000000000000000000000000000000000000000000845260048401525af1801561075b57610d9f57005b90809250813d8311611770575b61175781836129e2565b810103126103aa575181811681036103aa5783806116f0565b503d61174d565b809350858092503d83116117ab575b61179081836129e2565b810103126103aa5761169f6117a58493612b7f565b90611691565b503d611786565b346103aa576117c0366128c4565b600060c06040516117d081612996565b8281528260208201528260408201528260608201528260808201528260a0820152015281600052600760205260406000205481101561188257610e3b6118269161060c93600052600760205260406000206128da565b6040519182918291909160c08060e08301946001600160a01b038082511685528060208301511660208601526040820151604086015260608201511660608501526080810151608085015260a081015160a08501520151910152565b606460405162461bcd60e51b815260206004820152601360248201527f496e646578206f7574206f6620626f756e6473000000000000000000000000006044820152fd5b346103aa5760003660031901126103aa5760206001600160a01b0360035416604051908152f35b346103aa5760003660031901126103aa5760206001600160a01b0360005416604051908152f35b346103aa5760203660031901126103aa5760043560005260056020526040600020600b8101604051602081019061194f8161019b8486612ed2565b5190206040516020810190681d985b1a59185d195960ba1b825260098152611976816129c6565b519020036123fa5761198b6101e38254612a67565b600e661b585d18da195960ca1b0190556001810154906001600160a01b036002541660006001600160a01b036003840154166024604051809481937f4e1d7bac00000000000000000000000000000000000000000000000000000000835260048301525afa801561075b57600090612285575b604091500151604051611a2e60208281611a218183019687815193849201612b37565b81010380845201826129e2565b51902060405160208101907f4254430000000000000000000000000000000000000000000000000000000000825260038152611a69816129c6565b5190200361225757611a82600482015460045490613078565b6402540be4009081810291818304149015171561155957905b81670de0b6b3a7640000810204670de0b6b3a7640000148215171561155957611ad26004820154670de0b6b3a7640000840261308b565b6004356000526009602052611aea6040600020613095565b60005b84600052600760205260406000208054821015611bd157611b0f8286926128da565b506001600160a01b036001820154166001600160a01b036005870154161480611bae575b611b48575b5050611b4390612d56565b611aed565b600201541015611b5a575b8386611b38565b600435600052600960205260406000209081549168010000000000000000831015610bf45782611b92916001611b439501815561290c565b81549060031b9083821b91600019901b19161790559050611b53565b506001600160a01b036003820154166001600160a01b0360038701541614611b33565b5050839060043560005260096020526040600020541515600014611ed95750600435600052600960205260406000205490436000194301116115595760405160001943014060208201524460408201526040815280606081011067ffffffffffffffff606083011117610bf45760608101604052602081519101208215611ec357611c8a92611c7091600435600052600960205206604060002061290c565b90549060031b1c90600052600760205260406000206128da565b5060028101611c9a848254612d49565b905560028201546001600160a01b038254169060048401549160405192611cc08461297a565b6004358452602084019183835260408501908152606085019182526080850192888452611ceb6130b9565b9460a0870195865260005260066020526040600020955186555160018601556001600160a01b03600286019151166001600160a01b03198254161790555160038401555160048301555180519067ffffffffffffffff8211610bf457611d6182611d586005860154612a67565b60058601612e8d565b602090601f8311600114611e2857827fd6cc21c31e96cb4a1f271a96910130d1e0d0e1dd5ef69328dd4ea3c72b5d847f95936001600160a01b039593600593600092611e1d575b50508160011b916000199060031b1c1916179101555b54169260046001600160a01b03600385015416930154611e0160405192839260043596846040919493926001600160a01b03606083019616825260208201520152565b0390a35b6004356000526009602052610da86040600020613095565b015190508980611da8565b906005840160005260206000209160005b601f1985168110611eab5750836001600160a01b0395936005936001937fd6cc21c31e96cb4a1f271a96910130d1e0d0e1dd5ef69328dd4ea3c72b5d847f9997601f19811610611e92575b505050811b01910155611dbe565b015160001960f88460031b161c19169055898080611e84565b91926020600181928685015181550194019201611e39565b634e487b7160e01b600052601260045260246000fd5b6000939192935b8360005260076020526040600020805482101561224c5781611f01916128da565b50906001600160a01b036001830154166001600160a01b036005880154161480612229575b8061220d575b80612200575b80612193575b611f4c575b611f479150612d56565b611ee0565b6002820154916000600282015560028701546001600160a01b03825416908515611ec35760405191611f7d8361297a565b60043583526020830190828252604084019081526060840190600082526080850192888452611faa6130b9565b9460a0870195865260005260066020526040600020955186555160018601556001600160a01b03600286019151166001600160a01b03198254161790555160038401555160048301555180519067ffffffffffffffff8211610bf45761201782611d586005860154612a67565b602090601f8311600114612123576005929160009183612118575b50508160011b916000199060031b1c1916179101555b6001600160a01b038154169060026001600160a01b0360038a0154169101549384670de0b6b3a7640000810204670de0b6b3a7640000148515171561155957846120f39387937fd6cc21c31e96cb4a1f271a96910130d1e0d0e1dd5ef69328dd4ea3c72b5d847f670de0b6b3a7640000946120c88787611f479c0261308b565b604080516001600160a01b03959095168552602085019190915283015260043591606090a30261308b565b60043560005260056020526121116004604060002001918254612d49565b9055611f3d565b015190508b80612032565b906005840160005260206000209160005b601f198516811061217b5750918391600193600595601f19811610612162575b505050811b01910155612048565b015160001960f88460031b161c191690558b8080612154565b91926020600181928685015181550194019201612134565b50600582015480670de0b6b3a7640000810204670de0b6b3a7640000148115171561155957670de0b6b3a76400000283118015611f385750600682015480670de0b6b3a7640000810204670de0b6b3a7640000148115171561155957670de0b6b3a7640000028310611f38565b5083600283015410611f32565b506122216006870154600788015490612e3f565b841115611f2c565b506001600160a01b036003830154166001600160a01b0360038801541614611f26565b505050505050611e05565b60048101546004546402540be400908181029181830414901517156115595761227f9161308b565b90611a9b565b503d806000833e61229681836129e2565b60208282810103126103aa57815167ffffffffffffffff81116103aa5761010081840183850103126103aa57604051928361010081011067ffffffffffffffff61010086011117610bf45761010084016040526122f4828201612b7f565b84526020828201015167ffffffffffffffff81116103aa5761231d908483019084840101613033565b60208501526040828201015167ffffffffffffffff81116103aa57612349908483019084840101613033565b60408501526060828201015167ffffffffffffffff81116103aa57612375908483019084840101613033565b60608501528082016080818101519086015260a0015167ffffffffffffffff81116103aa576123ab908483019084840101613033565b60a085015260c082820101519267ffffffffffffffff84116103aa5760e0936123da9183019084840101613033565b60c08501520101519060ff821682036103aa5760409160e08201526119fe565b606460405162461bcd60e51b815260206004820152601e60248201527f53776170206973206e6f7420696e2076616c69646174656420737461746500006044820152fd5b346103aa5760603660031901126103aa576001600160a01b0380600054166040518091638da5cb5b60e01b825281600460209485935afa90811561075b57600091612540575b7f5b63864dfb4a19dd435e0c5b1f6e039ed91862cf9b709802a2bccdee9fec80fe6060856002866124b88784163314612b93565b826124c1612c04565b16600052600881526040600020836124d7612c1a565b1660005281526040600020836124eb612c1a565b166001600160a01b0319908183541617825560018201908561250b612c04565b169082541617905560443592839101556040519280612528612924565b16845261253361293a565b16908301526040820152a1005b9290508183813d831161259d575b61255881836129e2565b810103126103aa5760026060926124b86125927f5b63864dfb4a19dd435e0c5b1f6e039ed91862cf9b709802a2bccdee9fec80fe96612b7f565b939550509250612484565b503d61254e565b346103aa576125b2366128c4565b906000526009602052604060002080548210156103aa576020916125d59161290c565b90546040519160031b1c8152f35b346103aa576020806003193601126103aa576001600160a01b03600482826000541660405192838092638da5cb5b60e01b82525afa801561075b576000906127c5575b612634915082163314612b93565b600435600052600582526040600020600b810160405191848301836126598285612ed2565b039361266d601f19958681018352826129e2565b519020604051868101906618dc99585d195960ca1b825260078152612691816129c6565b519020036127815791817fd4965279c5ca49ceadbd1832e902fa9a2231cf3727ef8863ab2cfb896102fb3b95936126d46126ce610b4e9554612a67565b83612e63565b6012681d985b1a59185d195960ba1b0182556040519585879687528254908701526001820154604087015260028201546060870152806003830154166080870152600482015460a08701528060058301541660c0870152600682015460e0870152600782015461010087015260088201546101208701526009820154166101408601526127736101809182610160880152600a6101a088019101612aa1565b928584030190850152612aa1565b6064856040519062461bcd60e51b82526004820152601c60248201527f53776170206973206e6f7420696e2063726561746564207374617465000000006044820152fd5b508281813d83116127f4575b6127db81836129e2565b810103126103aa576127ef61263491612b7f565b612626565b503d6127d1565b346103aa5760003660031901126103aa576020600454604051908152f35b346103aa57612827366128c4565b906000526007602052604060002080548210156103aa5760e09161284a916128da565b506001600160a01b03808254169181600182015416916002820154906003830154166004830154916006600585015494015494604051968752602087015260408601526060850152608084015260a083015260c0820152f35b346103aa5760003660031901126103aa5780670de0b6b3a764000060209252f35b60409060031901126103aa576004359060243590565b80548210156128f6576000526007602060002091020190600090565b634e487b7160e01b600052603260045260246000fd5b80548210156128f65760005260206000200190600090565b600435906001600160a01b03821682036103aa57565b602435906001600160a01b03821682036103aa57565b606435906001600160a01b03821682036103aa57565b35906001600160a01b03821682036103aa57565b60c0810190811067ffffffffffffffff821117610bf457604052565b60e0810190811067ffffffffffffffff821117610bf457604052565b67ffffffffffffffff8111610bf457604052565b6040810190811067ffffffffffffffff821117610bf457604052565b90601f8019910116810190811067ffffffffffffffff821117610bf457604052565b67ffffffffffffffff8111610bf457601f01601f191660200190565b81601f820112156103aa57803590612a3782612a04565b92612a4560405194856129e2565b828452602083830101116103aa57816000926020809301838601378301015290565b90600182811c92168015612a97575b6020831014612a8157565b634e487b7160e01b600052602260045260246000fd5b91607f1691612a76565b9060009291805491612ab283612a67565b918282526001938481169081600014612b145750600114612ad4575b50505050565b90919394506000526020928360002092846000945b838610612b00575050505001019038808080612ace565b805485870183015294019385908201612ae9565b9294505050602093945060ff191683830152151560051b01019038808080612ace565b60005b838110612b4a5750506000910152565b8181015183820152602001612b3a565b90602091612b7381518092818552858086019101612b37565b601f01601f1916010190565b51906001600160a01b03821682036103aa57565b15612b9a57565b608460405162461bcd60e51b815260206004820152602660248201527f43616c6c6572206973206e6f742074686520746f6b656e20636f6e747261637460448201527f206f776e657200000000000000000000000000000000000000000000000000006064820152fd5b6024356001600160a01b03811681036103aa5790565b6004356001600160a01b03811681036103aa5790565b90604051612c3d81612996565b60c0600682946001600160a01b0380825416855280600183015416602086015260028201546040860152600382015416606085015260048101546080850152600581015460a08501520154910152565b15612c9457565b608460405162461bcd60e51b815260206004820152602e60248201527f43616c6c6572206973206e6f7420746865206f776e6572206f7220746865206c60448201527f6971756964697479206f776e65720000000000000000000000000000000000006064820152fd5b15612d0557565b606460405162461bcd60e51b815260206004820152601960248201527f41737365742070616972206e6f742072656769737465726564000000000000006044820152fd5b9190820391821161155957565b60001981146115595760010190565b60009181835260076020938185526040918282205495825b878110612d8e575050505050505090565b8684528282526005612da2828787206128da565b5001548610612db957612db490612d56565b612d7d565b965050505050505090565b91906114d957808203612dd5575050565b600680916001600160a01b03808254166001600160a01b031990818754161786556001860182600185015416828254161790556002830154600287015560038601916003840154169082541617905560048101546004850155600581015460058501550154910155565b9190820180921161155957565b818110612e57575050565b60008155600101612e4c565b90601f8111612e70575050565b612e8b91600052601f6020600020910160051c810190612e4c565b565b9190601f8111612e9c57505050565b612e8b926000526020600020906020601f840160051c83019310612ec8575b601f0160051c0190612e4c565b9091508190612ebb565b600092918154612ee181612a67565b92600191808316908115612f395750600114612efd5750505050565b90919293945060005260209081600020906000915b858310612f285750505050019038808080612ace565b805485840152918301918101612f12565b60ff1916845250505081151590910201915038808080612ace565b9080821461302f57612f668154612a67565b9067ffffffffffffffff8211610bf4578190612f8c82612f868654612a67565b86612e8d565b600090601f8311600114612fc357600092612fb8575b50508160011b916000199060031b1c1916179055565b015490503880612fa2565b81526020808220858352818320935090601f1985169083905b828210613016575050908460019594939210612ffd575b505050811b019055565b015460001960f88460031b161c19169055388080612ff3565b8495819295850154815560018091019601940190612fdc565b5050565b81601f820112156103aa57805161304981612a04565b9261305760405194856129e2565b818452602082840101116103aa576130759160208085019101612b37565b90565b8181029291811591840414171561155957565b8115611ec3570490565b805460008255806130a4575050565b612e8b91600052602060002090810190612e4c565b604051906130c6826129c6565b600582527f3132333435000000000000000000000000000000000000000000000000000000602083015256fea26469706673582212203f6970bdd09fea6fbdfe7197b1d550ef87450cd3d7f74eafa5b2ad0c71bd252264736f6c63430008140033",
  "devdoc": {
    "details": "Contract which manages the swap Process and liquidity accounting and management",
    "events": {
      "InvoiceRegistered((bytes32,bytes32,uint256,string))": {
        "details": "Event emitted when an invoice is successfully registered",
        "params": {
          "invoice": "invoice of the swap which is registered on portal chain"
        }
      },
      "LiquidityCommitted((address,address,uint256,address,uint256,uint256,uint256))": {
        "details": "Event emitted when liquidity position is committed for a particular pool",
        "params": {
          "liquidity": "Liquidity position to be committed"
        }
      },
      "LiquidityLimitUpdated((address,address,uint256))": {
        "details": "Event emitted when liquidity position is updated",
        "params": {
          "liquidityLimit": "LiquidityLimit details"
        }
      },
      "LiquidityRemoved((address,address,uint256,address,uint256,uint256,uint256))": {
        "details": "Event emitted when liquidity position is removed",
        "params": {
          "liquidity": "Liquidity position to be committed"
        }
      },
      "SwapCreated((bytes32,bytes32,bytes32,address,uint256,address,uint256,uint256,uint256,address,string,string))": {
        "details": "Event emitted when a swap is registered",
        "params": {
          "swap": "swap details"
        }
      },
      "SwapMatched(bytes32,address,address,uint256,uint256)": {
        "details": "Event emitted when a swap is matched",
        "params": {
          "id": "Unique identifier of the swap",
          "liquidityOwner": "Address of the liquidity owner",
          "matchedBuyAmount": "Matched amount of the asset to be bought",
          "matchedSellAmount": "Matched amount of the asset to be sold",
          "sellAsset": "asset address to be sold"
        }
      },
      "SwapValidated((bytes32,bytes32,bytes32,address,uint256,address,uint256,uint256,uint256,address,string,string))": {
        "details": "Event emitted when a swap is registered",
        "params": {
          "swap": "swap details"
        }
      }
    },
    "kind": "dev",
    "methods": {
      "commitLiquidity((address,address,uint256,address,uint256,uint256,uint256))": {
        "params": {
          "liquidity": "liquidity position details"
        }
      },
      "constructor": {
        "params": {
          "_assetManager": "address of the asset manager contract",
          "_liquidityPool": "address of the liquidity pool contract",
          "_tokenAddress": "address of the portal token contract"
        }
      },
      "createSwap((bytes32,bytes32,bytes32,address,uint256,address,uint256,uint256,uint256,address,string,string))": {
        "params": {
          "swap": "details of the swap"
        }
      },
      "matchSwap(bytes32)": {
        "params": {
          "id": "Unique Id for the swap"
        }
      },
      "registerInvoice((bytes32,bytes32,uint256,string))": {
        "params": {
          "invoice": "lightning Invoice details for the swap"
        }
      },
      "removeLiquidity(uint256,bytes32)": {
        "params": {
          "liquidityId": "liquidity position id referring to the index of the position",
          "liquidityPoolId": "unique identifier of the liquidity pool"
        }
      },
      "setInitialSqrtPrice(address,address,uint24,uint160)": {
        "params": {
          "buyAsset": "Liquidity Provider's Buy asset address",
          "initialSqrtPriceX96ToPrice": "initial price of the pool",
          "poolFee": "Fee of the trading pool",
          "sellAsset": "Liquidity Provider's Sell asset address"
        }
      },
      "setLiquidityLimit((address,address,uint256))": {
        "params": {
          "liquidityLimit": "liquidity limit details"
        }
      },
      "setPoolManager(address)": {
        "params": {
          "_poolManager": "address of the pool manager contract"
        }
      },
      "setPriceBTCtoETH(uint256)": {
        "params": {
          "price": "price of the asset"
        }
      },
      "sqrtPriceX96ToPrice(uint160)": {
        "params": {
          "sqrtPriceX96": "initial price of the pool"
        }
      },
      "validateSwap(bytes32)": {
        "params": {
          "id": "unique id of the swap"
        }
      }
    },
    "title": "ADMM Contract",
    "version": 1
  },
  "userdoc": {
    "kind": "user",
    "methods": {
      "MULTIPLIER()": {
        "notice": "MULTIPLIER of all accounting assets"
      },
      "assetManager()": {
        "notice": "address of the asset manager contract"
      },
      "commitLiquidity((address,address,uint256,address,uint256,uint256,uint256))": {
        "notice": "Liquidity Provider's liquidity committed for a concentrated position for a particular pool"
      },
      "constructor": {
        "notice": "Constructor to initialize the management contract"
      },
      "createSwap((bytes32,bytes32,bytes32,address,uint256,address,uint256,uint256,uint256,address,string,string))": {
        "notice": "function to register a swap in Portal Chain"
      },
      "eventOutputs(bytes32)": {
        "notice": "Struct to store mapping of all active event outputs of the swap by secretHash"
      },
      "liquidities(bytes32,uint256)": {
        "notice": "Struct to store mapping of all active liquidityPoolId to liquidity of that liquidityPoolId"
      },
      "liquidityIds(bytes32,uint256)": {
        "notice": "Struct to store mapping of all active matched liquidities with id"
      },
      "liquidityLimits(address,address)": {
        "notice": "Struct to store mapping of all active liquidity limits with sellAsset and liquidityOwner"
      },
      "liquidityPool()": {
        "notice": "address of the liquidity pool contract"
      },
      "matchSwap(bytes32)": {
        "notice": "function to match a swap with a liquidity position"
      },
      "poolManager()": {
        "notice": "address of the pool manager contract"
      },
      "registerInvoice((bytes32,bytes32,uint256,string))": {
        "notice": "function to register lightning invoice in Portal Chain"
      },
      "removeLiquidity(uint256,bytes32)": {
        "notice": "function to remove liquidity from the pool"
      },
      "setInitialSqrtPrice(address,address,uint24,uint160)": {
        "notice": "function to set initial sqrt price of the pool"
      },
      "setLiquidityLimit((address,address,uint256))": {
        "notice": "set the liquidity limit for given owner and the asset"
      },
      "setPoolManager(address)": {
        "notice": "set the address of pool manager contract and admin to the factory"
      },
      "setPriceBTCtoETH(uint256)": {
        "notice": "function to set the price of BTC in terms of ETH"
      },
      "sqrtPriceX96ToPrice(uint160)": {
        "notice": "function to retrieve current price of the pool"
      },
      "swaps(bytes32)": {
        "notice": "Struct to store mapping of all active swaps by id of the swap"
      },
      "tokenContract()": {
        "notice": "address of the portal Token contract"
      },
      "validateSwap(bytes32)": {
        "notice": "function to validate a swap"
      }
    },
    "version": 1
  },
  "storageLayout": {
    "storage": [
      {
        "astId": 8938,
        "contract": "contracts/ADMM.sol:ADMM",
        "label": "tokenContract",
        "offset": 0,
        "slot": "0",
        "type": "t_contract(IPortalToken)13272"
      },
      {
        "astId": 8942,
        "contract": "contracts/ADMM.sol:ADMM",
        "label": "poolManager",
        "offset": 0,
        "slot": "1",
        "type": "t_contract(IPoolManager)13251"
      },
      {
        "astId": 8946,
        "contract": "contracts/ADMM.sol:ADMM",
        "label": "assetManager",
        "offset": 0,
        "slot": "2",
        "type": "t_contract(IAssetManagement)13003"
      },
      {
        "astId": 8950,
        "contract": "contracts/ADMM.sol:ADMM",
        "label": "liquidityPool",
        "offset": 0,
        "slot": "3",
        "type": "t_contract(ILiquidityPool)13067"
      },
      {
        "astId": 8957,
        "contract": "contracts/ADMM.sol:ADMM",
        "label": "priceBTCtoETH",
        "offset": 0,
        "slot": "4",
        "type": "t_uint256"
      },
      {
        "astId": 9033,
        "contract": "contracts/ADMM.sol:ADMM",
        "label": "swaps",
        "offset": 0,
        "slot": "5",
        "type": "t_mapping(t_bytes32,t_struct(Swap)12868_storage)"
      },
      {
        "astId": 9039,
        "contract": "contracts/ADMM.sol:ADMM",
        "label": "eventOutputs",
        "offset": 0,
        "slot": "6",
        "type": "t_mapping(t_bytes32,t_struct(EventOutput)12881_storage)"
      },
      {
        "astId": 9046,
        "contract": "contracts/ADMM.sol:ADMM",
        "label": "liquidities",
        "offset": 0,
        "slot": "7",
        "type": "t_mapping(t_bytes32,t_array(t_struct(Liquidity)12830_storage)dyn_storage)"
      },
      {
        "astId": 9054,
        "contract": "contracts/ADMM.sol:ADMM",
        "label": "liquidityLimits",
        "offset": 0,
        "slot": "8",
        "type": "t_mapping(t_address,t_mapping(t_address,t_struct(LiquidityLimit)12808_storage))"
      },
      {
        "astId": 9060,
        "contract": "contracts/ADMM.sol:ADMM",
        "label": "liquidityIds",
        "offset": 0,
        "slot": "9",
        "type": "t_mapping(t_bytes32,t_array(t_uint256)dyn_storage)"
      }
    ],
    "types": {
      "t_address": {
        "encoding": "inplace",
        "label": "address",
        "numberOfBytes": "20"
      },
      "t_array(t_struct(Liquidity)12830_storage)dyn_storage": {
        "base": "t_struct(Liquidity)12830_storage",
        "encoding": "dynamic_array",
        "label": "struct IADMM.Liquidity[]",
        "numberOfBytes": "32"
      },
      "t_array(t_uint256)dyn_storage": {
        "base": "t_uint256",
        "encoding": "dynamic_array",
        "label": "uint256[]",
        "numberOfBytes": "32"
      },
      "t_bytes32": {
        "encoding": "inplace",
        "label": "bytes32",
        "numberOfBytes": "32"
      },
      "t_contract(IAssetManagement)13003": {
        "encoding": "inplace",
        "label": "contract IAssetManagement",
        "numberOfBytes": "20"
      },
      "t_contract(ILiquidityPool)13067": {
        "encoding": "inplace",
        "label": "contract ILiquidityPool",
        "numberOfBytes": "20"
      },
      "t_contract(IPoolManager)13251": {
        "encoding": "inplace",
        "label": "contract IPoolManager",
        "numberOfBytes": "20"
      },
      "t_contract(IPortalToken)13272": {
        "encoding": "inplace",
        "label": "contract IPortalToken",
        "numberOfBytes": "20"
      },
      "t_mapping(t_address,t_mapping(t_address,t_struct(LiquidityLimit)12808_storage))": {
        "encoding": "mapping",
        "key": "t_address",
        "label": "mapping(address => mapping(address => struct IADMM.LiquidityLimit))",
        "numberOfBytes": "32",
        "value": "t_mapping(t_address,t_struct(LiquidityLimit)12808_storage)"
      },
      "t_mapping(t_address,t_struct(LiquidityLimit)12808_storage)": {
        "encoding": "mapping",
        "key": "t_address",
        "label": "mapping(address => struct IADMM.LiquidityLimit)",
        "numberOfBytes": "32",
        "value": "t_struct(LiquidityLimit)12808_storage"
      },
      "t_mapping(t_bytes32,t_array(t_struct(Liquidity)12830_storage)dyn_storage)": {
        "encoding": "mapping",
        "key": "t_bytes32",
        "label": "mapping(bytes32 => struct IADMM.Liquidity[])",
        "numberOfBytes": "32",
        "value": "t_array(t_struct(Liquidity)12830_storage)dyn_storage"
      },
      "t_mapping(t_bytes32,t_array(t_uint256)dyn_storage)": {
        "encoding": "mapping",
        "key": "t_bytes32",
        "label": "mapping(bytes32 => uint256[])",
        "numberOfBytes": "32",
        "value": "t_array(t_uint256)dyn_storage"
      },
      "t_mapping(t_bytes32,t_struct(EventOutput)12881_storage)": {
        "encoding": "mapping",
        "key": "t_bytes32",
        "label": "mapping(bytes32 => struct IADMM.EventOutput)",
        "numberOfBytes": "32",
        "value": "t_struct(EventOutput)12881_storage"
      },
      "t_mapping(t_bytes32,t_struct(Swap)12868_storage)": {
        "encoding": "mapping",
        "key": "t_bytes32",
        "label": "mapping(bytes32 => struct IADMM.Swap)",
        "numberOfBytes": "32",
        "value": "t_struct(Swap)12868_storage"
      },
      "t_string_storage": {
        "encoding": "bytes",
        "label": "string",
        "numberOfBytes": "32"
      },
      "t_struct(EventOutput)12881_storage": {
        "encoding": "inplace",
        "label": "struct IADMM.EventOutput",
        "members": [
          {
            "astId": 12870,
            "contract": "contracts/ADMM.sol:ADMM",
            "label": "id",
            "offset": 0,
            "slot": "0",
            "type": "t_bytes32"
          },
          {
            "astId": 12872,
            "contract": "contracts/ADMM.sol:ADMM",
            "label": "secretHash",
            "offset": 0,
            "slot": "1",
            "type": "t_bytes32"
          },
          {
            "astId": 12874,
            "contract": "contracts/ADMM.sol:ADMM",
            "label": "matchedLp",
            "offset": 0,
            "slot": "2",
            "type": "t_address"
          },
          {
            "astId": 12876,
            "contract": "contracts/ADMM.sol:ADMM",
            "label": "matchedSellAmount",
            "offset": 0,
            "slot": "3",
            "type": "t_uint256"
          },
          {
            "astId": 12878,
            "contract": "contracts/ADMM.sol:ADMM",
            "label": "matchedBuyAmount",
            "offset": 0,
            "slot": "4",
            "type": "t_uint256"
          },
          {
            "astId": 12880,
            "contract": "contracts/ADMM.sol:ADMM",
            "label": "invoice",
            "offset": 0,
            "slot": "5",
            "type": "t_string_storage"
          }
        ],
        "numberOfBytes": "192"
      },
      "t_struct(Liquidity)12830_storage": {
        "encoding": "inplace",
        "label": "struct IADMM.Liquidity",
        "members": [
          {
            "astId": 12817,
            "contract": "contracts/ADMM.sol:ADMM",
            "label": "owner",
            "offset": 0,
            "slot": "0",
            "type": "t_address"
          },
          {
            "astId": 12819,
            "contract": "contracts/ADMM.sol:ADMM",
            "label": "sellAsset",
            "offset": 0,
            "slot": "1",
            "type": "t_address"
          },
          {
            "astId": 12821,
            "contract": "contracts/ADMM.sol:ADMM",
            "label": "sellAmount",
            "offset": 0,
            "slot": "2",
            "type": "t_uint256"
          },
          {
            "astId": 12823,
            "contract": "contracts/ADMM.sol:ADMM",
            "label": "buyAsset",
            "offset": 0,
            "slot": "3",
            "type": "t_address"
          },
          {
            "astId": 12825,
            "contract": "contracts/ADMM.sol:ADMM",
            "label": "poolFee",
            "offset": 0,
            "slot": "4",
            "type": "t_uint256"
          },
          {
            "astId": 12827,
            "contract": "contracts/ADMM.sol:ADMM",
            "label": "buyRangeLowLimit",
            "offset": 0,
            "slot": "5",
            "type": "t_uint256"
          },
          {
            "astId": 12829,
            "contract": "contracts/ADMM.sol:ADMM",
            "label": "buyRangeHighLimit",
            "offset": 0,
            "slot": "6",
            "type": "t_uint256"
          }
        ],
        "numberOfBytes": "224"
      },
      "t_struct(LiquidityLimit)12808_storage": {
        "encoding": "inplace",
        "label": "struct IADMM.LiquidityLimit",
        "members": [
          {
            "astId": 12803,
            "contract": "contracts/ADMM.sol:ADMM",
            "label": "liquidityOwner",
            "offset": 0,
            "slot": "0",
            "type": "t_address"
          },
          {
            "astId": 12805,
            "contract": "contracts/ADMM.sol:ADMM",
            "label": "sellAsset",
            "offset": 0,
            "slot": "1",
            "type": "t_address"
          },
          {
            "astId": 12807,
            "contract": "contracts/ADMM.sol:ADMM",
            "label": "sellAmount",
            "offset": 0,
            "slot": "2",
            "type": "t_uint256"
          }
        ],
        "numberOfBytes": "96"
      },
      "t_struct(Swap)12868_storage": {
        "encoding": "inplace",
        "label": "struct IADMM.Swap",
        "members": [
          {
            "astId": 12845,
            "contract": "contracts/ADMM.sol:ADMM",
            "label": "id",
            "offset": 0,
            "slot": "0",
            "type": "t_bytes32"
          },
          {
            "astId": 12847,
            "contract": "contracts/ADMM.sol:ADMM",
            "label": "liquidityPoolId",
            "offset": 0,
            "slot": "1",
            "type": "t_bytes32"
          },
          {
            "astId": 12849,
            "contract": "contracts/ADMM.sol:ADMM",
            "label": "secretHash",
            "offset": 0,
            "slot": "2",
            "type": "t_bytes32"
          },
          {
            "astId": 12851,
            "contract": "contracts/ADMM.sol:ADMM",
            "label": "sellAsset",
            "offset": 0,
            "slot": "3",
            "type": "t_address"
          },
          {
            "astId": 12853,
            "contract": "contracts/ADMM.sol:ADMM",
            "label": "sellAmount",
            "offset": 0,
            "slot": "4",
            "type": "t_uint256"
          },
          {
            "astId": 12855,
            "contract": "contracts/ADMM.sol:ADMM",
            "label": "buyAsset",
            "offset": 0,
            "slot": "5",
            "type": "t_address"
          },
          {
            "astId": 12857,
            "contract": "contracts/ADMM.sol:ADMM",
            "label": "buyAmount",
            "offset": 0,
            "slot": "6",
            "type": "t_uint256"
          },
          {
            "astId": 12859,
            "contract": "contracts/ADMM.sol:ADMM",
            "label": "slippage",
            "offset": 0,
            "slot": "7",
            "type": "t_uint256"
          },
          {
            "astId": 12861,
            "contract": "contracts/ADMM.sol:ADMM",
            "label": "swapCreation",
            "offset": 0,
            "slot": "8",
            "type": "t_uint256"
          },
          {
            "astId": 12863,
            "contract": "contracts/ADMM.sol:ADMM",
            "label": "swapOwner",
            "offset": 0,
            "slot": "9",
            "type": "t_address"
          },
          {
            "astId": 12865,
            "contract": "contracts/ADMM.sol:ADMM",
            "label": "buyId",
            "offset": 0,
            "slot": "10",
            "type": "t_string_storage"
          },
          {
            "astId": 12867,
            "contract": "contracts/ADMM.sol:ADMM",
            "label": "status",
            "offset": 0,
            "slot": "11",
            "type": "t_string_storage"
          }
        ],
        "numberOfBytes": "384"
      },
      "t_uint256": {
        "encoding": "inplace",
        "label": "uint256",
        "numberOfBytes": "32"
      }
    }
  }
}