{
  "address": "0x4F617b7Dd233552eBef69ECfF646f5A53A618550",
  "abi": [
    {
      "inputs": [
        {
          "internalType": "address",
          "name": "_portalToken",
          "type": "address"
        }
      ],
      "stateMutability": "nonpayable",
      "type": "constructor"
    },
    {
      "inputs": [
        {
          "internalType": "string",
          "name": "blockchainName",
          "type": "string"
        },
        {
          "internalType": "string",
          "name": "blockchainAddress",
          "type": "string"
        }
      ],
      "name": "AssetExists",
      "type": "error"
    },
    {
      "inputs": [
        {
          "internalType": "address",
          "name": "sender",
          "type": "address"
        }
      ],
      "name": "NotOwner",
      "type": "error"
    },
    {
      "anonymous": false,
      "inputs": [
        {
          "indexed": true,
          "internalType": "address",
          "name": "id",
          "type": "address"
        }
      ],
      "name": "AssetCreated",
      "type": "event"
    },
    {
      "inputs": [
        {
          "components": [
            {
              "internalType": "address",
              "name": "id",
              "type": "address"
            },
            {
              "internalType": "string",
              "name": "name",
              "type": "string"
            },
            {
              "internalType": "string",
              "name": "symbol",
              "type": "string"
            },
            {
              "internalType": "string",
              "name": "logo",
              "type": "string"
            },
            {
              "internalType": "uint256",
              "name": "blockchainId",
              "type": "uint256"
            },
            {
              "internalType": "string",
              "name": "blockchainName",
              "type": "string"
            },
            {
              "internalType": "string",
              "name": "blockchainAddress",
              "type": "string"
            },
            {
              "internalType": "uint8",
              "name": "blockchainDecimals",
              "type": "uint8"
            }
          ],
          "internalType": "struct IAsset.AssetData",
          "name": "_asset",
          "type": "tuple"
        }
      ],
      "name": "createAsset",
      "outputs": [],
      "stateMutability": "nonpayable",
      "type": "function"
    },
    {
      "inputs": [],
      "name": "listAssets",
      "outputs": [
        {
          "components": [
            {
              "internalType": "address",
              "name": "id",
              "type": "address"
            },
            {
              "internalType": "string",
              "name": "name",
              "type": "string"
            },
            {
              "internalType": "string",
              "name": "symbol",
              "type": "string"
            },
            {
              "internalType": "string",
              "name": "logo",
              "type": "string"
            },
            {
              "internalType": "uint256",
              "name": "blockchainId",
              "type": "uint256"
            },
            {
              "internalType": "string",
              "name": "blockchainName",
              "type": "string"
            },
            {
              "internalType": "string",
              "name": "blockchainAddress",
              "type": "string"
            },
            {
              "internalType": "uint8",
              "name": "blockchainDecimals",
              "type": "uint8"
            }
          ],
          "internalType": "struct IAsset.AssetData[]",
          "name": "",
          "type": "tuple[]"
        }
      ],
      "stateMutability": "view",
      "type": "function"
    },
    {
      "inputs": [],
      "name": "portalToken",
      "outputs": [
        {
          "internalType": "contract IPortalToken",
          "name": "",
          "type": "address"
        }
      ],
      "stateMutability": "view",
      "type": "function"
    },
    {
      "inputs": [
        {
          "internalType": "address",
          "name": "id",
          "type": "address"
        }
      ],
      "name": "retrieveAsset",
      "outputs": [
        {
          "components": [
            {
              "internalType": "address",
              "name": "id",
              "type": "address"
            },
            {
              "internalType": "string",
              "name": "name",
              "type": "string"
            },
            {
              "internalType": "string",
              "name": "symbol",
              "type": "string"
            },
            {
              "internalType": "string",
              "name": "logo",
              "type": "string"
            },
            {
              "internalType": "uint256",
              "name": "blockchainId",
              "type": "uint256"
            },
            {
              "internalType": "string",
              "name": "blockchainName",
              "type": "string"
            },
            {
              "internalType": "string",
              "name": "blockchainAddress",
              "type": "string"
            },
            {
              "internalType": "uint8",
              "name": "blockchainDecimals",
              "type": "uint8"
            }
          ],
          "internalType": "struct IAsset.AssetData",
          "name": "",
          "type": "tuple"
        }
      ],
      "stateMutability": "view",
      "type": "function"
    },
    {
      "inputs": [
        {
          "internalType": "string",
          "name": "blockchainName",
          "type": "string"
        },
        {
          "internalType": "string",
          "name": "blockchainAddress",
          "type": "string"
        }
      ],
      "name": "retrieveAssetByNativeProps",
      "outputs": [
        {
          "components": [
            {
              "internalType": "address",
              "name": "id",
              "type": "address"
            },
            {
              "internalType": "string",
              "name": "name",
              "type": "string"
            },
            {
              "internalType": "string",
              "name": "symbol",
              "type": "string"
            },
            {
              "internalType": "string",
              "name": "logo",
              "type": "string"
            },
            {
              "internalType": "uint256",
              "name": "blockchainId",
              "type": "uint256"
            },
            {
              "internalType": "string",
              "name": "blockchainName",
              "type": "string"
            },
            {
              "internalType": "string",
              "name": "blockchainAddress",
              "type": "string"
            },
            {
              "internalType": "uint8",
              "name": "blockchainDecimals",
              "type": "uint8"
            }
          ],
          "internalType": "struct IAsset.AssetData",
          "name": "",
          "type": "tuple"
        }
      ],
      "stateMutability": "view",
      "type": "function"
    }
  ],
  "transactionHash": "0x59c5ed09fc0f68f23d85bd6ddcffca1a5ebd5b598d76e3c504ad060d2bf3325c",
  "args": [
    "0x742f24592459e189f520214E2f2110C4528d784c"
  ],
  "numDeployments": 1,
  "solcInputHash": "2fd20d911d8de013566405c6f17dd1a7",
  "bytecode": "0x60803461007457601f61289238819003918201601f19168301916001600160401b038311848410176100795780849260209460405283398101031261007457516001600160a01b0381169081900361007457600080546001600160a01b03191691909117905560405161280290816100908239f35b600080fd5b634e487b7160e01b600052604160045260246000fdfe608060408181526004803610156200001657600080fd5b600092833560e01c9081631c94c77b1462000876575080634e1d7bac14620008025780635cbf7e551462000711578063caf87b8e14620001e75763eadeb9a3146200006057600080fd5b34620001e35782600319360112620001e357916001908154620000838162000d2b565b946200009285519687620009b9565b818652601f19620000a38362000d2b565b01835b818110620001c3575050825b8281106200011d57505050825192602080850191818652865180935281818701918460051b880101970193905b838210620000ed5786880387f35b909192939483806200010b839a603f198b82030186528951620008e7565b999701959493919091019101620000df565b6001600160a01b03848362000135849a989a62000b24565b919054918a51948593849263f93dc4d960e01b845260031b1c165afa908115620001b95790620001899291869162000192575b5062000175828862000d44565b5262000182818762000d44565b5062000b72565b959395620000b2565b620001b291503d8088833e620001a98183620009b9565b81019062000c21565b3862000168565b87513d87823e3d90fd5b602090620001d398969862000b98565b82828901015201969496620000a6565b8280fd5b509034620001e35760031991602036840181136200070d5781359367ffffffffffffffff808611620007095785840190610100908184893603011262000705576001600160a01b039786868a8c54168a51928380927f8da5cb5b0000000000000000000000000000000000000000000000000000000082525afa908115620006fb57908a918c91620006bb575b501633036200068c578335928984168094036200068857836200062c5790869493929160a4820194620002a8868262000a70565b3690620002b592620009f9565b9560c48401620002c6818462000a70565b3690620002d392620009f9565b998d518a818b8181519e8f92019e8f91620002ee926200089b565b8101600381520301902062000304908c62000aa6565b5460ff16620005d557508c5196611a7380890197881189891017620005c05760e494928f888f62000373620003e3938b8f8f620003fa9c9a620003d296620003ea9b6101209462000d5a903980835282015262000365602488018d62000ace565b939094820152019162000b03565b958c60a06084620003c5620003a562000390604489018e62000ace565b601f19878f03810160608901529d9162000b03565b620003b4606489018e62000ace565b908d87840301608088015262000b03565b9501359101528762000ace565b8c8303870160c08e01529062000b03565b9362000ace565b918884030160e089015262000b03565b9201359060ff8216809203620005bc5784930152039089f08015620005b257600254680100000000000000008110156200059f57858994620004ca948297948762000450866001620004ba980160025562000b24565b999092169882549060031b918a831b921b19161790556200047360015462000b72565b6001556200049e8b51848184516200048d8183896200089b565b810160038152030190208662000aa6565b600160ff198254161790558a519384928392519283916200089b565b8101898152030190209062000aa6565b817fffffffffffffffffffffffff00000000000000000000000000000000000000008254161790558451938480927faf640d0f0000000000000000000000000000000000000000000000000000000082525afa928315620005965750849262000558575b5050167fa34547120a941eab43859acf535a121237e5536fd476dccda8174fb1af6926ed8280a280f35b90809250813d83116200058e575b620005728183620009b9565b81010312620001e357620005869062000a5b565b38806200052e565b503d62000566565b513d86823e3d90fd5b60248a604189634e487b7160e01b835252fd5b86513d8a823e3d90fd5b8c80fd5b505060248f60418e634e487b7160e01b835252fd5b8c620006288f928d620006188d86519687967f3dd3b0610000000000000000000000000000000000000000000000000000000088528701526044860190620008c0565b91848303016024850152620008c0565b0390fd5b606488888b51917f08c379a0000000000000000000000000000000000000000000000000000000008352820152601060248201527f494e56414c49445f41535345545f4944000000000000000000000000000000006044820152fd5b8a80fd5b87517f245aecd30000000000000000000000000000000000000000000000000000000081523381890152602490fd5b809250888092503d8311620006f3575b620006d78183620009b9565b810103126200068857620006ec8a9162000a5b565b3862000274565b503d620006cb565b89513d8d823e3d90fd5b8880fd5b8680fd5b8480fd5b509034620001e35780600319360112620001e3578267ffffffffffffffff8335818111620001e35762000748903690860162000a3a565b90602435908111620001e3576001600160a01b0391620004ba602062000776620007959436908a0162000a3a565b926200078162000b98565b50818851938285809451938492016200089b565b541682519384809263f93dc4d960e01b82525afa918215620007f85783620007d39493620007d7575b505051918291602083526020830190620008e7565b0390f35b620007ef9293503d8091833e620001a98183620009b9565b903880620007be565b81513d85823e3d90fd5b509034620001e3576020366003190112620001e3578282356001600160a01b03811680910362000872576200083662000b98565b5082519384809263f93dc4d960e01b82525afa918215620007f85783620007d39493620007d757505051918291602083526020830190620008e7565b5080fd5b84903462000872578160031936011262000872576001600160a01b0360209254168152f35b60005b838110620008af5750506000910152565b81810151838201526020016200089e565b90602091620008db815180928185528580860191016200089b565b601f01601f1916010190565b906001600160a01b03825116815260e060ff816200097b620009686200094b620009386200092560208a01516101008060208c01528a0190620008c0565b60408a015189820360408b0152620008c0565b606089015188820360608a0152620008c0565b6080880151608088015260a088015187820360a0890152620008c0565b60c087015186820360c0880152620008c0565b9401511691015290565b610100810190811067ffffffffffffffff821117620009a357604052565b634e487b7160e01b600052604160045260246000fd5b90601f8019910116810190811067ffffffffffffffff821117620009a357604052565b67ffffffffffffffff8111620009a357601f01601f191660200190565b92919262000a0782620009dc565b9162000a176040519384620009b9565b82948184528183011162000a35578281602093846000960137010152565b600080fd5b9080601f8301121562000a355781602062000a5893359101620009f9565b90565b51906001600160a01b038216820362000a3557565b903590601e198136030182121562000a35570180359067ffffffffffffffff821162000a355760200191813603831362000a3557565b60209062000ac29282604051948386809551938492016200089b565b82019081520301902090565b9035601e198236030181121562000a3557016020813591019167ffffffffffffffff821162000a3557813603831362000a3557565b908060209392818452848401376000828201840152601f01601f1916010190565b60025481101562000b5c5760026000527f405787fa12a823e0f2b7631cc41b3ba8828b3321ca811111fa75cd3aa3bb5ace0190600090565b634e487b7160e01b600052603260045260246000fd5b600019811462000b825760010190565b634e487b7160e01b600052601160045260246000fd5b6040519062000ba78262000985565b600060e083828152606080602083015280604083015280808301528360808301528060a083015260c08201520152565b81601f8201121562000a3557805162000bf081620009dc565b9262000c006040519485620009b9565b8184526020828401011162000a355762000a5891602080850191016200089b565b9060208282031262000a3557815167ffffffffffffffff9283821162000a3557016101008183031262000a35576040519262000c5d8462000985565b62000c688262000a5b565b8452602082015181811162000a35578362000c8591840162000bd7565b6020850152604082015181811162000a35578362000ca591840162000bd7565b6040850152606082015181811162000a35578362000cc591840162000bd7565b60608501526080820151608085015260a082015181811162000a35578362000cef91840162000bd7565b60a085015260c082015190811162000a355760e09262000d1191830162000bd7565b60c0840152015160ff8116810362000a355760e082015290565b67ffffffffffffffff8111620009a35760051b60200190565b805182101562000b5c5760209160051b01019056fe60806040523462000c185762001a73803803806200001d8162000c3e565b92833981019060208183031262000c18578051906001600160401b03821162000c185701906101008282031262000c18576200005862000c1d565b82519092906001600160a01b038116810362000c1857835260208101516001600160401b03811162000c1857826200009291830162000c64565b6020840190815260408201519092906001600160401b03811162000c185781620000be91840162000c64565b6040850190815260608301519093906001600160401b03811162000c185782620000ea91850162000c64565b6060860190815260808481015190870190815260a08501519092906001600160401b03811162000c1857846200012291870162000c64565b60a0880190815260c08601519094906001600160401b03811162000c185760e0916200015091880162000c64565b9560c0890196875201519660ff8816880362000c185760e00196875280518651815190916001600160401b038211620006135760035490600182811c9216801562000c0d575b6020831014620005f25781601f84931162000b98575b50602090601f831160011462000b0d5760009262000b01575b50508160011b916000199060031b1c1916176003555b8051906001600160401b0382116200061357600454600181811c9116801562000af6575b6020821014620005f257601f811162000a8c575b50602090601f8311600114620009fd5760ff93929160009183620009f1575b50508160011b916000199060031b1c1916176004555b5195519151925193519451965116946200026162000c1d565b308082526020820183905260408201938452606082019485526080820195865260a0820196875260c0820198895260e0820197909752600580546001600160a01b0319169097179096558051906001600160401b038211620006135760065490600182811c92168015620009e6575b6020831014620005f25781601f84931162000982575b50602090601f83116001146200090857600092620008fc575b50508160011b916000199060031b1c1916176006555b518051906001600160401b038211620006135760075490600182811c92168015620008f1575b6020831014620005f25781601f8493116200088d575b50602090601f8311600114620008135760009262000807575b50508160011b916000199060031b1c1916176007555b518051906001600160401b038211620006135760085490600182811c92168015620007fc575b6020831014620005f25781601f84931162000798575b50602090601f83116001146200071e5760009262000712575b50508160011b916000199060031b1c1916176008555b516009555180519092906001600160401b0381116200061357600a54600181811c9116801562000707575b6020821014620005f257601f8111620006ae575b506020601f821160011462000635578192939460009262000629575b50508160011b916000199060031b1c191617600a555b518051906001600160401b0382116200061357600b54600181811c9116801562000608575b6020821014620005f257601f811162000588575b50602090601f8311600114620004f757918060ff949260e094600092620004eb575b50508160011b916000199060031b1c191617600b555b01511660ff19600c541617600c55604051610d1c908162000cd78239f35b015190503880620004b7565b600b60009081527f0175b7a638427703f0dbe7bb9bbf987a2551717b34e79f33b5b1008d1fa01db9929190601f198516905b8181106200056f575092600192859260e09660ff98961062000555575b505050811b01600b55620004cd565b015160001960f88460031b161c1916905538808062000546565b9293602060018192878601518155019501930162000529565b600b6000527f0175b7a638427703f0dbe7bb9bbf987a2551717b34e79f33b5b1008d1fa01db9601f840160051c81019160208510620005e7575b601f0160051c01905b818110620005da575062000495565b60008155600101620005cb565b9091508190620005c2565b634e487b7160e01b600052602260045260246000fd5b90607f169062000481565b634e487b7160e01b600052604160045260246000fd5b01519050388062000446565b600a6000908152600080516020620019f38339815191529190601f198416905b81811062000695575095836001959697106200067b575b505050811b01600a556200045c565b015160001960f88460031b161c191690553880806200066c565b9192602060018192868b01518155019401920162000655565b600a600052600080516020620019f3833981519152601f830160051c81019160208410620006fc575b601f0160051c01905b818110620006ef57506200042a565b60008155600101620006e0565b9091508190620006d7565b90607f169062000416565b015190503880620003d5565b6008600090815260008051602062001a338339815191529350601f198516905b8181106200077f575090846001959493921062000765575b505050811b01600855620003eb565b015160001960f88460031b161c1916905538808062000756565b929360206001819287860151815501950193016200073e565b600860005290915060008051602062001a33833981519152601f840160051c81019160208510620007f1575b90601f859493920160051c01905b818110620007e15750620003bc565b60008155849350600101620007d2565b9091508190620007c4565b91607f1691620003a6565b0151905038806200036a565b6007600090815260008051602062001a138339815191529350601f198516905b8181106200087457509084600195949392106200085a575b505050811b0160075562000380565b015160001960f88460031b161c191690553880806200084b565b9293602060018192878601518155019501930162000833565b600760005290915060008051602062001a13833981519152601f840160051c81019160208510620008e6575b90601f859493920160051c01905b818110620008d6575062000351565b60008155849350600101620008c7565b9091508190620008b9565b91607f16916200033b565b015190503880620002ff565b6006600090815260008051602062001a538339815191529350601f198516905b8181106200096957509084600195949392106200094f575b505050811b0160065562000315565b015160001960f88460031b161c1916905538808062000940565b9293602060018192878601518155019501930162000928565b600660005290915060008051602062001a53833981519152601f840160051c81019160208510620009db575b90601f859493920160051c01905b818110620009cb5750620002e6565b60008155849350600101620009bc565b9091508190620009ae565b91607f1691620002d0565b01519050388062000232565b600460009081527f8a35acfbc15ff81a39ae7d344fd709f28e8600b4aa8c65c6b64bfe7fe36bd19b929190601f198516905b81811062000a73575091600193918560ff9796941062000a59575b505050811b0160045562000248565b015160001960f88460031b161c1916905538808062000a4a565b9293602060018192878601518155019501930162000a2f565b60046000527f8a35acfbc15ff81a39ae7d344fd709f28e8600b4aa8c65c6b64bfe7fe36bd19b601f840160051c8101916020851062000aeb575b601f0160051c01905b81811062000ade575062000213565b6000815560010162000acf565b909150819062000ac6565b90607f1690620001ff565b015190503880620001c5565b600360009081527fc2575a0e9e593c00f959f8c92f12db2869c3395a3b0502d05e2516446f71f85b9350601f198516905b81811062000b7f575090846001959493921062000b65575b505050811b01600355620001db565b015160001960f88460031b161c1916905538808062000b56565b9293602060018192878601518155019501930162000b3e565b60036000529091507fc2575a0e9e593c00f959f8c92f12db2869c3395a3b0502d05e2516446f71f85b601f840160051c8101916020851062000c02575b90601f859493920160051c01905b81811062000bf25750620001ac565b6000815584935060010162000be3565b909150819062000bd5565b91607f169162000196565b600080fd5b6040519061010082016001600160401b038111838210176200061357604052565b6040519190601f01601f191682016001600160401b038111838210176200061357604052565b919080601f8401121562000c185782516001600160401b038111620006135760209062000c9a601f8201601f1916830162000c3e565b9281845282828701011162000c185760005b81811062000cc257508260009394955001015290565b858101830151848201840152820162000cac56fe60806040908082526004918236101561001757600080fd5b600091823560e01c90816306fdde0314610a0557508063095ea7b31461095957806318160ddd1461093b57806323b872dd1461082f578063313ce5671461080e57806370a08231146107d957806395d89b41146106bb578063a9059cbb1461068b578063af640d0f14610664578063dd62ed3e1461061c5763f93dc4d91461009e57600080fd5b346106185781600319360112610618578051906100ba82610b6a565b82825260608360e06020948386820152838582015283808201528260808201528360a08201528360c082015201528151936100f485610b6a565b6001600160a01b03956005878154168752845190839160065460019381851c91858116801561060e575b8b841081146105fb578385528492918c9082156105df575050600114610584575b61014b92500382610b9d565b878901908152865190856007549081861c91868116801561057a575b8c84108114610567578386528592918d90821561054b5750506001146104f0575b61019492500383610b9d565b878a01918252875192866008549081871c9187811680156104e6575b8d841081146104d3578388528792918e9082156104b757505060011461045c575b6101dd92500385610b9d565b878b019384526009549560808c019687528951958b89600a5480841c92848216908115610452575b8410811461043f57908f8b939285855291826000146104235750506001146103c9575b61023492500388610b9d565b60a08d019687528a51988c8194600b549182851c958584169182156103bf575b871082146103ac57508f909186959493928e98978952928360001461038d57505050600114610333575b5050500361028c9087610b9d565b60c08a01958652600c5460ff169860e08b01998a5288519b8c9b828d525116908b01525161010080988b01526101208a016102c691610af9565b905190601f1996878b830301908b01526102df91610af9565b905190858982030160808a01526102f591610af9565b915160a08801525190838782030160c088015261031191610af9565b9051918582030160e086015261032691610af9565b915160ff16908301520390f35b91908d9350600b83527f0175b7a638427703f0dbe7bb9bbf987a2551717b34e79f33b5b1008d1fa01db95b8284106103735750505082010138808061027e565b84929582958583549201015201910190928c928a9461035e565b935094935094505060ff1916838501521515901b82010138808061027e565b846022602492634e487b7160e01b835252fd5b96607f1696610254565b5050600a8a52878d8b847fc65a7bb8d6351c1cf70c95a316cc6a92839c986682d98bc35f958f4883f9d2a85b85831061040b5750506102349350820101610228565b90919383858354920101520191018e90848b936103f5565b60ff191684820152610234941515881b84010191506102289050565b60248d602288634e487b7160e01b835252fd5b93607f1693610205565b505060088852848b89887ff3f7a9fe364faab93b216da50a3214154f22a0a2b415b23a84c8169e8b636ee35b85831061049e5750506101dd93508201016101d1565b80919294505483858b0101520191018c90888893610488565b60ff1916848201526101dd941515861b84010191506101d19050565b60248b60228c634e487b7160e01b835252fd5b92607f16926101b0565b505060078752828a88877fa66cc928b5edb82af9bd49922954155ab7b0942694bea4ce44661d9a8736c6885b8583106105325750506101949350820101610188565b8091929450548385890101520191018b9087869361051c565b60ff191684820152610194941515881b84010191506101889050565b60248a60228b634e487b7160e01b835252fd5b92607f1692610167565b505060068652818987867ff652222313e28459528d920b65115c16c04f3efc82aaedc97be59f3f377c0d3f5b8583106105c657505061014b935082010161013f565b8091929450548385880101520191018a908685936105b0565b60ff19168482015261014b941515871b840101915061013f9050565b60248960228a634e487b7160e01b835252fd5b92607f169261011e565b5080fd5b503461061857806003193601126106185780602092610639610b39565b610641610b54565b6001600160a01b0391821683526001865283832091168252845220549051908152f35b50346106185781600319360112610618576020906001600160a01b03600554169051908152f35b50346106185780600319360112610618576020906106b46106aa610b39565b6024359033610bbf565b5160018152f35b5090346107d657806003193601126107d65781519181845492600184811c918186169586156107cc575b60209687851081146107b9579087899a92868b999a9b52918260001461078f575050600114610734575b858861073089610721848a0385610b9d565b51928284938452830190610af9565b0390f35b815286935091907f8a35acfbc15ff81a39ae7d344fd709f28e8600b4aa8c65c6b64bfe7fe36bd19b5b82841061077757505050820101816107216107303861070f565b8054848a01860152889550879490930192810161075d565b60ff19168882015294151560051b870190940194508593506107219250610730915038905061070f565b60248360228c634e487b7160e01b835252fd5b92607f16926106e5565b80fd5b503461061857602036600319011261061857806020926001600160a01b036107ff610b39565b16815280845220549051908152f35b503461061857816003193601126106185760209060ff600c54169051908152f35b509190346107d65760603660031901126107d65761084b610b39565b610853610b54565b91604435936001600160a01b038316808352600160205286832033845260205286832054916000198303610890575b6020886106b4898989610bbf565b8683106108f65781156108e05733156108ca575082526001602090815286832033845281529186902090859003905582906106b438610882565b60249084895191634a1406b160e11b8352820152fd5b6024908489519163e602df0560e01b8352820152fd5b87517ffb8f41b2000000000000000000000000000000000000000000000000000000008152339181019182526020820193909352604081018790528291506060010390fd5b50346106185781600319360112610618576020906002549051908152f35b508234610a015781600319360112610a0157610973610b39565b6024359033156109eb576001600160a01b03169182156109d557508083602095338152600187528181208582528752205582519081527f8c5be1e5ebec7d5bd14f71427d1e84f3dd0314c0f7b2291e5b200ac8c7c3b925843392a35160018152f35b60249085855191634a1406b160e11b8352820152fd5b6024838686519163e602df0560e01b8352820152fd5b8280fd5b92919050346106185781600319360112610618578160035492600184811c91818616958615610aef575b60209687851081146107b9578899509688969785829a529182600014610ac8575050600114610a6c575b5050506107309291610721910385610b9d565b9190869350600383527fc2575a0e9e593c00f959f8c92f12db2869c3395a3b0502d05e2516446f71f85b5b828410610ab05750505082010181610721610730610a59565b8054848a018601528895508794909301928101610a97565b60ff19168782015293151560051b8601909301935084925061072191506107309050610a59565b92607f1692610a2f565b919082519283825260005b848110610b25575050826000602080949584010152601f8019910116010190565b602081830181015184830182015201610b04565b600435906001600160a01b0382168203610b4f57565b600080fd5b602435906001600160a01b0382168203610b4f57565b610100810190811067ffffffffffffffff821117610b8757604052565b634e487b7160e01b600052604160045260246000fd5b90601f8019910116810190811067ffffffffffffffff821117610b8757604052565b916001600160a01b03808416928315610cb55716928315610c845760009083825281602052604082205490838210610c39575091604082827fddf252ad1be2c89b69c2b068fc378daa952ba7f163c4a11628f55a4df523b3ef958760209652828652038282205586815220818154019055604051908152a3565b6040517fe450d38c0000000000000000000000000000000000000000000000000000000081526001600160a01b03919091166004820152602481019190915260448101839052606490fd5b60246040517fec442f0500000000000000000000000000000000000000000000000000000000815260006004820152fd5b60246040517f96c6fd1e00000000000000000000000000000000000000000000000000000000815260006004820152fdfea26469706673582212206b4f65e5e60fbb8ec835599c3a748ff9cb398443fec41a371c916da9829d6b9964736f6c63430008140033c65a7bb8d6351c1cf70c95a316cc6a92839c986682d98bc35f958f4883f9d2a8a66cc928b5edb82af9bd49922954155ab7b0942694bea4ce44661d9a8736c688f3f7a9fe364faab93b216da50a3214154f22a0a2b415b23a84c8169e8b636ee3f652222313e28459528d920b65115c16c04f3efc82aaedc97be59f3f377c0d3fa26469706673582212208079d39106382b3e71f76e99228a7979d9101d1fad72ff4b0f6db7ee0d57055964736f6c63430008140033",
  "devdoc": {
    "errors": {
      "AssetExists(string,string)": [
        {
          "params": {
            "blockchainAddress": "Address of the asset on the native blockchain",
            "blockchainName": "Name of the native blockchain"
          }
        }
      ],
      "NotOwner(address)": [
        {
          "params": {
            "sender": "The address of the account calling the function"
          }
        }
      ]
    },
    "events": {
      "AssetCreated(address)": {
        "params": {
          "id": "The address of the asset on the portal chain"
        }
      }
    },
    "kind": "dev",
    "methods": {
      "constructor": {
        "params": {
          "_portalToken": "Address of the PORTAL token contract on portal chain"
        }
      },
      "listAssets()": {
        "returns": {
          "_0": "The list of all assets in the order they were created"
        }
      },
      "retrieveAsset(address)": {
        "params": {
          "id": "The address of the asset on the portal chain"
        },
        "returns": {
          "_0": "The asset whose id was provided"
        }
      },
      "retrieveAssetByNativeProps(string,string)": {
        "params": {
          "blockchainAddress": "Address of the asset on the native blockchain",
          "blockchainName": "Name of the native blockchain"
        },
        "returns": {
          "_0": "The asset whose native blockchain properties were provided"
        }
      }
    },
    "title": "AssetManagement Manages assets in the Portal ecosystem. Assets in the Portal ecosystem are immutable and may not be updated or deleted once created. The contract maintains a list of all assets created in the order they were created. It also maintains a mapping of assets by their native blockchain name and address to enable quick lookups of assets based on native blockchain details.",
    "version": 1
  },
  "userdoc": {
    "errors": {
      "AssetExists(string,string)": [
        {
          "notice": "Thrown when an asset has already been created"
        }
      ],
      "NotOwner(address)": [
        {
          "notice": "Thrown when the caller is not the owner of the contract"
        }
      ]
    },
    "events": {
      "AssetCreated(address)": {
        "notice": "Fires when a new asset is created"
      }
    },
    "kind": "user",
    "methods": {
      "constructor": {
        "notice": "Initializes the asset management contract"
      },
      "createAsset((address,string,string,string,uint256,string,string,uint8))": {
        "notice": "Creates a new asset. NOTE: This method is only callable by the owner of the contract."
      },
      "listAssets()": {
        "notice": "Lists all assets on the portal chain in the order they were created"
      },
      "portalToken()": {
        "notice": "Address of the PORTAL Token contract on portal chain"
      },
      "retrieveAsset(address)": {
        "notice": "Retrieves the specified asset"
      },
      "retrieveAssetByNativeProps(string,string)": {
        "notice": "Retrieves an asset using native blockchain properties"
      }
    },
    "version": 1
  },
  "storageLayout": {
    "storage": [
      {
        "astId": 10216,
        "contract": "contracts/AssetManagement.sol:AssetManagement",
        "label": "portalToken",
        "offset": 0,
        "slot": "0",
        "type": "t_contract(IPortalToken)13202"
      },
      {
        "astId": 10219,
        "contract": "contracts/AssetManagement.sol:AssetManagement",
        "label": "assetCount",
        "offset": 0,
        "slot": "1",
        "type": "t_uint256"
      },
      {
        "astId": 10224,
        "contract": "contracts/AssetManagement.sol:AssetManagement",
        "label": "assets",
        "offset": 0,
        "slot": "2",
        "type": "t_array(t_contract(Asset)10200)dyn_storage"
      },
      {
        "astId": 10231,
        "contract": "contracts/AssetManagement.sol:AssetManagement",
        "label": "existingAssets",
        "offset": 0,
        "slot": "3",
        "type": "t_mapping(t_string_memory_ptr,t_mapping(t_string_memory_ptr,t_bool))"
      },
      {
        "astId": 10239,
        "contract": "contracts/AssetManagement.sol:AssetManagement",
        "label": "assetsByNativeProps",
        "offset": 0,
        "slot": "4",
        "type": "t_mapping(t_string_memory_ptr,t_mapping(t_string_memory_ptr,t_contract(Asset)10200))"
      }
    ],
    "types": {
      "t_array(t_contract(Asset)10200)dyn_storage": {
        "base": "t_contract(Asset)10200",
        "encoding": "dynamic_array",
        "label": "contract Asset[]",
        "numberOfBytes": "32"
      },
      "t_bool": {
        "encoding": "inplace",
        "label": "bool",
        "numberOfBytes": "1"
      },
      "t_contract(Asset)10200": {
        "encoding": "inplace",
        "label": "contract Asset",
        "numberOfBytes": "20"
      },
      "t_contract(IPortalToken)13202": {
        "encoding": "inplace",
        "label": "contract IPortalToken",
        "numberOfBytes": "20"
      },
      "t_mapping(t_string_memory_ptr,t_bool)": {
        "encoding": "mapping",
        "key": "t_string_memory_ptr",
        "label": "mapping(string => bool)",
        "numberOfBytes": "32",
        "value": "t_bool"
      },
      "t_mapping(t_string_memory_ptr,t_contract(Asset)10200)": {
        "encoding": "mapping",
        "key": "t_string_memory_ptr",
        "label": "mapping(string => contract Asset)",
        "numberOfBytes": "32",
        "value": "t_contract(Asset)10200"
      },
      "t_mapping(t_string_memory_ptr,t_mapping(t_string_memory_ptr,t_bool))": {
        "encoding": "mapping",
        "key": "t_string_memory_ptr",
        "label": "mapping(string => mapping(string => bool))",
        "numberOfBytes": "32",
        "value": "t_mapping(t_string_memory_ptr,t_bool)"
      },
      "t_mapping(t_string_memory_ptr,t_mapping(t_string_memory_ptr,t_contract(Asset)10200))": {
        "encoding": "mapping",
        "key": "t_string_memory_ptr",
        "label": "mapping(string => mapping(string => contract Asset))",
        "numberOfBytes": "32",
        "value": "t_mapping(t_string_memory_ptr,t_contract(Asset)10200)"
      },
      "t_string_memory_ptr": {
        "encoding": "bytes",
        "label": "string",
        "numberOfBytes": "32"
      },
      "t_uint256": {
        "encoding": "inplace",
        "label": "uint256",
        "numberOfBytes": "32"
      }
    }
  }
}