{
  "address": "0xF91265aFA642f11fA0B12a2d3a0AB6a304367361",
  "abi": [
    {
      "inputs": [
        {
          "internalType": "address",
          "name": "_factory",
          "type": "address"
        },
        {
          "internalType": "address",
          "name": "_WETH9",
          "type": "address"
        },
        {
          "internalType": "address",
          "name": "_tokenDescriptor_",
          "type": "address"
        }
      ],
      "stateMutability": "nonpayable",
      "type": "constructor"
    },
    {
      "anonymous": false,
      "inputs": [
        {
          "indexed": true,
          "internalType": "address",
          "name": "owner",
          "type": "address"
        },
        {
          "indexed": true,
          "internalType": "address",
          "name": "approved",
          "type": "address"
        },
        {
          "indexed": true,
          "internalType": "uint256",
          "name": "tokenId",
          "type": "uint256"
        }
      ],
      "name": "Approval",
      "type": "event"
    },
    {
      "anonymous": false,
      "inputs": [
        {
          "indexed": true,
          "internalType": "address",
          "name": "owner",
          "type": "address"
        },
        {
          "indexed": true,
          "internalType": "address",
          "name": "operator",
          "type": "address"
        },
        {
          "indexed": false,
          "internalType": "bool",
          "name": "approved",
          "type": "bool"
        }
      ],
      "name": "ApprovalForAll",
      "type": "event"
    },
    {
      "anonymous": false,
      "inputs": [
        {
          "indexed": true,
          "internalType": "uint256",
          "name": "tokenId",
          "type": "uint256"
        },
        {
          "indexed": false,
          "internalType": "address",
          "name": "recipient",
          "type": "address"
        },
        {
          "indexed": false,
          "internalType": "uint256",
          "name": "amount0",
          "type": "uint256"
        },
        {
          "indexed": false,
          "internalType": "uint256",
          "name": "amount1",
          "type": "uint256"
        }
      ],
      "name": "Collect",
      "type": "event"
    },
    {
      "anonymous": false,
      "inputs": [
        {
          "indexed": true,
          "internalType": "uint256",
          "name": "tokenId",
          "type": "uint256"
        },
        {
          "indexed": false,
          "internalType": "uint128",
          "name": "liquidity",
          "type": "uint128"
        },
        {
          "indexed": false,
          "internalType": "uint256",
          "name": "amount0",
          "type": "uint256"
        },
        {
          "indexed": false,
          "internalType": "uint256",
          "name": "amount1",
          "type": "uint256"
        }
      ],
      "name": "DecreaseLiquidity",
      "type": "event"
    },
    {
      "anonymous": false,
      "inputs": [
        {
          "indexed": true,
          "internalType": "uint256",
          "name": "tokenId",
          "type": "uint256"
        },
        {
          "indexed": false,
          "internalType": "uint128",
          "name": "liquidity",
          "type": "uint128"
        },
        {
          "indexed": false,
          "internalType": "uint256",
          "name": "amount0",
          "type": "uint256"
        },
        {
          "indexed": false,
          "internalType": "uint256",
          "name": "amount1",
          "type": "uint256"
        }
      ],
      "name": "IncreaseLiquidity",
      "type": "event"
    },
    {
      "anonymous": false,
      "inputs": [
        {
          "indexed": true,
          "internalType": "address",
          "name": "from",
          "type": "address"
        },
        {
          "indexed": true,
          "internalType": "address",
          "name": "to",
          "type": "address"
        },
        {
          "indexed": true,
          "internalType": "uint256",
          "name": "tokenId",
          "type": "uint256"
        }
      ],
      "name": "Transfer",
      "type": "event"
    },
    {
      "inputs": [],
      "name": "DOMAIN_SEPARATOR",
      "outputs": [
        {
          "internalType": "bytes32",
          "name": "",
          "type": "bytes32"
        }
      ],
      "stateMutability": "view",
      "type": "function"
    },
    {
      "inputs": [],
      "name": "PERMIT_TYPEHASH",
      "outputs": [
        {
          "internalType": "bytes32",
          "name": "",
          "type": "bytes32"
        }
      ],
      "stateMutability": "view",
      "type": "function"
    },
    {
      "inputs": [],
      "name": "WETH9",
      "outputs": [
        {
          "internalType": "address",
          "name": "",
          "type": "address"
        }
      ],
      "stateMutability": "view",
      "type": "function"
    },
    {
      "inputs": [
        {
          "internalType": "address",
          "name": "to",
          "type": "address"
        },
        {
          "internalType": "uint256",
          "name": "tokenId",
          "type": "uint256"
        }
      ],
      "name": "approve",
      "outputs": [],
      "stateMutability": "nonpayable",
      "type": "function"
    },
    {
      "inputs": [
        {
          "internalType": "address",
          "name": "owner",
          "type": "address"
        }
      ],
      "name": "balanceOf",
      "outputs": [
        {
          "internalType": "uint256",
          "name": "",
          "type": "uint256"
        }
      ],
      "stateMutability": "view",
      "type": "function"
    },
    {
      "inputs": [],
      "name": "baseURI",
      "outputs": [
        {
          "internalType": "string",
          "name": "",
          "type": "string"
        }
      ],
      "stateMutability": "pure",
      "type": "function"
    },
    {
      "inputs": [
        {
          "internalType": "uint256",
          "name": "tokenId",
          "type": "uint256"
        }
      ],
      "name": "burn",
      "outputs": [],
      "stateMutability": "payable",
      "type": "function"
    },
    {
      "inputs": [
        {
          "components": [
            {
              "internalType": "uint256",
              "name": "tokenId",
              "type": "uint256"
            },
            {
              "internalType": "address",
              "name": "recipient",
              "type": "address"
            },
            {
              "internalType": "uint128",
              "name": "amount0Max",
              "type": "uint128"
            },
            {
              "internalType": "uint128",
              "name": "amount1Max",
              "type": "uint128"
            }
          ],
          "internalType": "struct INonfungiblePositionManager.CollectParams",
          "name": "params",
          "type": "tuple"
        }
      ],
      "name": "collect",
      "outputs": [
        {
          "internalType": "uint256",
          "name": "amount0",
          "type": "uint256"
        },
        {
          "internalType": "uint256",
          "name": "amount1",
          "type": "uint256"
        }
      ],
      "stateMutability": "payable",
      "type": "function"
    },
    {
      "inputs": [
        {
          "internalType": "address",
          "name": "token0",
          "type": "address"
        },
        {
          "internalType": "address",
          "name": "token1",
          "type": "address"
        },
        {
          "internalType": "uint24",
          "name": "fee",
          "type": "uint24"
        },
        {
          "internalType": "uint160",
          "name": "sqrtPriceX96",
          "type": "uint160"
        }
      ],
      "name": "createAndInitializePoolIfNecessary",
      "outputs": [
        {
          "internalType": "address",
          "name": "pool",
          "type": "address"
        }
      ],
      "stateMutability": "payable",
      "type": "function"
    },
    {
      "inputs": [
        {
          "components": [
            {
              "internalType": "uint256",
              "name": "tokenId",
              "type": "uint256"
            },
            {
              "internalType": "uint128",
              "name": "liquidity",
              "type": "uint128"
            },
            {
              "internalType": "uint256",
              "name": "amount0Min",
              "type": "uint256"
            },
            {
              "internalType": "uint256",
              "name": "amount1Min",
              "type": "uint256"
            },
            {
              "internalType": "uint256",
              "name": "deadline",
              "type": "uint256"
            }
          ],
          "internalType": "struct INonfungiblePositionManager.DecreaseLiquidityParams",
          "name": "params",
          "type": "tuple"
        }
      ],
      "name": "decreaseLiquidity",
      "outputs": [
        {
          "internalType": "uint256",
          "name": "amount0",
          "type": "uint256"
        },
        {
          "internalType": "uint256",
          "name": "amount1",
          "type": "uint256"
        }
      ],
      "stateMutability": "payable",
      "type": "function"
    },
    {
      "inputs": [],
      "name": "factory",
      "outputs": [
        {
          "internalType": "address",
          "name": "",
          "type": "address"
        }
      ],
      "stateMutability": "view",
      "type": "function"
    },
    {
      "inputs": [
        {
          "internalType": "uint256",
          "name": "tokenId",
          "type": "uint256"
        }
      ],
      "name": "getApproved",
      "outputs": [
        {
          "internalType": "address",
          "name": "",
          "type": "address"
        }
      ],
      "stateMutability": "view",
      "type": "function"
    },
    {
      "inputs": [
        {
          "components": [
            {
              "internalType": "uint256",
              "name": "tokenId",
              "type": "uint256"
            },
            {
              "internalType": "uint256",
              "name": "amount0Desired",
              "type": "uint256"
            },
            {
              "internalType": "uint256",
              "name": "amount1Desired",
              "type": "uint256"
            },
            {
              "internalType": "uint256",
              "name": "amount0Min",
              "type": "uint256"
            },
            {
              "internalType": "uint256",
              "name": "amount1Min",
              "type": "uint256"
            },
            {
              "internalType": "uint256",
              "name": "deadline",
              "type": "uint256"
            }
          ],
          "internalType": "struct INonfungiblePositionManager.IncreaseLiquidityParams",
          "name": "params",
          "type": "tuple"
        }
      ],
      "name": "increaseLiquidity",
      "outputs": [
        {
          "internalType": "uint128",
          "name": "liquidity",
          "type": "uint128"
        },
        {
          "internalType": "uint256",
          "name": "amount0",
          "type": "uint256"
        },
        {
          "internalType": "uint256",
          "name": "amount1",
          "type": "uint256"
        }
      ],
      "stateMutability": "payable",
      "type": "function"
    },
    {
      "inputs": [
        {
          "internalType": "address",
          "name": "owner",
          "type": "address"
        },
        {
          "internalType": "address",
          "name": "operator",
          "type": "address"
        }
      ],
      "name": "isApprovedForAll",
      "outputs": [
        {
          "internalType": "bool",
          "name": "",
          "type": "bool"
        }
      ],
      "stateMutability": "view",
      "type": "function"
    },
    {
      "inputs": [
        {
          "components": [
            {
              "internalType": "address",
              "name": "token0",
              "type": "address"
            },
            {
              "internalType": "address",
              "name": "token1",
              "type": "address"
            },
            {
              "internalType": "uint24",
              "name": "fee",
              "type": "uint24"
            },
            {
              "internalType": "int24",
              "name": "tickLower",
              "type": "int24"
            },
            {
              "internalType": "int24",
              "name": "tickUpper",
              "type": "int24"
            },
            {
              "internalType": "uint256",
              "name": "amount0Desired",
              "type": "uint256"
            },
            {
              "internalType": "uint256",
              "name": "amount1Desired",
              "type": "uint256"
            },
            {
              "internalType": "uint256",
              "name": "amount0Min",
              "type": "uint256"
            },
            {
              "internalType": "uint256",
              "name": "amount1Min",
              "type": "uint256"
            },
            {
              "internalType": "address",
              "name": "recipient",
              "type": "address"
            },
            {
              "internalType": "uint256",
              "name": "deadline",
              "type": "uint256"
            }
          ],
          "internalType": "struct INonfungiblePositionManager.MintParams",
          "name": "params",
          "type": "tuple"
        }
      ],
      "name": "mint",
      "outputs": [
        {
          "internalType": "uint256",
          "name": "tokenId",
          "type": "uint256"
        },
        {
          "internalType": "uint128",
          "name": "liquidity",
          "type": "uint128"
        },
        {
          "internalType": "uint256",
          "name": "amount0",
          "type": "uint256"
        },
        {
          "internalType": "uint256",
          "name": "amount1",
          "type": "uint256"
        }
      ],
      "stateMutability": "payable",
      "type": "function"
    },
    {
      "inputs": [
        {
          "internalType": "bytes[]",
          "name": "data",
          "type": "bytes[]"
        }
      ],
      "name": "multicall",
      "outputs": [
        {
          "internalType": "bytes[]",
          "name": "results",
          "type": "bytes[]"
        }
      ],
      "stateMutability": "payable",
      "type": "function"
    },
    {
      "inputs": [],
      "name": "name",
      "outputs": [
        {
          "internalType": "string",
          "name": "",
          "type": "string"
        }
      ],
      "stateMutability": "view",
      "type": "function"
    },
    {
      "inputs": [
        {
          "internalType": "uint256",
          "name": "tokenId",
          "type": "uint256"
        }
      ],
      "name": "ownerOf",
      "outputs": [
        {
          "internalType": "address",
          "name": "",
          "type": "address"
        }
      ],
      "stateMutability": "view",
      "type": "function"
    },
    {
      "inputs": [
        {
          "internalType": "address",
          "name": "spender",
          "type": "address"
        },
        {
          "internalType": "uint256",
          "name": "tokenId",
          "type": "uint256"
        },
        {
          "internalType": "uint256",
          "name": "deadline",
          "type": "uint256"
        },
        {
          "internalType": "uint8",
          "name": "v",
          "type": "uint8"
        },
        {
          "internalType": "bytes32",
          "name": "r",
          "type": "bytes32"
        },
        {
          "internalType": "bytes32",
          "name": "s",
          "type": "bytes32"
        }
      ],
      "name": "permit",
      "outputs": [],
      "stateMutability": "payable",
      "type": "function"
    },
    {
      "inputs": [
        {
          "internalType": "uint256",
          "name": "tokenId",
          "type": "uint256"
        }
      ],
      "name": "positions",
      "outputs": [
        {
          "internalType": "uint96",
          "name": "nonce",
          "type": "uint96"
        },
        {
          "internalType": "address",
          "name": "operator",
          "type": "address"
        },
        {
          "internalType": "address",
          "name": "token0",
          "type": "address"
        },
        {
          "internalType": "address",
          "name": "token1",
          "type": "address"
        },
        {
          "internalType": "uint24",
          "name": "fee",
          "type": "uint24"
        },
        {
          "internalType": "int24",
          "name": "tickLower",
          "type": "int24"
        },
        {
          "internalType": "int24",
          "name": "tickUpper",
          "type": "int24"
        },
        {
          "internalType": "uint128",
          "name": "liquidity",
          "type": "uint128"
        },
        {
          "internalType": "uint256",
          "name": "feeGrowthInside0LastX128",
          "type": "uint256"
        },
        {
          "internalType": "uint256",
          "name": "feeGrowthInside1LastX128",
          "type": "uint256"
        },
        {
          "internalType": "uint128",
          "name": "tokensOwed0",
          "type": "uint128"
        },
        {
          "internalType": "uint128",
          "name": "tokensOwed1",
          "type": "uint128"
        }
      ],
      "stateMutability": "view",
      "type": "function"
    },
    {
      "inputs": [],
      "name": "refundETH",
      "outputs": [],
      "stateMutability": "payable",
      "type": "function"
    },
    {
      "inputs": [
        {
          "internalType": "address",
          "name": "from",
          "type": "address"
        },
        {
          "internalType": "address",
          "name": "to",
          "type": "address"
        },
        {
          "internalType": "uint256",
          "name": "tokenId",
          "type": "uint256"
        }
      ],
      "name": "safeTransferFrom",
      "outputs": [],
      "stateMutability": "nonpayable",
      "type": "function"
    },
    {
      "inputs": [
        {
          "internalType": "address",
          "name": "from",
          "type": "address"
        },
        {
          "internalType": "address",
          "name": "to",
          "type": "address"
        },
        {
          "internalType": "uint256",
          "name": "tokenId",
          "type": "uint256"
        },
        {
          "internalType": "bytes",
          "name": "_data",
          "type": "bytes"
        }
      ],
      "name": "safeTransferFrom",
      "outputs": [],
      "stateMutability": "nonpayable",
      "type": "function"
    },
    {
      "inputs": [
        {
          "internalType": "address",
          "name": "token",
          "type": "address"
        },
        {
          "internalType": "uint256",
          "name": "value",
          "type": "uint256"
        },
        {
          "internalType": "uint256",
          "name": "deadline",
          "type": "uint256"
        },
        {
          "internalType": "uint8",
          "name": "v",
          "type": "uint8"
        },
        {
          "internalType": "bytes32",
          "name": "r",
          "type": "bytes32"
        },
        {
          "internalType": "bytes32",
          "name": "s",
          "type": "bytes32"
        }
      ],
      "name": "selfPermit",
      "outputs": [],
      "stateMutability": "payable",
      "type": "function"
    },
    {
      "inputs": [
        {
          "internalType": "address",
          "name": "token",
          "type": "address"
        },
        {
          "internalType": "uint256",
          "name": "nonce",
          "type": "uint256"
        },
        {
          "internalType": "uint256",
          "name": "expiry",
          "type": "uint256"
        },
        {
          "internalType": "uint8",
          "name": "v",
          "type": "uint8"
        },
        {
          "internalType": "bytes32",
          "name": "r",
          "type": "bytes32"
        },
        {
          "internalType": "bytes32",
          "name": "s",
          "type": "bytes32"
        }
      ],
      "name": "selfPermitAllowed",
      "outputs": [],
      "stateMutability": "payable",
      "type": "function"
    },
    {
      "inputs": [
        {
          "internalType": "address",
          "name": "token",
          "type": "address"
        },
        {
          "internalType": "uint256",
          "name": "nonce",
          "type": "uint256"
        },
        {
          "internalType": "uint256",
          "name": "expiry",
          "type": "uint256"
        },
        {
          "internalType": "uint8",
          "name": "v",
          "type": "uint8"
        },
        {
          "internalType": "bytes32",
          "name": "r",
          "type": "bytes32"
        },
        {
          "internalType": "bytes32",
          "name": "s",
          "type": "bytes32"
        }
      ],
      "name": "selfPermitAllowedIfNecessary",
      "outputs": [],
      "stateMutability": "payable",
      "type": "function"
    },
    {
      "inputs": [
        {
          "internalType": "address",
          "name": "token",
          "type": "address"
        },
        {
          "internalType": "uint256",
          "name": "value",
          "type": "uint256"
        },
        {
          "internalType": "uint256",
          "name": "deadline",
          "type": "uint256"
        },
        {
          "internalType": "uint8",
          "name": "v",
          "type": "uint8"
        },
        {
          "internalType": "bytes32",
          "name": "r",
          "type": "bytes32"
        },
        {
          "internalType": "bytes32",
          "name": "s",
          "type": "bytes32"
        }
      ],
      "name": "selfPermitIfNecessary",
      "outputs": [],
      "stateMutability": "payable",
      "type": "function"
    },
    {
      "inputs": [
        {
          "internalType": "address",
          "name": "operator",
          "type": "address"
        },
        {
          "internalType": "bool",
          "name": "approved",
          "type": "bool"
        }
      ],
      "name": "setApprovalForAll",
      "outputs": [],
      "stateMutability": "nonpayable",
      "type": "function"
    },
    {
      "inputs": [
        {
          "internalType": "bytes4",
          "name": "interfaceId",
          "type": "bytes4"
        }
      ],
      "name": "supportsInterface",
      "outputs": [
        {
          "internalType": "bool",
          "name": "",
          "type": "bool"
        }
      ],
      "stateMutability": "view",
      "type": "function"
    },
    {
      "inputs": [
        {
          "internalType": "address",
          "name": "token",
          "type": "address"
        },
        {
          "internalType": "uint256",
          "name": "amountMinimum",
          "type": "uint256"
        },
        {
          "internalType": "address",
          "name": "recipient",
          "type": "address"
        }
      ],
      "name": "sweepToken",
      "outputs": [],
      "stateMutability": "payable",
      "type": "function"
    },
    {
      "inputs": [],
      "name": "symbol",
      "outputs": [
        {
          "internalType": "string",
          "name": "",
          "type": "string"
        }
      ],
      "stateMutability": "view",
      "type": "function"
    },
    {
      "inputs": [
        {
          "internalType": "uint256",
          "name": "index",
          "type": "uint256"
        }
      ],
      "name": "tokenByIndex",
      "outputs": [
        {
          "internalType": "uint256",
          "name": "",
          "type": "uint256"
        }
      ],
      "stateMutability": "view",
      "type": "function"
    },
    {
      "inputs": [
        {
          "internalType": "address",
          "name": "owner",
          "type": "address"
        },
        {
          "internalType": "uint256",
          "name": "index",
          "type": "uint256"
        }
      ],
      "name": "tokenOfOwnerByIndex",
      "outputs": [
        {
          "internalType": "uint256",
          "name": "",
          "type": "uint256"
        }
      ],
      "stateMutability": "view",
      "type": "function"
    },
    {
      "inputs": [
        {
          "internalType": "uint256",
          "name": "tokenId",
          "type": "uint256"
        }
      ],
      "name": "tokenURI",
      "outputs": [
        {
          "internalType": "string",
          "name": "",
          "type": "string"
        }
      ],
      "stateMutability": "view",
      "type": "function"
    },
    {
      "inputs": [],
      "name": "totalSupply",
      "outputs": [
        {
          "internalType": "uint256",
          "name": "",
          "type": "uint256"
        }
      ],
      "stateMutability": "view",
      "type": "function"
    },
    {
      "inputs": [
        {
          "internalType": "address",
          "name": "from",
          "type": "address"
        },
        {
          "internalType": "address",
          "name": "to",
          "type": "address"
        },
        {
          "internalType": "uint256",
          "name": "tokenId",
          "type": "uint256"
        }
      ],
      "name": "transferFrom",
      "outputs": [],
      "stateMutability": "nonpayable",
      "type": "function"
    },
    {
      "inputs": [
        {
          "internalType": "uint256",
          "name": "amount0Owed",
          "type": "uint256"
        },
        {
          "internalType": "uint256",
          "name": "amount1Owed",
          "type": "uint256"
        },
        {
          "internalType": "bytes",
          "name": "data",
          "type": "bytes"
        }
      ],
      "name": "uniswapV3MintCallback",
      "outputs": [],
      "stateMutability": "nonpayable",
      "type": "function"
    },
    {
      "inputs": [
        {
          "internalType": "uint256",
          "name": "amountMinimum",
          "type": "uint256"
        },
        {
          "internalType": "address",
          "name": "recipient",
          "type": "address"
        }
      ],
      "name": "unwrapWETH9",
      "outputs": [],
      "stateMutability": "payable",
      "type": "function"
    },
    {
      "stateMutability": "payable",
      "type": "receive"
    }
  ],
  "transactionHash": "0xf53bf87d006afecc76035298c4cc0c8a17e0e2aeb15acdc61865a5f0359023e5",
  "args": [
    "0x5140A77E94Db57EEc83A607A40C295A43474d345",
    "0x4F83e26251482825b0352A3C2F6037ED403B2ee5",
    "0x6f5de157a4538DD13fc78C3a6eCe6e96e21405d5"
  ],
  "numDeployments": 1,
  "solcInputHash": "6fb4644416cf2a60b0a5b6c70d11df23",
  "bytecode": "0x610120604052600d80546001600160b01b0319166001176001600160b01b0316600160b01b1790553480156200003457600080fd5b5060405162006026380380620060268339810160408190526200005791620002db565b82826040518060400160405280601b81526020017f556e697377617020563320506f736974696f6e73204e46542d563100000000008152506040518060400160405280600a815260200169554e492d56332d504f5360b01b815250604051806040016040528060018152602001603160f81b8152508282620000e66301ffc9a760e01b6200018d60201b60201c565b8151620000fb90600690602085019062000212565b5080516200011190600790602084019062000212565b50620001246380ac58cd60e01b6200018d565b62000136635b5e139f60e01b6200018d565b6200014863780e9d6360e01b6200018d565b50508251602093840120608052805192019190912060a052506001600160601b0319606092831b811660c05290821b811660e05291901b166101005250620003249050565b6001600160e01b03198082161415620001ed576040805162461bcd60e51b815260206004820152601c60248201527f4552433136353a20696e76616c696420696e7465726661636520696400000000604482015290519081900360640190fd5b6001600160e01b0319166000908152602081905260409020805460ff19166001179055565b828054600181600116156101000203166002900490600052602060002090601f0160209004810192826200024a576000855562000295565b82601f106200026557805160ff191683800117855562000295565b8280016001018555821562000295579182015b828111156200029557825182559160200191906001019062000278565b50620002a3929150620002a7565b5090565b5b80821115620002a35760008155600101620002a8565b80516001600160a01b0381168114620002d657600080fd5b919050565b600080600060608486031215620002f0578283fd5b620002fb84620002be565b92506200030b60208501620002be565b91506200031b60408501620002be565b90509250925092565b60805160a05160c05160601c60e05160601c6101005160601c615c69620003bd600039806129e8525080610219528061175d528061184852806118d05280613d0d5280613d535280613dc75250806109225280610a9f5280610dbf5280610e8652806111155280611d97528061299b5280612a885280612cab5280612e3c528061363f52508061155d52508061153c5250615c696000f3fe6080604052600436106102095760003560e01c80636352211e11610113578063ac9650d8116100ab578063d34879971161006f578063d34879971461062e578063df2ab5bb1461064e578063e985e9c514610661578063f3995c6714610681578063fc6f78651461069457610279565b8063ac9650d8146105a6578063b88d4fde146105c6578063c2e3140a146105e6578063c45a0155146105f9578063c87b56dd1461060e57610279565b80636352211e1461049b5780636c0360eb146104bb57806370a08231146104d05780637ac2ff7b146104f0578063883164561461050357806395d89b411461052657806399fbab881461053b578063a22cb46514610573578063a4a78f0c1461059357610279565b806323b872dd116101a157806342966c681161016557806342966c681461042d5780634659a4941461044057806349404b7c146104535780634aa4a4fc146104665780634f6ccce71461047b57610279565b806323b872dd146103a35780632f745c59146103c357806330adf81f146103e35780633644e515146103f857806342842e0e1461040d57610279565b806301ffc9a71461027e57806306fdde03146102b4578063081812fc146102d6578063095ea7b3146103035780630c49ccbe1461032357806312210e8a1461034457806313ead5621461034c57806318160ddd1461035f578063219f5d171461038157610279565b3661027957336001600160a01b037f00000000000000000000000000000000000000000000000000000000000000001614610277576040805162461bcd60e51b81526020600482015260096024820152684e6f7420574554483960b81b604482015290519081900360640190fd5b005b600080fd5b34801561028a57600080fd5b5061029e610299366004615133565b6106a7565b6040516102ab9190615674565b60405180910390f35b3480156102c057600080fd5b506102c96106ca565b6040516102ab91906156c7565b3480156102e257600080fd5b506102f66102f136600461542b565b610760565b6040516102ab9190615554565b34801561030f57600080fd5b5061027761031e366004614fe2565b6107b3565b6103366103313660046151f7565b610889565b6040516102ab929190615871565b610277610d8b565b6102f661035a366004614e76565b610d9d565b34801561036b57600080fd5b50610374611091565b6040516102ab919061567f565b61039461038f366004615208565b6110a2565b6040516102ab9392919061582c565b3480156103af57600080fd5b506102776103be366004614ecf565b611471565b3480156103cf57600080fd5b506103746103de366004614fe2565b6114c8565b3480156103ef57600080fd5b506103746114f3565b34801561040457600080fd5b50610374611517565b34801561041957600080fd5b50610277610428366004614ecf565b6115d5565b61027761043b36600461542b565b6115f0565b61027761044e36600461504e565b6116bf565b610277610461366004615443565b611759565b34801561047257600080fd5b506102f66118ce565b34801561048757600080fd5b5061037461049636600461542b565b6118f2565b3480156104a757600080fd5b506102f66104b636600461542b565b611908565b3480156104c757600080fd5b506102c9611930565b3480156104dc57600080fd5b506103746104eb366004614e22565b611935565b6102776104fe36600461504e565b61199d565b6105166105113660046152c3565b611d8f565b6040516102ab949392919061584d565b34801561053257600080fd5b506102c9612361565b34801561054757600080fd5b5061055b61055636600461542b565b6123c2565b6040516102ab9c9b9a9998979695949392919061587f565b34801561057f57600080fd5b5061027761058e366004614fb5565b6125d3565b6102776105a136600461504e565b6126d4565b6105b96105b43660046150a9565b61276d565b6040516102ab9190615614565b3480156105d257600080fd5b506102776105e1366004614f0f565b6128ac565b6102776105f436600461504e565b61290a565b34801561060557600080fd5b506102f6612999565b34801561061a57600080fd5b506102c961062936600461542b565b6129bd565b34801561063a57600080fd5b5061027761064936600461548a565b612a73565b61027761065c36600461500d565b612af1565b34801561066d57600080fd5b5061029e61067c366004614e3e565b612bc9565b61027761068f36600461504e565b612bf7565b6103366106a23660046151e0565b612c69565b6001600160e01b0319811660009081526020819052604090205460ff165b919050565b60068054604080516020601f60026000196101006001881615020190951694909404938401819004810282018101909252828152606093909290918301828280156107565780601f1061072b57610100808354040283529160200191610756565b820191906000526020600020905b81548152906001019060200180831161073957829003601f168201915b5050505050905090565b600061076b826131ee565b6107905760405162461bcd60e51b815260040161078790615723565b60405180910390fd5b506000908152600c6020526040902054600160601b90046001600160a01b031690565b60006107be82611908565b9050806001600160a01b0316836001600160a01b031614156108115760405162461bcd60e51b8152600401808060200182810382526021815260200180615c0b6021913960400191505060405180910390fd5b806001600160a01b03166108236131fb565b6001600160a01b0316148061083f575061083f8161067c6131fb565b61087a5760405162461bcd60e51b8152600401808060200182810382526038815260200180615b156038913960400191505060405180910390fd5b61088483836131ff565b505050565b60008082356108983382613275565b6108b45760405162461bcd60e51b8152600401610787906156fd565b8360800135806108c2613311565b111561090b576040805162461bcd60e51b8152602060048201526013602482015272151c985b9cd858dd1a5bdb881d1bdbc81bdb19606a1b604482015290519081900360640190fd5b604051630935e01b60e21b81526001600160a01b037f000000000000000000000000000000000000000000000000000000000000000016906324d7806c90610957903390600401615554565b602060405180830381600087803b15801561097157600080fd5b505af1158015610985573d6000803e3d6000fd5b505050506040513d601f19601f820116820180604052508101906109a99190615117565b6109c55760405162461bcd60e51b8152600401610787906156da565b60006109d760408701602088016152d5565b6001600160801b0316116109ea57600080fd5b84356000908152600c602090815260409182902060018101549092600160801b9091046001600160801b031691610a259189019089016152d5565b6001600160801b0316816001600160801b03161015610a4357600080fd5b6001828101546001600160501b03166000908152600b60209081526040808320815160608101835281546001600160a01b039081168252919095015490811692850192909252600160a01b90910462ffffff1690830152610ac47f000000000000000000000000000000000000000000000000000000000000000083613315565b60018501549091506001600160a01b0382169063a34123a790600160501b8104600290810b91600160681b9004900b610b0360408e0160208f016152d5565b6040518463ffffffff1660e01b8152600401610b21939291906156a1565b6040805180830381600087803b158015610b3a57600080fd5b505af1158015610b4e573d6000803e3d6000fd5b505050506040513d601f19601f82011682018060405250810190610b729190615467565b909850965060408901358810801590610b8f575088606001358710155b610bab5760405162461bcd60e51b81526004016107879061576f565b6001840154600090610bd4903090600160501b8104600290810b91600160681b9004900b6133f4565b9050600080836001600160a01b031663514ea4bf846040518263ffffffff1660e01b8152600401610c05919061567f565b60a06040518083038186803b158015610c1d57600080fd5b505afa158015610c31573d6000803e3d6000fd5b505050506040513d601f19601f82011682018060405250810190610c55919061531f565b50509250925050610c7a87600201548303876001600160801b0316600160801b613449565b6004880180546001600160801b03198116928e016001600160801b039182160181169290921790556003880154610cbb91908303908816600160801b613449565b6004880180546001600160801b03808216938e01600160801b9283900482160116029190911790556002870182905560038701819055610d0160408d0160208e016152d5565b86038760010160106101000a8154816001600160801b0302191690836001600160801b031602179055508b600001357f26f6a048ee9138f2c0ce266f322cb99228e8d619ae2bff30c67f8dcf9d2377b48d6020016020810190610d6491906152d5565b8d8d604051610d759392919061582c565b60405180910390a2505050505050505050915091565b4715610d9b57610d9b33476134f8565b565b6000836001600160a01b0316856001600160a01b031610610dbd57600080fd5b7f00000000000000000000000000000000000000000000000000000000000000006001600160a01b0316631698ee828686866040518463ffffffff1660e01b815260040180846001600160a01b03168152602001836001600160a01b031681526020018262ffffff168152602001935050505060206040518083038186803b158015610e4857600080fd5b505afa158015610e5c573d6000803e3d6000fd5b505050506040513d6020811015610e7257600080fd5b505190506001600160a01b038116610fa8577f00000000000000000000000000000000000000000000000000000000000000006001600160a01b031663a16712958686866040518463ffffffff1660e01b815260040180846001600160a01b03168152602001836001600160a01b031681526020018262ffffff1681526020019350505050602060405180830381600087803b158015610f1157600080fd5b505af1158015610f25573d6000803e3d6000fd5b505050506040513d6020811015610f3b57600080fd5b50516040805163f637731d60e01b81526001600160a01b03858116600483015291519293509083169163f637731d9160248082019260009290919082900301818387803b158015610f8b57600080fd5b505af1158015610f9f573d6000803e3d6000fd5b50505050611089565b6000816001600160a01b0316633850c7bd6040518163ffffffff1660e01b815260040160e06040518083038186803b158015610fe357600080fd5b505afa158015610ff7573d6000803e3d6000fd5b505050506040513d60e081101561100d57600080fd5b505190506001600160a01b03811661108757816001600160a01b031663f637731d846040518263ffffffff1660e01b815260040180826001600160a01b03168152602001915050600060405180830381600087803b15801561106e57600080fd5b505af1158015611082573d6000803e3d6000fd5b505050505b505b949350505050565b600061109d60026135e7565b905090565b60008060008360a00135806110b5613311565b11156110fe576040805162461bcd60e51b8152602060048201526013602482015272151c985b9cd858dd1a5bdb881d1bdbc81bdb19606a1b604482015290519081900360640190fd5b604051630935e01b60e21b81526001600160a01b037f000000000000000000000000000000000000000000000000000000000000000016906324d7806c9061114a903390600401615554565b602060405180830381600087803b15801561116457600080fd5b505af1158015611178573d6000803e3d6000fd5b505050506040513d601f19601f8201168201806040525081019061119c9190615117565b6111b85760405162461bcd60e51b8152600401610787906156da565b84356000908152600c602090815260408083206001808201546001600160501b0381168652600b855283862084516060808201875282546001600160a01b039081168352929094015480831682890190815262ffffff600160a01b9092048216838901908152885161014081018a528451861681529151909416818a0152925116828701523082850152600160501b8304600290810b810b608080850191909152600160681b909404810b900b60a0830152958c013560c0820152938b013560e0850152908a0135610100840152890135610120830152929061129a906135f2565b6001870154939a50919850965091506000906112cd903090600160501b8104600290810b91600160681b9004900b6133f4565b9050600080836001600160a01b031663514ea4bf846040518263ffffffff1660e01b81526004016112fe919061567f565b60a06040518083038186803b15801561131657600080fd5b505afa15801561132a573d6000803e3d6000fd5b505050506040513d601f19601f8201168201806040525081019061134e919061531f565b5050925092505061138a866002015483038760010160109054906101000a90046001600160801b03166001600160801b0316600160801b613449565b6004870180546001600160801b0380821690930183166001600160801b0319909116179055600387015460018801546113d19291840391600160801b918290041690613449565b6004870180546001600160801b03600160801b80830482169094018116840291811691909117909155600288018490556003880183905560018801805483810483168e018316909302929091169190911790556040518b35907f3067048beee31b25b2f1681f88dac838c8bba36af25bfb2b7cf7473a5847e35f9061145b908d908d908d9061582c565b60405180910390a2505050505050509193909250565b61148261147c6131fb565b82613275565b6114bd5760405162461bcd60e51b8152600401808060200182810382526031815260200180615c2c6031913960400191505060405180910390fd5b61088483838361382d565b6001600160a01b03821660009081526001602052604081206114ea9083613967565b90505b92915050565b7f49ecf333e5b8c95c40fdafc95c1ad136e8914a8fb55e9dc8bb01eaa83a2df9ad81565b60007f8b73c3c69bb8fe3d512ecc4cf759cc79239f7b179b0ffacaa9a75d522b39400f7f00000000000000000000000000000000000000000000000000000000000000007f0000000000000000000000000000000000000000000000000000000000000000611584613973565b3060405160200180868152602001858152602001848152602001838152602001826001600160a01b031681526020019550505050505060405160208183030381529060405280519060200120905090565b610884838383604051806020016040528060008152506128ac565b806115fb3382613275565b6116175760405162461bcd60e51b8152600401610787906156fd565b6000828152600c602052604090206001810154600160801b90046001600160801b0316158015611652575060048101546001600160801b0316155b801561167057506004810154600160801b90046001600160801b0316155b61168c5760405162461bcd60e51b8152600401610787906157c7565b6000838152600c602052604081208181556001810182905560028101829055600381018290556004015561088483613977565b604080516323f2ebc360e21b815233600482015230602482015260448101879052606481018690526001608482015260ff851660a482015260c4810184905260e4810183905290516001600160a01b03881691638fcbaf0c9161010480830192600092919082900301818387803b15801561173957600080fd5b505af115801561174d573d6000803e3d6000fd5b50505050505050505050565b60007f00000000000000000000000000000000000000000000000000000000000000006001600160a01b03166370a08231306040518263ffffffff1660e01b815260040180826001600160a01b0316815260200191505060206040518083038186803b1580156117c857600080fd5b505afa1580156117dc573d6000803e3d6000fd5b505050506040513d60208110156117f257600080fd5b5051905082811015611840576040805162461bcd60e51b8152602060048201526012602482015271496e73756666696369656e7420574554483960701b604482015290519081900360640190fd5b8015610884577f00000000000000000000000000000000000000000000000000000000000000006001600160a01b0316632e1a7d4d826040518263ffffffff1660e01b815260040180828152602001915050600060405180830381600087803b1580156118ac57600080fd5b505af11580156118c0573d6000803e3d6000fd5b5050505061088482826134f8565b7f000000000000000000000000000000000000000000000000000000000000000081565b600080611900600284613a32565b509392505050565b60006114ed82604051806060016040528060298152602001615b776029913960029190613a50565b606090565b60006001600160a01b03821661197c5760405162461bcd60e51b815260040180806020018281038252602a815260200180615b4d602a913960400191505060405180910390fd5b6001600160a01b03821660009081526001602052604090206114ed906135e7565b836119a6613311565b11156119ea576040805162461bcd60e51b815260206004820152600e60248201526d14195c9b5a5d08195e1c1a5c995960921b604482015290519081900360640190fd5b60006119f4611517565b7f49ecf333e5b8c95c40fdafc95c1ad136e8914a8fb55e9dc8bb01eaa83a2df9ad8888611a2081613a5d565b604080516020808201969096526001600160a01b03909416848201526060840192909252608083015260a08083018a90528151808403909101815260c08301825280519084012061190160f01b60e084015260e283019490945261010280830194909452805180830390940184526101229091019052815191012090506000611aa887611908565b9050806001600160a01b0316886001600160a01b03161415611afb5760405162461bcd60e51b8152600401808060200182810382526027815260200180615a786027913960400191505060405180910390fd5b611b0481613a92565b15611c6c576040805160208082018790528183018690526001600160f81b031960f889901b1660608301528251604181840301815260618301808552630b135d3f60e11b90526065830186815260858401948552815160a585015281516001600160a01b03871695631626ba7e958995919260c59091019185019080838360005b83811015611b9d578181015183820152602001611b85565b50505050905090810190601f168015611bca5780820380516001836020036101000a031916815260200191505b50935050505060206040518083038186803b158015611be857600080fd5b505afa158015611bfc573d6000803e3d6000fd5b505050506040513d6020811015611c1257600080fd5b50516001600160e01b031916630b135d3f60e11b14611c67576040805162461bcd60e51b815260206004820152600c60248201526b155b985d5d1a1bdc9a5e995960a21b604482015290519081900360640190fd5b611d7b565b600060018387878760405160008152602001604052604051808581526020018460ff1681526020018381526020018281526020019450505050506020604051602081039080840390855afa158015611cc8573d6000803e3d6000fd5b5050604051601f1901519150506001600160a01b038116611d24576040805162461bcd60e51b8152602060048201526011602482015270496e76616c6964207369676e617475726560781b604482015290519081900360640190fd5b816001600160a01b0316816001600160a01b031614611d79576040805162461bcd60e51b815260206004820152600c60248201526b155b985d5d1a1bdc9a5e995960a21b604482015290519081900360640190fd5b505b611d8588886131ff565b5050505050505050565b6000806000807f00000000000000000000000000000000000000000000000000000000000000006001600160a01b03166324d7806c336040518263ffffffff1660e01b8152600401611de19190615554565b602060405180830381600087803b158015611dfb57600080fd5b505af1158015611e0f573d6000803e3d6000fd5b505050506040513d601f19601f82011682018060405250810190611e339190615117565b611e4f5760405162461bcd60e51b8152600401610787906156da565b84610140013580611e5e613311565b1115611ea7576040805162461bcd60e51b8152602060048201526013602482015272151c985b9cd858dd1a5bdb881d1bdbc81bdb19606a1b604482015290519081900360640190fd5b604080516101408101909152600090611f739080611ec860208b018b614e22565b6001600160a01b03168152602001896020016020810190611ee99190614e22565b6001600160a01b03168152602001611f0760608b0160408c01615411565b62ffffff168152306020820152604001611f2760808b0160608c0161515b565b60020b8152602001611f3f60a08b0160808c0161515b565b60020b81526020018960a0013581526020018960c0013581526020018960e0013581526020018961010001358152506135f2565b92975090955093509050611fc0611f9261014089016101208a01614e22565b600d80546001600160b01b0319811660016001600160b01b0392831690810190921617909155975087613a98565b6000611feb30611fd660808b0160608c0161515b565b611fe660a08c0160808d0161515b565b6133f4565b9050600080836001600160a01b031663514ea4bf846040518263ffffffff1660e01b815260040161201c919061567f565b60a06040518083038186803b15801561203457600080fd5b505afa158015612048573d6000803e3d6000fd5b505050506040513d601f19601f8201168201806040525081019061206c919061531f565b5050925092505060006120e58560405180606001604052808e60000160208101906120979190614e22565b6001600160a01b031681526020018e60200160208101906120b89190614e22565b6001600160a01b031681526020018e60400160208101906120d99190615411565b62ffffff169052613bb4565b905060405180610140016040528060006001600160601b0316815260200160006001600160a01b03168152602001826001600160501b031681526020018c6060016020810190612135919061515b565b60020b815260200161214d60a08e0160808f0161515b565b60020b81526020018a6001600160801b0316815260200184815260200183815260200160006001600160801b0316815260200160006001600160801b0316815250600c60008c815260200190815260200160002060008201518160000160006101000a8154816001600160601b0302191690836001600160601b03160217905550602082015181600001600c6101000a8154816001600160a01b0302191690836001600160a01b0316021790555060408201518160010160006101000a8154816001600160501b0302191690836001600160501b03160217905550606082015181600101600a6101000a81548162ffffff021916908360020b62ffffff160217905550608082015181600101600d6101000a81548162ffffff021916908360020b62ffffff16021790555060a08201518160010160106101000a8154816001600160801b0302191690836001600160801b0316021790555060c0820151816002015560e082015181600301556101008201518160040160006101000a8154816001600160801b0302191690836001600160801b031602179055506101208201518160040160106101000a8154816001600160801b0302191690836001600160801b03160217905550905050897f3067048beee31b25b2f1681f88dac838c8bba36af25bfb2b7cf7473a5847e35f8a8a8a60405161234c9392919061582c565b60405180910390a25050505050509193509193565b60078054604080516020601f60026000196101006001881615020190951694909404938401819004810282018101909252828152606093909290918301828280156107565780601f1061072b57610100808354040283529160200191610756565b6000818152600c6020908152604080832081516101408101835281546001600160601b03811682526001600160a01b03600160601b909104169381019390935260018101546001600160501b038116928401839052600160501b8104600290810b810b810b6060860152600160681b8204810b810b810b60808601526001600160801b03600160801b92839004811660a08701529083015460c0860152600383015460e0860152600490920154808316610100860152041661012083015282918291829182918291829182918291829182918291906124b35760405162461bcd60e51b81526004016107879061579d565b6000600b600083604001516001600160501b03166001600160501b031681526020019081526020016000206040518060600160405290816000820160009054906101000a90046001600160a01b03166001600160a01b03166001600160a01b031681526020016001820160009054906101000a90046001600160a01b03166001600160a01b03166001600160a01b031681526020016001820160149054906101000a900462ffffff1662ffffff1662ffffff1681525050905081600001518260200151826000015183602001518460400151866060015187608001518860a001518960c001518a60e001518b61010001518c61012001519d509d509d509d509d509d509d509d509d509d509d509d50505091939597999b5091939597999b565b6125db6131fb565b6001600160a01b0316826001600160a01b0316141561263d576040805162461bcd60e51b815260206004820152601960248201527822a9219b99189d1030b8383937bb32903a379031b0b63632b960391b604482015290519081900360640190fd5b806005600061264a6131fb565b6001600160a01b03908116825260208083019390935260409182016000908120918716808252919093529120805460ff19169215159290921790915561268e6131fb565b6001600160a01b03167f17307eab39ab6107e8899845ad3d59bd9653f200f220920489ca2b5937696c318360405180821515815260200191505060405180910390a35050565b60408051636eb1769f60e11b81523360048201523060248201529051600019916001600160a01b0389169163dd62ed3e91604480820192602092909190829003018186803b15801561272557600080fd5b505afa158015612739573d6000803e3d6000fd5b505050506040513d602081101561274f57600080fd5b50511015612765576127658686868686866116bf565b505050505050565b6060816001600160401b038111801561278557600080fd5b506040519080825280602002602001820160405280156127b957816020015b60608152602001906001900390816127a45790505b50905060005b828110156128a557600080308686858181106127d757fe5b90506020028101906127e99190615919565b6040516127f7929190615544565b600060405180830381855af49150503d8060008114612832576040519150601f19603f3d011682016040523d82523d6000602084013e612837565b606091505b5091509150816128835760448151101561285057600080fd5b6004810190508080602001905181019061286a9190615177565b60405162461bcd60e51b815260040161078791906156c7565b8084848151811061289057fe5b602090810291909101015250506001016127bf565b5092915050565b6128bd6128b76131fb565b83613275565b6128f85760405162461bcd60e51b8152600401808060200182810382526031815260200180615c2c6031913960400191505060405180910390fd5b61290484848484613c96565b50505050565b60408051636eb1769f60e11b8152336004820152306024820152905186916001600160a01b0389169163dd62ed3e91604480820192602092909190829003018186803b15801561295957600080fd5b505afa15801561296d573d6000803e3d6000fd5b505050506040513d602081101561298357600080fd5b5051101561276557612765868686868686612bf7565b7f000000000000000000000000000000000000000000000000000000000000000081565b60606129c8826131ee565b6129d157600080fd5b60405163e9dc637560e01b81526001600160a01b037f0000000000000000000000000000000000000000000000000000000000000000169063e9dc637590612a1f9030908690600401615688565b60006040518083038186803b158015612a3757600080fd5b505afa158015612a4b573d6000803e3d6000fd5b505050506040513d6000823e601f3d908101601f191682016040526114ed9190810190615177565b6000612a8182840184615219565b9050612ab17f00000000000000000000000000000000000000000000000000000000000000008260000151613ce8565b508415612acc578051516020820151612acc91903388613d0b565b8315612aea57612aea81600001516020015182602001513387613d0b565b5050505050565b6000836001600160a01b03166370a08231306040518263ffffffff1660e01b815260040180826001600160a01b0316815260200191505060206040518083038186803b158015612b4057600080fd5b505afa158015612b54573d6000803e3d6000fd5b505050506040513d6020811015612b6a57600080fd5b5051905082811015612bb8576040805162461bcd60e51b815260206004820152601260248201527124b739bab33334b1b4b2b73a103a37b5b2b760711b604482015290519081900360640190fd5b801561290457612904848383613e9b565b6001600160a01b03918216600090815260056020908152604080832093909416825291909152205460ff1690565b6040805163d505accf60e01b8152336004820152306024820152604481018790526064810186905260ff8516608482015260a4810184905260c4810183905290516001600160a01b0388169163d505accf9160e480830192600092919082900301818387803b15801561173957600080fd5b6000808235612c783382613275565b612c945760405162461bcd60e51b8152600401610787906156fd565b604051630935e01b60e21b81526001600160a01b037f000000000000000000000000000000000000000000000000000000000000000016906324d7806c90612ce0903390600401615554565b602060405180830381600087803b158015612cfa57600080fd5b505af1158015612d0e573d6000803e3d6000fd5b505050506040513d601f19601f82011682018060405250810190612d329190615117565b612d4e5760405162461bcd60e51b8152600401610787906156da565b6000612d6060608601604087016152d5565b6001600160801b03161180612d8d57506000612d8260808601606087016152d5565b6001600160801b0316115b612d9657600080fd5b600080612da96040870160208801614e22565b6001600160a01b031614612dcc57612dc76040860160208701614e22565b612dce565b305b85356000908152600c602090815260408083206001808201546001600160501b03168552600b8452828520835160608101855281546001600160a01b039081168252919092015490811694820194909452600160a01b90930462ffffff169183019190915292935090612e617f000000000000000000000000000000000000000000000000000000000000000083613315565b600484015460018501549192506001600160801b0380821692600160801b928390048216929004161561305757600185015460405163a34123a760e01b81526001600160a01b0385169163a34123a791612ed891600160501b8104600290810b92600160681b909204900b906000906004016156a1565b6040805180830381600087803b158015612ef157600080fd5b505af1158015612f05573d6000803e3d6000fd5b505050506040513d601f19601f82011682018060405250810190612f299190615467565b5050600185015460009081906001600160a01b0386169063514ea4bf90612f67903090600160501b8104600290810b91600160681b9004900b6133f4565b6040518263ffffffff1660e01b8152600401612f83919061567f565b60a06040518083038186803b158015612f9b57600080fd5b505afa158015612faf573d6000803e3d6000fd5b505050506040513d601f19601f82011682018060405250810190612fd3919061531f565b5050925092505061300f876002015483038860010160109054906101000a90046001600160801b03166001600160801b0316600160801b613449565b84019350613048876003015482038860010160109054906101000a90046001600160801b03166001600160801b0316600160801b613449565b60028801929092556003870155015b6000806001600160801b03841661307460608e0160408f016152d5565b6001600160801b0316116130975761309260608d0160408e016152d5565b613099565b835b836001600160801b03168d60600160208101906130b691906152d5565b6001600160801b0316116130d9576130d460808e0160608f016152d5565b6130db565b835b60018901546040516309e3d67b60e31b81529294509092506001600160a01b03871691634f1eb3d89161312e918c91600160501b8104600290810b92600160681b909204900b90889088906004016155ad565b6040805180830381600087803b15801561314757600080fd5b505af115801561315b573d6000803e3d6000fd5b505050506040513d601f19601f8201168201806040525081019061317f91906152f1565b6004890180546001600160801b03196001600160801b03918216600160801b878a0384160217168689038216179091556040519281169d50169a508c35907f40d0efd1a53d60ecbf40971b9daf7dc90178c3aadc7aab1765632738fa8b8f0190610d75908b90869086906155ea565b60006114ed600283613fe2565b3390565b6000818152600c6020526040902080546001600160601b0316600160601b6001600160a01b03851690810291909117909155819061323c82611908565b6001600160a01b03167f8c5be1e5ebec7d5bd14f71427d1e84f3dd0314c0f7b2291e5b200ac8c7c3b92560405160405180910390a45050565b6000613280826131ee565b6132bb5760405162461bcd60e51b815260040180806020018281038252602c815260200180615ae9602c913960400191505060405180910390fd5b60006132c683611908565b9050806001600160a01b0316846001600160a01b031614806133015750836001600160a01b03166132f684610760565b6001600160a01b0316145b8061108957506110898185612bc9565b4290565b600081602001516001600160a01b031682600001516001600160a01b03161061333d57600080fd5b50805160208083015160409384015184516001600160a01b0394851681850152939091168385015262ffffff166060808401919091528351808403820181526080840185528051908301206001600160f81b031960a085015294901b6001600160601b03191660a183015260b58201939093527f6e7daafe6fa77b09f2867c8be05190d242132e1343bdaf26e2dbf59ae49334ef60d5808301919091528251808303909101815260f5909101909152805191012090565b604080516001600160601b0319606086901b16602080830191909152600285810b60e890811b60348501529085900b901b60378301528251601a818403018152603a90920190925280519101205b9392505050565b600080806000198587098686029250828110908390030390508061347f576000841161347457600080fd5b508290049050613442565b80841161348b57600080fd5b6000848688096000868103871696879004966002600389028118808a02820302808a02820302808a02820302808a02820302808a02820302808a02909103029181900381900460010186841190950394909402919094039290920491909117919091029150509392505050565b604080516000808252602082019092526001600160a01b0384169083906040518082805190602001908083835b602083106135445780518252601f199092019160209182019101613525565b6001836020036101000a03801982511681845116808217855250505050505090500191505060006040518083038185875af1925050503d80600081146135a6576040519150601f19603f3d011682016040523d82523d6000602084013e6135ab565b606091505b5050905080610884576040805162461bcd60e51b815260206004820152600360248201526253544560e81b604482015290519081900360640190fd5b60006114ed82613fee565b6000806000806000604051806060016040528087600001516001600160a01b0316815260200187602001516001600160a01b03168152602001876040015162ffffff1681525090506136647f000000000000000000000000000000000000000000000000000000000000000082613315565b91506000826001600160a01b0316633850c7bd6040518163ffffffff1660e01b815260040160e06040518083038186803b1580156136a157600080fd5b505afa1580156136b5573d6000803e3d6000fd5b505050506040513d601f19601f820116820180604052508101906136d99190615380565b505050505050905060006136f08860800151613ff2565b905060006137018960a00151613ff2565b90506137188383838c60c001518d60e0015161431a565b9750505050816001600160a01b0316633c8a7d8d876060015188608001518960a00151896040518060400160405280888152602001336001600160a01b031681525060405160200161376a91906157ec565b6040516020818303038152906040526040518663ffffffff1660e01b8152600401613799959493929190615568565b6040805180830381600087803b1580156137b257600080fd5b505af11580156137c6573d6000803e3d6000fd5b505050506040513d601f19601f820116820180604052508101906137ea9190615467565b6101008801519195509350841080159061380957508561012001518310155b6138255760405162461bcd60e51b81526004016107879061576f565b509193509193565b826001600160a01b031661384082611908565b6001600160a01b0316146138855760405162461bcd60e51b8152600401808060200182810382526029815260200180615bc26029913960400191505060405180910390fd5b6001600160a01b0382166138ca5760405162461bcd60e51b8152600401808060200182810382526024815260200180615a9f6024913960400191505060405180910390fd5b6138d5838383610884565b6138e06000826131ff565b6001600160a01b038316600090815260016020526040902061390290826143de565b506001600160a01b038216600090815260016020526040902061392590826143ea565b50613932600282846143f6565b5080826001600160a01b0316846001600160a01b0316600080516020615beb83398151915260405160405180910390a4505050565b60006114ea838361440c565b4690565b600061398282611908565b905061399081600084610884565b61399b6000836131ff565b60008281526008602052604090205460026000196101006001841615020190911604156139d95760008281526008602052604081206139d991614d92565b6001600160a01b03811660009081526001602052604090206139fb90836143de565b50613a07600283614470565b5060405182906000906001600160a01b03841690600080516020615beb833981519152908390a45050565b6000808080613a41868661447c565b909450925050505b9250929050565b60006110898484846144f7565b6000908152600c6020526040902080546001600160601b0319811660016001600160601b039283169081019092161790915590565b3b151590565b6001600160a01b038216613af3576040805162461bcd60e51b815260206004820181905260248201527f4552433732313a206d696e7420746f20746865207a65726f2061646472657373604482015290519081900360640190fd5b613afc816131ee565b15613b4e576040805162461bcd60e51b815260206004820152601c60248201527f4552433732313a20746f6b656e20616c7265616479206d696e74656400000000604482015290519081900360640190fd5b613b5a60008383610884565b6001600160a01b0382166000908152600160205260409020613b7c90826143ea565b50613b89600282846143f6565b5060405181906001600160a01b03841690600090600080516020615beb833981519152908290a45050565b6001600160a01b0382166000908152600a60205260409020546001600160501b0316806114ed5750600d805460016001600160501b03600160b01b8084048216838101909216026001600160b01b03909316929092179092556001600160a01b038085166000908152600a60209081526040808320805469ffffffffffffffffffff191686179055848352600b825291829020865181549085166001600160a01b031991821617825591870151950180549287015162ffffff16600160a01b0262ffffff60a01b19969094169290911691909117939093161790915592915050565b613ca184848461382d565b613cad848484846145c1565b6129045760405162461bcd60e51b8152600401808060200182810382526032815260200180615a466032913960400191505060405180910390fd5b6000613cf48383613315565b9050336001600160a01b038216146114ed57600080fd5b7f00000000000000000000000000000000000000000000000000000000000000006001600160a01b0316846001600160a01b0316148015613d4c5750804710155b15613e6e577f00000000000000000000000000000000000000000000000000000000000000006001600160a01b031663d0e30db0826040518263ffffffff1660e01b81526004016000604051808303818588803b158015613dac57600080fd5b505af1158015613dc0573d6000803e3d6000fd5b50505050507f00000000000000000000000000000000000000000000000000000000000000006001600160a01b031663a9059cbb83836040518363ffffffff1660e01b815260040180836001600160a01b0316815260200182815260200192505050602060405180830381600087803b158015613e3c57600080fd5b505af1158015613e50573d6000803e3d6000fd5b505050506040513d6020811015613e6657600080fd5b506129049050565b6001600160a01b038316301415613e8f57613e8a848383613e9b565b612904565b61290484848484614729565b604080516001600160a01b038481166024830152604480830185905283518084039091018152606490920183526020820180516001600160e01b031663a9059cbb60e01b1781529251825160009485949389169392918291908083835b60208310613f175780518252601f199092019160209182019101613ef8565b6001836020036101000a0380198251168184511680821785525050505050509050019150506000604051808303816000865af19150503d8060008114613f79576040519150601f19603f3d011682016040523d82523d6000602084013e613f7e565b606091505b5091509150818015613fac575080511580613fac5750808060200190516020811015613fa957600080fd5b50515b612aea576040805162461bcd60e51b815260206004820152600260248201526114d560f21b604482015290519081900360640190fd5b60006114ea8383614879565b5490565b60008060008360020b12614009578260020b614011565b8260020b6000035b9050620d89e881111561404f576040805162461bcd60e51b81526020600482015260016024820152601560fa1b604482015290519081900360640190fd5b60006001821661406357600160801b614075565b6ffffcb933bd6fad37aa2d162d1a5940015b6001600160881b03169050600282161561409f576ffff97272373d413259a46990580e213a0260801c5b60048216156140be576ffff2e50f5f656932ef12357cf3c7fdcc0260801c5b60088216156140dd576fffe5caca7e10e4e61c3624eaa0941cd00260801c5b60108216156140fc576fffcb9843d60f6159c9db58835c9266440260801c5b602082161561411b576fff973b41fa98c081472e6896dfb254c00260801c5b604082161561413a576fff2ea16466c96a3843ec78b326b528610260801c5b6080821615614159576ffe5dee046a99a2a811c461f1969c30530260801c5b610100821615614179576ffcbe86c7900a88aedcffc83b479aa3a40260801c5b610200821615614199576ff987a7253ac413176f2b074cf7815e540260801c5b6104008216156141b9576ff3392b0822b70005940c7a398e4b70f30260801c5b6108008216156141d9576fe7159475a2c29b7443b29c7fa6e889d90260801c5b6110008216156141f9576fd097f3bdfd2022b8845ad8f792aa58250260801c5b612000821615614219576fa9f746462d870fdf8a65dc1f90e061e50260801c5b614000821615614239576f70d869a156d2a1b890bb3df62baf32f70260801c5b618000821615614259576f31be135f97d08fd981231505542fcfa60260801c5b6201000082161561427a576f09aa508b5b7a84e1c677de54f3e99bc90260801c5b6202000082161561429a576e5d6af8dedb81196699c329225ee6040260801c5b620400008216156142b9576d2216e584f5fa1ea926041bedfe980260801c5b620800008216156142d6576b048a170391f7dc42444e8fa20260801c5b60008460020b13156142f15780600019816142ed57fe5b0490505b640100000000810615614305576001614308565b60005b60ff16602082901c0192505050919050565b6000836001600160a01b0316856001600160a01b0316111561433a579293925b846001600160a01b0316866001600160a01b0316116143655761435e858585614891565b90506143d5565b836001600160a01b0316866001600160a01b031610156143c757600061438c878686614891565b9050600061439b8789866148f4565b9050806001600160801b0316826001600160801b0316106143bc57806143be565b815b925050506143d5565b6143d28585846148f4565b90505b95945050505050565b60006114ea8383614931565b60006114ea83836149f7565b600061108984846001600160a01b038516614a41565b8154600090821061444e5760405162461bcd60e51b8152600401808060200182810382526022815260200180615a246022913960400191505060405180910390fd5b82600001828154811061445d57fe5b9060005260206000200154905092915050565b60006114ea8383614ad8565b8154600090819083106144c05760405162461bcd60e51b8152600401808060200182810382526022815260200180615ba06022913960400191505060405180910390fd5b60008460000184815481106144d157fe5b906000526020600020906002020190508060000154816001015492509250509250929050565b600082815260018401602052604081205482816145925760405162461bcd60e51b81526004018080602001828103825283818151815260200191508051906020019080838360005b8381101561455757818101518382015260200161453f565b50505050905090810190601f1680156145845780820380516001836020036101000a031916815260200191505b509250505060405180910390fd5b508460000160018203815481106145a557fe5b9060005260206000209060020201600101549150509392505050565b60006145d5846001600160a01b0316613a92565b6145e157506001611089565b60006146ef630a85bd0160e11b6145f66131fb565b88878760405160240180856001600160a01b03168152602001846001600160a01b0316815260200183815260200180602001828103825283818151815260200191508051906020019080838360005b8381101561465d578181015183820152602001614645565b50505050905090810190601f16801561468a5780820380516001836020036101000a031916815260200191505b5095505050505050604051602081830303815290604052906001600160e01b0319166020820180516001600160e01b038381831617835250505050604051806060016040528060328152602001615a46603291396001600160a01b0388169190614bac565b9050600081806020019051602081101561470857600080fd5b50516001600160e01b031916630a85bd0160e11b1492505050949350505050565b604080516001600160a01b0385811660248301528481166044830152606480830185905283518084039091018152608490920183526020820180516001600160e01b03166323b872dd60e01b178152925182516000948594938a169392918291908083835b602083106147ad5780518252601f19909201916020918201910161478e565b6001836020036101000a0380198251168184511680821785525050505050509050019150506000604051808303816000865af19150503d806000811461480f576040519150601f19603f3d011682016040523d82523d6000602084013e614814565b606091505b5091509150818015614842575080511580614842575080806020019051602081101561483f57600080fd5b50515b612765576040805162461bcd60e51b815260206004820152600360248201526229aa2360e91b604482015290519081900360640190fd5b60009081526001919091016020526040902054151590565b6000826001600160a01b0316846001600160a01b031611156148b1579192915b60006148d4856001600160a01b0316856001600160a01b0316600160601b613449565b90506143d56148ef84838888036001600160a01b0316613449565b614bbb565b6000826001600160a01b0316846001600160a01b03161115614914579192915b6110896148ef83600160601b8787036001600160a01b0316613449565b600081815260018301602052604081205480156149ed578354600019808301919081019060009087908390811061496457fe5b906000526020600020015490508087600001848154811061498157fe5b6000918252602080832090910192909255828152600189810190925260409020908401905586548790806149b157fe5b600190038181906000526020600020016000905590558660010160008781526020019081526020016000206000905560019450505050506114ed565b60009150506114ed565b6000614a038383614879565b614a39575081546001818101845560008481526020808220909301849055845484825282860190935260409020919091556114ed565b5060006114ed565b600082815260018401602052604081205480614aa6575050604080518082018252838152602080820184815286546001818101895560008981528481209551600290930290950191825591519082015586548684528188019092529290912055613442565b82856000016001830381548110614ab957fe5b9060005260206000209060020201600101819055506000915050613442565b600081815260018301602052604081205480156149ed5783546000198083019190810190600090879083908110614b0b57fe5b9060005260206000209060020201905080876000018481548110614b2b57fe5b600091825260208083208454600290930201918255600193840154918401919091558354825289830190526040902090840190558654879080614b6a57fe5b60008281526020808220600260001990940193840201828155600190810183905592909355888152898201909252604082209190915594506114ed9350505050565b60606110898484600085614bd1565b806001600160801b03811681146106c557600080fd5b606082471015614c125760405162461bcd60e51b8152600401808060200182810382526026815260200180615ac36026913960400191505060405180910390fd5b614c1b85613a92565b614c6c576040805162461bcd60e51b815260206004820152601d60248201527f416464726573733a2063616c6c20746f206e6f6e2d636f6e7472616374000000604482015290519081900360640190fd5b600080866001600160a01b031685876040518082805190602001908083835b60208310614caa5780518252601f199092019160209182019101614c8b565b6001836020036101000a03801982511681845116808217855250505050505090500191505060006040518083038185875af1925050503d8060008114614d0c576040519150601f19603f3d011682016040523d82523d6000602084013e614d11565b606091505b5091509150614d21828286614d2c565b979650505050505050565b60608315614d3b575081613442565b825115614d4b5782518084602001fd5b60405162461bcd60e51b815260206004820181815284516024840152845185939192839260440191908501908083836000831561455757818101518382015260200161453f565b50805460018160011615610100020316600290046000825580601f10614db85750614dd6565b601f016020900490600052602060002090810190614dd69190614dd9565b50565b5b80821115614dee5760008155600101614dda565b5090565b80356106c5816159cd565b805161ffff811681146106c557600080fd5b803562ffffff811681146106c557600080fd5b600060208284031215614e33578081fd5b8135613442816159cd565b60008060408385031215614e50578081fd5b8235614e5b816159cd565b91506020830135614e6b816159cd565b809150509250929050565b60008060008060808587031215614e8b578182fd5b8435614e96816159cd565b93506020850135614ea6816159cd565b9250614eb460408601614e0f565b91506060850135614ec4816159cd565b939692955090935050565b600080600060608486031215614ee3578081fd5b8335614eee816159cd565b92506020840135614efe816159cd565b929592945050506040919091013590565b60008060008060808587031215614f24578182fd5b8435614f2f816159cd565b93506020850135614f3f816159cd565b92506040850135915060608501356001600160401b03811115614f60578182fd5b8501601f81018713614f70578182fd5b8035614f83614f7e82615980565b61595d565b818152886020838501011115614f97578384fd5b81602084016020830137908101602001929092525092959194509250565b60008060408385031215614fc7578182fd5b8235614fd2816159cd565b91506020830135614e6b816159e2565b60008060408385031215614ff4578182fd5b8235614fff816159cd565b946020939093013593505050565b600080600060608486031215615021578081fd5b833561502c816159cd565b9250602084013591506040840135615043816159cd565b809150509250925092565b60008060008060008060c08789031215615066578384fd5b8635615071816159cd565b95506020870135945060408701359350606087013561508f81615a14565b9598949750929560808101359460a0909101359350915050565b600080602083850312156150bb578182fd5b82356001600160401b03808211156150d1578384fd5b818501915085601f8301126150e4578384fd5b8135818111156150f2578485fd5b8660208083028501011115615105578485fd5b60209290920196919550909350505050565b600060208284031215615128578081fd5b8151613442816159e2565b600060208284031215615144578081fd5b81356001600160e01b031981168114613442578182fd5b60006020828403121561516c578081fd5b8135613442816159f0565b600060208284031215615188578081fd5b81516001600160401b0381111561519d578182fd5b8201601f810184136151ad578182fd5b80516151bb614f7e82615980565b8181528560208385010111156151cf578384fd5b6143d58260208301602086016159a1565b6000608082840312156151f1578081fd5b50919050565b600060a082840312156151f1578081fd5b600060c082840312156151f1578081fd5b6000818303608081121561522b578182fd5b604051604081016001600160401b03828210818311171561524857fe5b816040526060841215615259578485fd5b60a083019350818410818511171561526d57fe5b50826040528435925061527f836159cd565b918252602084013591615291836159cd565b8260608301526152a360408601614e0f565b608083015281526152b660608501614df2565b6020820152949350505050565b600061016082840312156151f1578081fd5b6000602082840312156152e6578081fd5b8135613442816159ff565b60008060408385031215615303578182fd5b825161530e816159ff565b6020840151909250614e6b816159ff565b600080600080600060a08688031215615336578283fd5b8551615341816159ff565b8095505060208601519350604086015192506060860151615361816159ff565b6080870151909250615372816159ff565b809150509295509295909350565b600080600080600080600060e0888a03121561539a578485fd5b87516153a5816159cd565b60208901519097506153b6816159f0565b95506153c460408901614dfd565b94506153d260608901614dfd565b93506153e060808901614dfd565b925060a08801516153f081615a14565b60c0890151909250615401816159e2565b8091505092959891949750929550565b600060208284031215615422578081fd5b6114ea82614e0f565b60006020828403121561543c578081fd5b5035919050565b60008060408385031215615455578182fd5b823591506020830135614e6b816159cd565b60008060408385031215615479578182fd5b505080516020909101519092909150565b6000806000806060858703121561549f578182fd5b843593506020850135925060408501356001600160401b03808211156154c3578384fd5b818701915087601f8301126154d6578384fd5b8135818111156154e4578485fd5b8860208285010111156154f5578485fd5b95989497505060200194505050565b6000815180845261551c8160208601602086016159a1565b601f01601f19169290920160200192915050565b60020b9052565b6001600160801b03169052565b6000828483379101908152919050565b6001600160a01b0391909116815260200190565b6001600160a01b0386168152600285810b602083015284900b60408201526001600160801b038316606082015260a060808201819052600090614d2190830184615504565b6001600160a01b03959095168552600293840b60208601529190920b60408401526001600160801b03918216606084015216608082015260a00190565b6001600160a01b039390931683526001600160801b03918216602084015216604082015260600190565b6000602080830181845280855180835260408601915060408482028701019250838701855b8281101561566757603f19888603018452615655858351615504565b94509285019290850190600101615639565b5092979650505050505050565b901515815260200190565b90815260200190565b6001600160a01b03929092168252602082015260400190565b600293840b81529190920b60208201526001600160801b03909116604082015260600190565b6000602082526114ea6020830184615504565b6020808252600990820152682737ba1020b236b4b760b91b604082015260600190565b6020808252600c908201526b139bdd08185c1c1c9bdd995960a21b604082015260600190565b6020808252602c908201527f4552433732313a20617070726f76656420717565727920666f72206e6f6e657860408201526b34b9ba32b73a103a37b5b2b760a11b606082015260800190565b602080825260149082015273507269636520736c69707061676520636865636b60601b604082015260600190565b60208082526010908201526f125b9d985b1a59081d1bdad95b88125160821b604082015260600190565b6020808252600b908201526a139bdd0818db19585c995960aa1b604082015260600190565b815180516001600160a01b03908116835260208083015182168185015260409283015162ffffff1692840192909252920151909116606082015260800190565b6001600160801b039390931683526020830191909152604082015260600190565b9384526001600160801b039290921660208401526040830152606082015260800190565b918252602082015260400190565b6001600160601b038d1681526001600160a01b038c811660208301528b811660408301528a16606082015262ffffff89166080820152600288900b60a082015261018081016158d160c0830189615530565b6158de60e0830188615537565b85610100830152846101208301526158fa610140830185615537565b615908610160830184615537565b9d9c50505050505050505050505050565b6000808335601e1984360301811261592f578283fd5b8301803591506001600160401b03821115615948578283fd5b602001915036819003821315613a4957600080fd5b6040518181016001600160401b038111828210171561597857fe5b604052919050565b60006001600160401b0382111561599357fe5b50601f01601f191660200190565b60005b838110156159bc5781810151838201526020016159a4565b838111156129045750506000910152565b6001600160a01b0381168114614dd657600080fd5b8015158114614dd657600080fd5b8060020b8114614dd657600080fd5b6001600160801b0381168114614dd657600080fd5b60ff81168114614dd657600080fdfe456e756d657261626c655365743a20696e646578206f7574206f6620626f756e64734552433732313a207472616e7366657220746f206e6f6e20455243373231526563656976657220696d706c656d656e7465724552433732315065726d69743a20617070726f76616c20746f2063757272656e74206f776e65724552433732313a207472616e7366657220746f20746865207a65726f2061646472657373416464726573733a20696e73756666696369656e742062616c616e636520666f722063616c6c4552433732313a206f70657261746f7220717565727920666f72206e6f6e6578697374656e7420746f6b656e4552433732313a20617070726f76652063616c6c6572206973206e6f74206f776e6572206e6f7220617070726f76656420666f7220616c6c4552433732313a2062616c616e636520717565727920666f7220746865207a65726f20616464726573734552433732313a206f776e657220717565727920666f72206e6f6e6578697374656e7420746f6b656e456e756d657261626c654d61703a20696e646578206f7574206f6620626f756e64734552433732313a207472616e73666572206f6620746f6b656e2074686174206973206e6f74206f776eddf252ad1be2c89b69c2b068fc378daa952ba7f163c4a11628f55a4df523b3ef4552433732313a20617070726f76616c20746f2063757272656e74206f776e65724552433732313a207472616e736665722063616c6c6572206973206e6f74206f776e6572206e6f7220617070726f766564a164736f6c6343000706000a",
  "devdoc": {
    "kind": "dev",
    "methods": {
      "DOMAIN_SEPARATOR()": {
        "returns": {
          "_0": "The domain seperator used in encoding of permit signature"
        }
      },
      "approve(address,uint256)": {
        "details": "See {IERC721-approve}."
      },
      "balanceOf(address)": {
        "details": "See {IERC721-balanceOf}."
      },
      "baseURI()": {
        "details": "Returns the base URI set via {_setBaseURI}. This will be automatically added as a prefix in {tokenURI} to each token's URI, or to the token ID if no specific URI is set for that token ID."
      },
      "burn(uint256)": {
        "params": {
          "tokenId": "The ID of the token that is being burned"
        }
      },
      "collect((uint256,address,uint128,uint128))": {
        "params": {
          "params": "tokenId The ID of the NFT for which tokens are being collected, recipient The account that should receive the tokens, amount0Max The maximum amount of token0 to collect, amount1Max The maximum amount of token1 to collect"
        },
        "returns": {
          "amount0": "The amount of fees collected in token0",
          "amount1": "The amount of fees collected in token1"
        }
      },
      "createAndInitializePoolIfNecessary(address,address,uint24,uint160)": {
        "details": "This method can be bundled with others via IMulticall for the first action (e.g. mint) performed against a pool",
        "params": {
          "fee": "The fee amount of the v3 pool for the specified token pair",
          "sqrtPriceX96": "The initial square root price of the pool as a Q64.96 value",
          "token0": "The contract address of token0 of the pool",
          "token1": "The contract address of token1 of the pool"
        },
        "returns": {
          "pool": "Returns the pool address based on the pair of tokens and fee, will return the newly created pool address if necessary"
        }
      },
      "decreaseLiquidity((uint256,uint128,uint256,uint256,uint256))": {
        "params": {
          "params": "tokenId The ID of the token for which liquidity is being decreased, amount The amount by which liquidity will be decreased, amount0Min The minimum amount of token0 that should be accounted for the burned liquidity, amount1Min The minimum amount of token1 that should be accounted for the burned liquidity, deadline The time by which the transaction must be included to effect the change"
        },
        "returns": {
          "amount0": "The amount of token0 accounted to the position's tokens owed",
          "amount1": "The amount of token1 accounted to the position's tokens owed"
        }
      },
      "getApproved(uint256)": {
        "details": "Returns the account approved for `tokenId` token. Requirements: - `tokenId` must exist."
      },
      "increaseLiquidity((uint256,uint256,uint256,uint256,uint256,uint256))": {
        "params": {
          "params": "tokenId The ID of the token for which liquidity is being increased, amount0Desired The desired amount of token0 to be spent, amount1Desired The desired amount of token1 to be spent, amount0Min The minimum amount of token0 to spend, which serves as a slippage check, amount1Min The minimum amount of token1 to spend, which serves as a slippage check, deadline The time by which the transaction must be included to effect the change"
        },
        "returns": {
          "amount0": "The amount of token0 to acheive resulting liquidity",
          "amount1": "The amount of token1 to acheive resulting liquidity",
          "liquidity": "The new liquidity amount as a result of the increase"
        }
      },
      "isApprovedForAll(address,address)": {
        "details": "See {IERC721-isApprovedForAll}."
      },
      "mint((address,address,uint24,int24,int24,uint256,uint256,uint256,uint256,address,uint256))": {
        "details": "Call this when the pool does exist and is initialized. Note that if the pool is created but not initialized a method does not exist, i.e. the pool is assumed to be initialized.",
        "params": {
          "params": "The params necessary to mint a position, encoded as `MintParams` in calldata"
        },
        "returns": {
          "amount0": "The amount of token0",
          "amount1": "The amount of token1",
          "liquidity": "The amount of liquidity for this position",
          "tokenId": "The ID of the token that represents the minted position"
        }
      },
      "multicall(bytes[])": {
        "details": "The `msg.value` should not be trusted for any method callable from multicall.",
        "params": {
          "data": "The encoded function data for each of the calls to make to this contract"
        },
        "returns": {
          "results": "The results from each of the calls passed in via data"
        }
      },
      "name()": {
        "details": "See {IERC721Metadata-name}."
      },
      "ownerOf(uint256)": {
        "details": "See {IERC721-ownerOf}."
      },
      "permit(address,uint256,uint256,uint8,bytes32,bytes32)": {
        "params": {
          "deadline": "The deadline timestamp by which the call must be mined for the approve to work",
          "r": "Must produce valid secp256k1 signature from the holder along with `v` and `s`",
          "s": "Must produce valid secp256k1 signature from the holder along with `r` and `v`",
          "spender": "The account that is being approved",
          "tokenId": "The ID of the token that is being approved for spending",
          "v": "Must produce valid secp256k1 signature from the holder along with `r` and `s`"
        }
      },
      "positions(uint256)": {
        "details": "Throws if the token ID is not valid.",
        "params": {
          "tokenId": "The ID of the token that represents the position"
        },
        "returns": {
          "fee": "The fee associated with the pool",
          "feeGrowthInside0LastX128": "The fee growth of token0 as of the last action on the individual position",
          "feeGrowthInside1LastX128": "The fee growth of token1 as of the last action on the individual position",
          "liquidity": "The liquidity of the position",
          "nonce": "The nonce for permits",
          "operator": "The address that is approved for spending",
          "tickLower": "The lower end of the tick range for the position",
          "tickUpper": "The higher end of the tick range for the position",
          "token0": "The address of the token0 for a specific pool",
          "token1": "The address of the token1 for a specific pool",
          "tokensOwed0": "The uncollected amount of token0 owed to the position as of the last computation",
          "tokensOwed1": "The uncollected amount of token1 owed to the position as of the last computation"
        }
      },
      "refundETH()": {
        "details": "Useful for bundling with mint or increase liquidity that uses ether, or exact output swaps that use ether for the input amount"
      },
      "safeTransferFrom(address,address,uint256)": {
        "details": "See {IERC721-safeTransferFrom}."
      },
      "safeTransferFrom(address,address,uint256,bytes)": {
        "details": "See {IERC721-safeTransferFrom}."
      },
      "selfPermit(address,uint256,uint256,uint8,bytes32,bytes32)": {
        "details": "The `owner` is always msg.sender and the `spender` is always address(this).",
        "params": {
          "deadline": "A timestamp, the current blocktime must be less than or equal to this timestamp",
          "r": "Must produce valid secp256k1 signature from the holder along with `v` and `s`",
          "s": "Must produce valid secp256k1 signature from the holder along with `r` and `v`",
          "token": "The address of the token spent",
          "v": "Must produce valid secp256k1 signature from the holder along with `r` and `s`",
          "value": "The amount that can be spent of token"
        }
      },
      "selfPermitAllowed(address,uint256,uint256,uint8,bytes32,bytes32)": {
        "details": "The `owner` is always msg.sender and the `spender` is always address(this)",
        "params": {
          "expiry": "The timestamp at which the permit is no longer valid",
          "nonce": "The current nonce of the owner",
          "r": "Must produce valid secp256k1 signature from the holder along with `v` and `s`",
          "s": "Must produce valid secp256k1 signature from the holder along with `r` and `v`",
          "token": "The address of the token spent",
          "v": "Must produce valid secp256k1 signature from the holder along with `r` and `s`"
        }
      },
      "selfPermitAllowedIfNecessary(address,uint256,uint256,uint8,bytes32,bytes32)": {
        "details": "The `owner` is always msg.sender and the `spender` is always address(this) Can be used instead of #selfPermitAllowed to prevent calls from failing due to a frontrun of a call to #selfPermitAllowed.",
        "params": {
          "expiry": "The timestamp at which the permit is no longer valid",
          "nonce": "The current nonce of the owner",
          "r": "Must produce valid secp256k1 signature from the holder along with `v` and `s`",
          "s": "Must produce valid secp256k1 signature from the holder along with `r` and `v`",
          "token": "The address of the token spent",
          "v": "Must produce valid secp256k1 signature from the holder along with `r` and `s`"
        }
      },
      "selfPermitIfNecessary(address,uint256,uint256,uint8,bytes32,bytes32)": {
        "details": "The `owner` is always msg.sender and the `spender` is always address(this). Can be used instead of #selfPermit to prevent calls from failing due to a frontrun of a call to #selfPermit",
        "params": {
          "deadline": "A timestamp, the current blocktime must be less than or equal to this timestamp",
          "r": "Must produce valid secp256k1 signature from the holder along with `v` and `s`",
          "s": "Must produce valid secp256k1 signature from the holder along with `r` and `v`",
          "token": "The address of the token spent",
          "v": "Must produce valid secp256k1 signature from the holder along with `r` and `s`",
          "value": "The amount that can be spent of token"
        }
      },
      "setApprovalForAll(address,bool)": {
        "details": "See {IERC721-setApprovalForAll}."
      },
      "supportsInterface(bytes4)": {
        "details": "See {IERC165-supportsInterface}. Time complexity O(1), guaranteed to always use less than 30 000 gas."
      },
      "sweepToken(address,uint256,address)": {
        "details": "The amountMinimum parameter prevents malicious contracts from stealing the token from users",
        "params": {
          "amountMinimum": "The minimum amount of token required for a transfer",
          "recipient": "The destination address of the token",
          "token": "The contract address of the token which will be transferred to `recipient`"
        }
      },
      "symbol()": {
        "details": "See {IERC721Metadata-symbol}."
      },
      "tokenByIndex(uint256)": {
        "details": "See {IERC721Enumerable-tokenByIndex}."
      },
      "tokenOfOwnerByIndex(address,uint256)": {
        "details": "See {IERC721Enumerable-tokenOfOwnerByIndex}."
      },
      "totalSupply()": {
        "details": "See {IERC721Enumerable-totalSupply}."
      },
      "transferFrom(address,address,uint256)": {
        "details": "See {IERC721-transferFrom}."
      },
      "uniswapV3MintCallback(uint256,uint256,bytes)": {
        "details": "In the implementation you must pay the pool tokens owed for the minted liquidity. The caller of this method must be checked to be a UniswapV3Pool deployed by the canonical UniswapV3Factory.",
        "params": {
          "amount0Owed": "The amount of token0 due to the pool for the minted liquidity",
          "amount1Owed": "The amount of token1 due to the pool for the minted liquidity",
          "data": "Any data passed through by the caller via the IUniswapV3PoolActions#mint call"
        }
      },
      "unwrapWETH9(uint256,address)": {
        "details": "The amountMinimum parameter prevents malicious contracts from stealing WETH9 from users.",
        "params": {
          "amountMinimum": "The minimum amount of WETH9 to unwrap",
          "recipient": "The address receiving ETH"
        }
      }
    },
    "stateVariables": {
      "_nextId": {
        "details": "The ID of the next token that will be minted. Skips 0"
      },
      "_nextPoolId": {
        "details": "The ID of the next pool that is used for the first time. Skips 0"
      },
      "_poolIdToPoolKey": {
        "details": "Pool keys by pool ID, to save on SSTOREs for position data"
      },
      "_poolIds": {
        "details": "IDs of pools assigned by this contract"
      },
      "_positions": {
        "details": "The token ID position data"
      },
      "_tokenDescriptor": {
        "details": "The address of the token descriptor contract, which handles generating token URIs for position tokens"
      }
    },
    "title": "NFT positions",
    "version": 1
  },
  "userdoc": {
    "events": {
      "Collect(uint256,address,uint256,uint256)": {
        "notice": "Emitted when tokens are collected for a position NFT"
      },
      "DecreaseLiquidity(uint256,uint128,uint256,uint256)": {
        "notice": "Emitted when liquidity is decreased for a position NFT"
      },
      "IncreaseLiquidity(uint256,uint128,uint256,uint256)": {
        "notice": "Emitted when liquidity is increased for a position NFT"
      }
    },
    "kind": "user",
    "methods": {
      "DOMAIN_SEPARATOR()": {
        "notice": "The domain separator used in the permit signature"
      },
      "PERMIT_TYPEHASH()": {
        "notice": "The permit typehash used in the permit signature"
      },
      "burn(uint256)": {
        "notice": "Burns a token ID, which deletes it from the NFT contract. The token must have 0 liquidity and all tokens must be collected first."
      },
      "collect((uint256,address,uint128,uint128))": {
        "notice": "Collects up to a maximum amount of fees owed to a specific position to the recipient"
      },
      "createAndInitializePoolIfNecessary(address,address,uint24,uint160)": {
        "notice": "Creates a new pool if it does not exist, then initializes if not initialized"
      },
      "decreaseLiquidity((uint256,uint128,uint256,uint256,uint256))": {
        "notice": "Decreases the amount of liquidity in a position and accounts it to the position"
      },
      "increaseLiquidity((uint256,uint256,uint256,uint256,uint256,uint256))": {
        "notice": "Increases the amount of liquidity in a position, with tokens paid by the `msg.sender`"
      },
      "mint((address,address,uint24,int24,int24,uint256,uint256,uint256,uint256,address,uint256))": {
        "notice": "Creates a new position wrapped in a NFT"
      },
      "multicall(bytes[])": {
        "notice": "Call multiple functions in the current contract and return the data from all of them if they all succeed"
      },
      "permit(address,uint256,uint256,uint8,bytes32,bytes32)": {
        "notice": "Approve of a specific token ID for spending by spender via signature"
      },
      "positions(uint256)": {
        "notice": "Returns the position information associated with a given token ID."
      },
      "refundETH()": {
        "notice": "Refunds any ETH balance held by this contract to the `msg.sender`"
      },
      "selfPermit(address,uint256,uint256,uint8,bytes32,bytes32)": {
        "notice": "Permits this contract to spend a given token from `msg.sender`"
      },
      "selfPermitAllowed(address,uint256,uint256,uint8,bytes32,bytes32)": {
        "notice": "Permits this contract to spend the sender's tokens for permit signatures that have the `allowed` parameter"
      },
      "selfPermitAllowedIfNecessary(address,uint256,uint256,uint8,bytes32,bytes32)": {
        "notice": "Permits this contract to spend the sender's tokens for permit signatures that have the `allowed` parameter"
      },
      "selfPermitIfNecessary(address,uint256,uint256,uint8,bytes32,bytes32)": {
        "notice": "Permits this contract to spend a given token from `msg.sender`"
      },
      "sweepToken(address,uint256,address)": {
        "notice": "Transfers the full amount of a token held by this contract to recipient"
      },
      "uniswapV3MintCallback(uint256,uint256,bytes)": {
        "notice": "Called to `msg.sender` after minting liquidity to a position from IUniswapV3Pool#mint."
      },
      "unwrapWETH9(uint256,address)": {
        "notice": "Unwraps the contract's WETH9 balance and sends it to recipient as ETH."
      }
    },
    "notice": "Wraps Uniswap V3 positions in the ERC721 non-fungible token interface",
    "version": 1
  },
  "storageLayout": {
    "storage": [
      {
        "astId": 13386,
        "contract": "contracts/uniswap/periphery/NonfungiblePositionManager.sol:NonfungiblePositionManager",
        "label": "_supportedInterfaces",
        "offset": 0,
        "slot": "0",
        "type": "t_mapping(t_bytes4,t_bool)"
      },
      {
        "astId": 13471,
        "contract": "contracts/uniswap/periphery/NonfungiblePositionManager.sol:NonfungiblePositionManager",
        "label": "_holderTokens",
        "offset": 0,
        "slot": "1",
        "type": "t_mapping(t_address,t_struct(UintSet)23579_storage)"
      },
      {
        "astId": 13473,
        "contract": "contracts/uniswap/periphery/NonfungiblePositionManager.sol:NonfungiblePositionManager",
        "label": "_tokenOwners",
        "offset": 0,
        "slot": "2",
        "type": "t_struct(UintToAddressMap)22956_storage"
      },
      {
        "astId": 13477,
        "contract": "contracts/uniswap/periphery/NonfungiblePositionManager.sol:NonfungiblePositionManager",
        "label": "_tokenApprovals",
        "offset": 0,
        "slot": "4",
        "type": "t_mapping(t_uint256,t_address)"
      },
      {
        "astId": 13483,
        "contract": "contracts/uniswap/periphery/NonfungiblePositionManager.sol:NonfungiblePositionManager",
        "label": "_operatorApprovals",
        "offset": 0,
        "slot": "5",
        "type": "t_mapping(t_address,t_mapping(t_address,t_bool))"
      },
      {
        "astId": 13485,
        "contract": "contracts/uniswap/periphery/NonfungiblePositionManager.sol:NonfungiblePositionManager",
        "label": "_name",
        "offset": 0,
        "slot": "6",
        "type": "t_string_storage"
      },
      {
        "astId": 13487,
        "contract": "contracts/uniswap/periphery/NonfungiblePositionManager.sol:NonfungiblePositionManager",
        "label": "_symbol",
        "offset": 0,
        "slot": "7",
        "type": "t_string_storage"
      },
      {
        "astId": 13491,
        "contract": "contracts/uniswap/periphery/NonfungiblePositionManager.sol:NonfungiblePositionManager",
        "label": "_tokenURIs",
        "offset": 0,
        "slot": "8",
        "type": "t_mapping(t_uint256,t_string_storage)"
      },
      {
        "astId": 13493,
        "contract": "contracts/uniswap/periphery/NonfungiblePositionManager.sol:NonfungiblePositionManager",
        "label": "_baseURI",
        "offset": 0,
        "slot": "9",
        "type": "t_string_storage"
      },
      {
        "astId": 10102,
        "contract": "contracts/uniswap/periphery/NonfungiblePositionManager.sol:NonfungiblePositionManager",
        "label": "_poolIds",
        "offset": 0,
        "slot": "10",
        "type": "t_mapping(t_address,t_uint80)"
      },
      {
        "astId": 10107,
        "contract": "contracts/uniswap/periphery/NonfungiblePositionManager.sol:NonfungiblePositionManager",
        "label": "_poolIdToPoolKey",
        "offset": 0,
        "slot": "11",
        "type": "t_mapping(t_uint80,t_struct(PoolKey)20685_storage)"
      },
      {
        "astId": 10112,
        "contract": "contracts/uniswap/periphery/NonfungiblePositionManager.sol:NonfungiblePositionManager",
        "label": "_positions",
        "offset": 0,
        "slot": "12",
        "type": "t_mapping(t_uint256,t_struct(Position)10097_storage)"
      },
      {
        "astId": 10116,
        "contract": "contracts/uniswap/periphery/NonfungiblePositionManager.sol:NonfungiblePositionManager",
        "label": "_nextId",
        "offset": 0,
        "slot": "13",
        "type": "t_uint176"
      },
      {
        "astId": 10120,
        "contract": "contracts/uniswap/periphery/NonfungiblePositionManager.sol:NonfungiblePositionManager",
        "label": "_nextPoolId",
        "offset": 22,
        "slot": "13",
        "type": "t_uint80"
      }
    ],
    "types": {
      "t_address": {
        "encoding": "inplace",
        "label": "address",
        "numberOfBytes": "20"
      },
      "t_array(t_bytes32)dyn_storage": {
        "base": "t_bytes32",
        "encoding": "dynamic_array",
        "label": "bytes32[]",
        "numberOfBytes": "32"
      },
      "t_array(t_struct(MapEntry)22630_storage)dyn_storage": {
        "base": "t_struct(MapEntry)22630_storage",
        "encoding": "dynamic_array",
        "label": "struct EnumerableMap.MapEntry[]",
        "numberOfBytes": "32"
      },
      "t_bool": {
        "encoding": "inplace",
        "label": "bool",
        "numberOfBytes": "1"
      },
      "t_bytes32": {
        "encoding": "inplace",
        "label": "bytes32",
        "numberOfBytes": "32"
      },
      "t_bytes4": {
        "encoding": "inplace",
        "label": "bytes4",
        "numberOfBytes": "4"
      },
      "t_int24": {
        "encoding": "inplace",
        "label": "int24",
        "numberOfBytes": "3"
      },
      "t_mapping(t_address,t_bool)": {
        "encoding": "mapping",
        "key": "t_address",
        "label": "mapping(address => bool)",
        "numberOfBytes": "32",
        "value": "t_bool"
      },
      "t_mapping(t_address,t_mapping(t_address,t_bool))": {
        "encoding": "mapping",
        "key": "t_address",
        "label": "mapping(address => mapping(address => bool))",
        "numberOfBytes": "32",
        "value": "t_mapping(t_address,t_bool)"
      },
      "t_mapping(t_address,t_struct(UintSet)23579_storage)": {
        "encoding": "mapping",
        "key": "t_address",
        "label": "mapping(address => struct EnumerableSet.UintSet)",
        "numberOfBytes": "32",
        "value": "t_struct(UintSet)23579_storage"
      },
      "t_mapping(t_address,t_uint80)": {
        "encoding": "mapping",
        "key": "t_address",
        "label": "mapping(address => uint80)",
        "numberOfBytes": "32",
        "value": "t_uint80"
      },
      "t_mapping(t_bytes32,t_uint256)": {
        "encoding": "mapping",
        "key": "t_bytes32",
        "label": "mapping(bytes32 => uint256)",
        "numberOfBytes": "32",
        "value": "t_uint256"
      },
      "t_mapping(t_bytes4,t_bool)": {
        "encoding": "mapping",
        "key": "t_bytes4",
        "label": "mapping(bytes4 => bool)",
        "numberOfBytes": "32",
        "value": "t_bool"
      },
      "t_mapping(t_uint256,t_address)": {
        "encoding": "mapping",
        "key": "t_uint256",
        "label": "mapping(uint256 => address)",
        "numberOfBytes": "32",
        "value": "t_address"
      },
      "t_mapping(t_uint256,t_string_storage)": {
        "encoding": "mapping",
        "key": "t_uint256",
        "label": "mapping(uint256 => string)",
        "numberOfBytes": "32",
        "value": "t_string_storage"
      },
      "t_mapping(t_uint256,t_struct(Position)10097_storage)": {
        "encoding": "mapping",
        "key": "t_uint256",
        "label": "mapping(uint256 => struct NonfungiblePositionManager.Position)",
        "numberOfBytes": "32",
        "value": "t_struct(Position)10097_storage"
      },
      "t_mapping(t_uint80,t_struct(PoolKey)20685_storage)": {
        "encoding": "mapping",
        "key": "t_uint80",
        "label": "mapping(uint80 => struct PoolAddress.PoolKey)",
        "numberOfBytes": "32",
        "value": "t_struct(PoolKey)20685_storage"
      },
      "t_string_storage": {
        "encoding": "bytes",
        "label": "string",
        "numberOfBytes": "32"
      },
      "t_struct(Map)22638_storage": {
        "encoding": "inplace",
        "label": "struct EnumerableMap.Map",
        "members": [
          {
            "astId": 22633,
            "contract": "contracts/uniswap/periphery/NonfungiblePositionManager.sol:NonfungiblePositionManager",
            "label": "_entries",
            "offset": 0,
            "slot": "0",
            "type": "t_array(t_struct(MapEntry)22630_storage)dyn_storage"
          },
          {
            "astId": 22637,
            "contract": "contracts/uniswap/periphery/NonfungiblePositionManager.sol:NonfungiblePositionManager",
            "label": "_indexes",
            "offset": 0,
            "slot": "1",
            "type": "t_mapping(t_bytes32,t_uint256)"
          }
        ],
        "numberOfBytes": "64"
      },
      "t_struct(MapEntry)22630_storage": {
        "encoding": "inplace",
        "label": "struct EnumerableMap.MapEntry",
        "members": [
          {
            "astId": 22627,
            "contract": "contracts/uniswap/periphery/NonfungiblePositionManager.sol:NonfungiblePositionManager",
            "label": "_key",
            "offset": 0,
            "slot": "0",
            "type": "t_bytes32"
          },
          {
            "astId": 22629,
            "contract": "contracts/uniswap/periphery/NonfungiblePositionManager.sol:NonfungiblePositionManager",
            "label": "_value",
            "offset": 0,
            "slot": "1",
            "type": "t_bytes32"
          }
        ],
        "numberOfBytes": "64"
      },
      "t_struct(PoolKey)20685_storage": {
        "encoding": "inplace",
        "label": "struct PoolAddress.PoolKey",
        "members": [
          {
            "astId": 20680,
            "contract": "contracts/uniswap/periphery/NonfungiblePositionManager.sol:NonfungiblePositionManager",
            "label": "token0",
            "offset": 0,
            "slot": "0",
            "type": "t_address"
          },
          {
            "astId": 20682,
            "contract": "contracts/uniswap/periphery/NonfungiblePositionManager.sol:NonfungiblePositionManager",
            "label": "token1",
            "offset": 0,
            "slot": "1",
            "type": "t_address"
          },
          {
            "astId": 20684,
            "contract": "contracts/uniswap/periphery/NonfungiblePositionManager.sol:NonfungiblePositionManager",
            "label": "fee",
            "offset": 20,
            "slot": "1",
            "type": "t_uint24"
          }
        ],
        "numberOfBytes": "64"
      },
      "t_struct(Position)10097_storage": {
        "encoding": "inplace",
        "label": "struct NonfungiblePositionManager.Position",
        "members": [
          {
            "astId": 10078,
            "contract": "contracts/uniswap/periphery/NonfungiblePositionManager.sol:NonfungiblePositionManager",
            "label": "nonce",
            "offset": 0,
            "slot": "0",
            "type": "t_uint96"
          },
          {
            "astId": 10080,
            "contract": "contracts/uniswap/periphery/NonfungiblePositionManager.sol:NonfungiblePositionManager",
            "label": "operator",
            "offset": 12,
            "slot": "0",
            "type": "t_address"
          },
          {
            "astId": 10082,
            "contract": "contracts/uniswap/periphery/NonfungiblePositionManager.sol:NonfungiblePositionManager",
            "label": "poolId",
            "offset": 0,
            "slot": "1",
            "type": "t_uint80"
          },
          {
            "astId": 10084,
            "contract": "contracts/uniswap/periphery/NonfungiblePositionManager.sol:NonfungiblePositionManager",
            "label": "tickLower",
            "offset": 10,
            "slot": "1",
            "type": "t_int24"
          },
          {
            "astId": 10086,
            "contract": "contracts/uniswap/periphery/NonfungiblePositionManager.sol:NonfungiblePositionManager",
            "label": "tickUpper",
            "offset": 13,
            "slot": "1",
            "type": "t_int24"
          },
          {
            "astId": 10088,
            "contract": "contracts/uniswap/periphery/NonfungiblePositionManager.sol:NonfungiblePositionManager",
            "label": "liquidity",
            "offset": 16,
            "slot": "1",
            "type": "t_uint128"
          },
          {
            "astId": 10090,
            "contract": "contracts/uniswap/periphery/NonfungiblePositionManager.sol:NonfungiblePositionManager",
            "label": "feeGrowthInside0LastX128",
            "offset": 0,
            "slot": "2",
            "type": "t_uint256"
          },
          {
            "astId": 10092,
            "contract": "contracts/uniswap/periphery/NonfungiblePositionManager.sol:NonfungiblePositionManager",
            "label": "feeGrowthInside1LastX128",
            "offset": 0,
            "slot": "3",
            "type": "t_uint256"
          },
          {
            "astId": 10094,
            "contract": "contracts/uniswap/periphery/NonfungiblePositionManager.sol:NonfungiblePositionManager",
            "label": "tokensOwed0",
            "offset": 0,
            "slot": "4",
            "type": "t_uint128"
          },
          {
            "astId": 10096,
            "contract": "contracts/uniswap/periphery/NonfungiblePositionManager.sol:NonfungiblePositionManager",
            "label": "tokensOwed1",
            "offset": 16,
            "slot": "4",
            "type": "t_uint128"
          }
        ],
        "numberOfBytes": "160"
      },
      "t_struct(Set)23193_storage": {
        "encoding": "inplace",
        "label": "struct EnumerableSet.Set",
        "members": [
          {
            "astId": 23188,
            "contract": "contracts/uniswap/periphery/NonfungiblePositionManager.sol:NonfungiblePositionManager",
            "label": "_values",
            "offset": 0,
            "slot": "0",
            "type": "t_array(t_bytes32)dyn_storage"
          },
          {
            "astId": 23192,
            "contract": "contracts/uniswap/periphery/NonfungiblePositionManager.sol:NonfungiblePositionManager",
            "label": "_indexes",
            "offset": 0,
            "slot": "1",
            "type": "t_mapping(t_bytes32,t_uint256)"
          }
        ],
        "numberOfBytes": "64"
      },
      "t_struct(UintSet)23579_storage": {
        "encoding": "inplace",
        "label": "struct EnumerableSet.UintSet",
        "members": [
          {
            "astId": 23578,
            "contract": "contracts/uniswap/periphery/NonfungiblePositionManager.sol:NonfungiblePositionManager",
            "label": "_inner",
            "offset": 0,
            "slot": "0",
            "type": "t_struct(Set)23193_storage"
          }
        ],
        "numberOfBytes": "64"
      },
      "t_struct(UintToAddressMap)22956_storage": {
        "encoding": "inplace",
        "label": "struct EnumerableMap.UintToAddressMap",
        "members": [
          {
            "astId": 22955,
            "contract": "contracts/uniswap/periphery/NonfungiblePositionManager.sol:NonfungiblePositionManager",
            "label": "_inner",
            "offset": 0,
            "slot": "0",
            "type": "t_struct(Map)22638_storage"
          }
        ],
        "numberOfBytes": "64"
      },
      "t_uint128": {
        "encoding": "inplace",
        "label": "uint128",
        "numberOfBytes": "16"
      },
      "t_uint176": {
        "encoding": "inplace",
        "label": "uint176",
        "numberOfBytes": "22"
      },
      "t_uint24": {
        "encoding": "inplace",
        "label": "uint24",
        "numberOfBytes": "3"
      },
      "t_uint256": {
        "encoding": "inplace",
        "label": "uint256",
        "numberOfBytes": "32"
      },
      "t_uint80": {
        "encoding": "inplace",
        "label": "uint80",
        "numberOfBytes": "10"
      },
      "t_uint96": {
        "encoding": "inplace",
        "label": "uint96",
        "numberOfBytes": "12"
      }
    }
  }
}