{
  "address": "0x742f24592459e189f520214E2f2110C4528d784c",
  "abi": [
    {
      "inputs": [
        {
          "internalType": "address",
          "name": "_portalFoundation",
          "type": "address"
        }
      ],
      "stateMutability": "nonpayable",
      "type": "constructor"
    },
    {
      "inputs": [],
      "name": "ECDSAInvalidSignature",
      "type": "error"
    },
    {
      "inputs": [
        {
          "internalType": "uint256",
          "name": "length",
          "type": "uint256"
        }
      ],
      "name": "ECDSAInvalidSignatureLength",
      "type": "error"
    },
    {
      "inputs": [
        {
          "internalType": "bytes32",
          "name": "s",
          "type": "bytes32"
        }
      ],
      "name": "ECDSAInvalidSignatureS",
      "type": "error"
    },
    {
      "inputs": [
        {
          "internalType": "address",
          "name": "spender",
          "type": "address"
        },
        {
          "internalType": "uint256",
          "name": "allowance",
          "type": "uint256"
        },
        {
          "internalType": "uint256",
          "name": "needed",
          "type": "uint256"
        }
      ],
      "name": "ERC20InsufficientAllowance",
      "type": "error"
    },
    {
      "inputs": [
        {
          "internalType": "address",
          "name": "sender",
          "type": "address"
        },
        {
          "internalType": "uint256",
          "name": "balance",
          "type": "uint256"
        },
        {
          "internalType": "uint256",
          "name": "needed",
          "type": "uint256"
        }
      ],
      "name": "ERC20InsufficientBalance",
      "type": "error"
    },
    {
      "inputs": [
        {
          "internalType": "address",
          "name": "approver",
          "type": "address"
        }
      ],
      "name": "ERC20InvalidApprover",
      "type": "error"
    },
    {
      "inputs": [
        {
          "internalType": "address",
          "name": "receiver",
          "type": "address"
        }
      ],
      "name": "ERC20InvalidReceiver",
      "type": "error"
    },
    {
      "inputs": [
        {
          "internalType": "address",
          "name": "sender",
          "type": "address"
        }
      ],
      "name": "ERC20InvalidSender",
      "type": "error"
    },
    {
      "inputs": [
        {
          "internalType": "address",
          "name": "spender",
          "type": "address"
        }
      ],
      "name": "ERC20InvalidSpender",
      "type": "error"
    },
    {
      "inputs": [
        {
          "internalType": "uint256",
          "name": "deadline",
          "type": "uint256"
        }
      ],
      "name": "ERC2612ExpiredSignature",
      "type": "error"
    },
    {
      "inputs": [
        {
          "internalType": "address",
          "name": "signer",
          "type": "address"
        },
        {
          "internalType": "address",
          "name": "owner",
          "type": "address"
        }
      ],
      "name": "ERC2612InvalidSigner",
      "type": "error"
    },
    {
      "inputs": [
        {
          "internalType": "address",
          "name": "account",
          "type": "address"
        },
        {
          "internalType": "uint256",
          "name": "currentNonce",
          "type": "uint256"
        }
      ],
      "name": "InvalidAccountNonce",
      "type": "error"
    },
    {
      "inputs": [],
      "name": "InvalidShortString",
      "type": "error"
    },
    {
      "inputs": [
        {
          "internalType": "string",
          "name": "str",
          "type": "string"
        }
      ],
      "name": "StringTooLong",
      "type": "error"
    },
    {
      "anonymous": false,
      "inputs": [
        {
          "indexed": true,
          "internalType": "address",
          "name": "owner",
          "type": "address"
        },
        {
          "indexed": true,
          "internalType": "address",
          "name": "spender",
          "type": "address"
        },
        {
          "indexed": false,
          "internalType": "uint256",
          "name": "value",
          "type": "uint256"
        }
      ],
      "name": "Approval",
      "type": "event"
    },
    {
      "anonymous": false,
      "inputs": [],
      "name": "EIP712DomainChanged",
      "type": "event"
    },
    {
      "anonymous": false,
      "inputs": [
        {
          "indexed": true,
          "internalType": "address",
          "name": "user",
          "type": "address"
        },
        {
          "indexed": false,
          "internalType": "uint256",
          "name": "amount",
          "type": "uint256"
        }
      ],
      "name": "TokensLocked",
      "type": "event"
    },
    {
      "anonymous": false,
      "inputs": [
        {
          "indexed": true,
          "internalType": "address",
          "name": "user",
          "type": "address"
        },
        {
          "indexed": false,
          "internalType": "uint256",
          "name": "amount",
          "type": "uint256"
        }
      ],
      "name": "TokensUnlocked",
      "type": "event"
    },
    {
      "anonymous": false,
      "inputs": [
        {
          "indexed": true,
          "internalType": "address",
          "name": "from",
          "type": "address"
        },
        {
          "indexed": true,
          "internalType": "address",
          "name": "to",
          "type": "address"
        },
        {
          "indexed": false,
          "internalType": "uint256",
          "name": "value",
          "type": "uint256"
        }
      ],
      "name": "Transfer",
      "type": "event"
    },
    {
      "anonymous": false,
      "inputs": [
        {
          "indexed": false,
          "internalType": "address",
          "name": "from",
          "type": "address"
        },
        {
          "indexed": false,
          "internalType": "address",
          "name": "owner",
          "type": "address"
        },
        {
          "indexed": false,
          "internalType": "uint256",
          "name": "amount",
          "type": "uint256"
        }
      ],
      "name": "TransferFromUserToOwner",
      "type": "event"
    },
    {
      "inputs": [],
      "name": "DOMAIN_SEPARATOR",
      "outputs": [
        {
          "internalType": "bytes32",
          "name": "",
          "type": "bytes32"
        }
      ],
      "stateMutability": "view",
      "type": "function"
    },
    {
      "inputs": [],
      "name": "EPOCH_DURATION",
      "outputs": [
        {
          "internalType": "uint256",
          "name": "",
          "type": "uint256"
        }
      ],
      "stateMutability": "view",
      "type": "function"
    },
    {
      "inputs": [],
      "name": "INITIAL_SUPPLY",
      "outputs": [
        {
          "internalType": "uint256",
          "name": "",
          "type": "uint256"
        }
      ],
      "stateMutability": "view",
      "type": "function"
    },
    {
      "inputs": [
        {
          "internalType": "address",
          "name": "owner",
          "type": "address"
        },
        {
          "internalType": "address",
          "name": "spender",
          "type": "address"
        }
      ],
      "name": "allowance",
      "outputs": [
        {
          "internalType": "uint256",
          "name": "",
          "type": "uint256"
        }
      ],
      "stateMutability": "view",
      "type": "function"
    },
    {
      "inputs": [
        {
          "internalType": "address",
          "name": "spender",
          "type": "address"
        },
        {
          "internalType": "uint256",
          "name": "value",
          "type": "uint256"
        }
      ],
      "name": "approve",
      "outputs": [
        {
          "internalType": "bool",
          "name": "",
          "type": "bool"
        }
      ],
      "stateMutability": "nonpayable",
      "type": "function"
    },
    {
      "inputs": [
        {
          "internalType": "address",
          "name": "account",
          "type": "address"
        }
      ],
      "name": "balanceOf",
      "outputs": [
        {
          "internalType": "uint256",
          "name": "",
          "type": "uint256"
        }
      ],
      "stateMutability": "view",
      "type": "function"
    },
    {
      "inputs": [
        {
          "internalType": "uint256",
          "name": "value",
          "type": "uint256"
        }
      ],
      "name": "burn",
      "outputs": [],
      "stateMutability": "nonpayable",
      "type": "function"
    },
    {
      "inputs": [
        {
          "internalType": "address",
          "name": "account",
          "type": "address"
        },
        {
          "internalType": "uint256",
          "name": "value",
          "type": "uint256"
        }
      ],
      "name": "burnFrom",
      "outputs": [],
      "stateMutability": "nonpayable",
      "type": "function"
    },
    {
      "inputs": [],
      "name": "decimals",
      "outputs": [
        {
          "internalType": "uint8",
          "name": "",
          "type": "uint8"
        }
      ],
      "stateMutability": "view",
      "type": "function"
    },
    {
      "inputs": [],
      "name": "eip712Domain",
      "outputs": [
        {
          "internalType": "bytes1",
          "name": "fields",
          "type": "bytes1"
        },
        {
          "internalType": "string",
          "name": "name",
          "type": "string"
        },
        {
          "internalType": "string",
          "name": "version",
          "type": "string"
        },
        {
          "internalType": "uint256",
          "name": "chainId",
          "type": "uint256"
        },
        {
          "internalType": "address",
          "name": "verifyingContract",
          "type": "address"
        },
        {
          "internalType": "bytes32",
          "name": "salt",
          "type": "bytes32"
        },
        {
          "internalType": "uint256[]",
          "name": "extensions",
          "type": "uint256[]"
        }
      ],
      "stateMutability": "view",
      "type": "function"
    },
    {
      "inputs": [
        {
          "internalType": "address",
          "name": "_user",
          "type": "address"
        }
      ],
      "name": "getLockedTokens",
      "outputs": [
        {
          "internalType": "uint256",
          "name": "",
          "type": "uint256"
        }
      ],
      "stateMutability": "view",
      "type": "function"
    },
    {
      "inputs": [],
      "name": "lastOwnershipTransition",
      "outputs": [
        {
          "internalType": "uint256",
          "name": "",
          "type": "uint256"
        }
      ],
      "stateMutability": "view",
      "type": "function"
    },
    {
      "inputs": [
        {
          "internalType": "uint256",
          "name": "_amount",
          "type": "uint256"
        }
      ],
      "name": "lockTokens",
      "outputs": [],
      "stateMutability": "nonpayable",
      "type": "function"
    },
    {
      "inputs": [
        {
          "internalType": "address",
          "name": "",
          "type": "address"
        }
      ],
      "name": "lockedTokens",
      "outputs": [
        {
          "internalType": "uint256",
          "name": "",
          "type": "uint256"
        }
      ],
      "stateMutability": "view",
      "type": "function"
    },
    {
      "inputs": [],
      "name": "mintableAmount",
      "outputs": [
        {
          "internalType": "uint256",
          "name": "",
          "type": "uint256"
        }
      ],
      "stateMutability": "view",
      "type": "function"
    },
    {
      "inputs": [],
      "name": "name",
      "outputs": [
        {
          "internalType": "string",
          "name": "",
          "type": "string"
        }
      ],
      "stateMutability": "view",
      "type": "function"
    },
    {
      "inputs": [
        {
          "internalType": "address",
          "name": "owner",
          "type": "address"
        }
      ],
      "name": "nonces",
      "outputs": [
        {
          "internalType": "uint256",
          "name": "",
          "type": "uint256"
        }
      ],
      "stateMutability": "view",
      "type": "function"
    },
    {
      "inputs": [],
      "name": "owner",
      "outputs": [
        {
          "internalType": "address",
          "name": "",
          "type": "address"
        }
      ],
      "stateMutability": "view",
      "type": "function"
    },
    {
      "inputs": [
        {
          "internalType": "address",
          "name": "owner",
          "type": "address"
        },
        {
          "internalType": "address",
          "name": "spender",
          "type": "address"
        },
        {
          "internalType": "uint256",
          "name": "value",
          "type": "uint256"
        },
        {
          "internalType": "uint256",
          "name": "deadline",
          "type": "uint256"
        },
        {
          "internalType": "uint8",
          "name": "v",
          "type": "uint8"
        },
        {
          "internalType": "bytes32",
          "name": "r",
          "type": "bytes32"
        },
        {
          "internalType": "bytes32",
          "name": "s",
          "type": "bytes32"
        }
      ],
      "name": "permit",
      "outputs": [],
      "stateMutability": "nonpayable",
      "type": "function"
    },
    {
      "inputs": [],
      "name": "portalFoundation",
      "outputs": [
        {
          "internalType": "address",
          "name": "",
          "type": "address"
        }
      ],
      "stateMutability": "view",
      "type": "function"
    },
    {
      "inputs": [],
      "name": "revertOwnershipToFoundation",
      "outputs": [],
      "stateMutability": "nonpayable",
      "type": "function"
    },
    {
      "inputs": [],
      "name": "symbol",
      "outputs": [
        {
          "internalType": "string",
          "name": "",
          "type": "string"
        }
      ],
      "stateMutability": "view",
      "type": "function"
    },
    {
      "inputs": [],
      "name": "totalSupply",
      "outputs": [
        {
          "internalType": "uint256",
          "name": "",
          "type": "uint256"
        }
      ],
      "stateMutability": "view",
      "type": "function"
    },
    {
      "inputs": [
        {
          "internalType": "address",
          "name": "to",
          "type": "address"
        },
        {
          "internalType": "uint256",
          "name": "value",
          "type": "uint256"
        }
      ],
      "name": "transfer",
      "outputs": [
        {
          "internalType": "bool",
          "name": "",
          "type": "bool"
        }
      ],
      "stateMutability": "nonpayable",
      "type": "function"
    },
    {
      "inputs": [
        {
          "internalType": "address",
          "name": "from",
          "type": "address"
        },
        {
          "internalType": "address",
          "name": "to",
          "type": "address"
        },
        {
          "internalType": "uint256",
          "name": "value",
          "type": "uint256"
        }
      ],
      "name": "transferFrom",
      "outputs": [
        {
          "internalType": "bool",
          "name": "",
          "type": "bool"
        }
      ],
      "stateMutability": "nonpayable",
      "type": "function"
    },
    {
      "inputs": [
        {
          "internalType": "address",
          "name": "_from",
          "type": "address"
        },
        {
          "internalType": "uint256",
          "name": "_amount",
          "type": "uint256"
        }
      ],
      "name": "transferFromUserToOwner",
      "outputs": [],
      "stateMutability": "nonpayable",
      "type": "function"
    },
    {
      "inputs": [
        {
          "internalType": "address",
          "name": "_newOwner",
          "type": "address"
        }
      ],
      "name": "transferOwnership",
      "outputs": [],
      "stateMutability": "nonpayable",
      "type": "function"
    },
    {
      "inputs": [
        {
          "internalType": "address",
          "name": "_user",
          "type": "address"
        },
        {
          "internalType": "uint256",
          "name": "_amount",
          "type": "uint256"
        }
      ],
      "name": "unlockTokens",
      "outputs": [],
      "stateMutability": "nonpayable",
      "type": "function"
    }
  ],
  "transactionHash": "0xa56617df1e804bd5cc1166ed284a1ba379511646c39c491fed4328098123c7b7",
  "args": [
    "0x32578A43FF35c16Df144BE3a55E212a209fF402B"
  ],
  "numDeployments": 1,
  "solcInputHash": "2fd20d911d8de013566405c6f17dd1a7",
  "bytecode": "0x610180346200054757601f906001600160401b0390601f196200200e3881900385810183168401919085831185841017620004495780859260409485528339602094859181010312620005475751926001600160a01b0384169081850362000547578251936200006f856200054c565b6006855281850196651413d495105360d21b80895285519062000092826200054c565b6006825284820152855192620000a8846200054c565b60058452641e1413d49560da1b8585015286519a620000c78c6200054c565b600192838d52868d0193603160f81b8552815186811162000449576003928354908382811c921680156200053c575b8b83101462000526578186849311620004d0575b508a908683116001146200046b576000926200045f575b505060001982851b1c191690821b1782555b865192868411620004495760049788548381811c911680156200043e575b8b8210146200042957828111620003de575b508991851160011462000375578495509084929160009562000369575b50501b92600019911b1c19161783555b6200019b8762000568565b98610120998a52620001ad8b6200072c565b97610140988952519020998a60e05251902061010099818b524660a052865191858301917f8b73c3c69bb8fe3d512ecc4cf759cc79239f7b179b0ffacaa9a75d522b39400f83528884015260608301524660808301523060a083015260a0825260c0820192828410908411176200035457828752815190206080523060c0528415620003245750506101609586526002546a39e7139a8c08fa06000000918282018092116200030f575083926000927fddf252ad1be2c89b69c2b068fc378daa952ba7f163c4a11628f55a4df523b3ef926002558484528382528684208181540190558651908152a36a05ca4ec2a79a7f670000006009554260085560018060a01b0319600a541617600a5551926117299485620008e5863960805185611332015260a051856113fe015260c05185611303015260e05185611381015251846113a70152518361079f015251826107c901525181818161096f0152610b510152f35b601190634e487b7160e01b6000525260246000fd5b906a454241444144445245535360a81b6101046064938662461bcd60e51b855260c4820152600b60e48201520152fd5b604184634e487b7160e01b6000525260246000fd5b01519350388062000180565b92919484169288600052848a6000209460005b8c89838310620003c65750505010620003ab575b50505050811b01835562000190565b01519060f884600019921b161c19169055388080806200039c565b86860151895590970196948501948893500162000388565b896000528a6000208380880160051c8201928d89106200041f575b0160051c019084905b8281106200041257505062000163565b6000815501849062000402565b92508192620003f9565b60228a634e487b7160e01b6000525260246000fd5b90607f169062000151565b634e487b7160e01b600052604160045260246000fd5b01519050388062000121565b908785941691866000528c600020928d6000905b828210620004b857505084116200049f575b505050811b01825562000133565b015160001983871b60f8161c1916905538808062000491565b83850151865588979095019493840193018e6200047f565b909150846000528a6000208680850160051c8201928d86106200051c575b918691869594930160051c01915b8281106200050c5750506200010a565b60008155859450869101620004fc565b92508192620004ee565b634e487b7160e01b600052602260045260246000fd5b91607f1691620000f6565b600080fd5b604081019081106001600160401b038211176200044957604052565b8051602091908281101562000607575090601f825111620005a657808251920151908083106200059757501790565b82600019910360031b1b161790565b90604051809263305a27a960e01b82528060048301528251908160248401526000935b828510620005ed575050604492506000838284010152601f80199101168101030190fd5b8481018201518686016044015293810193859350620005c9565b6001600160401b03811162000449576005928354926001938481811c9116801562000721575b838210146200052657601f8111620006ea575b5081601f841160011462000680575092829391839260009462000674575b50501b916000199060031b1c191617905560ff90565b0151925038806200065e565b919083601f1981168760005284600020946000905b88838310620006cf5750505010620006b5575b505050811b01905560ff90565b015160001960f88460031b161c19169055388080620006a8565b85870151885590960195948501948793509081019062000695565b8560005284601f846000209201871c820191601f8601881c015b8281106200071457505062000640565b6000815501859062000704565b90607f16906200062d565b805160209081811015620007ba5750601f8251116200075957808251920151908083106200059757501790565b90604051809263305a27a960e01b82528060048301528251908160248401526000935b828510620007a0575050604492506000838284010152601f80199101168101030190fd5b84810182015186860160440152938101938593506200077c565b906001600160401b0382116200044957600654926001938481811c91168015620008d9575b838210146200052657601f81116200089f575b5081601f841160011462000833575092829391839260009462000827575b50501b916000199060031b1c19161760065560ff90565b01519250388062000810565b919083601f198116600660005284600020946000905b888383106200088457505050106200086a575b505050811b0160065560ff90565b015160001960f88460031b161c191690553880806200085c565b85870151885590960195948501948793509081019062000849565b600660005284601f84600020920160051c820191601f860160051c015b828110620008cc575050620007f2565b60008155018590620008bc565b90607f1690620007df56fe608060408181526004908136101561001657600080fd5b600092833560e01c90816306fdde0314610c7f57508063095ea7b314610c5557806318160ddd14610c3657806323b872dd14610bf95780632ff2e9dc14610bd3578063313ce56714610bb75780633644e51514610b9357806342966c6814610b755780635eb7413a14610afa5780635ebe612514610b315780636b2d95d414610afa5780636e27d88914610a7f57806370a0823114610a4957806370ae9f6f1461092b57806379cc6790146108f85780637ecebe00146108c157806384b0196e146107895780638da5cb5b1461076157806395d89b41146106785780639d564d9a14610591578063a70b9f0c14610573578063a9059cbb14610542578063ae3baf4d14610523578063b1d3693f14610504578063d3ce1ce914610488578063d505accf146102d3578063dd62ed3e146102865763f2fde38b1461015857600080fd5b3461028257602036600319011261028257610171610d90565b906001600160a01b039283600a54169161018c8333146115f2565b60085462278d0081019081811161025c576224ea0081019082821161026f576228de800180921161025c574210159081610251575b501561020e5750506009546101d59161164a565b6101e5600954601481049061163d565b6009551673ffffffffffffffffffffffffffffffffffffffff19600a541617600a554260085580f35b906020606492519162461bcd60e51b8352820152600860248201527f45455850495245440000000000000000000000000000000000000000000000006044820152fd5b9050421115386101c1565b602488601186634e487b7160e01b835252fd5b602489601187634e487b7160e01b835252fd5b8280fd5b8382346102cf57806003193601126102cf57806020926102a4610d90565b6102ac610dab565b6001600160a01b0391821683526001865283832091168252845220549051908152f35b5080fd5b509190346102cf5760e03660031901126102cf576102ef610d90565b6102f7610dab565b906044359260643560843560ff8116810361048457814211610455576001600160a01b0390818516928389526007602052898920908154916001830190558a519060208201927f6e71edae12b1b97f4d1f60370fef10105fa2faae0126114a169c64845d6126c98452868d840152858a1660608401528a608084015260a083015260c082015260c0815260e0810181811067ffffffffffffffff821117610442578b525190206103f7916103ee916103ad6112f9565b908c51917f190100000000000000000000000000000000000000000000000000000000000083526002830152602282015260c43591604260a435922061119b565b9092919261122b565b1681810361040e578661040b878787610f80565b80f35b604493508751927f4b800e460000000000000000000000000000000000000000000000000000000084528301526024820152fd5b60248b604189634e487b7160e01b835252fd5b602483838a51917f62791302000000000000000000000000000000000000000000000000000000008352820152fd5b8680fd5b8382346102cf57806003193601126102cf5760607f2bda37dc05fb1d05d7fa5b5f0ba3c3a84d33c2401817fae3eeedce83d597326d916104c6610d90565b90602435906001600160a01b036104ed8382600a54166104e78133146115f2565b86610e4f565b600a5482519482168552166020840152820152a180f35b8382346102cf57816003193601126102cf576020906008549051908152f35b8382346102cf57816003193601126102cf576020906009549051908152f35b8382346102cf57806003193601126102cf5760209061056c610562610d90565b6024359033610e4f565b5160018152f35b8382346102cf57816003193601126102cf576020905162278d008152f35b5090346102825781600319360112610282576105ab610d90565b9160243591821561063657508160209161062e7fe7b379c6c1fa169e9079c25e9143b127637eef8ec8c9d5c06ddb4ab3e1195888946001600160a01b039661061188821698898b52600b885261060684878d205410156116a8565b600a541633146115f2565b878952600b865283892061062683825461163d565b905530610e4f565b51908152a280f35b6020606492519162461bcd60e51b8352820152600860248201527f45494e56414c49440000000000000000000000000000000000000000000000006044820152fd5b50346102825782600319360112610282578051918381549061069982610dc1565b8086529260019280841690811561073657506001146106da575b6106d686866106c4828b0383610e2d565b51918291602083526020830190610d50565b0390f35b815294507f8a35acfbc15ff81a39ae7d344fd709f28e8600b4aa8c65c6b64bfe7fe36bd19b5b82861061071e575050506106c48260206106d69582010194386106b3565b80546020878701810191909152909501948101610700565b90506106d69750869350602092506106c494915060ff191682840152151560051b82010194386106b3565b8382346102cf57816003193601126102cf576020906001600160a01b03600a54169051908152f35b50346102825782600319360112610282576107c37f0000000000000000000000000000000000000000000000000000000000000000611424565b926107ed7f0000000000000000000000000000000000000000000000000000000000000000611538565b908251926020928385019585871067ffffffffffffffff8811176108ae57509280610864838896610857998b9996528686528151998a997f0f000000000000000000000000000000000000000000000000000000000000008b5260e0868c015260e08b0190610d50565b91898303908a0152610d50565b924660608801523060808801528460a088015286840360c088015251928381520193925b82811061089757505050500390f35b835185528695509381019392810192600101610888565b836041602492634e487b7160e01b835252fd5b8382346102cf5760203660031901126102cf57806020926001600160a01b036108e8610d90565b1681526007845220549051908152f35b8382346102cf573660031901126109285761040b610914610d90565b60243590610923823383611011565b6110fc565b80fd5b503461028257826003193601126102825760085462278d00810190818111610a36576228de8001809111610a23574211156109e057826001600160a01b036109a8817f0000000000000000000000000000000000000000000000000000000000000000169161099b8333146115f2565b600a54166009549061164a565b6109b8600954601481049061163d565b60095573ffffffffffffffffffffffffffffffffffffffff19600a541617600a554260085580f35b906020606492519162461bcd60e51b8352820152600b60248201527f454e4f54455850495245440000000000000000000000000000000000000000006044820152fd5b602484601185634e487b7160e01b835252fd5b602485601186634e487b7160e01b835252fd5b8382346102cf5760203660031901126102cf57806020926001600160a01b03610a70610d90565b16815280845220549051908152f35b50903461028257602036600319011261028257359033835282602052610aaa828285205410156116a8565b610ab5823033610e4f565b338352600b602052808320610acb838254610f5d565b9055519081527fac87f20a77d28ee8bbb58ec87ea8fa968b3393efae1a368fd50b767c2847391c60203392a280f35b8382346102cf5760203660031901126102cf57806020926001600160a01b03610b21610d90565b168152600b845220549051908152f35b8382346102cf57816003193601126102cf57602090516001600160a01b037f0000000000000000000000000000000000000000000000000000000000000000168152f35b5050346102cf5760203660031901126102cf5761040b9035336110fc565b8382346102cf57816003193601126102cf57602090610bb06112f9565b9051908152f35b8382346102cf57816003193601126102cf576020905160128152f35b8382346102cf57816003193601126102cf57602090516a39e7139a8c08fa060000008152f35b8382346102cf5760603660031901126102cf5760209061056c610c1a610d90565b610c22610dab565b60443591610c31833383611011565b610e4f565b8382346102cf57816003193601126102cf576020906002549051908152f35b8382346102cf57806003193601126102cf5760209061056c610c75610d90565b6024359033610f80565b9250503461028257826003193601126102825782600354610c9f81610dc1565b80855291600191808316908115610d285750600114610ccb575b5050506106c4826106d6940383610e2d565b9450600385527fc2575a0e9e593c00f959f8c92f12db2869c3395a3b0502d05e2516446f71f85b5b828610610d10575050506106c48260206106d69582010194610cb9565b80546020878701810191909152909501948101610cf3565b6106d69750869350602092506106c494915060ff191682840152151560051b82010194610cb9565b919082519283825260005b848110610d7c575050826000602080949584010152601f8019910116010190565b602081830181015184830182015201610d5b565b600435906001600160a01b0382168203610da657565b600080fd5b602435906001600160a01b0382168203610da657565b90600182811c92168015610df1575b6020831014610ddb57565b634e487b7160e01b600052602260045260246000fd5b91607f1691610dd0565b6040810190811067ffffffffffffffff821117610e1757604052565b634e487b7160e01b600052604160045260246000fd5b90601f8019910116810190811067ffffffffffffffff821117610e1757604052565b916001600160a01b03808416928315610f2c5716928315610efb5760009083825281602052604082205490838210610ec9575091604082827fddf252ad1be2c89b69c2b068fc378daa952ba7f163c4a11628f55a4df523b3ef958760209652828652038282205586815220818154019055604051908152a3565b60405163391434e360e21b81526001600160a01b03919091166004820152602481019190915260448101839052606490fd5b60246040517fec442f0500000000000000000000000000000000000000000000000000000000815260006004820152fd5b60246040517f96c6fd1e00000000000000000000000000000000000000000000000000000000815260006004820152fd5b91908201809211610f6a57565b634e487b7160e01b600052601160045260246000fd5b6001600160a01b03809116918215610ff95716918215610fe15760207f8c5be1e5ebec7d5bd14f71427d1e84f3dd0314c0f7b2291e5b200ac8c7c3b925918360005260018252604060002085600052825280604060002055604051908152a3565b6024604051634a1406b160e11b815260006004820152fd5b602460405163e602df0560e01b815260006004820152fd5b916001600160a01b038093169160009383855260016020526040938486209183169182875260205284862054926000198403611051575b50505050505050565b8484106110b35750801561109c57811561108557855260016020528385209085526020520391205538808080808080611048565b602486865190634a1406b160e11b82526004820152fd5b60248686519063e602df0560e01b82526004820152fd5b85517ffb8f41b20000000000000000000000000000000000000000000000000000000081526001600160a01b039190911660048201526024810184905260448101859052606490fd5b906001600160a01b038216908115610f2c57600092828452836020526040842054908282106111695750817fddf252ad1be2c89b69c2b068fc378daa952ba7f163c4a11628f55a4df523b3ef926020928587528684520360408620558060025403600255604051908152a3565b60405163391434e360e21b81526001600160a01b03919091166004820152602481019190915260448101829052606490fd5b91907f7fffffffffffffffffffffffffffffff5d576e7357a4501ddfe92f46681b20a0841161121f57926020929160ff608095604051948552168484015260408301526060820152600092839182805260015afa156112135780516001600160a01b0381161561120a57918190565b50809160019190565b604051903d90823e3d90fd5b50505060009160039190565b60048110156112e3578061123d575050565b6001810361126f5760046040517ff645eedf000000000000000000000000000000000000000000000000000000008152fd5b600281036112a857602482604051907ffce698f70000000000000000000000000000000000000000000000000000000082526004820152fd5b6003146112b25750565b602490604051907fd78bce0c0000000000000000000000000000000000000000000000000000000082526004820152fd5b634e487b7160e01b600052602160045260246000fd5b6001600160a01b037f0000000000000000000000000000000000000000000000000000000000000000163014806113fb575b15611354577f000000000000000000000000000000000000000000000000000000000000000090565b60405160208101907f8b73c3c69bb8fe3d512ecc4cf759cc79239f7b179b0ffacaa9a75d522b39400f82527f000000000000000000000000000000000000000000000000000000000000000060408201527f000000000000000000000000000000000000000000000000000000000000000060608201524660808201523060a082015260a0815260c0810181811067ffffffffffffffff821117610e175760405251902090565b507f0000000000000000000000000000000000000000000000000000000000000000461461132b565b60ff811461147a5760ff811690601f8211611450576040519161144683610dfb565b8252602082015290565b60046040517fb3512b0c000000000000000000000000000000000000000000000000000000008152fd5b5060405160055481600061148d83610dc1565b8083529260019081811690811561151657506001146114b7575b506114b492500382610e2d565b90565b6005600090815291507f036b6384b5eca791c62761152d0c79bb0604c104a5fb6f4eb0703f3154bb3db05b8483106114fb57506114b49350508101602001386114a7565b819350908160209254838589010152019101909184926114e2565b9050602092506114b494915060ff191682840152151560051b820101386114a7565b60ff811461155a5760ff811690601f8211611450576040519161144683610dfb565b5060405160065481600061156d83610dc1565b80835292600190818116908115611516575060011461159357506114b492500382610e2d565b6006600090815291507ff652222313e28459528d920b65115c16c04f3efc82aaedc97be59f3f377c0d3f5b8483106115d757506114b49350508101602001386114a7565b819350908160209254838589010152019101909184926115be565b156115f957565b606460405162461bcd60e51b815260206004820152600e60248201527f454e4f54415554484f52495a45440000000000000000000000000000000000006044820152fd5b91908203918211610f6a57565b6001600160a01b0316908115610efb577fddf252ad1be2c89b69c2b068fc378daa952ba7f163c4a11628f55a4df523b3ef60208261168c600094600254610f5d565b60025584845283825260408420818154019055604051908152a3565b156116af57565b606460405162461bcd60e51b815260206004820152601460248201527f45494e53554646494349454e5442414c414e43450000000000000000000000006044820152fdfea264697066735822122004e56c7724e3833257211cbe122b75157829779c2aace3444b44239f5c1b2a7a64736f6c63430008140033",
  "devdoc": {
    "errors": {
      "ECDSAInvalidSignature()": [
        {
          "details": "The signature derives the `address(0)`."
        }
      ],
      "ECDSAInvalidSignatureLength(uint256)": [
        {
          "details": "The signature has an invalid length."
        }
      ],
      "ECDSAInvalidSignatureS(bytes32)": [
        {
          "details": "The signature has an S value that is in the upper half order."
        }
      ],
      "ERC20InsufficientAllowance(address,uint256,uint256)": [
        {
          "details": "Indicates a failure with the `spender`s `allowance`. Used in transfers.",
          "params": {
            "allowance": "Amount of tokens a `spender` is allowed to operate with.",
            "needed": "Minimum amount required to perform a transfer.",
            "spender": "Address that may be allowed to operate on tokens without being their owner."
          }
        }
      ],
      "ERC20InsufficientBalance(address,uint256,uint256)": [
        {
          "details": "Indicates an error related to the current `balance` of a `sender`. Used in transfers.",
          "params": {
            "balance": "Current balance for the interacting account.",
            "needed": "Minimum amount required to perform a transfer.",
            "sender": "Address whose tokens are being transferred."
          }
        }
      ],
      "ERC20InvalidApprover(address)": [
        {
          "details": "Indicates a failure with the `approver` of a token to be approved. Used in approvals.",
          "params": {
            "approver": "Address initiating an approval operation."
          }
        }
      ],
      "ERC20InvalidReceiver(address)": [
        {
          "details": "Indicates a failure with the token `receiver`. Used in transfers.",
          "params": {
            "receiver": "Address to which tokens are being transferred."
          }
        }
      ],
      "ERC20InvalidSender(address)": [
        {
          "details": "Indicates a failure with the token `sender`. Used in transfers.",
          "params": {
            "sender": "Address whose tokens are being transferred."
          }
        }
      ],
      "ERC20InvalidSpender(address)": [
        {
          "details": "Indicates a failure with the `spender` to be approved. Used in approvals.",
          "params": {
            "spender": "Address that may be allowed to operate on tokens without being their owner."
          }
        }
      ],
      "ERC2612ExpiredSignature(uint256)": [
        {
          "details": "Permit deadline has expired."
        }
      ],
      "ERC2612InvalidSigner(address,address)": [
        {
          "details": "Mismatched signature."
        }
      ],
      "InvalidAccountNonce(address,uint256)": [
        {
          "details": "The nonce used for an `account` is not the expected current nonce."
        }
      ]
    },
    "events": {
      "Approval(address,address,uint256)": {
        "details": "Emitted when the allowance of a `spender` for an `owner` is set by a call to {approve}. `value` is the new allowance."
      },
      "EIP712DomainChanged()": {
        "details": "MAY be emitted to signal that the domain could have changed."
      },
      "TokensLocked(address,uint256)": {
        "params": {
          "amount": "The amount of tokens locked",
          "user": "The user whose tokens were locked"
        }
      },
      "TokensUnlocked(address,uint256)": {
        "params": {
          "amount": "The amount of the tokens unlocked",
          "user": "The user whose tokens were unlocked"
        }
      },
      "Transfer(address,address,uint256)": {
        "details": "Emitted when `value` tokens are moved from one account (`from`) to another (`to`). Note that `value` may be zero."
      },
      "TransferFromUserToOwner(address,address,uint256)": {
        "params": {
          "amount": "Amount of tokens to be transferred.",
          "from": "Address of the user from whom the tokens will be transferred.",
          "owner": "Address of the owner to whom the tokens will be transferred."
        }
      }
    },
    "kind": "dev",
    "methods": {
      "DOMAIN_SEPARATOR()": {
        "details": "Returns the domain separator used in the encoding of the signature for {permit}, as defined by {EIP712}."
      },
      "allowance(address,address)": {
        "details": "See {IERC20-allowance}."
      },
      "approve(address,uint256)": {
        "details": "See {IERC20-approve}. NOTE: If `value` is the maximum `uint256`, the allowance is not updated on `transferFrom`. This is semantically equivalent to an infinite approval. Requirements: - `spender` cannot be the zero address."
      },
      "balanceOf(address)": {
        "details": "See {IERC20-balanceOf}."
      },
      "burn(uint256)": {
        "details": "Destroys a `value` amount of tokens from the caller. See {ERC20-_burn}."
      },
      "burnFrom(address,uint256)": {
        "details": "Destroys a `value` amount of tokens from `account`, deducting from the caller's allowance. See {ERC20-_burn} and {ERC20-allowance}. Requirements: - the caller must have allowance for ``accounts``'s tokens of at least `value`."
      },
      "constructor": {
        "params": {
          "_portalFoundation": "Address of the Portal Foundation."
        }
      },
      "decimals()": {
        "details": "Returns the number of decimals used to get its user representation. For example, if `decimals` equals `2`, a balance of `505` tokens should be displayed to a user as `5.05` (`505 / 10 ** 2`). Tokens usually opt for a value of 18, imitating the relationship between Ether and Wei. This is the default value returned by this function, unless it's overridden. NOTE: This information is only used for _display_ purposes: it in no way affects any of the arithmetic of the contract, including {IERC20-balanceOf} and {IERC20-transfer}."
      },
      "eip712Domain()": {
        "details": "See {IERC-5267}."
      },
      "getLockedTokens(address)": {
        "params": {
          "_user": "Address of the user whose locked tokens are to be retrieved"
        }
      },
      "lockTokens(uint256)": {
        "params": {
          "_amount": "Amount of tokens to be locked."
        }
      },
      "name()": {
        "details": "Returns the name of the token."
      },
      "nonces(address)": {
        "details": "Returns the current nonce for `owner`. This value must be included whenever a signature is generated for {permit}. Every successful call to {permit} increases ``owner``'s nonce by one. This prevents a signature from being used multiple times."
      },
      "permit(address,address,uint256,uint256,uint8,bytes32,bytes32)": {
        "details": "Sets `value` as the allowance of `spender` over ``owner``'s tokens, given ``owner``'s signed approval. IMPORTANT: The same issues {IERC20-approve} has related to transaction ordering also apply here. Emits an {Approval} event. Requirements: - `spender` cannot be the zero address. - `deadline` must be a timestamp in the future. - `v`, `r` and `s` must be a valid `secp256k1` signature from `owner` over the EIP712-formatted function arguments. - the signature must use ``owner``'s current nonce (see {nonces}). For more information on the signature format, see the https://eips.ethereum.org/EIPS/eip-2612#specification[relevant EIP section]. CAUTION: See Security Considerations above."
      },
      "symbol()": {
        "details": "Returns the symbol of the token, usually a shorter version of the name."
      },
      "totalSupply()": {
        "details": "See {IERC20-totalSupply}."
      },
      "transfer(address,uint256)": {
        "details": "See {IERC20-transfer}. Requirements: - `to` cannot be the zero address. - the caller must have a balance of at least `value`."
      },
      "transferFrom(address,address,uint256)": {
        "details": "See {IERC20-transferFrom}. Emits an {Approval} event indicating the updated allowance. This is not required by the EIP. See the note at the beginning of {ERC20}. NOTE: Does not update the allowance if the current allowance is the maximum `uint256`. Requirements: - `from` and `to` cannot be the zero address. - `from` must have a balance of at least `value`. - the caller must have allowance for ``from``'s tokens of at least `value`."
      },
      "transferFromUserToOwner(address,uint256)": {
        "params": {
          "_amount": "Amount of tokens to be transferred.",
          "_from": "Address of the user from whom the tokens will be transferred"
        }
      },
      "transferOwnership(address)": {
        "params": {
          "_newOwner": "Address of the new owner."
        }
      },
      "unlockTokens(address,uint256)": {
        "params": {
          "_amount": "Amount of tokens to be unlocked.",
          "_user": "Address of the user whose tokens are to be unlocked."
        }
      }
    },
    "title": "PORTAL Token Implementation of the PORTAL token, an ERC20 token with burn and permit capabilities. The token has a feature for locked tokens and ownership transitions.",
    "version": 1
  },
  "userdoc": {
    "events": {
      "TokensLocked(address,uint256)": {
        "notice": "Fired when a user locks tokens."
      },
      "TokensUnlocked(address,uint256)": {
        "notice": "Fired after a user loses the bidding process."
      },
      "TransferFromUserToOwner(address,address,uint256)": {
        "notice": "Fired upon transferring tokens from a user to the owner."
      }
    },
    "kind": "user",
    "methods": {
      "EPOCH_DURATION()": {
        "notice": "The duration of each epoch, set to 30 days."
      },
      "INITIAL_SUPPLY()": {
        "notice": "The total initial supply of PORTAL tokens, set to 70 million."
      },
      "constructor": {
        "notice": "Sets the initial values for the PORTAL token."
      },
      "getLockedTokens(address)": {
        "notice": "Returns the amount of locked tokens for a user."
      },
      "lastOwnershipTransition()": {
        "notice": "The timestamp of the last ownership transition."
      },
      "lockTokens(uint256)": {
        "notice": "Allows a user to lock their tokens until a specified time."
      },
      "lockedTokens(address)": {
        "notice": "Mapping from user address to their locked token information."
      },
      "mintableAmount()": {
        "notice": "The amount that can be minted in each ownership transition."
      },
      "owner()": {
        "notice": "The address of the owner of the contract."
      },
      "portalFoundation()": {
        "notice": "The address of the Portal Foundation."
      },
      "revertOwnershipToFoundation()": {
        "notice": "Reverts ownership to the Portal Foundation after a specific period."
      },
      "transferFromUserToOwner(address,uint256)": {
        "notice": "Transfers tokens from a user back to the owner. Can only be called by the owner."
      },
      "transferOwnership(address)": {
        "notice": "Transfers ownership of the PORTAL Token contract, with added minting logic. Can only be called by the current owner."
      },
      "unlockTokens(address,uint256)": {
        "notice": "Allows a user or the owner to unlock a specified amount of tokens."
      }
    },
    "version": 1
  },
  "storageLayout": {
    "storage": [
      {
        "astId": 3435,
        "contract": "contracts/PortalToken.sol:PortalToken",
        "label": "_balances",
        "offset": 0,
        "slot": "0",
        "type": "t_mapping(t_address,t_uint256)"
      },
      {
        "astId": 3441,
        "contract": "contracts/PortalToken.sol:PortalToken",
        "label": "_allowances",
        "offset": 0,
        "slot": "1",
        "type": "t_mapping(t_address,t_mapping(t_address,t_uint256))"
      },
      {
        "astId": 3443,
        "contract": "contracts/PortalToken.sol:PortalToken",
        "label": "_totalSupply",
        "offset": 0,
        "slot": "2",
        "type": "t_uint256"
      },
      {
        "astId": 3445,
        "contract": "contracts/PortalToken.sol:PortalToken",
        "label": "_name",
        "offset": 0,
        "slot": "3",
        "type": "t_string_storage"
      },
      {
        "astId": 3447,
        "contract": "contracts/PortalToken.sol:PortalToken",
        "label": "_symbol",
        "offset": 0,
        "slot": "4",
        "type": "t_string_storage"
      },
      {
        "astId": 5332,
        "contract": "contracts/PortalToken.sol:PortalToken",
        "label": "_nameFallback",
        "offset": 0,
        "slot": "5",
        "type": "t_string_storage"
      },
      {
        "astId": 5334,
        "contract": "contracts/PortalToken.sol:PortalToken",
        "label": "_versionFallback",
        "offset": 0,
        "slot": "6",
        "type": "t_string_storage"
      },
      {
        "astId": 4311,
        "contract": "contracts/PortalToken.sol:PortalToken",
        "label": "_nonces",
        "offset": 0,
        "slot": "7",
        "type": "t_mapping(t_address,t_uint256)"
      },
      {
        "astId": 12397,
        "contract": "contracts/PortalToken.sol:PortalToken",
        "label": "lastOwnershipTransition",
        "offset": 0,
        "slot": "8",
        "type": "t_uint256"
      },
      {
        "astId": 12400,
        "contract": "contracts/PortalToken.sol:PortalToken",
        "label": "mintableAmount",
        "offset": 0,
        "slot": "9",
        "type": "t_uint256"
      },
      {
        "astId": 12406,
        "contract": "contracts/PortalToken.sol:PortalToken",
        "label": "owner",
        "offset": 0,
        "slot": "10",
        "type": "t_address"
      },
      {
        "astId": 12411,
        "contract": "contracts/PortalToken.sol:PortalToken",
        "label": "lockedTokens",
        "offset": 0,
        "slot": "11",
        "type": "t_mapping(t_address,t_uint256)"
      }
    ],
    "types": {
      "t_address": {
        "encoding": "inplace",
        "label": "address",
        "numberOfBytes": "20"
      },
      "t_mapping(t_address,t_mapping(t_address,t_uint256))": {
        "encoding": "mapping",
        "key": "t_address",
        "label": "mapping(address => mapping(address => uint256))",
        "numberOfBytes": "32",
        "value": "t_mapping(t_address,t_uint256)"
      },
      "t_mapping(t_address,t_uint256)": {
        "encoding": "mapping",
        "key": "t_address",
        "label": "mapping(address => uint256)",
        "numberOfBytes": "32",
        "value": "t_uint256"
      },
      "t_string_storage": {
        "encoding": "bytes",
        "label": "string",
        "numberOfBytes": "32"
      },
      "t_uint256": {
        "encoding": "inplace",
        "label": "uint256",
        "numberOfBytes": "32"
      }
    }
  }
}